{"contracts/FragmentManager.sol":{"FragmentManager":{"abi":[{"inputs":[{"internalType":"address","name":"fragmentAddr","type":"address"},{"internalType":"address","name":"completeAddr","type":"address"},{"internalType":"address","name":"tokenAddr","type":"address"},{"internalType":"address","name":"initialOwner","type":"address"}],"stateMutability":"nonpayable","type":"constructor"},{"anonymous":false,"inputs":[{"indexed":true,"internalType":"address","name":"to","type":"address"},{"indexed":false,"internalType":"uint256","name":"id","type":"uint256"},{"indexed":false,"internalType":"string","name":"uri","type":"string"}],"name":"CompleteMinted","type":"event"},{"anonymous":false,"inputs":[{"indexed":true,"internalType":"address","name":"to","type":"address"},{"indexed":false,"internalType":"uint256","name":"id","type":"uint256"},{"indexed":false,"internalType":"string","name":"uri","type":"string"}],"name":"FragmentMinted","type":"event"},{"anonymous":false,"inputs":[{"indexed":true,"internalType":"address","name":"previousOwner","type":"address"},{"indexed":true,"internalType":"address","name":"newOwner","type":"address"}],"name":"OwnershipTransferred","type":"event"},{"inputs":[],"name":"complete","outputs":[{"internalType":"contract ICompleteCollectible","name":"","type":"address"}],"stateMutability":"view","type":"function"},{"inputs":[],"name":"fragment","outputs":[{"internalType":"contract IFragmentCollectible","name":"","type":"address"}],"stateMutability":"view","type":"function"},{"inputs":[],"name":"owner","outputs":[{"internalType":"address","name":"","type":"address"}],"stateMutability":"view","type":"function"},{"inputs":[],"name":"renounceOwnership","outputs":[],"stateMutability":"nonpayable","type":"function"},{"inputs":[{"internalType":"address","name":"to","type":"address"},{"internalType":"string","name":"tokenURI","type":"string"}],"name":"rewardComplete","outputs":[{"internalType":"uint256","name":"","type":"uint256"}],"stateMutability":"nonpayable","type":"function"},{"inputs":[{"internalType":"address","name":"to","type":"address"},{"internalType":"string","name":"tokenURI","type":"string"}],"name":"rewardFragment","outputs":[{"internalType":"uint256","name":"","type":"uint256"}],"stateMutability":"nonpayable","type":"function"},{"inputs":[{"internalType":"address","name":"newOwner","type":"address"}],"name":"transferOwnership","outputs":[],"stateMutability":"nonpayable","type":"function"},{"inputs":[],"name":"vaultToken","outputs":[{"internalType":"contract IERC20","name":"","type":"address"}],"stateMutability":"view","type":"function"}],"evm":{"bytecode":{"linkReferences":{},"object":"60806040523480156200001157600080fd5b506040516200116a3803806200116a8339818101604052810190620000379190620003bb565b620000576200004b6200013560201b60201c565b6200013d60201b60201c565b83600160006101000a81548173ffffffffffffffffffffffffffffffffffffffff021916908373ffffffffffffffffffffffffffffffffffffffff16021790555082600260006101000a81548173ffffffffffffffffffffffffffffffffffffffff021916908373ffffffffffffffffffffffffffffffffffffffff16021790555081600360006101000a81548173ffffffffffffffffffffffffffffffffffffffff021916908373ffffffffffffffffffffffffffffffffffffffff1602179055506200012b816200020160201b60201c565b5050505062000548565b600033905090565b60008060009054906101000a900473ffffffffffffffffffffffffffffffffffffffff169050816000806101000a81548173ffffffffffffffffffffffffffffffffffffffff021916908373ffffffffffffffffffffffffffffffffffffffff1602179055508173ffffffffffffffffffffffffffffffffffffffff168173ffffffffffffffffffffffffffffffffffffffff167f8be0079c531659141344cd1fd0a4f28419497f9722a3daafe3b4186f6b6457e060405160405180910390a35050565b620002116200029760201b60201c565b600073ffffffffffffffffffffffffffffffffffffffff168173ffffffffffffffffffffffffffffffffffffffff160362000283576040517f08c379a00000000000000000000000000000000000000000000000000000000081526004016200027a90620004b4565b60405180910390fd5b62000294816200013d60201b60201c565b50565b620002a76200013560201b60201c565b73ffffffffffffffffffffffffffffffffffffffff16620002cd6200032860201b60201c565b73ffffffffffffffffffffffffffffffffffffffff161462000326576040517f08c379a00000000000000000000000000000000000000000000000000000000081526004016200031d9062000526565b60405180910390fd5b565b60008060009054906101000a900473ffffffffffffffffffffffffffffffffffffffff16905090565b600080fd5b600073ffffffffffffffffffffffffffffffffffffffff82169050919050565b6000620003838262000356565b9050919050565b620003958162000376565b8114620003a157600080fd5b50565b600081519050620003b5816200038a565b92915050565b60008060008060808587031215620003d857620003d762000351565b5b6000620003e887828801620003a4565b9450506020620003fb87828801620003a4565b93505060406200040e87828801620003a4565b92505060606200042187828801620003a4565b91505092959194509250565b600082825260208201905092915050565b7f4f776e61626c653a206e6577206f776e657220697320746865207a65726f206160008201527f6464726573730000000000000000000000000000000000000000000000000000602082015250565b60006200049c6026836200042d565b9150620004a9826200043e565b604082019050919050565b60006020820190508181036000830152620004cf816200048d565b9050919050565b7f4f776e61626c653a2063616c6c6572206973206e6f7420746865206f776e6572600082015250565b60006200050e6020836200042d565b91506200051b82620004d6565b602082019050919050565b600060208201905081810360008301526200054181620004ff565b9050919050565b610c1280620005586000396000f3fe608060405234801561001057600080fd5b50600436106100885760003560e01c8063715018a61161005b578063715018a6146101295780638da5cb5b1461013357806390dc588514610151578063f2fde38b1461016f57610088565b80633650c9c51461008d57806348441be7146100bd578063522e1177146100ed578063703bafd51461010b575b600080fd5b6100a760048036038101906100a291906107cd565b61018b565b6040516100b49190610842565b60405180910390f35b6100d760048036038101906100d291906107cd565b610292565b6040516100e49190610842565b60405180910390f35b6100f5610399565b60405161010291906108bc565b60405180910390f35b6101136103bf565b60405161012091906108f8565b60405180910390f35b6101316103e5565b005b61013b6103f9565b6040516101489190610922565b60405180910390f35b610159610422565b604051610166919061095e565b60405180910390f35b61018960048036038101906101849190610979565b610448565b005b60006101956104cb565b6000600260009054906101000a900473ffffffffffffffffffffffffffffffffffffffff1673ffffffffffffffffffffffffffffffffffffffff166275a31785856040518363ffffffff1660e01b81526004016101f3929190610a25565b6020604051808303816000875af1158015610212573d6000803e3d6000fd5b505050506040513d601f19601f820116820180604052508101906102369190610a81565b90508373ffffffffffffffffffffffffffffffffffffffff167f899702da63e85913ec17d177e8749e240a1474d16071de95a4e07d8320a16dd68285604051610280929190610aae565b60405180910390a28091505092915050565b600061029c6104cb565b6000600160009054906101000a900473ffffffffffffffffffffffffffffffffffffffff1673ffffffffffffffffffffffffffffffffffffffff166275a31785856040518363ffffffff1660e01b81526004016102fa929190610a25565b6020604051808303816000875af1158015610319573d6000803e3d6000fd5b505050506040513d601f19601f8201168201806040525081019061033d9190610a81565b90508373ffffffffffffffffffffffffffffffffffffffff167ff852fc17b878a7786805b0f073dfdf4dd7637abddb6f3d3b3311f07b4f3f2f308285604051610387929190610aae565b60405180910390a28091505092915050565b600260009054906101000a900473ffffffffffffffffffffffffffffffffffffffff1681565b600360009054906101000a900473ffffffffffffffffffffffffffffffffffffffff1681565b6103ed6104cb565b6103f76000610549565b565b60008060009054906101000a900473ffffffffffffffffffffffffffffffffffffffff16905090565b600160009054906101000a900473ffffffffffffffffffffffffffffffffffffffff1681565b6104506104cb565b600073ffffffffffffffffffffffffffffffffffffffff168173ffffffffffffffffffffffffffffffffffffffff16036104bf576040517f08c379a00000000000000000000000000000000000000000000000000000000081526004016104b690610b50565b60405180910390fd5b6104c881610549565b50565b6104d361060d565b73ffffffffffffffffffffffffffffffffffffffff166104f16103f9565b73ffffffffffffffffffffffffffffffffffffffff1614610547576040517f08c379a000000000000000000000000000000000000000000000000000000000815260040161053e90610bbc565b60405180910390fd5b565b60008060009054906101000a900473ffffffffffffffffffffffffffffffffffffffff169050816000806101000a81548173ffffffffffffffffffffffffffffffffffffffff021916908373ffffffffffffffffffffffffffffffffffffffff1602179055508173ffffffffffffffffffffffffffffffffffffffff168173ffffffffffffffffffffffffffffffffffffffff167f8be0079c531659141344cd1fd0a4f28419497f9722a3daafe3b4186f6b6457e060405160405180910390a35050565b600033905090565b6000604051905090565b600080fd5b600080fd5b600073ffffffffffffffffffffffffffffffffffffffff82169050919050565b600061065482610629565b9050919050565b61066481610649565b811461066f57600080fd5b50565b6000813590506106818161065b565b92915050565b600080fd5b600080fd5b6000601f19601f8301169050919050565b7f4e487b7100000000000000000000000000000000000000000000000000000000600052604160045260246000fd5b6106da82610691565b810181811067ffffffffffffffff821117156106f9576106f86106a2565b5b80604052505050565b600061070c610615565b905061071882826106d1565b919050565b600067ffffffffffffffff821115610738576107376106a2565b5b61074182610691565b9050602081019050919050565b82818337600083830152505050565b600061077061076b8461071d565b610702565b90508281526020810184848401111561078c5761078b61068c565b5b61079784828561074e565b509392505050565b600082601f8301126107b4576107b3610687565b5b81356107c484826020860161075d565b91505092915050565b600080604083850312156107e4576107e361061f565b5b60006107f285828601610672565b925050602083013567ffffffffffffffff81111561081357610812610624565b5b61081f8582860161079f565b9150509250929050565b6000819050919050565b61083c81610829565b82525050565b60006020820190506108576000830184610833565b92915050565b6000819050919050565b600061088261087d61087884610629565b61085d565b610629565b9050919050565b600061089482610867565b9050919050565b60006108a682610889565b9050919050565b6108b68161089b565b82525050565b60006020820190506108d160008301846108ad565b92915050565b60006108e282610889565b9050919050565b6108f2816108d7565b82525050565b600060208201905061090d60008301846108e9565b92915050565b61091c81610649565b82525050565b60006020820190506109376000830184610913565b92915050565b600061094882610889565b9050919050565b6109588161093d565b82525050565b6000602082019050610973600083018461094f565b92915050565b60006020828403121561098f5761098e61061f565b5b600061099d84828501610672565b91505092915050565b600081519050919050565b600082825260208201905092915050565b60005b838110156109e05780820151818401526020810190506109c5565b60008484015250505050565b60006109f7826109a6565b610a0181856109b1565b9350610a118185602086016109c2565b610a1a81610691565b840191505092915050565b6000604082019050610a3a6000830185610913565b8181036020830152610a4c81846109ec565b90509392505050565b610a5e81610829565b8114610a6957600080fd5b50565b600081519050610a7b81610a55565b92915050565b600060208284031215610a9757610a9661061f565b5b6000610aa584828501610a6c565b91505092915050565b6000604082019050610ac36000830185610833565b8181036020830152610ad581846109ec565b90509392505050565b7f4f776e61626c653a206e6577206f776e657220697320746865207a65726f206160008201527f6464726573730000000000000000000000000000000000000000000000000000602082015250565b6000610b3a6026836109b1565b9150610b4582610ade565b604082019050919050565b60006020820190508181036000830152610b6981610b2d565b9050919050565b7f4f776e61626c653a2063616c6c6572206973206e6f7420746865206f776e6572600082015250565b6000610ba66020836109b1565b9150610bb182610b70565b602082019050919050565b60006020820190508181036000830152610bd581610b99565b905091905056fea2646970667358221220b9ca2d3dd3b734c0140e727b3ac63a7e9121df730f146a06e83a4a3ab3667be464736f6c63430008140033","opcodes":"PUSH1 0x80 PUSH1 0x40 MSTORE CALLVALUE DUP1 ISZERO PUSH3 0x11 JUMPI PUSH1 0x0 DUP1 REVERT JUMPDEST POP PUSH1 0x40 MLOAD PUSH3 0x116A CODESIZE SUB DUP1 PUSH3 0x116A DUP4 CODECOPY DUP2 DUP2 ADD PUSH1 0x40 MSTORE DUP2 ADD SWAP1 PUSH3 0x37 SWAP2 SWAP1 PUSH3 0x3BB JUMP JUMPDEST PUSH3 0x57 PUSH3 0x4B PUSH3 0x135 PUSH1 0x20 SHL PUSH1 0x20 SHR JUMP JUMPDEST PUSH3 0x13D PUSH1 0x20 SHL PUSH1 0x20 SHR JUMP JUMPDEST DUP4 PUSH1 0x1 PUSH1 0x0 PUSH2 0x100 EXP DUP2 SLOAD DUP2 PUSH20 0xFFFFFFFFFFFFFFFFFFFFFFFFFFFFFFFFFFFFFFFF MUL NOT AND SWAP1 DUP4 PUSH20 0xFFFFFFFFFFFFFFFFFFFFFFFFFFFFFFFFFFFFFFFF AND MUL OR SWAP1 SSTORE POP DUP3 PUSH1 0x2 PUSH1 0x0 PUSH2 0x100 EXP DUP2 SLOAD DUP2 PUSH20 0xFFFFFFFFFFFFFFFFFFFFFFFFFFFFFFFFFFFFFFFF MUL NOT AND SWAP1 DUP4 PUSH20 0xFFFFFFFFFFFFFFFFFFFFFFFFFFFFFFFFFFFFFFFF AND MUL OR SWAP1 SSTORE POP DUP2 PUSH1 0x3 PUSH1 0x0 PUSH2 0x100 EXP DUP2 SLOAD DUP2 PUSH20 0xFFFFFFFFFFFFFFFFFFFFFFFFFFFFFFFFFFFFFFFF MUL NOT AND SWAP1 DUP4 PUSH20 0xFFFFFFFFFFFFFFFFFFFFFFFFFFFFFFFFFFFFFFFF AND MUL OR SWAP1 SSTORE POP PUSH3 0x12B DUP2 PUSH3 0x201 PUSH1 0x20 SHL PUSH1 0x20 SHR JUMP JUMPDEST POP POP POP POP PUSH3 0x548 JUMP JUMPDEST PUSH1 0x0 CALLER SWAP1 POP SWAP1 JUMP JUMPDEST PUSH1 0x0 DUP1 PUSH1 0x0 SWAP1 SLOAD SWAP1 PUSH2 0x100 EXP SWAP1 DIV PUSH20 0xFFFFFFFFFFFFFFFFFFFFFFFFFFFFFFFFFFFFFFFF AND SWAP1 POP DUP2 PUSH1 0x0 DUP1 PUSH2 0x100 EXP DUP2 SLOAD DUP2 PUSH20 0xFFFFFFFFFFFFFFFFFFFFFFFFFFFFFFFFFFFFFFFF MUL NOT AND SWAP1 DUP4 PUSH20 0xFFFFFFFFFFFFFFFFFFFFFFFFFFFFFFFFFFFFFFFF AND MUL OR SWAP1 SSTORE POP DUP2 PUSH20 0xFFFFFFFFFFFFFFFFFFFFFFFFFFFFFFFFFFFFFFFF AND DUP2 PUSH20 0xFFFFFFFFFFFFFFFFFFFFFFFFFFFFFFFFFFFFFFFF AND PUSH32 0x8BE0079C531659141344CD1FD0A4F28419497F9722A3DAAFE3B4186F6B6457E0 PUSH1 0x40 MLOAD PUSH1 0x40 MLOAD DUP1 SWAP2 SUB SWAP1 LOG3 POP POP JUMP JUMPDEST PUSH3 0x211 PUSH3 0x297 PUSH1 0x20 SHL PUSH1 0x20 SHR JUMP JUMPDEST PUSH1 0x0 PUSH20 0xFFFFFFFFFFFFFFFFFFFFFFFFFFFFFFFFFFFFFFFF AND DUP2 PUSH20 0xFFFFFFFFFFFFFFFFFFFFFFFFFFFFFFFFFFFFFFFF AND SUB PUSH3 0x283 JUMPI PUSH1 0x40 MLOAD PUSH32 0x8C379A000000000000000000000000000000000000000000000000000000000 DUP2 MSTORE PUSH1 0x4 ADD PUSH3 0x27A SWAP1 PUSH3 0x4B4 JUMP JUMPDEST PUSH1 0x40 MLOAD DUP1 SWAP2 SUB SWAP1 REVERT JUMPDEST PUSH3 0x294 DUP2 PUSH3 0x13D PUSH1 0x20 SHL PUSH1 0x20 SHR JUMP JUMPDEST POP JUMP JUMPDEST PUSH3 0x2A7 PUSH3 0x135 PUSH1 0x20 SHL PUSH1 0x20 SHR JUMP JUMPDEST PUSH20 0xFFFFFFFFFFFFFFFFFFFFFFFFFFFFFFFFFFFFFFFF AND PUSH3 0x2CD PUSH3 0x328 PUSH1 0x20 SHL PUSH1 0x20 SHR JUMP JUMPDEST PUSH20 0xFFFFFFFFFFFFFFFFFFFFFFFFFFFFFFFFFFFFFFFF AND EQ PUSH3 0x326 JUMPI PUSH1 0x40 MLOAD PUSH32 0x8C379A000000000000000000000000000000000000000000000000000000000 DUP2 MSTORE PUSH1 0x4 ADD PUSH3 0x31D SWAP1 PUSH3 0x526 JUMP JUMPDEST PUSH1 0x40 MLOAD DUP1 SWAP2 SUB SWAP1 REVERT JUMPDEST JUMP JUMPDEST PUSH1 0x0 DUP1 PUSH1 0x0 SWAP1 SLOAD SWAP1 PUSH2 0x100 EXP SWAP1 DIV PUSH20 0xFFFFFFFFFFFFFFFFFFFFFFFFFFFFFFFFFFFFFFFF AND SWAP1 POP SWAP1 JUMP JUMPDEST PUSH1 0x0 DUP1 REVERT JUMPDEST PUSH1 0x0 PUSH20 0xFFFFFFFFFFFFFFFFFFFFFFFFFFFFFFFFFFFFFFFF DUP3 AND SWAP1 POP SWAP2 SWAP1 POP JUMP JUMPDEST PUSH1 0x0 PUSH3 0x383 DUP3 PUSH3 0x356 JUMP JUMPDEST SWAP1 POP SWAP2 SWAP1 POP JUMP JUMPDEST PUSH3 0x395 DUP2 PUSH3 0x376 JUMP JUMPDEST DUP2 EQ PUSH3 0x3A1 JUMPI PUSH1 0x0 DUP1 REVERT JUMPDEST POP JUMP JUMPDEST PUSH1 0x0 DUP2 MLOAD SWAP1 POP PUSH3 0x3B5 DUP2 PUSH3 0x38A JUMP JUMPDEST SWAP3 SWAP2 POP POP JUMP JUMPDEST PUSH1 0x0 DUP1 PUSH1 0x0 DUP1 PUSH1 0x80 DUP6 DUP8 SUB SLT ISZERO PUSH3 0x3D8 JUMPI PUSH3 0x3D7 PUSH3 0x351 JUMP JUMPDEST JUMPDEST PUSH1 0x0 PUSH3 0x3E8 DUP8 DUP3 DUP9 ADD PUSH3 0x3A4 JUMP JUMPDEST SWAP5 POP POP PUSH1 0x20 PUSH3 0x3FB DUP8 DUP3 DUP9 ADD PUSH3 0x3A4 JUMP JUMPDEST SWAP4 POP POP PUSH1 0x40 PUSH3 0x40E DUP8 DUP3 DUP9 ADD PUSH3 0x3A4 JUMP JUMPDEST SWAP3 POP POP PUSH1 0x60 PUSH3 0x421 DUP8 DUP3 DUP9 ADD PUSH3 0x3A4 JUMP JUMPDEST SWAP2 POP POP SWAP3 SWAP6 SWAP2 SWAP5 POP SWAP3 POP JUMP JUMPDEST PUSH1 0x0 DUP3 DUP3 MSTORE PUSH1 0x20 DUP3 ADD SWAP1 POP SWAP3 SWAP2 POP POP JUMP JUMPDEST PUSH32 0x4F776E61626C653A206E6577206F776E657220697320746865207A65726F2061 PUSH1 0x0 DUP3 ADD MSTORE PUSH32 0x6464726573730000000000000000000000000000000000000000000000000000 PUSH1 0x20 DUP3 ADD MSTORE POP JUMP JUMPDEST PUSH1 0x0 PUSH3 0x49C PUSH1 0x26 DUP4 PUSH3 0x42D JUMP JUMPDEST SWAP2 POP PUSH3 0x4A9 DUP3 PUSH3 0x43E JUMP JUMPDEST PUSH1 0x40 DUP3 ADD SWAP1 POP SWAP2 SWAP1 POP JUMP JUMPDEST PUSH1 0x0 PUSH1 0x20 DUP3 ADD SWAP1 POP DUP2 DUP2 SUB PUSH1 0x0 DUP4 ADD MSTORE PUSH3 0x4CF DUP2 PUSH3 0x48D JUMP JUMPDEST SWAP1 POP SWAP2 SWAP1 POP JUMP JUMPDEST PUSH32 0x4F776E61626C653A2063616C6C6572206973206E6F7420746865206F776E6572 PUSH1 0x0 DUP3 ADD MSTORE POP JUMP JUMPDEST PUSH1 0x0 PUSH3 0x50E PUSH1 0x20 DUP4 PUSH3 0x42D JUMP JUMPDEST SWAP2 POP PUSH3 0x51B DUP3 PUSH3 0x4D6 JUMP JUMPDEST PUSH1 0x20 DUP3 ADD SWAP1 POP SWAP2 SWAP1 POP JUMP JUMPDEST PUSH1 0x0 PUSH1 0x20 DUP3 ADD SWAP1 POP DUP2 DUP2 SUB PUSH1 0x0 DUP4 ADD MSTORE PUSH3 0x541 DUP2 PUSH3 0x4FF JUMP JUMPDEST SWAP1 POP SWAP2 SWAP1 POP JUMP JUMPDEST PUSH2 0xC12 DUP1 PUSH3 0x558 PUSH1 0x0 CODECOPY PUSH1 0x0 RETURN INVALID PUSH1 0x80 PUSH1 0x40 MSTORE CALLVALUE DUP1 ISZERO PUSH2 0x10 JUMPI PUSH1 0x0 DUP1 REVERT JUMPDEST POP PUSH1 0x4 CALLDATASIZE LT PUSH2 0x88 JUMPI PUSH1 0x0 CALLDATALOAD PUSH1 0xE0 SHR DUP1 PUSH4 0x715018A6 GT PUSH2 0x5B JUMPI DUP1 PUSH4 0x715018A6 EQ PUSH2 0x129 JUMPI DUP1 PUSH4 0x8DA5CB5B EQ PUSH2 0x133 JUMPI DUP1 PUSH4 0x90DC5885 EQ PUSH2 0x151 JUMPI DUP1 PUSH4 0xF2FDE38B EQ PUSH2 0x16F JUMPI PUSH2 0x88 JUMP JUMPDEST DUP1 PUSH4 0x3650C9C5 EQ PUSH2 0x8D JUMPI DUP1 PUSH4 0x48441BE7 EQ PUSH2 0xBD JUMPI DUP1 PUSH4 0x522E1177 EQ PUSH2 0xED JUMPI DUP1 PUSH4 0x703BAFD5 EQ PUSH2 0x10B JUMPI JUMPDEST PUSH1 0x0 DUP1 REVERT JUMPDEST PUSH2 0xA7 PUSH1 0x4 DUP1 CALLDATASIZE SUB DUP2 ADD SWAP1 PUSH2 0xA2 SWAP2 SWAP1 PUSH2 0x7CD JUMP JUMPDEST PUSH2 0x18B JUMP JUMPDEST PUSH1 0x40 MLOAD PUSH2 0xB4 SWAP2 SWAP1 PUSH2 0x842 JUMP JUMPDEST PUSH1 0x40 MLOAD DUP1 SWAP2 SUB SWAP1 RETURN JUMPDEST PUSH2 0xD7 PUSH1 0x4 DUP1 CALLDATASIZE SUB DUP2 ADD SWAP1 PUSH2 0xD2 SWAP2 SWAP1 PUSH2 0x7CD JUMP JUMPDEST PUSH2 0x292 JUMP JUMPDEST PUSH1 0x40 MLOAD PUSH2 0xE4 SWAP2 SWAP1 PUSH2 0x842 JUMP JUMPDEST PUSH1 0x40 MLOAD DUP1 SWAP2 SUB SWAP1 RETURN JUMPDEST PUSH2 0xF5 PUSH2 0x399 JUMP JUMPDEST PUSH1 0x40 MLOAD PUSH2 0x102 SWAP2 SWAP1 PUSH2 0x8BC JUMP JUMPDEST PUSH1 0x40 MLOAD DUP1 SWAP2 SUB SWAP1 RETURN JUMPDEST PUSH2 0x113 PUSH2 0x3BF JUMP JUMPDEST PUSH1 0x40 MLOAD PUSH2 0x120 SWAP2 SWAP1 PUSH2 0x8F8 JUMP JUMPDEST PUSH1 0x40 MLOAD DUP1 SWAP2 SUB SWAP1 RETURN JUMPDEST PUSH2 0x131 PUSH2 0x3E5 JUMP JUMPDEST STOP JUMPDEST PUSH2 0x13B PUSH2 0x3F9 JUMP JUMPDEST PUSH1 0x40 MLOAD PUSH2 0x148 SWAP2 SWAP1 PUSH2 0x922 JUMP JUMPDEST PUSH1 0x40 MLOAD DUP1 SWAP2 SUB SWAP1 RETURN JUMPDEST PUSH2 0x159 PUSH2 0x422 JUMP JUMPDEST PUSH1 0x40 MLOAD PUSH2 0x166 SWAP2 SWAP1 PUSH2 0x95E JUMP JUMPDEST PUSH1 0x40 MLOAD DUP1 SWAP2 SUB SWAP1 RETURN JUMPDEST PUSH2 0x189 PUSH1 0x4 DUP1 CALLDATASIZE SUB DUP2 ADD SWAP1 PUSH2 0x184 SWAP2 SWAP1 PUSH2 0x979 JUMP JUMPDEST PUSH2 0x448 JUMP JUMPDEST STOP JUMPDEST PUSH1 0x0 PUSH2 0x195 PUSH2 0x4CB JUMP JUMPDEST PUSH1 0x0 PUSH1 0x2 PUSH1 0x0 SWAP1 SLOAD SWAP1 PUSH2 0x100 EXP SWAP1 DIV PUSH20 0xFFFFFFFFFFFFFFFFFFFFFFFFFFFFFFFFFFFFFFFF AND PUSH20 0xFFFFFFFFFFFFFFFFFFFFFFFFFFFFFFFFFFFFFFFF AND PUSH3 0x75A317 DUP6 DUP6 PUSH1 0x40 MLOAD DUP4 PUSH4 0xFFFFFFFF AND PUSH1 0xE0 SHL DUP2 MSTORE PUSH1 0x4 ADD PUSH2 0x1F3 SWAP3 SWAP2 SWAP1 PUSH2 0xA25 JUMP JUMPDEST PUSH1 0x20 PUSH1 0x40 MLOAD DUP1 DUP4 SUB DUP2 PUSH1 0x0 DUP8 GAS CALL ISZERO DUP1 ISZERO PUSH2 0x212 JUMPI RETURNDATASIZE PUSH1 0x0 DUP1 RETURNDATACOPY RETURNDATASIZE PUSH1 0x0 REVERT JUMPDEST POP POP POP POP PUSH1 0x40 MLOAD RETURNDATASIZE PUSH1 0x1F NOT PUSH1 0x1F DUP3 ADD AND DUP3 ADD DUP1 PUSH1 0x40 MSTORE POP DUP2 ADD SWAP1 PUSH2 0x236 SWAP2 SWAP1 PUSH2 0xA81 JUMP JUMPDEST SWAP1 POP DUP4 PUSH20 0xFFFFFFFFFFFFFFFFFFFFFFFFFFFFFFFFFFFFFFFF AND PUSH32 0x899702DA63E85913EC17D177E8749E240A1474D16071DE95A4E07D8320A16DD6 DUP3 DUP6 PUSH1 0x40 MLOAD PUSH2 0x280 SWAP3 SWAP2 SWAP1 PUSH2 0xAAE JUMP JUMPDEST PUSH1 0x40 MLOAD DUP1 SWAP2 SUB SWAP1 LOG2 DUP1 SWAP2 POP POP SWAP3 SWAP2 POP POP JUMP JUMPDEST PUSH1 0x0 PUSH2 0x29C PUSH2 0x4CB JUMP JUMPDEST PUSH1 0x0 PUSH1 0x1 PUSH1 0x0 SWAP1 SLOAD SWAP1 PUSH2 0x100 EXP SWAP1 DIV PUSH20 0xFFFFFFFFFFFFFFFFFFFFFFFFFFFFFFFFFFFFFFFF AND PUSH20 0xFFFFFFFFFFFFFFFFFFFFFFFFFFFFFFFFFFFFFFFF AND PUSH3 0x75A317 DUP6 DUP6 PUSH1 0x40 MLOAD DUP4 PUSH4 0xFFFFFFFF AND PUSH1 0xE0 SHL DUP2 MSTORE PUSH1 0x4 ADD PUSH2 0x2FA SWAP3 SWAP2 SWAP1 PUSH2 0xA25 JUMP JUMPDEST PUSH1 0x20 PUSH1 0x40 MLOAD DUP1 DUP4 SUB DUP2 PUSH1 0x0 DUP8 GAS CALL ISZERO DUP1 ISZERO PUSH2 0x319 JUMPI RETURNDATASIZE PUSH1 0x0 DUP1 RETURNDATACOPY RETURNDATASIZE PUSH1 0x0 REVERT JUMPDEST POP POP POP POP PUSH1 0x40 MLOAD RETURNDATASIZE PUSH1 0x1F NOT PUSH1 0x1F DUP3 ADD AND DUP3 ADD DUP1 PUSH1 0x40 MSTORE POP DUP2 ADD SWAP1 PUSH2 0x33D SWAP2 SWAP1 PUSH2 0xA81 JUMP JUMPDEST SWAP1 POP DUP4 PUSH20 0xFFFFFFFFFFFFFFFFFFFFFFFFFFFFFFFFFFFFFFFF AND PUSH32 0xF852FC17B878A7786805B0F073DFDF4DD7637ABDDB6F3D3B3311F07B4F3F2F30 DUP3 DUP6 PUSH1 0x40 MLOAD PUSH2 0x387 SWAP3 SWAP2 SWAP1 PUSH2 0xAAE JUMP JUMPDEST PUSH1 0x40 MLOAD DUP1 SWAP2 SUB SWAP1 LOG2 DUP1 SWAP2 POP POP SWAP3 SWAP2 POP POP JUMP JUMPDEST PUSH1 0x2 PUSH1 0x0 SWAP1 SLOAD SWAP1 PUSH2 0x100 EXP SWAP1 DIV PUSH20 0xFFFFFFFFFFFFFFFFFFFFFFFFFFFFFFFFFFFFFFFF AND DUP2 JUMP JUMPDEST PUSH1 0x3 PUSH1 0x0 SWAP1 SLOAD SWAP1 PUSH2 0x100 EXP SWAP1 DIV PUSH20 0xFFFFFFFFFFFFFFFFFFFFFFFFFFFFFFFFFFFFFFFF AND DUP2 JUMP JUMPDEST PUSH2 0x3ED PUSH2 0x4CB JUMP JUMPDEST PUSH2 0x3F7 PUSH1 0x0 PUSH2 0x549 JUMP JUMPDEST JUMP JUMPDEST PUSH1 0x0 DUP1 PUSH1 0x0 SWAP1 SLOAD SWAP1 PUSH2 0x100 EXP SWAP1 DIV PUSH20 0xFFFFFFFFFFFFFFFFFFFFFFFFFFFFFFFFFFFFFFFF AND SWAP1 POP SWAP1 JUMP JUMPDEST PUSH1 0x1 PUSH1 0x0 SWAP1 SLOAD SWAP1 PUSH2 0x100 EXP SWAP1 DIV PUSH20 0xFFFFFFFFFFFFFFFFFFFFFFFFFFFFFFFFFFFFFFFF AND DUP2 JUMP JUMPDEST PUSH2 0x450 PUSH2 0x4CB JUMP JUMPDEST PUSH1 0x0 PUSH20 0xFFFFFFFFFFFFFFFFFFFFFFFFFFFFFFFFFFFFFFFF AND DUP2 PUSH20 0xFFFFFFFFFFFFFFFFFFFFFFFFFFFFFFFFFFFFFFFF AND SUB PUSH2 0x4BF JUMPI PUSH1 0x40 MLOAD PUSH32 0x8C379A000000000000000000000000000000000000000000000000000000000 DUP2 MSTORE PUSH1 0x4 ADD PUSH2 0x4B6 SWAP1 PUSH2 0xB50 JUMP JUMPDEST PUSH1 0x40 MLOAD DUP1 SWAP2 SUB SWAP1 REVERT JUMPDEST PUSH2 0x4C8 DUP2 PUSH2 0x549 JUMP JUMPDEST POP JUMP JUMPDEST PUSH2 0x4D3 PUSH2 0x60D JUMP JUMPDEST PUSH20 0xFFFFFFFFFFFFFFFFFFFFFFFFFFFFFFFFFFFFFFFF AND PUSH2 0x4F1 PUSH2 0x3F9 JUMP JUMPDEST PUSH20 0xFFFFFFFFFFFFFFFFFFFFFFFFFFFFFFFFFFFFFFFF AND EQ PUSH2 0x547 JUMPI PUSH1 0x40 MLOAD PUSH32 0x8C379A000000000000000000000000000000000000000000000000000000000 DUP2 MSTORE PUSH1 0x4 ADD PUSH2 0x53E SWAP1 PUSH2 0xBBC JUMP JUMPDEST PUSH1 0x40 MLOAD DUP1 SWAP2 SUB SWAP1 REVERT JUMPDEST JUMP JUMPDEST PUSH1 0x0 DUP1 PUSH1 0x0 SWAP1 SLOAD SWAP1 PUSH2 0x100 EXP SWAP1 DIV PUSH20 0xFFFFFFFFFFFFFFFFFFFFFFFFFFFFFFFFFFFFFFFF AND SWAP1 POP DUP2 PUSH1 0x0 DUP1 PUSH2 0x100 EXP DUP2 SLOAD DUP2 PUSH20 0xFFFFFFFFFFFFFFFFFFFFFFFFFFFFFFFFFFFFFFFF MUL NOT AND SWAP1 DUP4 PUSH20 0xFFFFFFFFFFFFFFFFFFFFFFFFFFFFFFFFFFFFFFFF AND MUL OR SWAP1 SSTORE POP DUP2 PUSH20 0xFFFFFFFFFFFFFFFFFFFFFFFFFFFFFFFFFFFFFFFF AND DUP2 PUSH20 0xFFFFFFFFFFFFFFFFFFFFFFFFFFFFFFFFFFFFFFFF AND PUSH32 0x8BE0079C531659141344CD1FD0A4F28419497F9722A3DAAFE3B4186F6B6457E0 PUSH1 0x40 MLOAD PUSH1 0x40 MLOAD DUP1 SWAP2 SUB SWAP1 LOG3 POP POP JUMP JUMPDEST PUSH1 0x0 CALLER SWAP1 POP SWAP1 JUMP JUMPDEST PUSH1 0x0 PUSH1 0x40 MLOAD SWAP1 POP SWAP1 JUMP JUMPDEST PUSH1 0x0 DUP1 REVERT JUMPDEST PUSH1 0x0 DUP1 REVERT JUMPDEST PUSH1 0x0 PUSH20 0xFFFFFFFFFFFFFFFFFFFFFFFFFFFFFFFFFFFFFFFF DUP3 AND SWAP1 POP SWAP2 SWAP1 POP JUMP JUMPDEST PUSH1 0x0 PUSH2 0x654 DUP3 PUSH2 0x629 JUMP JUMPDEST SWAP1 POP SWAP2 SWAP1 POP JUMP JUMPDEST PUSH2 0x664 DUP2 PUSH2 0x649 JUMP JUMPDEST DUP2 EQ PUSH2 0x66F JUMPI PUSH1 0x0 DUP1 REVERT JUMPDEST POP JUMP JUMPDEST PUSH1 0x0 DUP2 CALLDATALOAD SWAP1 POP PUSH2 0x681 DUP2 PUSH2 0x65B JUMP JUMPDEST SWAP3 SWAP2 POP POP JUMP JUMPDEST PUSH1 0x0 DUP1 REVERT JUMPDEST PUSH1 0x0 DUP1 REVERT JUMPDEST PUSH1 0x0 PUSH1 0x1F NOT PUSH1 0x1F DUP4 ADD AND SWAP1 POP SWAP2 SWAP1 POP JUMP JUMPDEST PUSH32 0x4E487B7100000000000000000000000000000000000000000000000000000000 PUSH1 0x0 MSTORE PUSH1 0x41 PUSH1 0x4 MSTORE PUSH1 0x24 PUSH1 0x0 REVERT JUMPDEST PUSH2 0x6DA DUP3 PUSH2 0x691 JUMP JUMPDEST DUP2 ADD DUP2 DUP2 LT PUSH8 0xFFFFFFFFFFFFFFFF DUP3 GT OR ISZERO PUSH2 0x6F9 JUMPI PUSH2 0x6F8 PUSH2 0x6A2 JUMP JUMPDEST JUMPDEST DUP1 PUSH1 0x40 MSTORE POP POP POP JUMP JUMPDEST PUSH1 0x0 PUSH2 0x70C PUSH2 0x615 JUMP JUMPDEST SWAP1 POP PUSH2 0x718 DUP3 DUP3 PUSH2 0x6D1 JUMP JUMPDEST SWAP2 SWAP1 POP JUMP JUMPDEST PUSH1 0x0 PUSH8 0xFFFFFFFFFFFFFFFF DUP3 GT ISZERO PUSH2 0x738 JUMPI PUSH2 0x737 PUSH2 0x6A2 JUMP JUMPDEST JUMPDEST PUSH2 0x741 DUP3 PUSH2 0x691 JUMP JUMPDEST SWAP1 POP PUSH1 0x20 DUP2 ADD SWAP1 POP SWAP2 SWAP1 POP JUMP JUMPDEST DUP3 DUP2 DUP4 CALLDATACOPY PUSH1 0x0 DUP4 DUP4 ADD MSTORE POP POP POP JUMP JUMPDEST PUSH1 0x0 PUSH2 0x770 PUSH2 0x76B DUP5 PUSH2 0x71D JUMP JUMPDEST PUSH2 0x702 JUMP JUMPDEST SWAP1 POP DUP3 DUP2 MSTORE PUSH1 0x20 DUP2 ADD DUP5 DUP5 DUP5 ADD GT ISZERO PUSH2 0x78C JUMPI PUSH2 0x78B PUSH2 0x68C JUMP JUMPDEST JUMPDEST PUSH2 0x797 DUP5 DUP3 DUP6 PUSH2 0x74E JUMP JUMPDEST POP SWAP4 SWAP3 POP POP POP JUMP JUMPDEST PUSH1 0x0 DUP3 PUSH1 0x1F DUP4 ADD SLT PUSH2 0x7B4 JUMPI PUSH2 0x7B3 PUSH2 0x687 JUMP JUMPDEST JUMPDEST DUP2 CALLDATALOAD PUSH2 0x7C4 DUP5 DUP3 PUSH1 0x20 DUP7 ADD PUSH2 0x75D JUMP JUMPDEST SWAP2 POP POP SWAP3 SWAP2 POP POP JUMP JUMPDEST PUSH1 0x0 DUP1 PUSH1 0x40 DUP4 DUP6 SUB SLT ISZERO PUSH2 0x7E4 JUMPI PUSH2 0x7E3 PUSH2 0x61F JUMP JUMPDEST JUMPDEST PUSH1 0x0 PUSH2 0x7F2 DUP6 DUP3 DUP7 ADD PUSH2 0x672 JUMP JUMPDEST SWAP3 POP POP PUSH1 0x20 DUP4 ADD CALLDATALOAD PUSH8 0xFFFFFFFFFFFFFFFF DUP2 GT ISZERO PUSH2 0x813 JUMPI PUSH2 0x812 PUSH2 0x624 JUMP JUMPDEST JUMPDEST PUSH2 0x81F DUP6 DUP3 DUP7 ADD PUSH2 0x79F JUMP JUMPDEST SWAP2 POP POP SWAP3 POP SWAP3 SWAP1 POP JUMP JUMPDEST PUSH1 0x0 DUP2 SWAP1 POP SWAP2 SWAP1 POP JUMP JUMPDEST PUSH2 0x83C DUP2 PUSH2 0x829 JUMP JUMPDEST DUP3 MSTORE POP POP JUMP JUMPDEST PUSH1 0x0 PUSH1 0x20 DUP3 ADD SWAP1 POP PUSH2 0x857 PUSH1 0x0 DUP4 ADD DUP5 PUSH2 0x833 JUMP JUMPDEST SWAP3 SWAP2 POP POP JUMP JUMPDEST PUSH1 0x0 DUP2 SWAP1 POP SWAP2 SWAP1 POP JUMP JUMPDEST PUSH1 0x0 PUSH2 0x882 PUSH2 0x87D PUSH2 0x878 DUP5 PUSH2 0x629 JUMP JUMPDEST PUSH2 0x85D JUMP JUMPDEST PUSH2 0x629 JUMP JUMPDEST SWAP1 POP SWAP2 SWAP1 POP JUMP JUMPDEST PUSH1 0x0 PUSH2 0x894 DUP3 PUSH2 0x867 JUMP JUMPDEST SWAP1 POP SWAP2 SWAP1 POP JUMP JUMPDEST PUSH1 0x0 PUSH2 0x8A6 DUP3 PUSH2 0x889 JUMP JUMPDEST SWAP1 POP SWAP2 SWAP1 POP JUMP JUMPDEST PUSH2 0x8B6 DUP2 PUSH2 0x89B JUMP JUMPDEST DUP3 MSTORE POP POP JUMP JUMPDEST PUSH1 0x0 PUSH1 0x20 DUP3 ADD SWAP1 POP PUSH2 0x8D1 PUSH1 0x0 DUP4 ADD DUP5 PUSH2 0x8AD JUMP JUMPDEST SWAP3 SWAP2 POP POP JUMP JUMPDEST PUSH1 0x0 PUSH2 0x8E2 DUP3 PUSH2 0x889 JUMP JUMPDEST SWAP1 POP SWAP2 SWAP1 POP JUMP JUMPDEST PUSH2 0x8F2 DUP2 PUSH2 0x8D7 JUMP JUMPDEST DUP3 MSTORE POP POP JUMP JUMPDEST PUSH1 0x0 PUSH1 0x20 DUP3 ADD SWAP1 POP PUSH2 0x90D PUSH1 0x0 DUP4 ADD DUP5 PUSH2 0x8E9 JUMP JUMPDEST SWAP3 SWAP2 POP POP JUMP JUMPDEST PUSH2 0x91C DUP2 PUSH2 0x649 JUMP JUMPDEST DUP3 MSTORE POP POP JUMP JUMPDEST PUSH1 0x0 PUSH1 0x20 DUP3 ADD SWAP1 POP PUSH2 0x937 PUSH1 0x0 DUP4 ADD DUP5 PUSH2 0x913 JUMP JUMPDEST SWAP3 SWAP2 POP POP JUMP JUMPDEST PUSH1 0x0 PUSH2 0x948 DUP3 PUSH2 0x889 JUMP JUMPDEST SWAP1 POP SWAP2 SWAP1 POP JUMP JUMPDEST PUSH2 0x958 DUP2 PUSH2 0x93D JUMP JUMPDEST DUP3 MSTORE POP POP JUMP JUMPDEST PUSH1 0x0 PUSH1 0x20 DUP3 ADD SWAP1 POP PUSH2 0x973 PUSH1 0x0 DUP4 ADD DUP5 PUSH2 0x94F JUMP JUMPDEST SWAP3 SWAP2 POP POP JUMP JUMPDEST PUSH1 0x0 PUSH1 0x20 DUP3 DUP5 SUB SLT ISZERO PUSH2 0x98F JUMPI PUSH2 0x98E PUSH2 0x61F JUMP JUMPDEST JUMPDEST PUSH1 0x0 PUSH2 0x99D DUP5 DUP3 DUP6 ADD PUSH2 0x672 JUMP JUMPDEST SWAP2 POP POP SWAP3 SWAP2 POP POP JUMP JUMPDEST PUSH1 0x0 DUP2 MLOAD SWAP1 POP SWAP2 SWAP1 POP JUMP JUMPDEST PUSH1 0x0 DUP3 DUP3 MSTORE PUSH1 0x20 DUP3 ADD SWAP1 POP SWAP3 SWAP2 POP POP JUMP JUMPDEST PUSH1 0x0 JUMPDEST DUP4 DUP2 LT ISZERO PUSH2 0x9E0 JUMPI DUP1 DUP3 ADD MLOAD DUP2 DUP5 ADD MSTORE PUSH1 0x20 DUP2 ADD SWAP1 POP PUSH2 0x9C5 JUMP JUMPDEST PUSH1 0x0 DUP5 DUP5 ADD MSTORE POP POP POP POP JUMP JUMPDEST PUSH1 0x0 PUSH2 0x9F7 DUP3 PUSH2 0x9A6 JUMP JUMPDEST PUSH2 0xA01 DUP2 DUP6 PUSH2 0x9B1 JUMP JUMPDEST SWAP4 POP PUSH2 0xA11 DUP2 DUP6 PUSH1 0x20 DUP7 ADD PUSH2 0x9C2 JUMP JUMPDEST PUSH2 0xA1A DUP2 PUSH2 0x691 JUMP JUMPDEST DUP5 ADD SWAP2 POP POP SWAP3 SWAP2 POP POP JUMP JUMPDEST PUSH1 0x0 PUSH1 0x40 DUP3 ADD SWAP1 POP PUSH2 0xA3A PUSH1 0x0 DUP4 ADD DUP6 PUSH2 0x913 JUMP JUMPDEST DUP2 DUP2 SUB PUSH1 0x20 DUP4 ADD MSTORE PUSH2 0xA4C DUP2 DUP5 PUSH2 0x9EC JUMP JUMPDEST SWAP1 POP SWAP4 SWAP3 POP POP POP JUMP JUMPDEST PUSH2 0xA5E DUP2 PUSH2 0x829 JUMP JUMPDEST DUP2 EQ PUSH2 0xA69 JUMPI PUSH1 0x0 DUP1 REVERT JUMPDEST POP JUMP JUMPDEST PUSH1 0x0 DUP2 MLOAD SWAP1 POP PUSH2 0xA7B DUP2 PUSH2 0xA55 JUMP JUMPDEST SWAP3 SWAP2 POP POP JUMP JUMPDEST PUSH1 0x0 PUSH1 0x20 DUP3 DUP5 SUB SLT ISZERO PUSH2 0xA97 JUMPI PUSH2 0xA96 PUSH2 0x61F JUMP JUMPDEST JUMPDEST PUSH1 0x0 PUSH2 0xAA5 DUP5 DUP3 DUP6 ADD PUSH2 0xA6C JUMP JUMPDEST SWAP2 POP POP SWAP3 SWAP2 POP POP JUMP JUMPDEST PUSH1 0x0 PUSH1 0x40 DUP3 ADD SWAP1 POP PUSH2 0xAC3 PUSH1 0x0 DUP4 ADD DUP6 PUSH2 0x833 JUMP JUMPDEST DUP2 DUP2 SUB PUSH1 0x20 DUP4 ADD MSTORE PUSH2 0xAD5 DUP2 DUP5 PUSH2 0x9EC JUMP JUMPDEST SWAP1 POP SWAP4 SWAP3 POP POP POP JUMP JUMPDEST PUSH32 0x4F776E61626C653A206E6577206F776E657220697320746865207A65726F2061 PUSH1 0x0 DUP3 ADD MSTORE PUSH32 0x6464726573730000000000000000000000000000000000000000000000000000 PUSH1 0x20 DUP3 ADD MSTORE POP JUMP JUMPDEST PUSH1 0x0 PUSH2 0xB3A PUSH1 0x26 DUP4 PUSH2 0x9B1 JUMP JUMPDEST SWAP2 POP PUSH2 0xB45 DUP3 PUSH2 0xADE JUMP JUMPDEST PUSH1 0x40 DUP3 ADD SWAP1 POP SWAP2 SWAP1 POP JUMP JUMPDEST PUSH1 0x0 PUSH1 0x20 DUP3 ADD SWAP1 POP DUP2 DUP2 SUB PUSH1 0x0 DUP4 ADD MSTORE PUSH2 0xB69 DUP2 PUSH2 0xB2D JUMP JUMPDEST SWAP1 POP SWAP2 SWAP1 POP JUMP JUMPDEST PUSH32 0x4F776E61626C653A2063616C6C6572206973206E6F7420746865206F776E6572 PUSH1 0x0 DUP3 ADD MSTORE POP JUMP JUMPDEST PUSH1 0x0 PUSH2 0xBA6 PUSH1 0x20 DUP4 PUSH2 0x9B1 JUMP JUMPDEST SWAP2 POP PUSH2 0xBB1 DUP3 PUSH2 0xB70 JUMP JUMPDEST PUSH1 0x20 DUP3 ADD SWAP1 POP SWAP2 SWAP1 POP JUMP JUMPDEST PUSH1 0x0 PUSH1 0x20 DUP3 ADD SWAP1 POP DUP2 DUP2 SUB PUSH1 0x0 DUP4 ADD MSTORE PUSH2 0xBD5 DUP2 PUSH2 0xB99 JUMP JUMPDEST SWAP1 POP SWAP2 SWAP1 POP JUMP INVALID LOG2 PUSH5 0x6970667358 0x22 SLT KECCAK256 0xB9 0xCA 0x2D RETURNDATASIZE 0xD3 0xB7 CALLVALUE 0xC0 EQ 0xE PUSH19 0x7B3AC63A7E9121DF730F146A06E83A4A3AB366 PUSH28 0xE464736F6C6343000814003300000000000000000000000000000000 "},"methodIdentifiers":{"complete()":"522e1177","fragment()":"90dc5885","owner()":"8da5cb5b","renounceOwnership()":"715018a6","rewardComplete(address,string)":"3650c9c5","rewardFragment(address,string)":"48441be7","transferOwnership(address)":"f2fde38b","vaultToken()":"703bafd5"}}}}}