{"contracts/vaultnet.sol":{"VaultNet":{"abi":[{"inputs":[{"internalType":"address","name":"managerAddr","type":"address"},{"internalType":"uint256","name":"_rewardTemplateId","type":"uint256"},{"internalType":"address","name":"initialOwner","type":"address"}],"stateMutability":"nonpayable","type":"constructor"},{"anonymous":false,"inputs":[{"indexed":true,"internalType":"uint256","name":"modelId","type":"uint256"},{"indexed":true,"internalType":"address","name":"buyer","type":"address"},{"indexed":false,"internalType":"uint256","name":"price","type":"uint256"}],"name":"ModelPurchased","type":"event"},{"anonymous":false,"inputs":[{"indexed":true,"internalType":"uint256","name":"modelId","type":"uint256"},{"indexed":false,"internalType":"string","name":"newCid","type":"string"},{"indexed":false,"internalType":"uint256","name":"newVersion","type":"uint256"}],"name":"ModelUpdated","type":"event"},{"anonymous":false,"inputs":[{"indexed":true,"internalType":"uint256","name":"modelId","type":"uint256"},{"indexed":true,"internalType":"address","name":"uploader","type":"address"},{"indexed":false,"internalType":"string","name":"cid","type":"string"},{"indexed":false,"internalType":"uint256","name":"price","type":"uint256"}],"name":"ModelUploaded","type":"event"},{"anonymous":false,"inputs":[{"indexed":true,"internalType":"address","name":"previousOwner","type":"address"},{"indexed":true,"internalType":"address","name":"newOwner","type":"address"}],"name":"OwnershipTransferred","type":"event"},{"inputs":[{"internalType":"uint256","name":"modelId","type":"uint256"}],"name":"buyModel","outputs":[],"stateMutability":"payable","type":"function"},{"inputs":[],"name":"fragmentManager","outputs":[{"internalType":"contract IFragmentManager","name":"","type":"address"}],"stateMutability":"view","type":"function"},{"inputs":[],"name":"modelCounter","outputs":[{"internalType":"uint256","name":"","type":"uint256"}],"stateMutability":"view","type":"function"},{"inputs":[{"internalType":"uint256","name":"","type":"uint256"}],"name":"models","outputs":[{"internalType":"address","name":"uploader","type":"address"},{"internalType":"string","name":"cid","type":"string"},{"internalType":"uint256","name":"price","type":"uint256"},{"internalType":"uint256","name":"version","type":"uint256"},{"internalType":"bool","name":"exists","type":"bool"}],"stateMutability":"view","type":"function"},{"inputs":[],"name":"owner","outputs":[{"internalType":"address","name":"","type":"address"}],"stateMutability":"view","type":"function"},{"inputs":[],"name":"renounceOwnership","outputs":[],"stateMutability":"nonpayable","type":"function"},{"inputs":[],"name":"rewardTemplateId","outputs":[{"internalType":"uint256","name":"","type":"uint256"}],"stateMutability":"view","type":"function"},{"inputs":[{"internalType":"address","name":"newManager","type":"address"}],"name":"setFragmentManager","outputs":[],"stateMutability":"nonpayable","type":"function"},{"inputs":[{"internalType":"address","name":"newOwner","type":"address"}],"name":"transferOwnership","outputs":[],"stateMutability":"nonpayable","type":"function"},{"inputs":[{"internalType":"uint256","name":"modelId","type":"uint256"},{"internalType":"string","name":"newCid","type":"string"}],"name":"updateModel","outputs":[],"stateMutability":"nonpayable","type":"function"},{"inputs":[{"internalType":"string","name":"cid","type":"string"},{"internalType":"uint256","name":"price","type":"uint256"}],"name":"uploadModel","outputs":[{"internalType":"uint256","name":"","type":"uint256"}],"stateMutability":"nonpayable","type":"function"},{"inputs":[],"name":"vaultToken","outputs":[{"internalType":"contract IERC20","name":"","type":"address"}],"stateMutability":"view","type":"function"},{"inputs":[{"internalType":"address payable","name":"to","type":"address"}],"name":"withdraw","outputs":[],"stateMutability":"nonpayable","type":"function"}],"evm":{"bytecode":{"linkReferences":{},"object":"60806040523480156200001157600080fd5b506040516200220638038062002206833981810160405281019062000037919062000381565b620000576200004b620000c060201b60201c565b620000c860201b60201c565b6001808190555082600560006101000a81548173ffffffffffffffffffffffffffffffffffffffff021916908373ffffffffffffffffffffffffffffffffffffffff16021790555081600681905550620000b7816200018c60201b60201c565b505050620004f8565b600033905090565b60008060009054906101000a900473ffffffffffffffffffffffffffffffffffffffff169050816000806101000a81548173ffffffffffffffffffffffffffffffffffffffff021916908373ffffffffffffffffffffffffffffffffffffffff1602179055508173ffffffffffffffffffffffffffffffffffffffff168173ffffffffffffffffffffffffffffffffffffffff167f8be0079c531659141344cd1fd0a4f28419497f9722a3daafe3b4186f6b6457e060405160405180910390a35050565b6200019c6200022260201b60201c565b600073ffffffffffffffffffffffffffffffffffffffff168173ffffffffffffffffffffffffffffffffffffffff16036200020e576040517f08c379a0000000000000000000000000000000000000000000000000000000008152600401620002059062000464565b60405180910390fd5b6200021f81620000c860201b60201c565b50565b62000232620000c060201b60201c565b73ffffffffffffffffffffffffffffffffffffffff1662000258620002b360201b60201c565b73ffffffffffffffffffffffffffffffffffffffff1614620002b1576040517f08c379a0000000000000000000000000000000000000000000000000000000008152600401620002a890620004d6565b60405180910390fd5b565b60008060009054906101000a900473ffffffffffffffffffffffffffffffffffffffff16905090565b600080fd5b600073ffffffffffffffffffffffffffffffffffffffff82169050919050565b60006200030e82620002e1565b9050919050565b620003208162000301565b81146200032c57600080fd5b50565b600081519050620003408162000315565b92915050565b6000819050919050565b6200035b8162000346565b81146200036757600080fd5b50565b6000815190506200037b8162000350565b92915050565b6000806000606084860312156200039d576200039c620002dc565b5b6000620003ad868287016200032f565b9350506020620003c0868287016200036a565b9250506040620003d3868287016200032f565b9150509250925092565b600082825260208201905092915050565b7f4f776e61626c653a206e6577206f776e657220697320746865207a65726f206160008201527f6464726573730000000000000000000000000000000000000000000000000000602082015250565b60006200044c602683620003dd565b91506200045982620003ee565b604082019050919050565b600060208201905081810360008301526200047f816200043d565b9050919050565b7f4f776e61626c653a2063616c6c6572206973206e6f7420746865206f776e6572600082015250565b6000620004be602083620003dd565b9150620004cb8262000486565b602082019050919050565b60006020820190508181036000830152620004f181620004af565b9050919050565b611cfe80620005086000396000f3fe6080604052600436106100c25760003560e01c8063923f5a591161007f578063cc408b8a11610059578063cc408b8a14610249578063eeb7cfa314610274578063f2fde38b1461029f578063fbe5dd34146102c8576100c2565b8063923f5a59146101c7578063bcbd468414610204578063bf6a6fc11461022d576100c2565b806351cff8d9146100c75780636a030ca9146100f0578063703bafd514610131578063715018a61461015c5780638916af42146101735780638da5cb5b1461019c575b600080fd5b3480156100d357600080fd5b506100ee60048036038101906100e99190610ed8565b6102f3565b005b3480156100fc57600080fd5b5061011760048036038101906101129190610f3b565b6103f4565b604051610128959493929190611043565b60405180910390f35b34801561013d57600080fd5b506101466104df565b60405161015391906110fc565b60405180910390f35b34801561016857600080fd5b50610171610505565b005b34801561017f57600080fd5b5061019a6004803603810190610195919061124c565b610519565b005b3480156101a857600080fd5b506101b16106c8565b6040516101be91906112a8565b60405180910390f35b3480156101d357600080fd5b506101ee60048036038101906101e991906112c3565b6106f1565b6040516101fb919061131f565b60405180910390f35b34801561021057600080fd5b5061022b60048036038101906102269190611366565b6108f5565b005b61024760048036038101906102429190610f3b565b610941565b005b34801561025557600080fd5b5061025e610c0f565b60405161026b919061131f565b60405180910390f35b34801561028057600080fd5b50610289610c15565b60405161029691906113b4565b60405180910390f35b3480156102ab57600080fd5b506102c660048036038101906102c19190611366565b610c3b565b005b3480156102d457600080fd5b506102dd610cbe565b6040516102ea919061131f565b60405180910390f35b6102fb610cc4565b600047905060008111610343576040517f08c379a000000000000000000000000000000000000000000000000000000000815260040161033a9061141b565b60405180910390fd5b60008273ffffffffffffffffffffffffffffffffffffffff16826040516103699061146c565b60006040518083038185875af1925050503d80600081146103a6576040519150601f19603f3d011682016040523d82523d6000602084013e6103ab565b606091505b50509050806103ef576040517f08c379a00000000000000000000000000000000000000000000000000000000081526004016103e6906114cd565b60405180910390fd5b505050565b60026020528060005260406000206000915090508060000160009054906101000a900473ffffffffffffffffffffffffffffffffffffffff169080600101805461043d9061151c565b80601f01602080910402602001604051908101604052809291908181526020018280546104699061151c565b80156104b65780601f1061048b576101008083540402835291602001916104b6565b820191906000526020600020905b81548152906001019060200180831161049957829003601f168201915b5050505050908060020154908060030154908060040160009054906101000a900460ff16905085565b600460009054906101000a900473ffffffffffffffffffffffffffffffffffffffff1681565b61050d610cc4565b6105176000610d42565b565b813373ffffffffffffffffffffffffffffffffffffffff166002600083815260200190815260200160002060000160009054906101000a900473ffffffffffffffffffffffffffffffffffffffff1673ffffffffffffffffffffffffffffffffffffffff16146105be576040517f08c379a00000000000000000000000000000000000000000000000000000000081526004016105b590611599565b60405180910390fd5b6002600084815260200190815260200160002060040160009054906101000a900460ff16610621576040517f08c379a000000000000000000000000000000000000000000000000000000000815260040161061890611605565b60405180910390fd5b8160026000858152602001908152602001600020600101908161064491906117c7565b50600160026000858152602001908152602001600020600301600082825461066c91906118c8565b92505081905550827f455f5080ea871516dbe991ffb2aac99192d5576c203a72f70d9d058738cb19158360026000878152602001908152602001600020600301546040516106bb9291906118fc565b60405180910390a2505050565b60008060009054906101000a900473ffffffffffffffffffffffffffffffffffffffff16905090565b6000600360008154809291906107069061192c565b9190505550600060035490506040518060a001604052803373ffffffffffffffffffffffffffffffffffffffff16815260200185815260200184815260200160018152602001600115158152506002600083815260200190815260200160002060008201518160000160006101000a81548173ffffffffffffffffffffffffffffffffffffffff021916908373ffffffffffffffffffffffffffffffffffffffff16021790555060208201518160010190816107c291906117c7565b50604082015181600201556060820151816003015560808201518160040160006101000a81548160ff0219169083151502179055509050503373ffffffffffffffffffffffffffffffffffffffff16817f2be1c5d2278ddb605afb5a365609f8c1d2a8ab9a4e0491a4c7995c65f52dceb286866040516108439291906118fc565b60405180910390a3600560009054906101000a900473ffffffffffffffffffffffffffffffffffffffff1673ffffffffffffffffffffffffffffffffffffffff166348441be733866040518363ffffffff1660e01b81526004016108a8929190611974565b6020604051808303816000875af19250505080156108e457506040513d601f19601f820116820180604052508101906108e191906119b9565b60015b156108eb57505b8091505092915050565b6108fd610cc4565b80600560006101000a81548173ffffffffffffffffffffffffffffffffffffffff021916908373ffffffffffffffffffffffffffffffffffffffff16021790555050565b610949610e06565b6002600082815260200190815260200160002060040160009054906101000a900460ff166109ac576040517f08c379a00000000000000000000000000000000000000000000000000000000081526004016109a390611605565b60405180910390fd5b60006002600083815260200190815260200160002060020154905080341015610a0a576040517f08c379a0000000000000000000000000000000000000000000000000000000008152600401610a0190611a32565b60405180910390fd5b60006002600084815260200190815260200160002060000160009054906101000a900473ffffffffffffffffffffffffffffffffffffffff16905060008173ffffffffffffffffffffffffffffffffffffffff1683604051610a6b9061146c565b60006040518083038185875af1925050503d8060008114610aa8576040519150601f19603f3d011682016040523d82523d6000602084013e610aad565b606091505b5050905080610af1576040517f08c379a0000000000000000000000000000000000000000000000000000000008152600401610ae890611a9e565b60405180910390fd5b3373ffffffffffffffffffffffffffffffffffffffff16847fb5d54ea46e4c298281d5e6ccd4df1ac37f8d49fa68ba9984d1677d046025bb1185604051610b38919061131f565b60405180910390a382341115610c015760003373ffffffffffffffffffffffffffffffffffffffff168434610b6d9190611abe565b604051610b799061146c565b60006040518083038185875af1925050503d8060008114610bb6576040519150601f19603f3d011682016040523d82523d6000602084013e610bbb565b606091505b5050905080610bff576040517f08c379a0000000000000000000000000000000000000000000000000000000008152600401610bf690611b3e565b60405180910390fd5b505b505050610c0c610e55565b50565b60035481565b600560009054906101000a900473ffffffffffffffffffffffffffffffffffffffff1681565b610c43610cc4565b600073ffffffffffffffffffffffffffffffffffffffff168173ffffffffffffffffffffffffffffffffffffffff1603610cb2576040517f08c379a0000000000000000000000000000000000000000000000000000000008152600401610ca990611bd0565b60405180910390fd5b610cbb81610d42565b50565b60065481565b610ccc610e5e565b73ffffffffffffffffffffffffffffffffffffffff16610cea6106c8565b73ffffffffffffffffffffffffffffffffffffffff1614610d40576040517f08c379a0000000000000000000000000000000000000000000000000000000008152600401610d3790611c3c565b60405180910390fd5b565b60008060009054906101000a900473ffffffffffffffffffffffffffffffffffffffff169050816000806101000a81548173ffffffffffffffffffffffffffffffffffffffff021916908373ffffffffffffffffffffffffffffffffffffffff1602179055508173ffffffffffffffffffffffffffffffffffffffff168173ffffffffffffffffffffffffffffffffffffffff167f8be0079c531659141344cd1fd0a4f28419497f9722a3daafe3b4186f6b6457e060405160405180910390a35050565b600260015403610e4b576040517f08c379a0000000000000000000000000000000000000000000000000000000008152600401610e4290611ca8565b60405180910390fd5b6002600181905550565b60018081905550565b600033905090565b6000604051905090565b600080fd5b600080fd5b600073ffffffffffffffffffffffffffffffffffffffff82169050919050565b6000610ea582610e7a565b9050919050565b610eb581610e9a565b8114610ec057600080fd5b50565b600081359050610ed281610eac565b92915050565b600060208284031215610eee57610eed610e70565b5b6000610efc84828501610ec3565b91505092915050565b6000819050919050565b610f1881610f05565b8114610f2357600080fd5b50565b600081359050610f3581610f0f565b92915050565b600060208284031215610f5157610f50610e70565b5b6000610f5f84828501610f26565b91505092915050565b6000610f7382610e7a565b9050919050565b610f8381610f68565b82525050565b600081519050919050565b600082825260208201905092915050565b60005b83811015610fc3578082015181840152602081019050610fa8565b60008484015250505050565b6000601f19601f8301169050919050565b6000610feb82610f89565b610ff58185610f94565b9350611005818560208601610fa5565b61100e81610fcf565b840191505092915050565b61102281610f05565b82525050565b60008115159050919050565b61103d81611028565b82525050565b600060a0820190506110586000830188610f7a565b818103602083015261106a8187610fe0565b90506110796040830186611019565b6110866060830185611019565b6110936080830184611034565b9695505050505050565b6000819050919050565b60006110c26110bd6110b884610e7a565b61109d565b610e7a565b9050919050565b60006110d4826110a7565b9050919050565b60006110e6826110c9565b9050919050565b6110f6816110db565b82525050565b600060208201905061111160008301846110ed565b92915050565b600080fd5b600080fd5b7f4e487b7100000000000000000000000000000000000000000000000000000000600052604160045260246000fd5b61115982610fcf565b810181811067ffffffffffffffff8211171561117857611177611121565b5b80604052505050565b600061118b610e66565b90506111978282611150565b919050565b600067ffffffffffffffff8211156111b7576111b6611121565b5b6111c082610fcf565b9050602081019050919050565b82818337600083830152505050565b60006111ef6111ea8461119c565b611181565b90508281526020810184848401111561120b5761120a61111c565b5b6112168482856111cd565b509392505050565b600082601f83011261123357611232611117565b5b81356112438482602086016111dc565b91505092915050565b6000806040838503121561126357611262610e70565b5b600061127185828601610f26565b925050602083013567ffffffffffffffff81111561129257611291610e75565b5b61129e8582860161121e565b9150509250929050565b60006020820190506112bd6000830184610f7a565b92915050565b600080604083850312156112da576112d9610e70565b5b600083013567ffffffffffffffff8111156112f8576112f7610e75565b5b6113048582860161121e565b925050602061131585828601610f26565b9150509250929050565b60006020820190506113346000830184611019565b92915050565b61134381610f68565b811461134e57600080fd5b50565b6000813590506113608161133a565b92915050565b60006020828403121561137c5761137b610e70565b5b600061138a84828501611351565b91505092915050565b600061139e826110c9565b9050919050565b6113ae81611393565b82525050565b60006020820190506113c960008301846113a5565b92915050565b7f6e6f2062616c616e636500000000000000000000000000000000000000000000600082015250565b6000611405600a83610f94565b9150611410826113cf565b602082019050919050565b60006020820190508181036000830152611434816113f8565b9050919050565b600081905092915050565b50565b600061145660008361143b565b915061146182611446565b600082019050919050565b600061147782611449565b9150819050919050565b7f7769746864726177206661696c65640000000000000000000000000000000000600082015250565b60006114b7600f83610f94565b91506114c282611481565b602082019050919050565b600060208201905081810360008301526114e6816114aa565b9050919050565b7f4e487b7100000000000000000000000000000000000000000000000000000000600052602260045260246000fd5b6000600282049050600182168061153457607f821691505b602082108103611547576115466114ed565b5b50919050565b7f6e6f742075706c6f616465720000000000000000000000000000000000000000600082015250565b6000611583600c83610f94565b915061158e8261154d565b602082019050919050565b600060208201905081810360008301526115b281611576565b9050919050565b7f6d6f64656c206e6f7420666f756e640000000000000000000000000000000000600082015250565b60006115ef600f83610f94565b91506115fa826115b9565b602082019050919050565b6000602082019050818103600083015261161e816115e2565b9050919050565b60008190508160005260206000209050919050565b60006020601f8301049050919050565b600082821b905092915050565b6000600883026116877fffffffffffffffffffffffffffffffffffffffffffffffffffffffffffffffff8261164a565b611691868361164a565b95508019841693508086168417925050509392505050565b60006116c46116bf6116ba84610f05565b61109d565b610f05565b9050919050565b6000819050919050565b6116de836116a9565b6116f26116ea826116cb565b848454611657565b825550505050565b600090565b6117076116fa565b6117128184846116d5565b505050565b5b818110156117365761172b6000826116ff565b600181019050611718565b5050565b601f82111561177b5761174c81611625565b6117558461163a565b81016020851015611764578190505b6117786117708561163a565b830182611717565b50505b505050565b600082821c905092915050565b600061179e60001984600802611780565b1980831691505092915050565b60006117b7838361178d565b9150826002028217905092915050565b6117d082610f89565b67ffffffffffffffff8111156117e9576117e8611121565b5b6117f3825461151c565b6117fe82828561173a565b600060209050601f831160018114611831576000841561181f578287015190505b61182985826117ab565b865550611891565b601f19841661183f86611625565b60005b8281101561186757848901518255600182019150602085019450602081019050611842565b868310156118845784890151611880601f89168261178d565b8355505b6001600288020188555050505b505050505050565b7f4e487b7100000000000000000000000000000000000000000000000000000000600052601160045260246000fd5b60006118d382610f05565b91506118de83610f05565b92508282019050808211156118f6576118f5611899565b5b92915050565b600060408201905081810360008301526119168185610fe0565b90506119256020830184611019565b9392505050565b600061193782610f05565b91507fffffffffffffffffffffffffffffffffffffffffffffffffffffffffffffffff820361196957611968611899565b5b600182019050919050565b60006040820190506119896000830185610f7a565b818103602083015261199b8184610fe0565b90509392505050565b6000815190506119b381610f0f565b92915050565b6000602082840312156119cf576119ce610e70565b5b60006119dd848285016119a4565b91505092915050565b7f696e73756666696369656e742066756e64730000000000000000000000000000600082015250565b6000611a1c601283610f94565b9150611a27826119e6565b602082019050919050565b60006020820190508181036000830152611a4b81611a0f565b9050919050565b7f7472616e73666572206661696c65640000000000000000000000000000000000600082015250565b6000611a88600f83610f94565b9150611a9382611a52565b602082019050919050565b60006020820190508181036000830152611ab781611a7b565b9050919050565b6000611ac982610f05565b9150611ad483610f05565b9250828203905081811115611aec57611aeb611899565b5b92915050565b7f726566756e64206661696c656400000000000000000000000000000000000000600082015250565b6000611b28600d83610f94565b9150611b3382611af2565b602082019050919050565b60006020820190508181036000830152611b5781611b1b565b9050919050565b7f4f776e61626c653a206e6577206f776e657220697320746865207a65726f206160008201527f6464726573730000000000000000000000000000000000000000000000000000602082015250565b6000611bba602683610f94565b9150611bc582611b5e565b604082019050919050565b60006020820190508181036000830152611be981611bad565b9050919050565b7f4f776e61626c653a2063616c6c6572206973206e6f7420746865206f776e6572600082015250565b6000611c26602083610f94565b9150611c3182611bf0565b602082019050919050565b60006020820190508181036000830152611c5581611c19565b9050919050565b7f5265656e7472616e637947756172643a207265656e7472616e742063616c6c00600082015250565b6000611c92601f83610f94565b9150611c9d82611c5c565b602082019050919050565b60006020820190508181036000830152611cc181611c85565b905091905056fea2646970667358221220db170d0596a99c6732ec0fabbe3e136993359117e4381f86c56020581e9cee6564736f6c63430008140033","opcodes":"PUSH1 0x80 PUSH1 0x40 MSTORE CALLVALUE DUP1 ISZERO PUSH3 0x11 JUMPI PUSH1 0x0 DUP1 REVERT JUMPDEST POP PUSH1 0x40 MLOAD PUSH3 0x2206 CODESIZE SUB DUP1 PUSH3 0x2206 DUP4 CODECOPY DUP2 DUP2 ADD PUSH1 0x40 MSTORE DUP2 ADD SWAP1 PUSH3 0x37 SWAP2 SWAP1 PUSH3 0x381 JUMP JUMPDEST PUSH3 0x57 PUSH3 0x4B PUSH3 0xC0 PUSH1 0x20 SHL PUSH1 0x20 SHR JUMP JUMPDEST PUSH3 0xC8 PUSH1 0x20 SHL PUSH1 0x20 SHR JUMP JUMPDEST PUSH1 0x1 DUP1 DUP2 SWAP1 SSTORE POP DUP3 PUSH1 0x5 PUSH1 0x0 PUSH2 0x100 EXP DUP2 SLOAD DUP2 PUSH20 0xFFFFFFFFFFFFFFFFFFFFFFFFFFFFFFFFFFFFFFFF MUL NOT AND SWAP1 DUP4 PUSH20 0xFFFFFFFFFFFFFFFFFFFFFFFFFFFFFFFFFFFFFFFF AND MUL OR SWAP1 SSTORE POP DUP2 PUSH1 0x6 DUP2 SWAP1 SSTORE POP PUSH3 0xB7 DUP2 PUSH3 0x18C PUSH1 0x20 SHL PUSH1 0x20 SHR JUMP JUMPDEST POP POP POP PUSH3 0x4F8 JUMP JUMPDEST PUSH1 0x0 CALLER SWAP1 POP SWAP1 JUMP JUMPDEST PUSH1 0x0 DUP1 PUSH1 0x0 SWAP1 SLOAD SWAP1 PUSH2 0x100 EXP SWAP1 DIV PUSH20 0xFFFFFFFFFFFFFFFFFFFFFFFFFFFFFFFFFFFFFFFF AND SWAP1 POP DUP2 PUSH1 0x0 DUP1 PUSH2 0x100 EXP DUP2 SLOAD DUP2 PUSH20 0xFFFFFFFFFFFFFFFFFFFFFFFFFFFFFFFFFFFFFFFF MUL NOT AND SWAP1 DUP4 PUSH20 0xFFFFFFFFFFFFFFFFFFFFFFFFFFFFFFFFFFFFFFFF AND MUL OR SWAP1 SSTORE POP DUP2 PUSH20 0xFFFFFFFFFFFFFFFFFFFFFFFFFFFFFFFFFFFFFFFF AND DUP2 PUSH20 0xFFFFFFFFFFFFFFFFFFFFFFFFFFFFFFFFFFFFFFFF AND PUSH32 0x8BE0079C531659141344CD1FD0A4F28419497F9722A3DAAFE3B4186F6B6457E0 PUSH1 0x40 MLOAD PUSH1 0x40 MLOAD DUP1 SWAP2 SUB SWAP1 LOG3 POP POP JUMP JUMPDEST PUSH3 0x19C PUSH3 0x222 PUSH1 0x20 SHL PUSH1 0x20 SHR JUMP JUMPDEST PUSH1 0x0 PUSH20 0xFFFFFFFFFFFFFFFFFFFFFFFFFFFFFFFFFFFFFFFF AND DUP2 PUSH20 0xFFFFFFFFFFFFFFFFFFFFFFFFFFFFFFFFFFFFFFFF AND SUB PUSH3 0x20E JUMPI PUSH1 0x40 MLOAD PUSH32 0x8C379A000000000000000000000000000000000000000000000000000000000 DUP2 MSTORE PUSH1 0x4 ADD PUSH3 0x205 SWAP1 PUSH3 0x464 JUMP JUMPDEST PUSH1 0x40 MLOAD DUP1 SWAP2 SUB SWAP1 REVERT JUMPDEST PUSH3 0x21F DUP2 PUSH3 0xC8 PUSH1 0x20 SHL PUSH1 0x20 SHR JUMP JUMPDEST POP JUMP JUMPDEST PUSH3 0x232 PUSH3 0xC0 PUSH1 0x20 SHL PUSH1 0x20 SHR JUMP JUMPDEST PUSH20 0xFFFFFFFFFFFFFFFFFFFFFFFFFFFFFFFFFFFFFFFF AND PUSH3 0x258 PUSH3 0x2B3 PUSH1 0x20 SHL PUSH1 0x20 SHR JUMP JUMPDEST PUSH20 0xFFFFFFFFFFFFFFFFFFFFFFFFFFFFFFFFFFFFFFFF AND EQ PUSH3 0x2B1 JUMPI PUSH1 0x40 MLOAD PUSH32 0x8C379A000000000000000000000000000000000000000000000000000000000 DUP2 MSTORE PUSH1 0x4 ADD PUSH3 0x2A8 SWAP1 PUSH3 0x4D6 JUMP JUMPDEST PUSH1 0x40 MLOAD DUP1 SWAP2 SUB SWAP1 REVERT JUMPDEST JUMP JUMPDEST PUSH1 0x0 DUP1 PUSH1 0x0 SWAP1 SLOAD SWAP1 PUSH2 0x100 EXP SWAP1 DIV PUSH20 0xFFFFFFFFFFFFFFFFFFFFFFFFFFFFFFFFFFFFFFFF AND SWAP1 POP SWAP1 JUMP JUMPDEST PUSH1 0x0 DUP1 REVERT JUMPDEST PUSH1 0x0 PUSH20 0xFFFFFFFFFFFFFFFFFFFFFFFFFFFFFFFFFFFFFFFF DUP3 AND SWAP1 POP SWAP2 SWAP1 POP JUMP JUMPDEST PUSH1 0x0 PUSH3 0x30E DUP3 PUSH3 0x2E1 JUMP JUMPDEST SWAP1 POP SWAP2 SWAP1 POP JUMP JUMPDEST PUSH3 0x320 DUP2 PUSH3 0x301 JUMP JUMPDEST DUP2 EQ PUSH3 0x32C JUMPI PUSH1 0x0 DUP1 REVERT JUMPDEST POP JUMP JUMPDEST PUSH1 0x0 DUP2 MLOAD SWAP1 POP PUSH3 0x340 DUP2 PUSH3 0x315 JUMP JUMPDEST SWAP3 SWAP2 POP POP JUMP JUMPDEST PUSH1 0x0 DUP2 SWAP1 POP SWAP2 SWAP1 POP JUMP JUMPDEST PUSH3 0x35B DUP2 PUSH3 0x346 JUMP JUMPDEST DUP2 EQ PUSH3 0x367 JUMPI PUSH1 0x0 DUP1 REVERT JUMPDEST POP JUMP JUMPDEST PUSH1 0x0 DUP2 MLOAD SWAP1 POP PUSH3 0x37B DUP2 PUSH3 0x350 JUMP JUMPDEST SWAP3 SWAP2 POP POP JUMP JUMPDEST PUSH1 0x0 DUP1 PUSH1 0x0 PUSH1 0x60 DUP5 DUP7 SUB SLT ISZERO PUSH3 0x39D JUMPI PUSH3 0x39C PUSH3 0x2DC JUMP JUMPDEST JUMPDEST PUSH1 0x0 PUSH3 0x3AD DUP7 DUP3 DUP8 ADD PUSH3 0x32F JUMP JUMPDEST SWAP4 POP POP PUSH1 0x20 PUSH3 0x3C0 DUP7 DUP3 DUP8 ADD PUSH3 0x36A JUMP JUMPDEST SWAP3 POP POP PUSH1 0x40 PUSH3 0x3D3 DUP7 DUP3 DUP8 ADD PUSH3 0x32F JUMP JUMPDEST SWAP2 POP POP SWAP3 POP SWAP3 POP SWAP3 JUMP JUMPDEST PUSH1 0x0 DUP3 DUP3 MSTORE PUSH1 0x20 DUP3 ADD SWAP1 POP SWAP3 SWAP2 POP POP JUMP JUMPDEST PUSH32 0x4F776E61626C653A206E6577206F776E657220697320746865207A65726F2061 PUSH1 0x0 DUP3 ADD MSTORE PUSH32 0x6464726573730000000000000000000000000000000000000000000000000000 PUSH1 0x20 DUP3 ADD MSTORE POP JUMP JUMPDEST PUSH1 0x0 PUSH3 0x44C PUSH1 0x26 DUP4 PUSH3 0x3DD JUMP JUMPDEST SWAP2 POP PUSH3 0x459 DUP3 PUSH3 0x3EE JUMP JUMPDEST PUSH1 0x40 DUP3 ADD SWAP1 POP SWAP2 SWAP1 POP JUMP JUMPDEST PUSH1 0x0 PUSH1 0x20 DUP3 ADD SWAP1 POP DUP2 DUP2 SUB PUSH1 0x0 DUP4 ADD MSTORE PUSH3 0x47F DUP2 PUSH3 0x43D JUMP JUMPDEST SWAP1 POP SWAP2 SWAP1 POP JUMP JUMPDEST PUSH32 0x4F776E61626C653A2063616C6C6572206973206E6F7420746865206F776E6572 PUSH1 0x0 DUP3 ADD MSTORE POP JUMP JUMPDEST PUSH1 0x0 PUSH3 0x4BE PUSH1 0x20 DUP4 PUSH3 0x3DD JUMP JUMPDEST SWAP2 POP PUSH3 0x4CB DUP3 PUSH3 0x486 JUMP JUMPDEST PUSH1 0x20 DUP3 ADD SWAP1 POP SWAP2 SWAP1 POP JUMP JUMPDEST PUSH1 0x0 PUSH1 0x20 DUP3 ADD SWAP1 POP DUP2 DUP2 SUB PUSH1 0x0 DUP4 ADD MSTORE PUSH3 0x4F1 DUP2 PUSH3 0x4AF JUMP JUMPDEST SWAP1 POP SWAP2 SWAP1 POP JUMP JUMPDEST PUSH2 0x1CFE DUP1 PUSH3 0x508 PUSH1 0x0 CODECOPY PUSH1 0x0 RETURN INVALID PUSH1 0x80 PUSH1 0x40 MSTORE PUSH1 0x4 CALLDATASIZE LT PUSH2 0xC2 JUMPI PUSH1 0x0 CALLDATALOAD PUSH1 0xE0 SHR DUP1 PUSH4 0x923F5A59 GT PUSH2 0x7F JUMPI DUP1 PUSH4 0xCC408B8A GT PUSH2 0x59 JUMPI DUP1 PUSH4 0xCC408B8A EQ PUSH2 0x249 JUMPI DUP1 PUSH4 0xEEB7CFA3 EQ PUSH2 0x274 JUMPI DUP1 PUSH4 0xF2FDE38B EQ PUSH2 0x29F JUMPI DUP1 PUSH4 0xFBE5DD34 EQ PUSH2 0x2C8 JUMPI PUSH2 0xC2 JUMP JUMPDEST DUP1 PUSH4 0x923F5A59 EQ PUSH2 0x1C7 JUMPI DUP1 PUSH4 0xBCBD4684 EQ PUSH2 0x204 JUMPI DUP1 PUSH4 0xBF6A6FC1 EQ PUSH2 0x22D JUMPI PUSH2 0xC2 JUMP JUMPDEST DUP1 PUSH4 0x51CFF8D9 EQ PUSH2 0xC7 JUMPI DUP1 PUSH4 0x6A030CA9 EQ PUSH2 0xF0 JUMPI DUP1 PUSH4 0x703BAFD5 EQ PUSH2 0x131 JUMPI DUP1 PUSH4 0x715018A6 EQ PUSH2 0x15C JUMPI DUP1 PUSH4 0x8916AF42 EQ PUSH2 0x173 JUMPI DUP1 PUSH4 0x8DA5CB5B EQ PUSH2 0x19C JUMPI JUMPDEST PUSH1 0x0 DUP1 REVERT JUMPDEST CALLVALUE DUP1 ISZERO PUSH2 0xD3 JUMPI PUSH1 0x0 DUP1 REVERT JUMPDEST POP PUSH2 0xEE PUSH1 0x4 DUP1 CALLDATASIZE SUB DUP2 ADD SWAP1 PUSH2 0xE9 SWAP2 SWAP1 PUSH2 0xED8 JUMP JUMPDEST PUSH2 0x2F3 JUMP JUMPDEST STOP JUMPDEST CALLVALUE DUP1 ISZERO PUSH2 0xFC JUMPI PUSH1 0x0 DUP1 REVERT JUMPDEST POP PUSH2 0x117 PUSH1 0x4 DUP1 CALLDATASIZE SUB DUP2 ADD SWAP1 PUSH2 0x112 SWAP2 SWAP1 PUSH2 0xF3B JUMP JUMPDEST PUSH2 0x3F4 JUMP JUMPDEST PUSH1 0x40 MLOAD PUSH2 0x128 SWAP6 SWAP5 SWAP4 SWAP3 SWAP2 SWAP1 PUSH2 0x1043 JUMP JUMPDEST PUSH1 0x40 MLOAD DUP1 SWAP2 SUB SWAP1 RETURN JUMPDEST CALLVALUE DUP1 ISZERO PUSH2 0x13D JUMPI PUSH1 0x0 DUP1 REVERT JUMPDEST POP PUSH2 0x146 PUSH2 0x4DF JUMP JUMPDEST PUSH1 0x40 MLOAD PUSH2 0x153 SWAP2 SWAP1 PUSH2 0x10FC JUMP JUMPDEST PUSH1 0x40 MLOAD DUP1 SWAP2 SUB SWAP1 RETURN JUMPDEST CALLVALUE DUP1 ISZERO PUSH2 0x168 JUMPI PUSH1 0x0 DUP1 REVERT JUMPDEST POP PUSH2 0x171 PUSH2 0x505 JUMP JUMPDEST STOP JUMPDEST CALLVALUE DUP1 ISZERO PUSH2 0x17F JUMPI PUSH1 0x0 DUP1 REVERT JUMPDEST POP PUSH2 0x19A PUSH1 0x4 DUP1 CALLDATASIZE SUB DUP2 ADD SWAP1 PUSH2 0x195 SWAP2 SWAP1 PUSH2 0x124C JUMP JUMPDEST PUSH2 0x519 JUMP JUMPDEST STOP JUMPDEST CALLVALUE DUP1 ISZERO PUSH2 0x1A8 JUMPI PUSH1 0x0 DUP1 REVERT JUMPDEST POP PUSH2 0x1B1 PUSH2 0x6C8 JUMP JUMPDEST PUSH1 0x40 MLOAD PUSH2 0x1BE SWAP2 SWAP1 PUSH2 0x12A8 JUMP JUMPDEST PUSH1 0x40 MLOAD DUP1 SWAP2 SUB SWAP1 RETURN JUMPDEST CALLVALUE DUP1 ISZERO PUSH2 0x1D3 JUMPI PUSH1 0x0 DUP1 REVERT JUMPDEST POP PUSH2 0x1EE PUSH1 0x4 DUP1 CALLDATASIZE SUB DUP2 ADD SWAP1 PUSH2 0x1E9 SWAP2 SWAP1 PUSH2 0x12C3 JUMP JUMPDEST PUSH2 0x6F1 JUMP JUMPDEST PUSH1 0x40 MLOAD PUSH2 0x1FB SWAP2 SWAP1 PUSH2 0x131F JUMP JUMPDEST PUSH1 0x40 MLOAD DUP1 SWAP2 SUB SWAP1 RETURN JUMPDEST CALLVALUE DUP1 ISZERO PUSH2 0x210 JUMPI PUSH1 0x0 DUP1 REVERT JUMPDEST POP PUSH2 0x22B PUSH1 0x4 DUP1 CALLDATASIZE SUB DUP2 ADD SWAP1 PUSH2 0x226 SWAP2 SWAP1 PUSH2 0x1366 JUMP JUMPDEST PUSH2 0x8F5 JUMP JUMPDEST STOP JUMPDEST PUSH2 0x247 PUSH1 0x4 DUP1 CALLDATASIZE SUB DUP2 ADD SWAP1 PUSH2 0x242 SWAP2 SWAP1 PUSH2 0xF3B JUMP JUMPDEST PUSH2 0x941 JUMP JUMPDEST STOP JUMPDEST CALLVALUE DUP1 ISZERO PUSH2 0x255 JUMPI PUSH1 0x0 DUP1 REVERT JUMPDEST POP PUSH2 0x25E PUSH2 0xC0F JUMP JUMPDEST PUSH1 0x40 MLOAD PUSH2 0x26B SWAP2 SWAP1 PUSH2 0x131F JUMP JUMPDEST PUSH1 0x40 MLOAD DUP1 SWAP2 SUB SWAP1 RETURN JUMPDEST CALLVALUE DUP1 ISZERO PUSH2 0x280 JUMPI PUSH1 0x0 DUP1 REVERT JUMPDEST POP PUSH2 0x289 PUSH2 0xC15 JUMP JUMPDEST PUSH1 0x40 MLOAD PUSH2 0x296 SWAP2 SWAP1 PUSH2 0x13B4 JUMP JUMPDEST PUSH1 0x40 MLOAD DUP1 SWAP2 SUB SWAP1 RETURN JUMPDEST CALLVALUE DUP1 ISZERO PUSH2 0x2AB JUMPI PUSH1 0x0 DUP1 REVERT JUMPDEST POP PUSH2 0x2C6 PUSH1 0x4 DUP1 CALLDATASIZE SUB DUP2 ADD SWAP1 PUSH2 0x2C1 SWAP2 SWAP1 PUSH2 0x1366 JUMP JUMPDEST PUSH2 0xC3B JUMP JUMPDEST STOP JUMPDEST CALLVALUE DUP1 ISZERO PUSH2 0x2D4 JUMPI PUSH1 0x0 DUP1 REVERT JUMPDEST POP PUSH2 0x2DD PUSH2 0xCBE JUMP JUMPDEST PUSH1 0x40 MLOAD PUSH2 0x2EA SWAP2 SWAP1 PUSH2 0x131F JUMP JUMPDEST PUSH1 0x40 MLOAD DUP1 SWAP2 SUB SWAP1 RETURN JUMPDEST PUSH2 0x2FB PUSH2 0xCC4 JUMP JUMPDEST PUSH1 0x0 SELFBALANCE SWAP1 POP PUSH1 0x0 DUP2 GT PUSH2 0x343 JUMPI PUSH1 0x40 MLOAD PUSH32 0x8C379A000000000000000000000000000000000000000000000000000000000 DUP2 MSTORE PUSH1 0x4 ADD PUSH2 0x33A SWAP1 PUSH2 0x141B JUMP JUMPDEST PUSH1 0x40 MLOAD DUP1 SWAP2 SUB SWAP1 REVERT JUMPDEST PUSH1 0x0 DUP3 PUSH20 0xFFFFFFFFFFFFFFFFFFFFFFFFFFFFFFFFFFFFFFFF AND DUP3 PUSH1 0x40 MLOAD PUSH2 0x369 SWAP1 PUSH2 0x146C JUMP JUMPDEST PUSH1 0x0 PUSH1 0x40 MLOAD DUP1 DUP4 SUB DUP2 DUP6 DUP8 GAS CALL SWAP3 POP POP POP RETURNDATASIZE DUP1 PUSH1 0x0 DUP2 EQ PUSH2 0x3A6 JUMPI PUSH1 0x40 MLOAD SWAP2 POP PUSH1 0x1F NOT PUSH1 0x3F RETURNDATASIZE ADD AND DUP3 ADD PUSH1 0x40 MSTORE RETURNDATASIZE DUP3 MSTORE RETURNDATASIZE PUSH1 0x0 PUSH1 0x20 DUP5 ADD RETURNDATACOPY PUSH2 0x3AB JUMP JUMPDEST PUSH1 0x60 SWAP2 POP JUMPDEST POP POP SWAP1 POP DUP1 PUSH2 0x3EF JUMPI PUSH1 0x40 MLOAD PUSH32 0x8C379A000000000000000000000000000000000000000000000000000000000 DUP2 MSTORE PUSH1 0x4 ADD PUSH2 0x3E6 SWAP1 PUSH2 0x14CD JUMP JUMPDEST PUSH1 0x40 MLOAD DUP1 SWAP2 SUB SWAP1 REVERT JUMPDEST POP POP POP JUMP JUMPDEST PUSH1 0x2 PUSH1 0x20 MSTORE DUP1 PUSH1 0x0 MSTORE PUSH1 0x40 PUSH1 0x0 KECCAK256 PUSH1 0x0 SWAP2 POP SWAP1 POP DUP1 PUSH1 0x0 ADD PUSH1 0x0 SWAP1 SLOAD SWAP1 PUSH2 0x100 EXP SWAP1 DIV PUSH20 0xFFFFFFFFFFFFFFFFFFFFFFFFFFFFFFFFFFFFFFFF AND SWAP1 DUP1 PUSH1 0x1 ADD DUP1 SLOAD PUSH2 0x43D SWAP1 PUSH2 0x151C JUMP JUMPDEST DUP1 PUSH1 0x1F ADD PUSH1 0x20 DUP1 SWAP2 DIV MUL PUSH1 0x20 ADD PUSH1 0x40 MLOAD SWAP1 DUP2 ADD PUSH1 0x40 MSTORE DUP1 SWAP3 SWAP2 SWAP1 DUP2 DUP2 MSTORE PUSH1 0x20 ADD DUP3 DUP1 SLOAD PUSH2 0x469 SWAP1 PUSH2 0x151C JUMP JUMPDEST DUP1 ISZERO PUSH2 0x4B6 JUMPI DUP1 PUSH1 0x1F LT PUSH2 0x48B JUMPI PUSH2 0x100 DUP1 DUP4 SLOAD DIV MUL DUP4 MSTORE SWAP2 PUSH1 0x20 ADD SWAP2 PUSH2 0x4B6 JUMP JUMPDEST DUP3 ADD SWAP2 SWAP1 PUSH1 0x0 MSTORE PUSH1 0x20 PUSH1 0x0 KECCAK256 SWAP1 JUMPDEST DUP2 SLOAD DUP2 MSTORE SWAP1 PUSH1 0x1 ADD SWAP1 PUSH1 0x20 ADD DUP1 DUP4 GT PUSH2 0x499 JUMPI DUP3 SWAP1 SUB PUSH1 0x1F AND DUP3 ADD SWAP2 JUMPDEST POP POP POP POP POP SWAP1 DUP1 PUSH1 0x2 ADD SLOAD SWAP1 DUP1 PUSH1 0x3 ADD SLOAD SWAP1 DUP1 PUSH1 0x4 ADD PUSH1 0x0 SWAP1 SLOAD SWAP1 PUSH2 0x100 EXP SWAP1 DIV PUSH1 0xFF AND SWAP1 POP DUP6 JUMP JUMPDEST PUSH1 0x4 PUSH1 0x0 SWAP1 SLOAD SWAP1 PUSH2 0x100 EXP SWAP1 DIV PUSH20 0xFFFFFFFFFFFFFFFFFFFFFFFFFFFFFFFFFFFFFFFF AND DUP2 JUMP JUMPDEST PUSH2 0x50D PUSH2 0xCC4 JUMP JUMPDEST PUSH2 0x517 PUSH1 0x0 PUSH2 0xD42 JUMP JUMPDEST JUMP JUMPDEST DUP2 CALLER PUSH20 0xFFFFFFFFFFFFFFFFFFFFFFFFFFFFFFFFFFFFFFFF AND PUSH1 0x2 PUSH1 0x0 DUP4 DUP2 MSTORE PUSH1 0x20 ADD SWAP1 DUP2 MSTORE PUSH1 0x20 ADD PUSH1 0x0 KECCAK256 PUSH1 0x0 ADD PUSH1 0x0 SWAP1 SLOAD SWAP1 PUSH2 0x100 EXP SWAP1 DIV PUSH20 0xFFFFFFFFFFFFFFFFFFFFFFFFFFFFFFFFFFFFFFFF AND PUSH20 0xFFFFFFFFFFFFFFFFFFFFFFFFFFFFFFFFFFFFFFFF AND EQ PUSH2 0x5BE JUMPI PUSH1 0x40 MLOAD PUSH32 0x8C379A000000000000000000000000000000000000000000000000000000000 DUP2 MSTORE PUSH1 0x4 ADD PUSH2 0x5B5 SWAP1 PUSH2 0x1599 JUMP JUMPDEST PUSH1 0x40 MLOAD DUP1 SWAP2 SUB SWAP1 REVERT JUMPDEST PUSH1 0x2 PUSH1 0x0 DUP5 DUP2 MSTORE PUSH1 0x20 ADD SWAP1 DUP2 MSTORE PUSH1 0x20 ADD PUSH1 0x0 KECCAK256 PUSH1 0x4 ADD PUSH1 0x0 SWAP1 SLOAD SWAP1 PUSH2 0x100 EXP SWAP1 DIV PUSH1 0xFF AND PUSH2 0x621 JUMPI PUSH1 0x40 MLOAD PUSH32 0x8C379A000000000000000000000000000000000000000000000000000000000 DUP2 MSTORE PUSH1 0x4 ADD PUSH2 0x618 SWAP1 PUSH2 0x1605 JUMP JUMPDEST PUSH1 0x40 MLOAD DUP1 SWAP2 SUB SWAP1 REVERT JUMPDEST DUP2 PUSH1 0x2 PUSH1 0x0 DUP6 DUP2 MSTORE PUSH1 0x20 ADD SWAP1 DUP2 MSTORE PUSH1 0x20 ADD PUSH1 0x0 KECCAK256 PUSH1 0x1 ADD SWAP1 DUP2 PUSH2 0x644 SWAP2 SWAP1 PUSH2 0x17C7 JUMP JUMPDEST POP PUSH1 0x1 PUSH1 0x2 PUSH1 0x0 DUP6 DUP2 MSTORE PUSH1 0x20 ADD SWAP1 DUP2 MSTORE PUSH1 0x20 ADD PUSH1 0x0 KECCAK256 PUSH1 0x3 ADD PUSH1 0x0 DUP3 DUP3 SLOAD PUSH2 0x66C SWAP2 SWAP1 PUSH2 0x18C8 JUMP JUMPDEST SWAP3 POP POP DUP2 SWAP1 SSTORE POP DUP3 PUSH32 0x455F5080EA871516DBE991FFB2AAC99192D5576C203A72F70D9D058738CB1915 DUP4 PUSH1 0x2 PUSH1 0x0 DUP8 DUP2 MSTORE PUSH1 0x20 ADD SWAP1 DUP2 MSTORE PUSH1 0x20 ADD PUSH1 0x0 KECCAK256 PUSH1 0x3 ADD SLOAD PUSH1 0x40 MLOAD PUSH2 0x6BB SWAP3 SWAP2 SWAP1 PUSH2 0x18FC JUMP JUMPDEST PUSH1 0x40 MLOAD DUP1 SWAP2 SUB SWAP1 LOG2 POP POP POP JUMP JUMPDEST PUSH1 0x0 DUP1 PUSH1 0x0 SWAP1 SLOAD SWAP1 PUSH2 0x100 EXP SWAP1 DIV PUSH20 0xFFFFFFFFFFFFFFFFFFFFFFFFFFFFFFFFFFFFFFFF AND SWAP1 POP SWAP1 JUMP JUMPDEST PUSH1 0x0 PUSH1 0x3 PUSH1 0x0 DUP2 SLOAD DUP1 SWAP3 SWAP2 SWAP1 PUSH2 0x706 SWAP1 PUSH2 0x192C JUMP JUMPDEST SWAP2 SWAP1 POP SSTORE POP PUSH1 0x0 PUSH1 0x3 SLOAD SWAP1 POP PUSH1 0x40 MLOAD DUP1 PUSH1 0xA0 ADD PUSH1 0x40 MSTORE DUP1 CALLER PUSH20 0xFFFFFFFFFFFFFFFFFFFFFFFFFFFFFFFFFFFFFFFF AND DUP2 MSTORE PUSH1 0x20 ADD DUP6 DUP2 MSTORE PUSH1 0x20 ADD DUP5 DUP2 MSTORE PUSH1 0x20 ADD PUSH1 0x1 DUP2 MSTORE PUSH1 0x20 ADD PUSH1 0x1 ISZERO ISZERO DUP2 MSTORE POP PUSH1 0x2 PUSH1 0x0 DUP4 DUP2 MSTORE PUSH1 0x20 ADD SWAP1 DUP2 MSTORE PUSH1 0x20 ADD PUSH1 0x0 KECCAK256 PUSH1 0x0 DUP3 ADD MLOAD DUP2 PUSH1 0x0 ADD PUSH1 0x0 PUSH2 0x100 EXP DUP2 SLOAD DUP2 PUSH20 0xFFFFFFFFFFFFFFFFFFFFFFFFFFFFFFFFFFFFFFFF MUL NOT AND SWAP1 DUP4 PUSH20 0xFFFFFFFFFFFFFFFFFFFFFFFFFFFFFFFFFFFFFFFF AND MUL OR SWAP1 SSTORE POP PUSH1 0x20 DUP3 ADD MLOAD DUP2 PUSH1 0x1 ADD SWAP1 DUP2 PUSH2 0x7C2 SWAP2 SWAP1 PUSH2 0x17C7 JUMP JUMPDEST POP PUSH1 0x40 DUP3 ADD MLOAD DUP2 PUSH1 0x2 ADD SSTORE PUSH1 0x60 DUP3 ADD MLOAD DUP2 PUSH1 0x3 ADD SSTORE PUSH1 0x80 DUP3 ADD MLOAD DUP2 PUSH1 0x4 ADD PUSH1 0x0 PUSH2 0x100 EXP DUP2 SLOAD DUP2 PUSH1 0xFF MUL NOT AND SWAP1 DUP4 ISZERO ISZERO MUL OR SWAP1 SSTORE POP SWAP1 POP POP CALLER PUSH20 0xFFFFFFFFFFFFFFFFFFFFFFFFFFFFFFFFFFFFFFFF AND DUP2 PUSH32 0x2BE1C5D2278DDB605AFB5A365609F8C1D2A8AB9A4E0491A4C7995C65F52DCEB2 DUP7 DUP7 PUSH1 0x40 MLOAD PUSH2 0x843 SWAP3 SWAP2 SWAP1 PUSH2 0x18FC JUMP JUMPDEST PUSH1 0x40 MLOAD DUP1 SWAP2 SUB SWAP1 LOG3 PUSH1 0x5 PUSH1 0x0 SWAP1 SLOAD SWAP1 PUSH2 0x100 EXP SWAP1 DIV PUSH20 0xFFFFFFFFFFFFFFFFFFFFFFFFFFFFFFFFFFFFFFFF AND PUSH20 0xFFFFFFFFFFFFFFFFFFFFFFFFFFFFFFFFFFFFFFFF AND PUSH4 0x48441BE7 CALLER DUP7 PUSH1 0x40 MLOAD DUP4 PUSH4 0xFFFFFFFF AND PUSH1 0xE0 SHL DUP2 MSTORE PUSH1 0x4 ADD PUSH2 0x8A8 SWAP3 SWAP2 SWAP1 PUSH2 0x1974 JUMP JUMPDEST PUSH1 0x20 PUSH1 0x40 MLOAD DUP1 DUP4 SUB DUP2 PUSH1 0x0 DUP8 GAS CALL SWAP3 POP POP POP DUP1 ISZERO PUSH2 0x8E4 JUMPI POP PUSH1 0x40 MLOAD RETURNDATASIZE PUSH1 0x1F NOT PUSH1 0x1F DUP3 ADD AND DUP3 ADD DUP1 PUSH1 0x40 MSTORE POP DUP2 ADD SWAP1 PUSH2 0x8E1 SWAP2 SWAP1 PUSH2 0x19B9 JUMP JUMPDEST PUSH1 0x1 JUMPDEST ISZERO PUSH2 0x8EB JUMPI POP JUMPDEST DUP1 SWAP2 POP POP SWAP3 SWAP2 POP POP JUMP JUMPDEST PUSH2 0x8FD PUSH2 0xCC4 JUMP JUMPDEST DUP1 PUSH1 0x5 PUSH1 0x0 PUSH2 0x100 EXP DUP2 SLOAD DUP2 PUSH20 0xFFFFFFFFFFFFFFFFFFFFFFFFFFFFFFFFFFFFFFFF MUL NOT AND SWAP1 DUP4 PUSH20 0xFFFFFFFFFFFFFFFFFFFFFFFFFFFFFFFFFFFFFFFF AND MUL OR SWAP1 SSTORE POP POP JUMP JUMPDEST PUSH2 0x949 PUSH2 0xE06 JUMP JUMPDEST PUSH1 0x2 PUSH1 0x0 DUP3 DUP2 MSTORE PUSH1 0x20 ADD SWAP1 DUP2 MSTORE PUSH1 0x20 ADD PUSH1 0x0 KECCAK256 PUSH1 0x4 ADD PUSH1 0x0 SWAP1 SLOAD SWAP1 PUSH2 0x100 EXP SWAP1 DIV PUSH1 0xFF AND PUSH2 0x9AC JUMPI PUSH1 0x40 MLOAD PUSH32 0x8C379A000000000000000000000000000000000000000000000000000000000 DUP2 MSTORE PUSH1 0x4 ADD PUSH2 0x9A3 SWAP1 PUSH2 0x1605 JUMP JUMPDEST PUSH1 0x40 MLOAD DUP1 SWAP2 SUB SWAP1 REVERT JUMPDEST PUSH1 0x0 PUSH1 0x2 PUSH1 0x0 DUP4 DUP2 MSTORE PUSH1 0x20 ADD SWAP1 DUP2 MSTORE PUSH1 0x20 ADD PUSH1 0x0 KECCAK256 PUSH1 0x2 ADD SLOAD SWAP1 POP DUP1 CALLVALUE LT ISZERO PUSH2 0xA0A JUMPI PUSH1 0x40 MLOAD PUSH32 0x8C379A000000000000000000000000000000000000000000000000000000000 DUP2 MSTORE PUSH1 0x4 ADD PUSH2 0xA01 SWAP1 PUSH2 0x1A32 JUMP JUMPDEST PUSH1 0x40 MLOAD DUP1 SWAP2 SUB SWAP1 REVERT JUMPDEST PUSH1 0x0 PUSH1 0x2 PUSH1 0x0 DUP5 DUP2 MSTORE PUSH1 0x20 ADD SWAP1 DUP2 MSTORE PUSH1 0x20 ADD PUSH1 0x0 KECCAK256 PUSH1 0x0 ADD PUSH1 0x0 SWAP1 SLOAD SWAP1 PUSH2 0x100 EXP SWAP1 DIV PUSH20 0xFFFFFFFFFFFFFFFFFFFFFFFFFFFFFFFFFFFFFFFF AND SWAP1 POP PUSH1 0x0 DUP2 PUSH20 0xFFFFFFFFFFFFFFFFFFFFFFFFFFFFFFFFFFFFFFFF AND DUP4 PUSH1 0x40 MLOAD PUSH2 0xA6B SWAP1 PUSH2 0x146C JUMP JUMPDEST PUSH1 0x0 PUSH1 0x40 MLOAD DUP1 DUP4 SUB DUP2 DUP6 DUP8 GAS CALL SWAP3 POP POP POP RETURNDATASIZE DUP1 PUSH1 0x0 DUP2 EQ PUSH2 0xAA8 JUMPI PUSH1 0x40 MLOAD SWAP2 POP PUSH1 0x1F NOT PUSH1 0x3F RETURNDATASIZE ADD AND DUP3 ADD PUSH1 0x40 MSTORE RETURNDATASIZE DUP3 MSTORE RETURNDATASIZE PUSH1 0x0 PUSH1 0x20 DUP5 ADD RETURNDATACOPY PUSH2 0xAAD JUMP JUMPDEST PUSH1 0x60 SWAP2 POP JUMPDEST POP POP SWAP1 POP DUP1 PUSH2 0xAF1 JUMPI PUSH1 0x40 MLOAD PUSH32 0x8C379A000000000000000000000000000000000000000000000000000000000 DUP2 MSTORE PUSH1 0x4 ADD PUSH2 0xAE8 SWAP1 PUSH2 0x1A9E JUMP JUMPDEST PUSH1 0x40 MLOAD DUP1 SWAP2 SUB SWAP1 REVERT JUMPDEST CALLER PUSH20 0xFFFFFFFFFFFFFFFFFFFFFFFFFFFFFFFFFFFFFFFF AND DUP5 PUSH32 0xB5D54EA46E4C298281D5E6CCD4DF1AC37F8D49FA68BA9984D1677D046025BB11 DUP6 PUSH1 0x40 MLOAD PUSH2 0xB38 SWAP2 SWAP1 PUSH2 0x131F JUMP JUMPDEST PUSH1 0x40 MLOAD DUP1 SWAP2 SUB SWAP1 LOG3 DUP3 CALLVALUE GT ISZERO PUSH2 0xC01 JUMPI PUSH1 0x0 CALLER PUSH20 0xFFFFFFFFFFFFFFFFFFFFFFFFFFFFFFFFFFFFFFFF AND DUP5 CALLVALUE PUSH2 0xB6D SWAP2 SWAP1 PUSH2 0x1ABE JUMP JUMPDEST PUSH1 0x40 MLOAD PUSH2 0xB79 SWAP1 PUSH2 0x146C JUMP JUMPDEST PUSH1 0x0 PUSH1 0x40 MLOAD DUP1 DUP4 SUB DUP2 DUP6 DUP8 GAS CALL SWAP3 POP POP POP RETURNDATASIZE DUP1 PUSH1 0x0 DUP2 EQ PUSH2 0xBB6 JUMPI PUSH1 0x40 MLOAD SWAP2 POP PUSH1 0x1F NOT PUSH1 0x3F RETURNDATASIZE ADD AND DUP3 ADD PUSH1 0x40 MSTORE RETURNDATASIZE DUP3 MSTORE RETURNDATASIZE PUSH1 0x0 PUSH1 0x20 DUP5 ADD RETURNDATACOPY PUSH2 0xBBB JUMP JUMPDEST PUSH1 0x60 SWAP2 POP JUMPDEST POP POP SWAP1 POP DUP1 PUSH2 0xBFF JUMPI PUSH1 0x40 MLOAD PUSH32 0x8C379A000000000000000000000000000000000000000000000000000000000 DUP2 MSTORE PUSH1 0x4 ADD PUSH2 0xBF6 SWAP1 PUSH2 0x1B3E JUMP JUMPDEST PUSH1 0x40 MLOAD DUP1 SWAP2 SUB SWAP1 REVERT JUMPDEST POP JUMPDEST POP POP POP PUSH2 0xC0C PUSH2 0xE55 JUMP JUMPDEST POP JUMP JUMPDEST PUSH1 0x3 SLOAD DUP2 JUMP JUMPDEST PUSH1 0x5 PUSH1 0x0 SWAP1 SLOAD SWAP1 PUSH2 0x100 EXP SWAP1 DIV PUSH20 0xFFFFFFFFFFFFFFFFFFFFFFFFFFFFFFFFFFFFFFFF AND DUP2 JUMP JUMPDEST PUSH2 0xC43 PUSH2 0xCC4 JUMP JUMPDEST PUSH1 0x0 PUSH20 0xFFFFFFFFFFFFFFFFFFFFFFFFFFFFFFFFFFFFFFFF AND DUP2 PUSH20 0xFFFFFFFFFFFFFFFFFFFFFFFFFFFFFFFFFFFFFFFF AND SUB PUSH2 0xCB2 JUMPI PUSH1 0x40 MLOAD PUSH32 0x8C379A000000000000000000000000000000000000000000000000000000000 DUP2 MSTORE PUSH1 0x4 ADD PUSH2 0xCA9 SWAP1 PUSH2 0x1BD0 JUMP JUMPDEST PUSH1 0x40 MLOAD DUP1 SWAP2 SUB SWAP1 REVERT JUMPDEST PUSH2 0xCBB DUP2 PUSH2 0xD42 JUMP JUMPDEST POP JUMP JUMPDEST PUSH1 0x6 SLOAD DUP2 JUMP JUMPDEST PUSH2 0xCCC PUSH2 0xE5E JUMP JUMPDEST PUSH20 0xFFFFFFFFFFFFFFFFFFFFFFFFFFFFFFFFFFFFFFFF AND PUSH2 0xCEA PUSH2 0x6C8 JUMP JUMPDEST PUSH20 0xFFFFFFFFFFFFFFFFFFFFFFFFFFFFFFFFFFFFFFFF AND EQ PUSH2 0xD40 JUMPI PUSH1 0x40 MLOAD PUSH32 0x8C379A000000000000000000000000000000000000000000000000000000000 DUP2 MSTORE PUSH1 0x4 ADD PUSH2 0xD37 SWAP1 PUSH2 0x1C3C JUMP JUMPDEST PUSH1 0x40 MLOAD DUP1 SWAP2 SUB SWAP1 REVERT JUMPDEST JUMP JUMPDEST PUSH1 0x0 DUP1 PUSH1 0x0 SWAP1 SLOAD SWAP1 PUSH2 0x100 EXP SWAP1 DIV PUSH20 0xFFFFFFFFFFFFFFFFFFFFFFFFFFFFFFFFFFFFFFFF AND SWAP1 POP DUP2 PUSH1 0x0 DUP1 PUSH2 0x100 EXP DUP2 SLOAD DUP2 PUSH20 0xFFFFFFFFFFFFFFFFFFFFFFFFFFFFFFFFFFFFFFFF MUL NOT AND SWAP1 DUP4 PUSH20 0xFFFFFFFFFFFFFFFFFFFFFFFFFFFFFFFFFFFFFFFF AND MUL OR SWAP1 SSTORE POP DUP2 PUSH20 0xFFFFFFFFFFFFFFFFFFFFFFFFFFFFFFFFFFFFFFFF AND DUP2 PUSH20 0xFFFFFFFFFFFFFFFFFFFFFFFFFFFFFFFFFFFFFFFF AND PUSH32 0x8BE0079C531659141344CD1FD0A4F28419497F9722A3DAAFE3B4186F6B6457E0 PUSH1 0x40 MLOAD PUSH1 0x40 MLOAD DUP1 SWAP2 SUB SWAP1 LOG3 POP POP JUMP JUMPDEST PUSH1 0x2 PUSH1 0x1 SLOAD SUB PUSH2 0xE4B JUMPI PUSH1 0x40 MLOAD PUSH32 0x8C379A000000000000000000000000000000000000000000000000000000000 DUP2 MSTORE PUSH1 0x4 ADD PUSH2 0xE42 SWAP1 PUSH2 0x1CA8 JUMP JUMPDEST PUSH1 0x40 MLOAD DUP1 SWAP2 SUB SWAP1 REVERT JUMPDEST PUSH1 0x2 PUSH1 0x1 DUP2 SWAP1 SSTORE POP JUMP JUMPDEST PUSH1 0x1 DUP1 DUP2 SWAP1 SSTORE POP JUMP JUMPDEST PUSH1 0x0 CALLER SWAP1 POP SWAP1 JUMP JUMPDEST PUSH1 0x0 PUSH1 0x40 MLOAD SWAP1 POP SWAP1 JUMP JUMPDEST PUSH1 0x0 DUP1 REVERT JUMPDEST PUSH1 0x0 DUP1 REVERT JUMPDEST PUSH1 0x0 PUSH20 0xFFFFFFFFFFFFFFFFFFFFFFFFFFFFFFFFFFFFFFFF DUP3 AND SWAP1 POP SWAP2 SWAP1 POP JUMP JUMPDEST PUSH1 0x0 PUSH2 0xEA5 DUP3 PUSH2 0xE7A JUMP JUMPDEST SWAP1 POP SWAP2 SWAP1 POP JUMP JUMPDEST PUSH2 0xEB5 DUP2 PUSH2 0xE9A JUMP JUMPDEST DUP2 EQ PUSH2 0xEC0 JUMPI PUSH1 0x0 DUP1 REVERT JUMPDEST POP JUMP JUMPDEST PUSH1 0x0 DUP2 CALLDATALOAD SWAP1 POP PUSH2 0xED2 DUP2 PUSH2 0xEAC JUMP JUMPDEST SWAP3 SWAP2 POP POP JUMP JUMPDEST PUSH1 0x0 PUSH1 0x20 DUP3 DUP5 SUB SLT ISZERO PUSH2 0xEEE JUMPI PUSH2 0xEED PUSH2 0xE70 JUMP JUMPDEST JUMPDEST PUSH1 0x0 PUSH2 0xEFC DUP5 DUP3 DUP6 ADD PUSH2 0xEC3 JUMP JUMPDEST SWAP2 POP POP SWAP3 SWAP2 POP POP JUMP JUMPDEST PUSH1 0x0 DUP2 SWAP1 POP SWAP2 SWAP1 POP JUMP JUMPDEST PUSH2 0xF18 DUP2 PUSH2 0xF05 JUMP JUMPDEST DUP2 EQ PUSH2 0xF23 JUMPI PUSH1 0x0 DUP1 REVERT JUMPDEST POP JUMP JUMPDEST PUSH1 0x0 DUP2 CALLDATALOAD SWAP1 POP PUSH2 0xF35 DUP2 PUSH2 0xF0F JUMP JUMPDEST SWAP3 SWAP2 POP POP JUMP JUMPDEST PUSH1 0x0 PUSH1 0x20 DUP3 DUP5 SUB SLT ISZERO PUSH2 0xF51 JUMPI PUSH2 0xF50 PUSH2 0xE70 JUMP JUMPDEST JUMPDEST PUSH1 0x0 PUSH2 0xF5F DUP5 DUP3 DUP6 ADD PUSH2 0xF26 JUMP JUMPDEST SWAP2 POP POP SWAP3 SWAP2 POP POP JUMP JUMPDEST PUSH1 0x0 PUSH2 0xF73 DUP3 PUSH2 0xE7A JUMP JUMPDEST SWAP1 POP SWAP2 SWAP1 POP JUMP JUMPDEST PUSH2 0xF83 DUP2 PUSH2 0xF68 JUMP JUMPDEST DUP3 MSTORE POP POP JUMP JUMPDEST PUSH1 0x0 DUP2 MLOAD SWAP1 POP SWAP2 SWAP1 POP JUMP JUMPDEST PUSH1 0x0 DUP3 DUP3 MSTORE PUSH1 0x20 DUP3 ADD SWAP1 POP SWAP3 SWAP2 POP POP JUMP JUMPDEST PUSH1 0x0 JUMPDEST DUP4 DUP2 LT ISZERO PUSH2 0xFC3 JUMPI DUP1 DUP3 ADD MLOAD DUP2 DUP5 ADD MSTORE PUSH1 0x20 DUP2 ADD SWAP1 POP PUSH2 0xFA8 JUMP JUMPDEST PUSH1 0x0 DUP5 DUP5 ADD MSTORE POP POP POP POP JUMP JUMPDEST PUSH1 0x0 PUSH1 0x1F NOT PUSH1 0x1F DUP4 ADD AND SWAP1 POP SWAP2 SWAP1 POP JUMP JUMPDEST PUSH1 0x0 PUSH2 0xFEB DUP3 PUSH2 0xF89 JUMP JUMPDEST PUSH2 0xFF5 DUP2 DUP6 PUSH2 0xF94 JUMP JUMPDEST SWAP4 POP PUSH2 0x1005 DUP2 DUP6 PUSH1 0x20 DUP7 ADD PUSH2 0xFA5 JUMP JUMPDEST PUSH2 0x100E DUP2 PUSH2 0xFCF JUMP JUMPDEST DUP5 ADD SWAP2 POP POP SWAP3 SWAP2 POP POP JUMP JUMPDEST PUSH2 0x1022 DUP2 PUSH2 0xF05 JUMP JUMPDEST DUP3 MSTORE POP POP JUMP JUMPDEST PUSH1 0x0 DUP2 ISZERO ISZERO SWAP1 POP SWAP2 SWAP1 POP JUMP JUMPDEST PUSH2 0x103D DUP2 PUSH2 0x1028 JUMP JUMPDEST DUP3 MSTORE POP POP JUMP JUMPDEST PUSH1 0x0 PUSH1 0xA0 DUP3 ADD SWAP1 POP PUSH2 0x1058 PUSH1 0x0 DUP4 ADD DUP9 PUSH2 0xF7A JUMP JUMPDEST DUP2 DUP2 SUB PUSH1 0x20 DUP4 ADD MSTORE PUSH2 0x106A DUP2 DUP8 PUSH2 0xFE0 JUMP JUMPDEST SWAP1 POP PUSH2 0x1079 PUSH1 0x40 DUP4 ADD DUP7 PUSH2 0x1019 JUMP JUMPDEST PUSH2 0x1086 PUSH1 0x60 DUP4 ADD DUP6 PUSH2 0x1019 JUMP JUMPDEST PUSH2 0x1093 PUSH1 0x80 DUP4 ADD DUP5 PUSH2 0x1034 JUMP JUMPDEST SWAP7 SWAP6 POP POP POP POP POP POP JUMP JUMPDEST PUSH1 0x0 DUP2 SWAP1 POP SWAP2 SWAP1 POP JUMP JUMPDEST PUSH1 0x0 PUSH2 0x10C2 PUSH2 0x10BD PUSH2 0x10B8 DUP5 PUSH2 0xE7A JUMP JUMPDEST PUSH2 0x109D JUMP JUMPDEST PUSH2 0xE7A JUMP JUMPDEST SWAP1 POP SWAP2 SWAP1 POP JUMP JUMPDEST PUSH1 0x0 PUSH2 0x10D4 DUP3 PUSH2 0x10A7 JUMP JUMPDEST SWAP1 POP SWAP2 SWAP1 POP JUMP JUMPDEST PUSH1 0x0 PUSH2 0x10E6 DUP3 PUSH2 0x10C9 JUMP JUMPDEST SWAP1 POP SWAP2 SWAP1 POP JUMP JUMPDEST PUSH2 0x10F6 DUP2 PUSH2 0x10DB JUMP JUMPDEST DUP3 MSTORE POP POP JUMP JUMPDEST PUSH1 0x0 PUSH1 0x20 DUP3 ADD SWAP1 POP PUSH2 0x1111 PUSH1 0x0 DUP4 ADD DUP5 PUSH2 0x10ED JUMP JUMPDEST SWAP3 SWAP2 POP POP JUMP JUMPDEST PUSH1 0x0 DUP1 REVERT JUMPDEST PUSH1 0x0 DUP1 REVERT JUMPDEST PUSH32 0x4E487B7100000000000000000000000000000000000000000000000000000000 PUSH1 0x0 MSTORE PUSH1 0x41 PUSH1 0x4 MSTORE PUSH1 0x24 PUSH1 0x0 REVERT JUMPDEST PUSH2 0x1159 DUP3 PUSH2 0xFCF JUMP JUMPDEST DUP2 ADD DUP2 DUP2 LT PUSH8 0xFFFFFFFFFFFFFFFF DUP3 GT OR ISZERO PUSH2 0x1178 JUMPI PUSH2 0x1177 PUSH2 0x1121 JUMP JUMPDEST JUMPDEST DUP1 PUSH1 0x40 MSTORE POP POP POP JUMP JUMPDEST PUSH1 0x0 PUSH2 0x118B PUSH2 0xE66 JUMP JUMPDEST SWAP1 POP PUSH2 0x1197 DUP3 DUP3 PUSH2 0x1150 JUMP JUMPDEST SWAP2 SWAP1 POP JUMP JUMPDEST PUSH1 0x0 PUSH8 0xFFFFFFFFFFFFFFFF DUP3 GT ISZERO PUSH2 0x11B7 JUMPI PUSH2 0x11B6 PUSH2 0x1121 JUMP JUMPDEST JUMPDEST PUSH2 0x11C0 DUP3 PUSH2 0xFCF JUMP JUMPDEST SWAP1 POP PUSH1 0x20 DUP2 ADD SWAP1 POP SWAP2 SWAP1 POP JUMP JUMPDEST DUP3 DUP2 DUP4 CALLDATACOPY PUSH1 0x0 DUP4 DUP4 ADD MSTORE POP POP POP JUMP JUMPDEST PUSH1 0x0 PUSH2 0x11EF PUSH2 0x11EA DUP5 PUSH2 0x119C JUMP JUMPDEST PUSH2 0x1181 JUMP JUMPDEST SWAP1 POP DUP3 DUP2 MSTORE PUSH1 0x20 DUP2 ADD DUP5 DUP5 DUP5 ADD GT ISZERO PUSH2 0x120B JUMPI PUSH2 0x120A PUSH2 0x111C JUMP JUMPDEST JUMPDEST PUSH2 0x1216 DUP5 DUP3 DUP6 PUSH2 0x11CD JUMP JUMPDEST POP SWAP4 SWAP3 POP POP POP JUMP JUMPDEST PUSH1 0x0 DUP3 PUSH1 0x1F DUP4 ADD SLT PUSH2 0x1233 JUMPI PUSH2 0x1232 PUSH2 0x1117 JUMP JUMPDEST JUMPDEST DUP2 CALLDATALOAD PUSH2 0x1243 DUP5 DUP3 PUSH1 0x20 DUP7 ADD PUSH2 0x11DC JUMP JUMPDEST SWAP2 POP POP SWAP3 SWAP2 POP POP JUMP JUMPDEST PUSH1 0x0 DUP1 PUSH1 0x40 DUP4 DUP6 SUB SLT ISZERO PUSH2 0x1263 JUMPI PUSH2 0x1262 PUSH2 0xE70 JUMP JUMPDEST JUMPDEST PUSH1 0x0 PUSH2 0x1271 DUP6 DUP3 DUP7 ADD PUSH2 0xF26 JUMP JUMPDEST SWAP3 POP POP PUSH1 0x20 DUP4 ADD CALLDATALOAD PUSH8 0xFFFFFFFFFFFFFFFF DUP2 GT ISZERO PUSH2 0x1292 JUMPI PUSH2 0x1291 PUSH2 0xE75 JUMP JUMPDEST JUMPDEST PUSH2 0x129E DUP6 DUP3 DUP7 ADD PUSH2 0x121E JUMP JUMPDEST SWAP2 POP POP SWAP3 POP SWAP3 SWAP1 POP JUMP JUMPDEST PUSH1 0x0 PUSH1 0x20 DUP3 ADD SWAP1 POP PUSH2 0x12BD PUSH1 0x0 DUP4 ADD DUP5 PUSH2 0xF7A JUMP JUMPDEST SWAP3 SWAP2 POP POP JUMP JUMPDEST PUSH1 0x0 DUP1 PUSH1 0x40 DUP4 DUP6 SUB SLT ISZERO PUSH2 0x12DA JUMPI PUSH2 0x12D9 PUSH2 0xE70 JUMP JUMPDEST JUMPDEST PUSH1 0x0 DUP4 ADD CALLDATALOAD PUSH8 0xFFFFFFFFFFFFFFFF DUP2 GT ISZERO PUSH2 0x12F8 JUMPI PUSH2 0x12F7 PUSH2 0xE75 JUMP JUMPDEST JUMPDEST PUSH2 0x1304 DUP6 DUP3 DUP7 ADD PUSH2 0x121E JUMP JUMPDEST SWAP3 POP POP PUSH1 0x20 PUSH2 0x1315 DUP6 DUP3 DUP7 ADD PUSH2 0xF26 JUMP JUMPDEST SWAP2 POP POP SWAP3 POP SWAP3 SWAP1 POP JUMP JUMPDEST PUSH1 0x0 PUSH1 0x20 DUP3 ADD SWAP1 POP PUSH2 0x1334 PUSH1 0x0 DUP4 ADD DUP5 PUSH2 0x1019 JUMP JUMPDEST SWAP3 SWAP2 POP POP JUMP JUMPDEST PUSH2 0x1343 DUP2 PUSH2 0xF68 JUMP JUMPDEST DUP2 EQ PUSH2 0x134E JUMPI PUSH1 0x0 DUP1 REVERT JUMPDEST POP JUMP JUMPDEST PUSH1 0x0 DUP2 CALLDATALOAD SWAP1 POP PUSH2 0x1360 DUP2 PUSH2 0x133A JUMP JUMPDEST SWAP3 SWAP2 POP POP JUMP JUMPDEST PUSH1 0x0 PUSH1 0x20 DUP3 DUP5 SUB SLT ISZERO PUSH2 0x137C JUMPI PUSH2 0x137B PUSH2 0xE70 JUMP JUMPDEST JUMPDEST PUSH1 0x0 PUSH2 0x138A DUP5 DUP3 DUP6 ADD PUSH2 0x1351 JUMP JUMPDEST SWAP2 POP POP SWAP3 SWAP2 POP POP JUMP JUMPDEST PUSH1 0x0 PUSH2 0x139E DUP3 PUSH2 0x10C9 JUMP JUMPDEST SWAP1 POP SWAP2 SWAP1 POP JUMP JUMPDEST PUSH2 0x13AE DUP2 PUSH2 0x1393 JUMP JUMPDEST DUP3 MSTORE POP POP JUMP JUMPDEST PUSH1 0x0 PUSH1 0x20 DUP3 ADD SWAP1 POP PUSH2 0x13C9 PUSH1 0x0 DUP4 ADD DUP5 PUSH2 0x13A5 JUMP JUMPDEST SWAP3 SWAP2 POP POP JUMP JUMPDEST PUSH32 0x6E6F2062616C616E636500000000000000000000000000000000000000000000 PUSH1 0x0 DUP3 ADD MSTORE POP JUMP JUMPDEST PUSH1 0x0 PUSH2 0x1405 PUSH1 0xA DUP4 PUSH2 0xF94 JUMP JUMPDEST SWAP2 POP PUSH2 0x1410 DUP3 PUSH2 0x13CF JUMP JUMPDEST PUSH1 0x20 DUP3 ADD SWAP1 POP SWAP2 SWAP1 POP JUMP JUMPDEST PUSH1 0x0 PUSH1 0x20 DUP3 ADD SWAP1 POP DUP2 DUP2 SUB PUSH1 0x0 DUP4 ADD MSTORE PUSH2 0x1434 DUP2 PUSH2 0x13F8 JUMP JUMPDEST SWAP1 POP SWAP2 SWAP1 POP JUMP JUMPDEST PUSH1 0x0 DUP2 SWAP1 POP SWAP3 SWAP2 POP POP JUMP JUMPDEST POP JUMP JUMPDEST PUSH1 0x0 PUSH2 0x1456 PUSH1 0x0 DUP4 PUSH2 0x143B JUMP JUMPDEST SWAP2 POP PUSH2 0x1461 DUP3 PUSH2 0x1446 JUMP JUMPDEST PUSH1 0x0 DUP3 ADD SWAP1 POP SWAP2 SWAP1 POP JUMP JUMPDEST PUSH1 0x0 PUSH2 0x1477 DUP3 PUSH2 0x1449 JUMP JUMPDEST SWAP2 POP DUP2 SWAP1 POP SWAP2 SWAP1 POP JUMP JUMPDEST PUSH32 0x7769746864726177206661696C65640000000000000000000000000000000000 PUSH1 0x0 DUP3 ADD MSTORE POP JUMP JUMPDEST PUSH1 0x0 PUSH2 0x14B7 PUSH1 0xF DUP4 PUSH2 0xF94 JUMP JUMPDEST SWAP2 POP PUSH2 0x14C2 DUP3 PUSH2 0x1481 JUMP JUMPDEST PUSH1 0x20 DUP3 ADD SWAP1 POP SWAP2 SWAP1 POP JUMP JUMPDEST PUSH1 0x0 PUSH1 0x20 DUP3 ADD SWAP1 POP DUP2 DUP2 SUB PUSH1 0x0 DUP4 ADD MSTORE PUSH2 0x14E6 DUP2 PUSH2 0x14AA JUMP JUMPDEST SWAP1 POP SWAP2 SWAP1 POP JUMP JUMPDEST PUSH32 0x4E487B7100000000000000000000000000000000000000000000000000000000 PUSH1 0x0 MSTORE PUSH1 0x22 PUSH1 0x4 MSTORE PUSH1 0x24 PUSH1 0x0 REVERT JUMPDEST PUSH1 0x0 PUSH1 0x2 DUP3 DIV SWAP1 POP PUSH1 0x1 DUP3 AND DUP1 PUSH2 0x1534 JUMPI PUSH1 0x7F DUP3 AND SWAP2 POP JUMPDEST PUSH1 0x20 DUP3 LT DUP2 SUB PUSH2 0x1547 JUMPI PUSH2 0x1546 PUSH2 0x14ED JUMP JUMPDEST JUMPDEST POP SWAP2 SWAP1 POP JUMP JUMPDEST PUSH32 0x6E6F742075706C6F616465720000000000000000000000000000000000000000 PUSH1 0x0 DUP3 ADD MSTORE POP JUMP JUMPDEST PUSH1 0x0 PUSH2 0x1583 PUSH1 0xC DUP4 PUSH2 0xF94 JUMP JUMPDEST SWAP2 POP PUSH2 0x158E DUP3 PUSH2 0x154D JUMP JUMPDEST PUSH1 0x20 DUP3 ADD SWAP1 POP SWAP2 SWAP1 POP JUMP JUMPDEST PUSH1 0x0 PUSH1 0x20 DUP3 ADD SWAP1 POP DUP2 DUP2 SUB PUSH1 0x0 DUP4 ADD MSTORE PUSH2 0x15B2 DUP2 PUSH2 0x1576 JUMP JUMPDEST SWAP1 POP SWAP2 SWAP1 POP JUMP JUMPDEST PUSH32 0x6D6F64656C206E6F7420666F756E640000000000000000000000000000000000 PUSH1 0x0 DUP3 ADD MSTORE POP JUMP JUMPDEST PUSH1 0x0 PUSH2 0x15EF PUSH1 0xF DUP4 PUSH2 0xF94 JUMP JUMPDEST SWAP2 POP PUSH2 0x15FA DUP3 PUSH2 0x15B9 JUMP JUMPDEST PUSH1 0x20 DUP3 ADD SWAP1 POP SWAP2 SWAP1 POP JUMP JUMPDEST PUSH1 0x0 PUSH1 0x20 DUP3 ADD SWAP1 POP DUP2 DUP2 SUB PUSH1 0x0 DUP4 ADD MSTORE PUSH2 0x161E DUP2 PUSH2 0x15E2 JUMP JUMPDEST SWAP1 POP SWAP2 SWAP1 POP JUMP JUMPDEST PUSH1 0x0 DUP2 SWAP1 POP DUP2 PUSH1 0x0 MSTORE PUSH1 0x20 PUSH1 0x0 KECCAK256 SWAP1 POP SWAP2 SWAP1 POP JUMP JUMPDEST PUSH1 0x0 PUSH1 0x20 PUSH1 0x1F DUP4 ADD DIV SWAP1 POP SWAP2 SWAP1 POP JUMP JUMPDEST PUSH1 0x0 DUP3 DUP3 SHL SWAP1 POP SWAP3 SWAP2 POP POP JUMP JUMPDEST PUSH1 0x0 PUSH1 0x8 DUP4 MUL PUSH2 0x1687 PUSH32 0xFFFFFFFFFFFFFFFFFFFFFFFFFFFFFFFFFFFFFFFFFFFFFFFFFFFFFFFFFFFFFFFF DUP3 PUSH2 0x164A JUMP JUMPDEST PUSH2 0x1691 DUP7 DUP4 PUSH2 0x164A JUMP JUMPDEST SWAP6 POP DUP1 NOT DUP5 AND SWAP4 POP DUP1 DUP7 AND DUP5 OR SWAP3 POP POP POP SWAP4 SWAP3 POP POP POP JUMP JUMPDEST PUSH1 0x0 PUSH2 0x16C4 PUSH2 0x16BF PUSH2 0x16BA DUP5 PUSH2 0xF05 JUMP JUMPDEST PUSH2 0x109D JUMP JUMPDEST PUSH2 0xF05 JUMP JUMPDEST SWAP1 POP SWAP2 SWAP1 POP JUMP JUMPDEST PUSH1 0x0 DUP2 SWAP1 POP SWAP2 SWAP1 POP JUMP JUMPDEST PUSH2 0x16DE DUP4 PUSH2 0x16A9 JUMP JUMPDEST PUSH2 0x16F2 PUSH2 0x16EA DUP3 PUSH2 0x16CB JUMP JUMPDEST DUP5 DUP5 SLOAD PUSH2 0x1657 JUMP JUMPDEST DUP3 SSTORE POP POP POP POP JUMP JUMPDEST PUSH1 0x0 SWAP1 JUMP JUMPDEST PUSH2 0x1707 PUSH2 0x16FA JUMP JUMPDEST PUSH2 0x1712 DUP2 DUP5 DUP5 PUSH2 0x16D5 JUMP JUMPDEST POP POP POP JUMP JUMPDEST JUMPDEST DUP2 DUP2 LT ISZERO PUSH2 0x1736 JUMPI PUSH2 0x172B PUSH1 0x0 DUP3 PUSH2 0x16FF JUMP JUMPDEST PUSH1 0x1 DUP2 ADD SWAP1 POP PUSH2 0x1718 JUMP JUMPDEST POP POP JUMP JUMPDEST PUSH1 0x1F DUP3 GT ISZERO PUSH2 0x177B JUMPI PUSH2 0x174C DUP2 PUSH2 0x1625 JUMP JUMPDEST PUSH2 0x1755 DUP5 PUSH2 0x163A JUMP JUMPDEST DUP2 ADD PUSH1 0x20 DUP6 LT ISZERO PUSH2 0x1764 JUMPI DUP2 SWAP1 POP JUMPDEST PUSH2 0x1778 PUSH2 0x1770 DUP6 PUSH2 0x163A JUMP JUMPDEST DUP4 ADD DUP3 PUSH2 0x1717 JUMP JUMPDEST POP POP JUMPDEST POP POP POP JUMP JUMPDEST PUSH1 0x0 DUP3 DUP3 SHR SWAP1 POP SWAP3 SWAP2 POP POP JUMP JUMPDEST PUSH1 0x0 PUSH2 0x179E PUSH1 0x0 NOT DUP5 PUSH1 0x8 MUL PUSH2 0x1780 JUMP JUMPDEST NOT DUP1 DUP4 AND SWAP2 POP POP SWAP3 SWAP2 POP POP JUMP JUMPDEST PUSH1 0x0 PUSH2 0x17B7 DUP4 DUP4 PUSH2 0x178D JUMP JUMPDEST SWAP2 POP DUP3 PUSH1 0x2 MUL DUP3 OR SWAP1 POP SWAP3 SWAP2 POP POP JUMP JUMPDEST PUSH2 0x17D0 DUP3 PUSH2 0xF89 JUMP JUMPDEST PUSH8 0xFFFFFFFFFFFFFFFF DUP2 GT ISZERO PUSH2 0x17E9 JUMPI PUSH2 0x17E8 PUSH2 0x1121 JUMP JUMPDEST JUMPDEST PUSH2 0x17F3 DUP3 SLOAD PUSH2 0x151C JUMP JUMPDEST PUSH2 0x17FE DUP3 DUP3 DUP6 PUSH2 0x173A JUMP JUMPDEST PUSH1 0x0 PUSH1 0x20 SWAP1 POP PUSH1 0x1F DUP4 GT PUSH1 0x1 DUP2 EQ PUSH2 0x1831 JUMPI PUSH1 0x0 DUP5 ISZERO PUSH2 0x181F JUMPI DUP3 DUP8 ADD MLOAD SWAP1 POP JUMPDEST PUSH2 0x1829 DUP6 DUP3 PUSH2 0x17AB JUMP JUMPDEST DUP7 SSTORE POP PUSH2 0x1891 JUMP JUMPDEST PUSH1 0x1F NOT DUP5 AND PUSH2 0x183F DUP7 PUSH2 0x1625 JUMP JUMPDEST PUSH1 0x0 JUMPDEST DUP3 DUP2 LT ISZERO PUSH2 0x1867 JUMPI DUP5 DUP10 ADD MLOAD DUP3 SSTORE PUSH1 0x1 DUP3 ADD SWAP2 POP PUSH1 0x20 DUP6 ADD SWAP5 POP PUSH1 0x20 DUP2 ADD SWAP1 POP PUSH2 0x1842 JUMP JUMPDEST DUP7 DUP4 LT ISZERO PUSH2 0x1884 JUMPI DUP5 DUP10 ADD MLOAD PUSH2 0x1880 PUSH1 0x1F DUP10 AND DUP3 PUSH2 0x178D JUMP JUMPDEST DUP4 SSTORE POP JUMPDEST PUSH1 0x1 PUSH1 0x2 DUP9 MUL ADD DUP9 SSTORE POP POP POP JUMPDEST POP POP POP POP POP POP JUMP JUMPDEST PUSH32 0x4E487B7100000000000000000000000000000000000000000000000000000000 PUSH1 0x0 MSTORE PUSH1 0x11 PUSH1 0x4 MSTORE PUSH1 0x24 PUSH1 0x0 REVERT JUMPDEST PUSH1 0x0 PUSH2 0x18D3 DUP3 PUSH2 0xF05 JUMP JUMPDEST SWAP2 POP PUSH2 0x18DE DUP4 PUSH2 0xF05 JUMP JUMPDEST SWAP3 POP DUP3 DUP3 ADD SWAP1 POP DUP1 DUP3 GT ISZERO PUSH2 0x18F6 JUMPI PUSH2 0x18F5 PUSH2 0x1899 JUMP JUMPDEST JUMPDEST SWAP3 SWAP2 POP POP JUMP JUMPDEST PUSH1 0x0 PUSH1 0x40 DUP3 ADD SWAP1 POP DUP2 DUP2 SUB PUSH1 0x0 DUP4 ADD MSTORE PUSH2 0x1916 DUP2 DUP6 PUSH2 0xFE0 JUMP JUMPDEST SWAP1 POP PUSH2 0x1925 PUSH1 0x20 DUP4 ADD DUP5 PUSH2 0x1019 JUMP JUMPDEST SWAP4 SWAP3 POP POP POP JUMP JUMPDEST PUSH1 0x0 PUSH2 0x1937 DUP3 PUSH2 0xF05 JUMP JUMPDEST SWAP2 POP PUSH32 0xFFFFFFFFFFFFFFFFFFFFFFFFFFFFFFFFFFFFFFFFFFFFFFFFFFFFFFFFFFFFFFFF DUP3 SUB PUSH2 0x1969 JUMPI PUSH2 0x1968 PUSH2 0x1899 JUMP JUMPDEST JUMPDEST PUSH1 0x1 DUP3 ADD SWAP1 POP SWAP2 SWAP1 POP JUMP JUMPDEST PUSH1 0x0 PUSH1 0x40 DUP3 ADD SWAP1 POP PUSH2 0x1989 PUSH1 0x0 DUP4 ADD DUP6 PUSH2 0xF7A JUMP JUMPDEST DUP2 DUP2 SUB PUSH1 0x20 DUP4 ADD MSTORE PUSH2 0x199B DUP2 DUP5 PUSH2 0xFE0 JUMP JUMPDEST SWAP1 POP SWAP4 SWAP3 POP POP POP JUMP JUMPDEST PUSH1 0x0 DUP2 MLOAD SWAP1 POP PUSH2 0x19B3 DUP2 PUSH2 0xF0F JUMP JUMPDEST SWAP3 SWAP2 POP POP JUMP JUMPDEST PUSH1 0x0 PUSH1 0x20 DUP3 DUP5 SUB SLT ISZERO PUSH2 0x19CF JUMPI PUSH2 0x19CE PUSH2 0xE70 JUMP JUMPDEST JUMPDEST PUSH1 0x0 PUSH2 0x19DD DUP5 DUP3 DUP6 ADD PUSH2 0x19A4 JUMP JUMPDEST SWAP2 POP POP SWAP3 SWAP2 POP POP JUMP JUMPDEST PUSH32 0x696E73756666696369656E742066756E64730000000000000000000000000000 PUSH1 0x0 DUP3 ADD MSTORE POP JUMP JUMPDEST PUSH1 0x0 PUSH2 0x1A1C PUSH1 0x12 DUP4 PUSH2 0xF94 JUMP JUMPDEST SWAP2 POP PUSH2 0x1A27 DUP3 PUSH2 0x19E6 JUMP JUMPDEST PUSH1 0x20 DUP3 ADD SWAP1 POP SWAP2 SWAP1 POP JUMP JUMPDEST PUSH1 0x0 PUSH1 0x20 DUP3 ADD SWAP1 POP DUP2 DUP2 SUB PUSH1 0x0 DUP4 ADD MSTORE PUSH2 0x1A4B DUP2 PUSH2 0x1A0F JUMP JUMPDEST SWAP1 POP SWAP2 SWAP1 POP JUMP JUMPDEST PUSH32 0x7472616E73666572206661696C65640000000000000000000000000000000000 PUSH1 0x0 DUP3 ADD MSTORE POP JUMP JUMPDEST PUSH1 0x0 PUSH2 0x1A88 PUSH1 0xF DUP4 PUSH2 0xF94 JUMP JUMPDEST SWAP2 POP PUSH2 0x1A93 DUP3 PUSH2 0x1A52 JUMP JUMPDEST PUSH1 0x20 DUP3 ADD SWAP1 POP SWAP2 SWAP1 POP JUMP JUMPDEST PUSH1 0x0 PUSH1 0x20 DUP3 ADD SWAP1 POP DUP2 DUP2 SUB PUSH1 0x0 DUP4 ADD MSTORE PUSH2 0x1AB7 DUP2 PUSH2 0x1A7B JUMP JUMPDEST SWAP1 POP SWAP2 SWAP1 POP JUMP JUMPDEST PUSH1 0x0 PUSH2 0x1AC9 DUP3 PUSH2 0xF05 JUMP JUMPDEST SWAP2 POP PUSH2 0x1AD4 DUP4 PUSH2 0xF05 JUMP JUMPDEST SWAP3 POP DUP3 DUP3 SUB SWAP1 POP DUP2 DUP2 GT ISZERO PUSH2 0x1AEC JUMPI PUSH2 0x1AEB PUSH2 0x1899 JUMP JUMPDEST JUMPDEST SWAP3 SWAP2 POP POP JUMP JUMPDEST PUSH32 0x726566756E64206661696C656400000000000000000000000000000000000000 PUSH1 0x0 DUP3 ADD MSTORE POP JUMP JUMPDEST PUSH1 0x0 PUSH2 0x1B28 PUSH1 0xD DUP4 PUSH2 0xF94 JUMP JUMPDEST SWAP2 POP PUSH2 0x1B33 DUP3 PUSH2 0x1AF2 JUMP JUMPDEST PUSH1 0x20 DUP3 ADD SWAP1 POP SWAP2 SWAP1 POP JUMP JUMPDEST PUSH1 0x0 PUSH1 0x20 DUP3 ADD SWAP1 POP DUP2 DUP2 SUB PUSH1 0x0 DUP4 ADD MSTORE PUSH2 0x1B57 DUP2 PUSH2 0x1B1B JUMP JUMPDEST SWAP1 POP SWAP2 SWAP1 POP JUMP JUMPDEST PUSH32 0x4F776E61626C653A206E6577206F776E657220697320746865207A65726F2061 PUSH1 0x0 DUP3 ADD MSTORE PUSH32 0x6464726573730000000000000000000000000000000000000000000000000000 PUSH1 0x20 DUP3 ADD MSTORE POP JUMP JUMPDEST PUSH1 0x0 PUSH2 0x1BBA PUSH1 0x26 DUP4 PUSH2 0xF94 JUMP JUMPDEST SWAP2 POP PUSH2 0x1BC5 DUP3 PUSH2 0x1B5E JUMP JUMPDEST PUSH1 0x40 DUP3 ADD SWAP1 POP SWAP2 SWAP1 POP JUMP JUMPDEST PUSH1 0x0 PUSH1 0x20 DUP3 ADD SWAP1 POP DUP2 DUP2 SUB PUSH1 0x0 DUP4 ADD MSTORE PUSH2 0x1BE9 DUP2 PUSH2 0x1BAD JUMP JUMPDEST SWAP1 POP SWAP2 SWAP1 POP JUMP JUMPDEST PUSH32 0x4F776E61626C653A2063616C6C6572206973206E6F7420746865206F776E6572 PUSH1 0x0 DUP3 ADD MSTORE POP JUMP JUMPDEST PUSH1 0x0 PUSH2 0x1C26 PUSH1 0x20 DUP4 PUSH2 0xF94 JUMP JUMPDEST SWAP2 POP PUSH2 0x1C31 DUP3 PUSH2 0x1BF0 JUMP JUMPDEST PUSH1 0x20 DUP3 ADD SWAP1 POP SWAP2 SWAP1 POP JUMP JUMPDEST PUSH1 0x0 PUSH1 0x20 DUP3 ADD SWAP1 POP DUP2 DUP2 SUB PUSH1 0x0 DUP4 ADD MSTORE PUSH2 0x1C55 DUP2 PUSH2 0x1C19 JUMP JUMPDEST SWAP1 POP SWAP2 SWAP1 POP JUMP JUMPDEST PUSH32 0x5265656E7472616E637947756172643A207265656E7472616E742063616C6C00 PUSH1 0x0 DUP3 ADD MSTORE POP JUMP JUMPDEST PUSH1 0x0 PUSH2 0x1C92 PUSH1 0x1F DUP4 PUSH2 0xF94 JUMP JUMPDEST SWAP2 POP PUSH2 0x1C9D DUP3 PUSH2 0x1C5C JUMP JUMPDEST PUSH1 0x20 DUP3 ADD SWAP1 POP SWAP2 SWAP1 POP JUMP JUMPDEST PUSH1 0x0 PUSH1 0x20 DUP3 ADD SWAP1 POP DUP2 DUP2 SUB PUSH1 0x0 DUP4 ADD MSTORE PUSH2 0x1CC1 DUP2 PUSH2 0x1C85 JUMP JUMPDEST SWAP1 POP SWAP2 SWAP1 POP JUMP INVALID LOG2 PUSH5 0x6970667358 0x22 SLT KECCAK256 0xDB OR 0xD SDIV SWAP7 0xA9 SWAP13 PUSH8 0x32EC0FABBE3E1369 SWAP4 CALLDATALOAD SWAP2 OR 0xE4 CODESIZE 0x1F DUP7 0xC5 PUSH1 0x20 PC 0x1E SWAP13 0xEE PUSH6 0x64736F6C6343 STOP ADDMOD EQ STOP CALLER "},"methodIdentifiers":{"buyModel(uint256)":"bf6a6fc1","fragmentManager()":"eeb7cfa3","modelCounter()":"cc408b8a","models(uint256)":"6a030ca9","owner()":"8da5cb5b","renounceOwnership()":"715018a6","rewardTemplateId()":"fbe5dd34","setFragmentManager(address)":"bcbd4684","transferOwnership(address)":"f2fde38b","updateModel(uint256,string)":"8916af42","uploadModel(string,uint256)":"923f5a59","vaultToken()":"703bafd5","withdraw(address)":"51cff8d9"}}}}}