{"contracts/vaultnet.sol":{"VaultNet":{"abi":[{"anonymous":false,"inputs":[{"indexed":false,"internalType":"string","name":"message","type":"string"},{"indexed":false,"internalType":"address","name":"sender","type":"address"},{"indexed":false,"internalType":"uint256","name":"value","type":"uint256"}],"name":"DebugLog","type":"event"},{"anonymous":false,"inputs":[{"indexed":true,"internalType":"uint256","name":"id","type":"uint256"},{"indexed":true,"internalType":"address","name":"owner","type":"address"},{"indexed":false,"internalType":"string","name":"modelName","type":"string"},{"indexed":false,"internalType":"string","name":"description","type":"string"},{"indexed":false,"internalType":"string","name":"ipfsHash","type":"string"},{"indexed":false,"internalType":"uint256","name":"timestamp","type":"uint256"}],"name":"ModelRegistered","type":"event"},{"inputs":[],"name":"getAllModelIds","outputs":[{"internalType":"uint256[]","name":"","type":"uint256[]"}],"stateMutability":"view","type":"function"},{"inputs":[],"name":"getContractInfo","outputs":[{"internalType":"string","name":"contractName","type":"string"},{"internalType":"string","name":"contractSymbol","type":"string"},{"internalType":"uint256","name":"totalModels","type":"uint256"}],"stateMutability":"view","type":"function"},{"inputs":[{"internalType":"uint256","name":"_id","type":"uint256"}],"name":"getModel","outputs":[{"internalType":"uint256","name":"id","type":"uint256"},{"internalType":"string","name":"modelName","type":"string"},{"internalType":"string","name":"description","type":"string"},{"internalType":"string","name":"ipfsHash","type":"string"},{"internalType":"address","name":"owner","type":"address"},{"internalType":"uint256","name":"timestamp","type":"uint256"}],"stateMutability":"view","type":"function"},{"inputs":[],"name":"modelCount","outputs":[{"internalType":"uint256","name":"","type":"uint256"}],"stateMutability":"view","type":"function"},{"inputs":[{"internalType":"uint256","name":"","type":"uint256"}],"name":"models","outputs":[{"internalType":"uint256","name":"id","type":"uint256"},{"internalType":"string","name":"modelName","type":"string"},{"internalType":"string","name":"description","type":"string"},{"internalType":"string","name":"ipfsHash","type":"string"},{"internalType":"address","name":"owner","type":"address"},{"internalType":"uint256","name":"timestamp","type":"uint256"}],"stateMutability":"view","type":"function"},{"inputs":[],"name":"name","outputs":[{"internalType":"string","name":"","type":"string"}],"stateMutability":"view","type":"function"},{"inputs":[{"internalType":"string","name":"_modelName","type":"string"},{"internalType":"string","name":"_description","type":"string"},{"internalType":"string","name":"_ipfsHash","type":"string"}],"name":"registerModel","outputs":[],"stateMutability":"nonpayable","type":"function"},{"inputs":[],"name":"symbol","outputs":[{"internalType":"string","name":"","type":"string"}],"stateMutability":"view","type":"function"}],"evm":{"bytecode":{"linkReferences":{},"object":"60806040526040518060400160405280600981526020017f5661756c74204e65740000000000000000000000000000000000000000000000815250600090816200004a919062000325565b506040518060400160405280600381526020017f564e5400000000000000000000000000000000000000000000000000000000008152506001908162000091919062000325565b506000600255348015620000a457600080fd5b506200040c565b600081519050919050565b7f4e487b7100000000000000000000000000000000000000000000000000000000600052604160045260246000fd5b7f4e487b7100000000000000000000000000000000000000000000000000000000600052602260045260246000fd5b600060028204905060018216806200012d57607f821691505b602082108103620001435762000142620000e5565b5b50919050565b60008190508160005260206000209050919050565b60006020601f8301049050919050565b600082821b905092915050565b600060088302620001ad7fffffffffffffffffffffffffffffffffffffffffffffffffffffffffffffffff826200016e565b620001b986836200016e565b95508019841693508086168417925050509392505050565b6000819050919050565b6000819050919050565b60006200020662000200620001fa84620001d1565b620001db565b620001d1565b9050919050565b6000819050919050565b6200022283620001e5565b6200023a62000231826200020d565b8484546200017b565b825550505050565b600090565b6200025162000242565b6200025e81848462000217565b505050565b5b8181101562000286576200027a60008262000247565b60018101905062000264565b5050565b601f821115620002d5576200029f8162000149565b620002aa846200015e565b81016020851015620002ba578190505b620002d2620002c9856200015e565b83018262000263565b50505b505050565b600082821c905092915050565b6000620002fa60001984600802620002da565b1980831691505092915050565b6000620003158383620002e7565b9150826002028217905092915050565b6200033082620000ab565b67ffffffffffffffff8111156200034c576200034b620000b6565b5b62000358825462000114565b620003658282856200028a565b600060209050601f8311600181146200039d576000841562000388578287015190505b62000394858262000307565b86555062000404565b601f198416620003ad8662000149565b60005b82811015620003d757848901518255600182019150602085019450602081019050620003b0565b86831015620003f75784890151620003f3601f891682620002e7565b8355505b6001600288020188555050505b505050505050565b611f93806200041c6000396000f3fe608060405234801561001057600080fd5b50600436106100885760003560e01c80637715fcc31161005b5780637715fcc3146101335780637cc1f8671461014f57806395d89b411461016f578063c6a645fe1461018d57610088565b806306fdde031461008d5780632122496d146100ab5780636a030ca9146100c95780636d361694146100fe575b600080fd5b6100956101ab565b6040516100a291906114a1565b60405180910390f35b6100b3610239565b6040516100c0919061158b565b60405180910390f35b6100e360048036038101906100de91906115ed565b6102d5565b6040516100f59695949392919061166a565b60405180910390f35b610118600480360381019061011391906115ed565b6104c9565b60405161012a9695949392919061166a565b60405180910390f35b61014d60048036038101906101489190611815565b61096a565b005b610157610d80565b604051610166939291906118bc565b60405180910390f35b6101776110c0565b60405161018491906114a1565b60405180910390f35b61019561114e565b6040516101a29190611901565b60405180910390f35b600080546101b89061194b565b80601f01602080910402602001604051908101604052809291908181526020018280546101e49061194b565b80156102315780601f1061020657610100808354040283529160200191610231565b820191906000526020600020905b81548152906001019060200180831161021457829003601f168201915b505050505081565b606061027f6040518060400160405280601f81526020017f52657475726e696e6720616c6c206d6f64656c204944732e20436f756e743a00815250600380549050611154565b60038054806020026020016040519081016040528092919081815260200182805480156102cb57602002820191906000526020600020905b8154815260200190600101908083116102b7575b5050505050905090565b60046020528060005260406000206000915090508060000154908060010180546102fe9061194b565b80601f016020809104026020016040519081016040528092919081815260200182805461032a9061194b565b80156103775780601f1061034c57610100808354040283529160200191610377565b820191906000526020600020905b81548152906001019060200180831161035a57829003601f168201915b50505050509080600201805461038c9061194b565b80601f01602080910402602001604051908101604052809291908181526020018280546103b89061194b565b80156104055780601f106103da57610100808354040283529160200191610405565b820191906000526020600020905b8154815290600101906020018083116103e857829003601f168201915b50505050509080600301805461041a9061194b565b80601f01602080910402602001604051908101604052809291908181526020018280546104469061194b565b80156104935780601f1061046857610100808354040283529160200191610493565b820191906000526020600020905b81548152906001019060200180831161047657829003601f168201915b5050505050908060040160009054906101000a900473ffffffffffffffffffffffffffffffffffffffff16908060050154905086565b600060608060606000806000871180156104e557506002548711155b610524576040517f08c379a000000000000000000000000000000000000000000000000000000000815260040161051b906119c8565b60405180910390fd5b6000600460008981526020019081526020016000206040518060c00160405290816000820154815260200160018201805461055e9061194b565b80601f016020809104026020016040519081016040528092919081815260200182805461058a9061194b565b80156105d75780601f106105ac576101008083540402835291602001916105d7565b820191906000526020600020905b8154815290600101906020018083116105ba57829003601f168201915b505050505081526020016002820180546105f09061194b565b80601f016020809104026020016040519081016040528092919081815260200182805461061c9061194b565b80156106695780601f1061063e57610100808354040283529160200191610669565b820191906000526020600020905b81548152906001019060200180831161064c57829003601f168201915b505050505081526020016003820180546106829061194b565b80601f01602080910402602001604051908101604052809291908181526020018280546106ae9061194b565b80156106fb5780601f106106d0576101008083540402835291602001916106fb565b820191906000526020600020905b8154815290600101906020018083116106de57829003601f168201915b505050505081526020016004820160009054906101000a900473ffffffffffffffffffffffffffffffffffffffff1673ffffffffffffffffffffffffffffffffffffffff1673ffffffffffffffffffffffffffffffffffffffff16815260200160058201548152505090506107a46040518060400160405280601181526020017f52657472696576696e67204d6f64656c3a0000000000000000000000000000008152506111f0565b6107e76040518060400160405280600381526020017f49443a00000000000000000000000000000000000000000000000000000000008152508260000151611154565b61082a6040518060400160405280600681526020017f4f776e65723a00000000000000000000000000000000000000000000000000008152508260800151611289565b61086d6040518060400160405280600581526020017f4e616d653a0000000000000000000000000000000000000000000000000000008152508260200151611325565b6108b06040518060400160405280600c81526020017f4465736372697074696f6e3a00000000000000000000000000000000000000008152508260400151611325565b6108f36040518060400160405280600a81526020017f4950465320486173683a000000000000000000000000000000000000000000008152508260600151611325565b6109366040518060400160405280600a81526020017f54696d657374616d703a000000000000000000000000000000000000000000008152508260a00151611154565b806000015181602001518260400151836060015184608001518560a001519650965096509650965096505091939550919395565b60008351116109ae576040517f08c379a00000000000000000000000000000000000000000000000000000000081526004016109a590611a34565b60405180910390fd5b60008151116109f2576040517f08c379a00000000000000000000000000000000000000000000000000000000081526004016109e990611aa0565b60405180910390fd5b60026000815480929190610a0590611aef565b91905055506040518060c0016040528060025481526020018481526020018381526020018281526020013373ffffffffffffffffffffffffffffffffffffffff16815260200142815250600460006002548152602001908152602001600020600082015181600001556020820151816001019081610a839190611ce3565b506040820151816002019081610a999190611ce3565b506060820151816003019081610aaf9190611ce3565b5060808201518160040160006101000a81548173ffffffffffffffffffffffffffffffffffffffff021916908373ffffffffffffffffffffffffffffffffffffffff16021790555060a0820151816005015590505060036002549080600181540180825580915050600190039060005260206000200160009091909190915055610b6d6040518060400160405280601181526020017f4d6f64656c2052656769737465726564210000000000000000000000000000008152506111f0565b610bae6040518060400160405280600381526020017f49443a0000000000000000000000000000000000000000000000000000000000815250600254611154565b610bed6040518060400160405280600681526020017f4f776e65723a000000000000000000000000000000000000000000000000000081525033611289565b610c2c6040518060400160405280600581526020017f4e616d653a00000000000000000000000000000000000000000000000000000081525084611325565b610c6b6040518060400160405280600c81526020017f4465736372697074696f6e3a000000000000000000000000000000000000000081525083611325565b610caa6040518060400160405280600a81526020017f4950465320486173683a0000000000000000000000000000000000000000000081525082611325565b610ce96040518060400160405280600a81526020017f54696d657374616d703a0000000000000000000000000000000000000000000081525042611154565b3373ffffffffffffffffffffffffffffffffffffffff166002547f79e59378a92568843968c4a9cf366a534a86cea6350a22663fc48a784162778685858542604051610d389493929190611db5565b60405180910390a37fb515f8464a2e9f92f223836cb4d97889b194249a3f5a6bae6b346c6b0ac8fd5533600254604051610d73929190611e5b565b60405180910390a1505050565b6060806000610dc36040518060400160405280601781526020017f436f6e747261637420496e666f207265717565737465640000000000000000008152506111f0565b610e8c6040518060400160405280600581526020017f4e616d653a00000000000000000000000000000000000000000000000000000081525060008054610e099061194b565b80601f0160208091040260200160405190810160405280929190818152602001828054610e359061194b565b8015610e825780601f10610e5757610100808354040283529160200191610e82565b820191906000526020600020905b815481529060010190602001808311610e6557829003601f168201915b5050505050611325565b610f556040518060400160405280600781526020017f53796d626f6c3a0000000000000000000000000000000000000000000000000081525060018054610ed29061194b565b80601f0160208091040260200160405190810160405280929190818152602001828054610efe9061194b565b8015610f4b5780601f10610f2057610100808354040283529160200191610f4b565b820191906000526020600020905b815481529060010190602001808311610f2e57829003601f168201915b5050505050611325565b610f966040518060400160405280600d81526020017f546f74616c204d6f64656c733a00000000000000000000000000000000000000815250600254611154565b60006001600254828054610fa99061194b565b80601f0160208091040260200160405190810160405280929190818152602001828054610fd59061194b565b80156110225780601f10610ff757610100808354040283529160200191611022565b820191906000526020600020905b81548152906001019060200180831161100557829003601f168201915b505050505092508180546110359061194b565b80601f01602080910402602001604051908101604052809291908181526020018280546110619061194b565b80156110ae5780601f10611083576101008083540402835291602001916110ae565b820191906000526020600020905b81548152906001019060200180831161109157829003601f168201915b50505050509150925092509250909192565b600180546110cd9061194b565b80601f01602080910402602001604051908101604052809291908181526020018280546110f99061194b565b80156111465780601f1061111b57610100808354040283529160200191611146565b820191906000526020600020905b81548152906001019060200180831161112957829003601f168201915b505050505081565b60025481565b6111ec828260405160240161116a929190611e97565b6040516020818303038152906040527fb60e72cc000000000000000000000000000000000000000000000000000000007bffffffffffffffffffffffffffffffffffffffffffffffffffffffff19166020820180517bffffffffffffffffffffffffffffffffffffffffffffffffffffffff83818316178352505050506113c1565b5050565b6112868160405160240161120491906114a1565b6040516020818303038152906040527f41304fac000000000000000000000000000000000000000000000000000000007bffffffffffffffffffffffffffffffffffffffffffffffffffffffff19166020820180517bffffffffffffffffffffffffffffffffffffffffffffffffffffffff83818316178352505050506113c1565b50565b611321828260405160240161129f929190611ec7565b6040516020818303038152906040527f319af333000000000000000000000000000000000000000000000000000000007bffffffffffffffffffffffffffffffffffffffffffffffffffffffff19166020820180517bffffffffffffffffffffffffffffffffffffffffffffffffffffffff83818316178352505050506113c1565b5050565b6113bd828260405160240161133b929190611ef7565b6040516020818303038152906040527f4b5c4277000000000000000000000000000000000000000000000000000000007bffffffffffffffffffffffffffffffffffffffffffffffffffffffff19166020820180517bffffffffffffffffffffffffffffffffffffffffffffffffffffffff83818316178352505050506113c1565b5050565b6113d8816113d06113db6113fc565b63ffffffff16565b50565b60006a636f6e736f6c652e6c6f679050600080835160208501845afa505050565b611407819050919050565b61140f611f2e565b565b600081519050919050565b600082825260208201905092915050565b60005b8381101561144b578082015181840152602081019050611430565b60008484015250505050565b6000601f19601f8301169050919050565b600061147382611411565b61147d818561141c565b935061148d81856020860161142d565b61149681611457565b840191505092915050565b600060208201905081810360008301526114bb8184611468565b905092915050565b600081519050919050565b600082825260208201905092915050565b6000819050602082019050919050565b6000819050919050565b611502816114ef565b82525050565b600061151483836114f9565b60208301905092915050565b6000602082019050919050565b6000611538826114c3565b61154281856114ce565b935061154d836114df565b8060005b8381101561157e5781516115658882611508565b975061157083611520565b925050600181019050611551565b5085935050505092915050565b600060208201905081810360008301526115a5818461152d565b905092915050565b6000604051905090565b600080fd5b600080fd5b6115ca816114ef565b81146115d557600080fd5b50565b6000813590506115e7816115c1565b92915050565b600060208284031215611603576116026115b7565b5b6000611611848285016115d8565b91505092915050565b611623816114ef565b82525050565b600073ffffffffffffffffffffffffffffffffffffffff82169050919050565b600061165482611629565b9050919050565b61166481611649565b82525050565b600060c08201905061167f600083018961161a565b81810360208301526116918188611468565b905081810360408301526116a58187611468565b905081810360608301526116b98186611468565b90506116c8608083018561165b565b6116d560a083018461161a565b979650505050505050565b600080fd5b600080fd5b7f4e487b7100000000000000000000000000000000000000000000000000000000600052604160045260246000fd5b61172282611457565b810181811067ffffffffffffffff82111715611741576117406116ea565b5b80604052505050565b60006117546115ad565b90506117608282611719565b919050565b600067ffffffffffffffff8211156117805761177f6116ea565b5b61178982611457565b9050602081019050919050565b82818337600083830152505050565b60006117b86117b384611765565b61174a565b9050828152602081018484840111156117d4576117d36116e5565b5b6117df848285611796565b509392505050565b600082601f8301126117fc576117fb6116e0565b5b813561180c8482602086016117a5565b91505092915050565b60008060006060848603121561182e5761182d6115b7565b5b600084013567ffffffffffffffff81111561184c5761184b6115bc565b5b611858868287016117e7565b935050602084013567ffffffffffffffff811115611879576118786115bc565b5b611885868287016117e7565b925050604084013567ffffffffffffffff8111156118a6576118a56115bc565b5b6118b2868287016117e7565b9150509250925092565b600060608201905081810360008301526118d68186611468565b905081810360208301526118ea8185611468565b90506118f9604083018461161a565b949350505050565b6000602082019050611916600083018461161a565b92915050565b7f4e487b7100000000000000000000000000000000000000000000000000000000600052602260045260246000fd5b6000600282049050600182168061196357607f821691505b6020821081036119765761197561191c565b5b50919050565b7f496e76616c6964206d6f64656c20494400000000000000000000000000000000600082015250565b60006119b260108361141c565b91506119bd8261197c565b602082019050919050565b600060208201905081810360008301526119e1816119a5565b9050919050565b7f4d6f64656c206e616d6520726571756972656400000000000000000000000000600082015250565b6000611a1e60138361141c565b9150611a29826119e8565b602082019050919050565b60006020820190508181036000830152611a4d81611a11565b9050919050565b7f4950465320686173682072657175697265640000000000000000000000000000600082015250565b6000611a8a60128361141c565b9150611a9582611a54565b602082019050919050565b60006020820190508181036000830152611ab981611a7d565b9050919050565b7f4e487b7100000000000000000000000000000000000000000000000000000000600052601160045260246000fd5b6000611afa826114ef565b91507fffffffffffffffffffffffffffffffffffffffffffffffffffffffffffffffff8203611b2c57611b2b611ac0565b5b600182019050919050565b60008190508160005260206000209050919050565b60006020601f8301049050919050565b600082821b905092915050565b600060088302611b997fffffffffffffffffffffffffffffffffffffffffffffffffffffffffffffffff82611b5c565b611ba38683611b5c565b95508019841693508086168417925050509392505050565b6000819050919050565b6000611be0611bdb611bd6846114ef565b611bbb565b6114ef565b9050919050565b6000819050919050565b611bfa83611bc5565b611c0e611c0682611be7565b848454611b69565b825550505050565b600090565b611c23611c16565b611c2e818484611bf1565b505050565b5b81811015611c5257611c47600082611c1b565b600181019050611c34565b5050565b601f821115611c9757611c6881611b37565b611c7184611b4c565b81016020851015611c80578190505b611c94611c8c85611b4c565b830182611c33565b50505b505050565b600082821c905092915050565b6000611cba60001984600802611c9c565b1980831691505092915050565b6000611cd38383611ca9565b9150826002028217905092915050565b611cec82611411565b67ffffffffffffffff811115611d0557611d046116ea565b5b611d0f825461194b565b611d1a828285611c56565b600060209050601f831160018114611d4d5760008415611d3b578287015190505b611d458582611cc7565b865550611dad565b601f198416611d5b86611b37565b60005b82811015611d8357848901518255600182019150602085019450602081019050611d5e565b86831015611da05784890151611d9c601f891682611ca9565b8355505b6001600288020188555050505b505050505050565b60006080820190508181036000830152611dcf8187611468565b90508181036020830152611de38186611468565b90508181036040830152611df78185611468565b9050611e06606083018461161a565b95945050505050565b7f4d6f64656c207375636365737366756c6c792072656769737465726564000000600082015250565b6000611e45601d8361141c565b9150611e5082611e0f565b602082019050919050565b60006060820190508181036000830152611e7481611e38565b9050611e83602083018561165b565b611e90604083018461161a565b9392505050565b60006040820190508181036000830152611eb18185611468565b9050611ec0602083018461161a565b9392505050565b60006040820190508181036000830152611ee18185611468565b9050611ef0602083018461165b565b9392505050565b60006040820190508181036000830152611f118185611468565b90508181036020830152611f258184611468565b90509392505050565b7f4e487b7100000000000000000000000000000000000000000000000000000000600052605160045260246000fdfea2646970667358221220fd29a159ac1f9f3bc6866e353e70c2ebb0a378e7c5e7c74c0450123584cba51d64736f6c63430008130033","opcodes":"PUSH1 0x80 PUSH1 0x40 MSTORE PUSH1 0x40 MLOAD DUP1 PUSH1 0x40 ADD PUSH1 0x40 MSTORE DUP1 PUSH1 0x9 DUP2 MSTORE PUSH1 0x20 ADD PUSH32 0x5661756C74204E65740000000000000000000000000000000000000000000000 DUP2 MSTORE POP PUSH1 0x0 SWAP1 DUP2 PUSH3 0x4A SWAP2 SWAP1 PUSH3 0x325 JUMP JUMPDEST POP PUSH1 0x40 MLOAD DUP1 PUSH1 0x40 ADD PUSH1 0x40 MSTORE DUP1 PUSH1 0x3 DUP2 MSTORE PUSH1 0x20 ADD PUSH32 0x564E540000000000000000000000000000000000000000000000000000000000 DUP2 MSTORE POP PUSH1 0x1 SWAP1 DUP2 PUSH3 0x91 SWAP2 SWAP1 PUSH3 0x325 JUMP JUMPDEST POP PUSH1 0x0 PUSH1 0x2 SSTORE CALLVALUE DUP1 ISZERO PUSH3 0xA4 JUMPI PUSH1 0x0 DUP1 REVERT JUMPDEST POP PUSH3 0x40C JUMP JUMPDEST PUSH1 0x0 DUP2 MLOAD SWAP1 POP SWAP2 SWAP1 POP JUMP JUMPDEST PUSH32 0x4E487B7100000000000000000000000000000000000000000000000000000000 PUSH1 0x0 MSTORE PUSH1 0x41 PUSH1 0x4 MSTORE PUSH1 0x24 PUSH1 0x0 REVERT JUMPDEST PUSH32 0x4E487B7100000000000000000000000000000000000000000000000000000000 PUSH1 0x0 MSTORE PUSH1 0x22 PUSH1 0x4 MSTORE PUSH1 0x24 PUSH1 0x0 REVERT JUMPDEST PUSH1 0x0 PUSH1 0x2 DUP3 DIV SWAP1 POP PUSH1 0x1 DUP3 AND DUP1 PUSH3 0x12D JUMPI PUSH1 0x7F DUP3 AND SWAP2 POP JUMPDEST PUSH1 0x20 DUP3 LT DUP2 SUB PUSH3 0x143 JUMPI PUSH3 0x142 PUSH3 0xE5 JUMP JUMPDEST JUMPDEST POP SWAP2 SWAP1 POP JUMP JUMPDEST PUSH1 0x0 DUP2 SWAP1 POP DUP2 PUSH1 0x0 MSTORE PUSH1 0x20 PUSH1 0x0 KECCAK256 SWAP1 POP SWAP2 SWAP1 POP JUMP JUMPDEST PUSH1 0x0 PUSH1 0x20 PUSH1 0x1F DUP4 ADD DIV SWAP1 POP SWAP2 SWAP1 POP JUMP JUMPDEST PUSH1 0x0 DUP3 DUP3 SHL SWAP1 POP SWAP3 SWAP2 POP POP JUMP JUMPDEST PUSH1 0x0 PUSH1 0x8 DUP4 MUL PUSH3 0x1AD PUSH32 0xFFFFFFFFFFFFFFFFFFFFFFFFFFFFFFFFFFFFFFFFFFFFFFFFFFFFFFFFFFFFFFFF DUP3 PUSH3 0x16E JUMP JUMPDEST PUSH3 0x1B9 DUP7 DUP4 PUSH3 0x16E JUMP JUMPDEST SWAP6 POP DUP1 NOT DUP5 AND SWAP4 POP DUP1 DUP7 AND DUP5 OR SWAP3 POP POP POP SWAP4 SWAP3 POP POP POP JUMP JUMPDEST PUSH1 0x0 DUP2 SWAP1 POP SWAP2 SWAP1 POP JUMP JUMPDEST PUSH1 0x0 DUP2 SWAP1 POP SWAP2 SWAP1 POP JUMP JUMPDEST PUSH1 0x0 PUSH3 0x206 PUSH3 0x200 PUSH3 0x1FA DUP5 PUSH3 0x1D1 JUMP JUMPDEST PUSH3 0x1DB JUMP JUMPDEST PUSH3 0x1D1 JUMP JUMPDEST SWAP1 POP SWAP2 SWAP1 POP JUMP JUMPDEST PUSH1 0x0 DUP2 SWAP1 POP SWAP2 SWAP1 POP JUMP JUMPDEST PUSH3 0x222 DUP4 PUSH3 0x1E5 JUMP JUMPDEST PUSH3 0x23A PUSH3 0x231 DUP3 PUSH3 0x20D JUMP JUMPDEST DUP5 DUP5 SLOAD PUSH3 0x17B JUMP JUMPDEST DUP3 SSTORE POP POP POP POP JUMP JUMPDEST PUSH1 0x0 SWAP1 JUMP JUMPDEST PUSH3 0x251 PUSH3 0x242 JUMP JUMPDEST PUSH3 0x25E DUP2 DUP5 DUP5 PUSH3 0x217 JUMP JUMPDEST POP POP POP JUMP JUMPDEST JUMPDEST DUP2 DUP2 LT ISZERO PUSH3 0x286 JUMPI PUSH3 0x27A PUSH1 0x0 DUP3 PUSH3 0x247 JUMP JUMPDEST PUSH1 0x1 DUP2 ADD SWAP1 POP PUSH3 0x264 JUMP JUMPDEST POP POP JUMP JUMPDEST PUSH1 0x1F DUP3 GT ISZERO PUSH3 0x2D5 JUMPI PUSH3 0x29F DUP2 PUSH3 0x149 JUMP JUMPDEST PUSH3 0x2AA DUP5 PUSH3 0x15E JUMP JUMPDEST DUP2 ADD PUSH1 0x20 DUP6 LT ISZERO PUSH3 0x2BA JUMPI DUP2 SWAP1 POP JUMPDEST PUSH3 0x2D2 PUSH3 0x2C9 DUP6 PUSH3 0x15E JUMP JUMPDEST DUP4 ADD DUP3 PUSH3 0x263 JUMP JUMPDEST POP POP JUMPDEST POP POP POP JUMP JUMPDEST PUSH1 0x0 DUP3 DUP3 SHR SWAP1 POP SWAP3 SWAP2 POP POP JUMP JUMPDEST PUSH1 0x0 PUSH3 0x2FA PUSH1 0x0 NOT DUP5 PUSH1 0x8 MUL PUSH3 0x2DA JUMP JUMPDEST NOT DUP1 DUP4 AND SWAP2 POP POP SWAP3 SWAP2 POP POP JUMP JUMPDEST PUSH1 0x0 PUSH3 0x315 DUP4 DUP4 PUSH3 0x2E7 JUMP JUMPDEST SWAP2 POP DUP3 PUSH1 0x2 MUL DUP3 OR SWAP1 POP SWAP3 SWAP2 POP POP JUMP JUMPDEST PUSH3 0x330 DUP3 PUSH3 0xAB JUMP JUMPDEST PUSH8 0xFFFFFFFFFFFFFFFF DUP2 GT ISZERO PUSH3 0x34C JUMPI PUSH3 0x34B PUSH3 0xB6 JUMP JUMPDEST JUMPDEST PUSH3 0x358 DUP3 SLOAD PUSH3 0x114 JUMP JUMPDEST PUSH3 0x365 DUP3 DUP3 DUP6 PUSH3 0x28A JUMP JUMPDEST PUSH1 0x0 PUSH1 0x20 SWAP1 POP PUSH1 0x1F DUP4 GT PUSH1 0x1 DUP2 EQ PUSH3 0x39D JUMPI PUSH1 0x0 DUP5 ISZERO PUSH3 0x388 JUMPI DUP3 DUP8 ADD MLOAD SWAP1 POP JUMPDEST PUSH3 0x394 DUP6 DUP3 PUSH3 0x307 JUMP JUMPDEST DUP7 SSTORE POP PUSH3 0x404 JUMP JUMPDEST PUSH1 0x1F NOT DUP5 AND PUSH3 0x3AD DUP7 PUSH3 0x149 JUMP JUMPDEST PUSH1 0x0 JUMPDEST DUP3 DUP2 LT ISZERO PUSH3 0x3D7 JUMPI DUP5 DUP10 ADD MLOAD DUP3 SSTORE PUSH1 0x1 DUP3 ADD SWAP2 POP PUSH1 0x20 DUP6 ADD SWAP5 POP PUSH1 0x20 DUP2 ADD SWAP1 POP PUSH3 0x3B0 JUMP JUMPDEST DUP7 DUP4 LT ISZERO PUSH3 0x3F7 JUMPI DUP5 DUP10 ADD MLOAD PUSH3 0x3F3 PUSH1 0x1F DUP10 AND DUP3 PUSH3 0x2E7 JUMP JUMPDEST DUP4 SSTORE POP JUMPDEST PUSH1 0x1 PUSH1 0x2 DUP9 MUL ADD DUP9 SSTORE POP POP POP JUMPDEST POP POP POP POP POP POP JUMP JUMPDEST PUSH2 0x1F93 DUP1 PUSH3 0x41C PUSH1 0x0 CODECOPY PUSH1 0x0 RETURN INVALID PUSH1 0x80 PUSH1 0x40 MSTORE CALLVALUE DUP1 ISZERO PUSH2 0x10 JUMPI PUSH1 0x0 DUP1 REVERT JUMPDEST POP PUSH1 0x4 CALLDATASIZE LT PUSH2 0x88 JUMPI PUSH1 0x0 CALLDATALOAD PUSH1 0xE0 SHR DUP1 PUSH4 0x7715FCC3 GT PUSH2 0x5B JUMPI DUP1 PUSH4 0x7715FCC3 EQ PUSH2 0x133 JUMPI DUP1 PUSH4 0x7CC1F867 EQ PUSH2 0x14F JUMPI DUP1 PUSH4 0x95D89B41 EQ PUSH2 0x16F JUMPI DUP1 PUSH4 0xC6A645FE EQ PUSH2 0x18D JUMPI PUSH2 0x88 JUMP JUMPDEST DUP1 PUSH4 0x6FDDE03 EQ PUSH2 0x8D JUMPI DUP1 PUSH4 0x2122496D EQ PUSH2 0xAB JUMPI DUP1 PUSH4 0x6A030CA9 EQ PUSH2 0xC9 JUMPI DUP1 PUSH4 0x6D361694 EQ PUSH2 0xFE JUMPI JUMPDEST PUSH1 0x0 DUP1 REVERT JUMPDEST PUSH2 0x95 PUSH2 0x1AB JUMP JUMPDEST PUSH1 0x40 MLOAD PUSH2 0xA2 SWAP2 SWAP1 PUSH2 0x14A1 JUMP JUMPDEST PUSH1 0x40 MLOAD DUP1 SWAP2 SUB SWAP1 RETURN JUMPDEST PUSH2 0xB3 PUSH2 0x239 JUMP JUMPDEST PUSH1 0x40 MLOAD PUSH2 0xC0 SWAP2 SWAP1 PUSH2 0x158B JUMP JUMPDEST PUSH1 0x40 MLOAD DUP1 SWAP2 SUB SWAP1 RETURN JUMPDEST PUSH2 0xE3 PUSH1 0x4 DUP1 CALLDATASIZE SUB DUP2 ADD SWAP1 PUSH2 0xDE SWAP2 SWAP1 PUSH2 0x15ED JUMP JUMPDEST PUSH2 0x2D5 JUMP JUMPDEST PUSH1 0x40 MLOAD PUSH2 0xF5 SWAP7 SWAP6 SWAP5 SWAP4 SWAP3 SWAP2 SWAP1 PUSH2 0x166A JUMP JUMPDEST PUSH1 0x40 MLOAD DUP1 SWAP2 SUB SWAP1 RETURN JUMPDEST PUSH2 0x118 PUSH1 0x4 DUP1 CALLDATASIZE SUB DUP2 ADD SWAP1 PUSH2 0x113 SWAP2 SWAP1 PUSH2 0x15ED JUMP JUMPDEST PUSH2 0x4C9 JUMP JUMPDEST PUSH1 0x40 MLOAD PUSH2 0x12A SWAP7 SWAP6 SWAP5 SWAP4 SWAP3 SWAP2 SWAP1 PUSH2 0x166A JUMP JUMPDEST PUSH1 0x40 MLOAD DUP1 SWAP2 SUB SWAP1 RETURN JUMPDEST PUSH2 0x14D PUSH1 0x4 DUP1 CALLDATASIZE SUB DUP2 ADD SWAP1 PUSH2 0x148 SWAP2 SWAP1 PUSH2 0x1815 JUMP JUMPDEST PUSH2 0x96A JUMP JUMPDEST STOP JUMPDEST PUSH2 0x157 PUSH2 0xD80 JUMP JUMPDEST PUSH1 0x40 MLOAD PUSH2 0x166 SWAP4 SWAP3 SWAP2 SWAP1 PUSH2 0x18BC JUMP JUMPDEST PUSH1 0x40 MLOAD DUP1 SWAP2 SUB SWAP1 RETURN JUMPDEST PUSH2 0x177 PUSH2 0x10C0 JUMP JUMPDEST PUSH1 0x40 MLOAD PUSH2 0x184 SWAP2 SWAP1 PUSH2 0x14A1 JUMP JUMPDEST PUSH1 0x40 MLOAD DUP1 SWAP2 SUB SWAP1 RETURN JUMPDEST PUSH2 0x195 PUSH2 0x114E JUMP JUMPDEST PUSH1 0x40 MLOAD PUSH2 0x1A2 SWAP2 SWAP1 PUSH2 0x1901 JUMP JUMPDEST PUSH1 0x40 MLOAD DUP1 SWAP2 SUB SWAP1 RETURN JUMPDEST PUSH1 0x0 DUP1 SLOAD PUSH2 0x1B8 SWAP1 PUSH2 0x194B JUMP JUMPDEST DUP1 PUSH1 0x1F ADD PUSH1 0x20 DUP1 SWAP2 DIV MUL PUSH1 0x20 ADD PUSH1 0x40 MLOAD SWAP1 DUP2 ADD PUSH1 0x40 MSTORE DUP1 SWAP3 SWAP2 SWAP1 DUP2 DUP2 MSTORE PUSH1 0x20 ADD DUP3 DUP1 SLOAD PUSH2 0x1E4 SWAP1 PUSH2 0x194B JUMP JUMPDEST DUP1 ISZERO PUSH2 0x231 JUMPI DUP1 PUSH1 0x1F LT PUSH2 0x206 JUMPI PUSH2 0x100 DUP1 DUP4 SLOAD DIV MUL DUP4 MSTORE SWAP2 PUSH1 0x20 ADD SWAP2 PUSH2 0x231 JUMP JUMPDEST DUP3 ADD SWAP2 SWAP1 PUSH1 0x0 MSTORE PUSH1 0x20 PUSH1 0x0 KECCAK256 SWAP1 JUMPDEST DUP2 SLOAD DUP2 MSTORE SWAP1 PUSH1 0x1 ADD SWAP1 PUSH1 0x20 ADD DUP1 DUP4 GT PUSH2 0x214 JUMPI DUP3 SWAP1 SUB PUSH1 0x1F AND DUP3 ADD SWAP2 JUMPDEST POP POP POP POP POP DUP2 JUMP JUMPDEST PUSH1 0x60 PUSH2 0x27F PUSH1 0x40 MLOAD DUP1 PUSH1 0x40 ADD PUSH1 0x40 MSTORE DUP1 PUSH1 0x1F DUP2 MSTORE PUSH1 0x20 ADD PUSH32 0x52657475726E696E6720616C6C206D6F64656C204944732E20436F756E743A00 DUP2 MSTORE POP PUSH1 0x3 DUP1 SLOAD SWAP1 POP PUSH2 0x1154 JUMP JUMPDEST PUSH1 0x3 DUP1 SLOAD DUP1 PUSH1 0x20 MUL PUSH1 0x20 ADD PUSH1 0x40 MLOAD SWAP1 DUP2 ADD PUSH1 0x40 MSTORE DUP1 SWAP3 SWAP2 SWAP1 DUP2 DUP2 MSTORE PUSH1 0x20 ADD DUP3 DUP1 SLOAD DUP1 ISZERO PUSH2 0x2CB JUMPI PUSH1 0x20 MUL DUP3 ADD SWAP2 SWAP1 PUSH1 0x0 MSTORE PUSH1 0x20 PUSH1 0x0 KECCAK256 SWAP1 JUMPDEST DUP2 SLOAD DUP2 MSTORE PUSH1 0x20 ADD SWAP1 PUSH1 0x1 ADD SWAP1 DUP1 DUP4 GT PUSH2 0x2B7 JUMPI JUMPDEST POP POP POP POP POP SWAP1 POP SWAP1 JUMP JUMPDEST PUSH1 0x4 PUSH1 0x20 MSTORE DUP1 PUSH1 0x0 MSTORE PUSH1 0x40 PUSH1 0x0 KECCAK256 PUSH1 0x0 SWAP2 POP SWAP1 POP DUP1 PUSH1 0x0 ADD SLOAD SWAP1 DUP1 PUSH1 0x1 ADD DUP1 SLOAD PUSH2 0x2FE SWAP1 PUSH2 0x194B JUMP JUMPDEST DUP1 PUSH1 0x1F ADD PUSH1 0x20 DUP1 SWAP2 DIV MUL PUSH1 0x20 ADD PUSH1 0x40 MLOAD SWAP1 DUP2 ADD PUSH1 0x40 MSTORE DUP1 SWAP3 SWAP2 SWAP1 DUP2 DUP2 MSTORE PUSH1 0x20 ADD DUP3 DUP1 SLOAD PUSH2 0x32A SWAP1 PUSH2 0x194B JUMP JUMPDEST DUP1 ISZERO PUSH2 0x377 JUMPI DUP1 PUSH1 0x1F LT PUSH2 0x34C JUMPI PUSH2 0x100 DUP1 DUP4 SLOAD DIV MUL DUP4 MSTORE SWAP2 PUSH1 0x20 ADD SWAP2 PUSH2 0x377 JUMP JUMPDEST DUP3 ADD SWAP2 SWAP1 PUSH1 0x0 MSTORE PUSH1 0x20 PUSH1 0x0 KECCAK256 SWAP1 JUMPDEST DUP2 SLOAD DUP2 MSTORE SWAP1 PUSH1 0x1 ADD SWAP1 PUSH1 0x20 ADD DUP1 DUP4 GT PUSH2 0x35A JUMPI DUP3 SWAP1 SUB PUSH1 0x1F AND DUP3 ADD SWAP2 JUMPDEST POP POP POP POP POP SWAP1 DUP1 PUSH1 0x2 ADD DUP1 SLOAD PUSH2 0x38C SWAP1 PUSH2 0x194B JUMP JUMPDEST DUP1 PUSH1 0x1F ADD PUSH1 0x20 DUP1 SWAP2 DIV MUL PUSH1 0x20 ADD PUSH1 0x40 MLOAD SWAP1 DUP2 ADD PUSH1 0x40 MSTORE DUP1 SWAP3 SWAP2 SWAP1 DUP2 DUP2 MSTORE PUSH1 0x20 ADD DUP3 DUP1 SLOAD PUSH2 0x3B8 SWAP1 PUSH2 0x194B JUMP JUMPDEST DUP1 ISZERO PUSH2 0x405 JUMPI DUP1 PUSH1 0x1F LT PUSH2 0x3DA JUMPI PUSH2 0x100 DUP1 DUP4 SLOAD DIV MUL DUP4 MSTORE SWAP2 PUSH1 0x20 ADD SWAP2 PUSH2 0x405 JUMP JUMPDEST DUP3 ADD SWAP2 SWAP1 PUSH1 0x0 MSTORE PUSH1 0x20 PUSH1 0x0 KECCAK256 SWAP1 JUMPDEST DUP2 SLOAD DUP2 MSTORE SWAP1 PUSH1 0x1 ADD SWAP1 PUSH1 0x20 ADD DUP1 DUP4 GT PUSH2 0x3E8 JUMPI DUP3 SWAP1 SUB PUSH1 0x1F AND DUP3 ADD SWAP2 JUMPDEST POP POP POP POP POP SWAP1 DUP1 PUSH1 0x3 ADD DUP1 SLOAD PUSH2 0x41A SWAP1 PUSH2 0x194B JUMP JUMPDEST DUP1 PUSH1 0x1F ADD PUSH1 0x20 DUP1 SWAP2 DIV MUL PUSH1 0x20 ADD PUSH1 0x40 MLOAD SWAP1 DUP2 ADD PUSH1 0x40 MSTORE DUP1 SWAP3 SWAP2 SWAP1 DUP2 DUP2 MSTORE PUSH1 0x20 ADD DUP3 DUP1 SLOAD PUSH2 0x446 SWAP1 PUSH2 0x194B JUMP JUMPDEST DUP1 ISZERO PUSH2 0x493 JUMPI DUP1 PUSH1 0x1F LT PUSH2 0x468 JUMPI PUSH2 0x100 DUP1 DUP4 SLOAD DIV MUL DUP4 MSTORE SWAP2 PUSH1 0x20 ADD SWAP2 PUSH2 0x493 JUMP JUMPDEST DUP3 ADD SWAP2 SWAP1 PUSH1 0x0 MSTORE PUSH1 0x20 PUSH1 0x0 KECCAK256 SWAP1 JUMPDEST DUP2 SLOAD DUP2 MSTORE SWAP1 PUSH1 0x1 ADD SWAP1 PUSH1 0x20 ADD DUP1 DUP4 GT PUSH2 0x476 JUMPI DUP3 SWAP1 SUB PUSH1 0x1F AND DUP3 ADD SWAP2 JUMPDEST POP POP POP POP POP SWAP1 DUP1 PUSH1 0x4 ADD PUSH1 0x0 SWAP1 SLOAD SWAP1 PUSH2 0x100 EXP SWAP1 DIV PUSH20 0xFFFFFFFFFFFFFFFFFFFFFFFFFFFFFFFFFFFFFFFF AND SWAP1 DUP1 PUSH1 0x5 ADD SLOAD SWAP1 POP DUP7 JUMP JUMPDEST PUSH1 0x0 PUSH1 0x60 DUP1 PUSH1 0x60 PUSH1 0x0 DUP1 PUSH1 0x0 DUP8 GT DUP1 ISZERO PUSH2 0x4E5 JUMPI POP PUSH1 0x2 SLOAD DUP8 GT ISZERO JUMPDEST PUSH2 0x524 JUMPI PUSH1 0x40 MLOAD PUSH32 0x8C379A000000000000000000000000000000000000000000000000000000000 DUP2 MSTORE PUSH1 0x4 ADD PUSH2 0x51B SWAP1 PUSH2 0x19C8 JUMP JUMPDEST PUSH1 0x40 MLOAD DUP1 SWAP2 SUB SWAP1 REVERT JUMPDEST PUSH1 0x0 PUSH1 0x4 PUSH1 0x0 DUP10 DUP2 MSTORE PUSH1 0x20 ADD SWAP1 DUP2 MSTORE PUSH1 0x20 ADD PUSH1 0x0 KECCAK256 PUSH1 0x40 MLOAD DUP1 PUSH1 0xC0 ADD PUSH1 0x40 MSTORE SWAP1 DUP2 PUSH1 0x0 DUP3 ADD SLOAD DUP2 MSTORE PUSH1 0x20 ADD PUSH1 0x1 DUP3 ADD DUP1 SLOAD PUSH2 0x55E SWAP1 PUSH2 0x194B JUMP JUMPDEST DUP1 PUSH1 0x1F ADD PUSH1 0x20 DUP1 SWAP2 DIV MUL PUSH1 0x20 ADD PUSH1 0x40 MLOAD SWAP1 DUP2 ADD PUSH1 0x40 MSTORE DUP1 SWAP3 SWAP2 SWAP1 DUP2 DUP2 MSTORE PUSH1 0x20 ADD DUP3 DUP1 SLOAD PUSH2 0x58A SWAP1 PUSH2 0x194B JUMP JUMPDEST DUP1 ISZERO PUSH2 0x5D7 JUMPI DUP1 PUSH1 0x1F LT PUSH2 0x5AC JUMPI PUSH2 0x100 DUP1 DUP4 SLOAD DIV MUL DUP4 MSTORE SWAP2 PUSH1 0x20 ADD SWAP2 PUSH2 0x5D7 JUMP JUMPDEST DUP3 ADD SWAP2 SWAP1 PUSH1 0x0 MSTORE PUSH1 0x20 PUSH1 0x0 KECCAK256 SWAP1 JUMPDEST DUP2 SLOAD DUP2 MSTORE SWAP1 PUSH1 0x1 ADD SWAP1 PUSH1 0x20 ADD DUP1 DUP4 GT PUSH2 0x5BA JUMPI DUP3 SWAP1 SUB PUSH1 0x1F AND DUP3 ADD SWAP2 JUMPDEST POP POP POP POP POP DUP2 MSTORE PUSH1 0x20 ADD PUSH1 0x2 DUP3 ADD DUP1 SLOAD PUSH2 0x5F0 SWAP1 PUSH2 0x194B JUMP JUMPDEST DUP1 PUSH1 0x1F ADD PUSH1 0x20 DUP1 SWAP2 DIV MUL PUSH1 0x20 ADD PUSH1 0x40 MLOAD SWAP1 DUP2 ADD PUSH1 0x40 MSTORE DUP1 SWAP3 SWAP2 SWAP1 DUP2 DUP2 MSTORE PUSH1 0x20 ADD DUP3 DUP1 SLOAD PUSH2 0x61C SWAP1 PUSH2 0x194B JUMP JUMPDEST DUP1 ISZERO PUSH2 0x669 JUMPI DUP1 PUSH1 0x1F LT PUSH2 0x63E JUMPI PUSH2 0x100 DUP1 DUP4 SLOAD DIV MUL DUP4 MSTORE SWAP2 PUSH1 0x20 ADD SWAP2 PUSH2 0x669 JUMP JUMPDEST DUP3 ADD SWAP2 SWAP1 PUSH1 0x0 MSTORE PUSH1 0x20 PUSH1 0x0 KECCAK256 SWAP1 JUMPDEST DUP2 SLOAD DUP2 MSTORE SWAP1 PUSH1 0x1 ADD SWAP1 PUSH1 0x20 ADD DUP1 DUP4 GT PUSH2 0x64C JUMPI DUP3 SWAP1 SUB PUSH1 0x1F AND DUP3 ADD SWAP2 JUMPDEST POP POP POP POP POP DUP2 MSTORE PUSH1 0x20 ADD PUSH1 0x3 DUP3 ADD DUP1 SLOAD PUSH2 0x682 SWAP1 PUSH2 0x194B JUMP JUMPDEST DUP1 PUSH1 0x1F ADD PUSH1 0x20 DUP1 SWAP2 DIV MUL PUSH1 0x20 ADD PUSH1 0x40 MLOAD SWAP1 DUP2 ADD PUSH1 0x40 MSTORE DUP1 SWAP3 SWAP2 SWAP1 DUP2 DUP2 MSTORE PUSH1 0x20 ADD DUP3 DUP1 SLOAD PUSH2 0x6AE SWAP1 PUSH2 0x194B JUMP JUMPDEST DUP1 ISZERO PUSH2 0x6FB JUMPI DUP1 PUSH1 0x1F LT PUSH2 0x6D0 JUMPI PUSH2 0x100 DUP1 DUP4 SLOAD DIV MUL DUP4 MSTORE SWAP2 PUSH1 0x20 ADD SWAP2 PUSH2 0x6FB JUMP JUMPDEST DUP3 ADD SWAP2 SWAP1 PUSH1 0x0 MSTORE PUSH1 0x20 PUSH1 0x0 KECCAK256 SWAP1 JUMPDEST DUP2 SLOAD DUP2 MSTORE SWAP1 PUSH1 0x1 ADD SWAP1 PUSH1 0x20 ADD DUP1 DUP4 GT PUSH2 0x6DE JUMPI DUP3 SWAP1 SUB PUSH1 0x1F AND DUP3 ADD SWAP2 JUMPDEST POP POP POP POP POP DUP2 MSTORE PUSH1 0x20 ADD PUSH1 0x4 DUP3 ADD PUSH1 0x0 SWAP1 SLOAD SWAP1 PUSH2 0x100 EXP SWAP1 DIV PUSH20 0xFFFFFFFFFFFFFFFFFFFFFFFFFFFFFFFFFFFFFFFF AND PUSH20 0xFFFFFFFFFFFFFFFFFFFFFFFFFFFFFFFFFFFFFFFF AND PUSH20 0xFFFFFFFFFFFFFFFFFFFFFFFFFFFFFFFFFFFFFFFF AND DUP2 MSTORE PUSH1 0x20 ADD PUSH1 0x5 DUP3 ADD SLOAD DUP2 MSTORE POP POP SWAP1 POP PUSH2 0x7A4 PUSH1 0x40 MLOAD DUP1 PUSH1 0x40 ADD PUSH1 0x40 MSTORE DUP1 PUSH1 0x11 DUP2 MSTORE PUSH1 0x20 ADD PUSH32 0x52657472696576696E67204D6F64656C3A000000000000000000000000000000 DUP2 MSTORE POP PUSH2 0x11F0 JUMP JUMPDEST PUSH2 0x7E7 PUSH1 0x40 MLOAD DUP1 PUSH1 0x40 ADD PUSH1 0x40 MSTORE DUP1 PUSH1 0x3 DUP2 MSTORE PUSH1 0x20 ADD PUSH32 0x49443A0000000000000000000000000000000000000000000000000000000000 DUP2 MSTORE POP DUP3 PUSH1 0x0 ADD MLOAD PUSH2 0x1154 JUMP JUMPDEST PUSH2 0x82A PUSH1 0x40 MLOAD DUP1 PUSH1 0x40 ADD PUSH1 0x40 MSTORE DUP1 PUSH1 0x6 DUP2 MSTORE PUSH1 0x20 ADD PUSH32 0x4F776E65723A0000000000000000000000000000000000000000000000000000 DUP2 MSTORE POP DUP3 PUSH1 0x80 ADD MLOAD PUSH2 0x1289 JUMP JUMPDEST PUSH2 0x86D PUSH1 0x40 MLOAD DUP1 PUSH1 0x40 ADD PUSH1 0x40 MSTORE DUP1 PUSH1 0x5 DUP2 MSTORE PUSH1 0x20 ADD PUSH32 0x4E616D653A000000000000000000000000000000000000000000000000000000 DUP2 MSTORE POP DUP3 PUSH1 0x20 ADD MLOAD PUSH2 0x1325 JUMP JUMPDEST PUSH2 0x8B0 PUSH1 0x40 MLOAD DUP1 PUSH1 0x40 ADD PUSH1 0x40 MSTORE DUP1 PUSH1 0xC DUP2 MSTORE PUSH1 0x20 ADD PUSH32 0x4465736372697074696F6E3A0000000000000000000000000000000000000000 DUP2 MSTORE POP DUP3 PUSH1 0x40 ADD MLOAD PUSH2 0x1325 JUMP JUMPDEST PUSH2 0x8F3 PUSH1 0x40 MLOAD DUP1 PUSH1 0x40 ADD PUSH1 0x40 MSTORE DUP1 PUSH1 0xA DUP2 MSTORE PUSH1 0x20 ADD PUSH32 0x4950465320486173683A00000000000000000000000000000000000000000000 DUP2 MSTORE POP DUP3 PUSH1 0x60 ADD MLOAD PUSH2 0x1325 JUMP JUMPDEST PUSH2 0x936 PUSH1 0x40 MLOAD DUP1 PUSH1 0x40 ADD PUSH1 0x40 MSTORE DUP1 PUSH1 0xA DUP2 MSTORE PUSH1 0x20 ADD PUSH32 0x54696D657374616D703A00000000000000000000000000000000000000000000 DUP2 MSTORE POP DUP3 PUSH1 0xA0 ADD MLOAD PUSH2 0x1154 JUMP JUMPDEST DUP1 PUSH1 0x0 ADD MLOAD DUP2 PUSH1 0x20 ADD MLOAD DUP3 PUSH1 0x40 ADD MLOAD DUP4 PUSH1 0x60 ADD MLOAD DUP5 PUSH1 0x80 ADD MLOAD DUP6 PUSH1 0xA0 ADD MLOAD SWAP7 POP SWAP7 POP SWAP7 POP SWAP7 POP SWAP7 POP SWAP7 POP POP SWAP2 SWAP4 SWAP6 POP SWAP2 SWAP4 SWAP6 JUMP JUMPDEST PUSH1 0x0 DUP4 MLOAD GT PUSH2 0x9AE JUMPI PUSH1 0x40 MLOAD PUSH32 0x8C379A000000000000000000000000000000000000000000000000000000000 DUP2 MSTORE PUSH1 0x4 ADD PUSH2 0x9A5 SWAP1 PUSH2 0x1A34 JUMP JUMPDEST PUSH1 0x40 MLOAD DUP1 SWAP2 SUB SWAP1 REVERT JUMPDEST PUSH1 0x0 DUP2 MLOAD GT PUSH2 0x9F2 JUMPI PUSH1 0x40 MLOAD PUSH32 0x8C379A000000000000000000000000000000000000000000000000000000000 DUP2 MSTORE PUSH1 0x4 ADD PUSH2 0x9E9 SWAP1 PUSH2 0x1AA0 JUMP JUMPDEST PUSH1 0x40 MLOAD DUP1 SWAP2 SUB SWAP1 REVERT JUMPDEST PUSH1 0x2 PUSH1 0x0 DUP2 SLOAD DUP1 SWAP3 SWAP2 SWAP1 PUSH2 0xA05 SWAP1 PUSH2 0x1AEF JUMP JUMPDEST SWAP2 SWAP1 POP SSTORE POP PUSH1 0x40 MLOAD DUP1 PUSH1 0xC0 ADD PUSH1 0x40 MSTORE DUP1 PUSH1 0x2 SLOAD DUP2 MSTORE PUSH1 0x20 ADD DUP5 DUP2 MSTORE PUSH1 0x20 ADD DUP4 DUP2 MSTORE PUSH1 0x20 ADD DUP3 DUP2 MSTORE PUSH1 0x20 ADD CALLER PUSH20 0xFFFFFFFFFFFFFFFFFFFFFFFFFFFFFFFFFFFFFFFF AND DUP2 MSTORE PUSH1 0x20 ADD TIMESTAMP DUP2 MSTORE POP PUSH1 0x4 PUSH1 0x0 PUSH1 0x2 SLOAD DUP2 MSTORE PUSH1 0x20 ADD SWAP1 DUP2 MSTORE PUSH1 0x20 ADD PUSH1 0x0 KECCAK256 PUSH1 0x0 DUP3 ADD MLOAD DUP2 PUSH1 0x0 ADD SSTORE PUSH1 0x20 DUP3 ADD MLOAD DUP2 PUSH1 0x1 ADD SWAP1 DUP2 PUSH2 0xA83 SWAP2 SWAP1 PUSH2 0x1CE3 JUMP JUMPDEST POP PUSH1 0x40 DUP3 ADD MLOAD DUP2 PUSH1 0x2 ADD SWAP1 DUP2 PUSH2 0xA99 SWAP2 SWAP1 PUSH2 0x1CE3 JUMP JUMPDEST POP PUSH1 0x60 DUP3 ADD MLOAD DUP2 PUSH1 0x3 ADD SWAP1 DUP2 PUSH2 0xAAF SWAP2 SWAP1 PUSH2 0x1CE3 JUMP JUMPDEST POP PUSH1 0x80 DUP3 ADD MLOAD DUP2 PUSH1 0x4 ADD PUSH1 0x0 PUSH2 0x100 EXP DUP2 SLOAD DUP2 PUSH20 0xFFFFFFFFFFFFFFFFFFFFFFFFFFFFFFFFFFFFFFFF MUL NOT AND SWAP1 DUP4 PUSH20 0xFFFFFFFFFFFFFFFFFFFFFFFFFFFFFFFFFFFFFFFF AND MUL OR SWAP1 SSTORE POP PUSH1 0xA0 DUP3 ADD MLOAD DUP2 PUSH1 0x5 ADD SSTORE SWAP1 POP POP PUSH1 0x3 PUSH1 0x2 SLOAD SWAP1 DUP1 PUSH1 0x1 DUP2 SLOAD ADD DUP1 DUP3 SSTORE DUP1 SWAP2 POP POP PUSH1 0x1 SWAP1 SUB SWAP1 PUSH1 0x0 MSTORE PUSH1 0x20 PUSH1 0x0 KECCAK256 ADD PUSH1 0x0 SWAP1 SWAP2 SWAP1 SWAP2 SWAP1 SWAP2 POP SSTORE PUSH2 0xB6D PUSH1 0x40 MLOAD DUP1 PUSH1 0x40 ADD PUSH1 0x40 MSTORE DUP1 PUSH1 0x11 DUP2 MSTORE PUSH1 0x20 ADD PUSH32 0x4D6F64656C205265676973746572656421000000000000000000000000000000 DUP2 MSTORE POP PUSH2 0x11F0 JUMP JUMPDEST PUSH2 0xBAE PUSH1 0x40 MLOAD DUP1 PUSH1 0x40 ADD PUSH1 0x40 MSTORE DUP1 PUSH1 0x3 DUP2 MSTORE PUSH1 0x20 ADD PUSH32 0x49443A0000000000000000000000000000000000000000000000000000000000 DUP2 MSTORE POP PUSH1 0x2 SLOAD PUSH2 0x1154 JUMP JUMPDEST PUSH2 0xBED PUSH1 0x40 MLOAD DUP1 PUSH1 0x40 ADD PUSH1 0x40 MSTORE DUP1 PUSH1 0x6 DUP2 MSTORE PUSH1 0x20 ADD PUSH32 0x4F776E65723A0000000000000000000000000000000000000000000000000000 DUP2 MSTORE POP CALLER PUSH2 0x1289 JUMP JUMPDEST PUSH2 0xC2C PUSH1 0x40 MLOAD DUP1 PUSH1 0x40 ADD PUSH1 0x40 MSTORE DUP1 PUSH1 0x5 DUP2 MSTORE PUSH1 0x20 ADD PUSH32 0x4E616D653A000000000000000000000000000000000000000000000000000000 DUP2 MSTORE POP DUP5 PUSH2 0x1325 JUMP JUMPDEST PUSH2 0xC6B PUSH1 0x40 MLOAD DUP1 PUSH1 0x40 ADD PUSH1 0x40 MSTORE DUP1 PUSH1 0xC DUP2 MSTORE PUSH1 0x20 ADD PUSH32 0x4465736372697074696F6E3A0000000000000000000000000000000000000000 DUP2 MSTORE POP DUP4 PUSH2 0x1325 JUMP JUMPDEST PUSH2 0xCAA PUSH1 0x40 MLOAD DUP1 PUSH1 0x40 ADD PUSH1 0x40 MSTORE DUP1 PUSH1 0xA DUP2 MSTORE PUSH1 0x20 ADD PUSH32 0x4950465320486173683A00000000000000000000000000000000000000000000 DUP2 MSTORE POP DUP3 PUSH2 0x1325 JUMP JUMPDEST PUSH2 0xCE9 PUSH1 0x40 MLOAD DUP1 PUSH1 0x40 ADD PUSH1 0x40 MSTORE DUP1 PUSH1 0xA DUP2 MSTORE PUSH1 0x20 ADD PUSH32 0x54696D657374616D703A00000000000000000000000000000000000000000000 DUP2 MSTORE POP TIMESTAMP PUSH2 0x1154 JUMP JUMPDEST CALLER PUSH20 0xFFFFFFFFFFFFFFFFFFFFFFFFFFFFFFFFFFFFFFFF AND PUSH1 0x2 SLOAD PUSH32 0x79E59378A92568843968C4A9CF366A534A86CEA6350A22663FC48A7841627786 DUP6 DUP6 DUP6 TIMESTAMP PUSH1 0x40 MLOAD PUSH2 0xD38 SWAP5 SWAP4 SWAP3 SWAP2 SWAP1 PUSH2 0x1DB5 JUMP JUMPDEST PUSH1 0x40 MLOAD DUP1 SWAP2 SUB SWAP1 LOG3 PUSH32 0xB515F8464A2E9F92F223836CB4D97889B194249A3F5A6BAE6B346C6B0AC8FD55 CALLER PUSH1 0x2 SLOAD PUSH1 0x40 MLOAD PUSH2 0xD73 SWAP3 SWAP2 SWAP1 PUSH2 0x1E5B JUMP JUMPDEST PUSH1 0x40 MLOAD DUP1 SWAP2 SUB SWAP1 LOG1 POP POP POP JUMP JUMPDEST PUSH1 0x60 DUP1 PUSH1 0x0 PUSH2 0xDC3 PUSH1 0x40 MLOAD DUP1 PUSH1 0x40 ADD PUSH1 0x40 MSTORE DUP1 PUSH1 0x17 DUP2 MSTORE PUSH1 0x20 ADD PUSH32 0x436F6E747261637420496E666F20726571756573746564000000000000000000 DUP2 MSTORE POP PUSH2 0x11F0 JUMP JUMPDEST PUSH2 0xE8C PUSH1 0x40 MLOAD DUP1 PUSH1 0x40 ADD PUSH1 0x40 MSTORE DUP1 PUSH1 0x5 DUP2 MSTORE PUSH1 0x20 ADD PUSH32 0x4E616D653A000000000000000000000000000000000000000000000000000000 DUP2 MSTORE POP PUSH1 0x0 DUP1 SLOAD PUSH2 0xE09 SWAP1 PUSH2 0x194B JUMP JUMPDEST DUP1 PUSH1 0x1F ADD PUSH1 0x20 DUP1 SWAP2 DIV MUL PUSH1 0x20 ADD PUSH1 0x40 MLOAD SWAP1 DUP2 ADD PUSH1 0x40 MSTORE DUP1 SWAP3 SWAP2 SWAP1 DUP2 DUP2 MSTORE PUSH1 0x20 ADD DUP3 DUP1 SLOAD PUSH2 0xE35 SWAP1 PUSH2 0x194B JUMP JUMPDEST DUP1 ISZERO PUSH2 0xE82 JUMPI DUP1 PUSH1 0x1F LT PUSH2 0xE57 JUMPI PUSH2 0x100 DUP1 DUP4 SLOAD DIV MUL DUP4 MSTORE SWAP2 PUSH1 0x20 ADD SWAP2 PUSH2 0xE82 JUMP JUMPDEST DUP3 ADD SWAP2 SWAP1 PUSH1 0x0 MSTORE PUSH1 0x20 PUSH1 0x0 KECCAK256 SWAP1 JUMPDEST DUP2 SLOAD DUP2 MSTORE SWAP1 PUSH1 0x1 ADD SWAP1 PUSH1 0x20 ADD DUP1 DUP4 GT PUSH2 0xE65 JUMPI DUP3 SWAP1 SUB PUSH1 0x1F AND DUP3 ADD SWAP2 JUMPDEST POP POP POP POP POP PUSH2 0x1325 JUMP JUMPDEST PUSH2 0xF55 PUSH1 0x40 MLOAD DUP1 PUSH1 0x40 ADD PUSH1 0x40 MSTORE DUP1 PUSH1 0x7 DUP2 MSTORE PUSH1 0x20 ADD PUSH32 0x53796D626F6C3A00000000000000000000000000000000000000000000000000 DUP2 MSTORE POP PUSH1 0x1 DUP1 SLOAD PUSH2 0xED2 SWAP1 PUSH2 0x194B JUMP JUMPDEST DUP1 PUSH1 0x1F ADD PUSH1 0x20 DUP1 SWAP2 DIV MUL PUSH1 0x20 ADD PUSH1 0x40 MLOAD SWAP1 DUP2 ADD PUSH1 0x40 MSTORE DUP1 SWAP3 SWAP2 SWAP1 DUP2 DUP2 MSTORE PUSH1 0x20 ADD DUP3 DUP1 SLOAD PUSH2 0xEFE SWAP1 PUSH2 0x194B JUMP JUMPDEST DUP1 ISZERO PUSH2 0xF4B JUMPI DUP1 PUSH1 0x1F LT PUSH2 0xF20 JUMPI PUSH2 0x100 DUP1 DUP4 SLOAD DIV MUL DUP4 MSTORE SWAP2 PUSH1 0x20 ADD SWAP2 PUSH2 0xF4B JUMP JUMPDEST DUP3 ADD SWAP2 SWAP1 PUSH1 0x0 MSTORE PUSH1 0x20 PUSH1 0x0 KECCAK256 SWAP1 JUMPDEST DUP2 SLOAD DUP2 MSTORE SWAP1 PUSH1 0x1 ADD SWAP1 PUSH1 0x20 ADD DUP1 DUP4 GT PUSH2 0xF2E JUMPI DUP3 SWAP1 SUB PUSH1 0x1F AND DUP3 ADD SWAP2 JUMPDEST POP POP POP POP POP PUSH2 0x1325 JUMP JUMPDEST PUSH2 0xF96 PUSH1 0x40 MLOAD DUP1 PUSH1 0x40 ADD PUSH1 0x40 MSTORE DUP1 PUSH1 0xD DUP2 MSTORE PUSH1 0x20 ADD PUSH32 0x546F74616C204D6F64656C733A00000000000000000000000000000000000000 DUP2 MSTORE POP PUSH1 0x2 SLOAD PUSH2 0x1154 JUMP JUMPDEST PUSH1 0x0 PUSH1 0x1 PUSH1 0x2 SLOAD DUP3 DUP1 SLOAD PUSH2 0xFA9 SWAP1 PUSH2 0x194B JUMP JUMPDEST DUP1 PUSH1 0x1F ADD PUSH1 0x20 DUP1 SWAP2 DIV MUL PUSH1 0x20 ADD PUSH1 0x40 MLOAD SWAP1 DUP2 ADD PUSH1 0x40 MSTORE DUP1 SWAP3 SWAP2 SWAP1 DUP2 DUP2 MSTORE PUSH1 0x20 ADD DUP3 DUP1 SLOAD PUSH2 0xFD5 SWAP1 PUSH2 0x194B JUMP JUMPDEST DUP1 ISZERO PUSH2 0x1022 JUMPI DUP1 PUSH1 0x1F LT PUSH2 0xFF7 JUMPI PUSH2 0x100 DUP1 DUP4 SLOAD DIV MUL DUP4 MSTORE SWAP2 PUSH1 0x20 ADD SWAP2 PUSH2 0x1022 JUMP JUMPDEST DUP3 ADD SWAP2 SWAP1 PUSH1 0x0 MSTORE PUSH1 0x20 PUSH1 0x0 KECCAK256 SWAP1 JUMPDEST DUP2 SLOAD DUP2 MSTORE SWAP1 PUSH1 0x1 ADD SWAP1 PUSH1 0x20 ADD DUP1 DUP4 GT PUSH2 0x1005 JUMPI DUP3 SWAP1 SUB PUSH1 0x1F AND DUP3 ADD SWAP2 JUMPDEST POP POP POP POP POP SWAP3 POP DUP2 DUP1 SLOAD PUSH2 0x1035 SWAP1 PUSH2 0x194B JUMP JUMPDEST DUP1 PUSH1 0x1F ADD PUSH1 0x20 DUP1 SWAP2 DIV MUL PUSH1 0x20 ADD PUSH1 0x40 MLOAD SWAP1 DUP2 ADD PUSH1 0x40 MSTORE DUP1 SWAP3 SWAP2 SWAP1 DUP2 DUP2 MSTORE PUSH1 0x20 ADD DUP3 DUP1 SLOAD PUSH2 0x1061 SWAP1 PUSH2 0x194B JUMP JUMPDEST DUP1 ISZERO PUSH2 0x10AE JUMPI DUP1 PUSH1 0x1F LT PUSH2 0x1083 JUMPI PUSH2 0x100 DUP1 DUP4 SLOAD DIV MUL DUP4 MSTORE SWAP2 PUSH1 0x20 ADD SWAP2 PUSH2 0x10AE JUMP JUMPDEST DUP3 ADD SWAP2 SWAP1 PUSH1 0x0 MSTORE PUSH1 0x20 PUSH1 0x0 KECCAK256 SWAP1 JUMPDEST DUP2 SLOAD DUP2 MSTORE SWAP1 PUSH1 0x1 ADD SWAP1 PUSH1 0x20 ADD DUP1 DUP4 GT PUSH2 0x1091 JUMPI DUP3 SWAP1 SUB PUSH1 0x1F AND DUP3 ADD SWAP2 JUMPDEST POP POP POP POP POP SWAP2 POP SWAP3 POP SWAP3 POP SWAP3 POP SWAP1 SWAP2 SWAP3 JUMP JUMPDEST PUSH1 0x1 DUP1 SLOAD PUSH2 0x10CD SWAP1 PUSH2 0x194B JUMP JUMPDEST DUP1 PUSH1 0x1F ADD PUSH1 0x20 DUP1 SWAP2 DIV MUL PUSH1 0x20 ADD PUSH1 0x40 MLOAD SWAP1 DUP2 ADD PUSH1 0x40 MSTORE DUP1 SWAP3 SWAP2 SWAP1 DUP2 DUP2 MSTORE PUSH1 0x20 ADD DUP3 DUP1 SLOAD PUSH2 0x10F9 SWAP1 PUSH2 0x194B JUMP JUMPDEST DUP1 ISZERO PUSH2 0x1146 JUMPI DUP1 PUSH1 0x1F LT PUSH2 0x111B JUMPI PUSH2 0x100 DUP1 DUP4 SLOAD DIV MUL DUP4 MSTORE SWAP2 PUSH1 0x20 ADD SWAP2 PUSH2 0x1146 JUMP JUMPDEST DUP3 ADD SWAP2 SWAP1 PUSH1 0x0 MSTORE PUSH1 0x20 PUSH1 0x0 KECCAK256 SWAP1 JUMPDEST DUP2 SLOAD DUP2 MSTORE SWAP1 PUSH1 0x1 ADD SWAP1 PUSH1 0x20 ADD DUP1 DUP4 GT PUSH2 0x1129 JUMPI DUP3 SWAP1 SUB PUSH1 0x1F AND DUP3 ADD SWAP2 JUMPDEST POP POP POP POP POP DUP2 JUMP JUMPDEST PUSH1 0x2 SLOAD DUP2 JUMP JUMPDEST PUSH2 0x11EC DUP3 DUP3 PUSH1 0x40 MLOAD PUSH1 0x24 ADD PUSH2 0x116A SWAP3 SWAP2 SWAP1 PUSH2 0x1E97 JUMP JUMPDEST PUSH1 0x40 MLOAD PUSH1 0x20 DUP2 DUP4 SUB SUB DUP2 MSTORE SWAP1 PUSH1 0x40 MSTORE PUSH32 0xB60E72CC00000000000000000000000000000000000000000000000000000000 PUSH28 0xFFFFFFFFFFFFFFFFFFFFFFFFFFFFFFFFFFFFFFFFFFFFFFFFFFFFFFFF NOT AND PUSH1 0x20 DUP3 ADD DUP1 MLOAD PUSH28 0xFFFFFFFFFFFFFFFFFFFFFFFFFFFFFFFFFFFFFFFFFFFFFFFFFFFFFFFF DUP4 DUP2 DUP4 AND OR DUP4 MSTORE POP POP POP POP PUSH2 0x13C1 JUMP JUMPDEST POP POP JUMP JUMPDEST PUSH2 0x1286 DUP2 PUSH1 0x40 MLOAD PUSH1 0x24 ADD PUSH2 0x1204 SWAP2 SWAP1 PUSH2 0x14A1 JUMP JUMPDEST PUSH1 0x40 MLOAD PUSH1 0x20 DUP2 DUP4 SUB SUB DUP2 MSTORE SWAP1 PUSH1 0x40 MSTORE PUSH32 0x41304FAC00000000000000000000000000000000000000000000000000000000 PUSH28 0xFFFFFFFFFFFFFFFFFFFFFFFFFFFFFFFFFFFFFFFFFFFFFFFFFFFFFFFF NOT AND PUSH1 0x20 DUP3 ADD DUP1 MLOAD PUSH28 0xFFFFFFFFFFFFFFFFFFFFFFFFFFFFFFFFFFFFFFFFFFFFFFFFFFFFFFFF DUP4 DUP2 DUP4 AND OR DUP4 MSTORE POP POP POP POP PUSH2 0x13C1 JUMP JUMPDEST POP JUMP JUMPDEST PUSH2 0x1321 DUP3 DUP3 PUSH1 0x40 MLOAD PUSH1 0x24 ADD PUSH2 0x129F SWAP3 SWAP2 SWAP1 PUSH2 0x1EC7 JUMP JUMPDEST PUSH1 0x40 MLOAD PUSH1 0x20 DUP2 DUP4 SUB SUB DUP2 MSTORE SWAP1 PUSH1 0x40 MSTORE PUSH32 0x319AF33300000000000000000000000000000000000000000000000000000000 PUSH28 0xFFFFFFFFFFFFFFFFFFFFFFFFFFFFFFFFFFFFFFFFFFFFFFFFFFFFFFFF NOT AND PUSH1 0x20 DUP3 ADD DUP1 MLOAD PUSH28 0xFFFFFFFFFFFFFFFFFFFFFFFFFFFFFFFFFFFFFFFFFFFFFFFFFFFFFFFF DUP4 DUP2 DUP4 AND OR DUP4 MSTORE POP POP POP POP PUSH2 0x13C1 JUMP JUMPDEST POP POP JUMP JUMPDEST PUSH2 0x13BD DUP3 DUP3 PUSH1 0x40 MLOAD PUSH1 0x24 ADD PUSH2 0x133B SWAP3 SWAP2 SWAP1 PUSH2 0x1EF7 JUMP JUMPDEST PUSH1 0x40 MLOAD PUSH1 0x20 DUP2 DUP4 SUB SUB DUP2 MSTORE SWAP1 PUSH1 0x40 MSTORE PUSH32 0x4B5C427700000000000000000000000000000000000000000000000000000000 PUSH28 0xFFFFFFFFFFFFFFFFFFFFFFFFFFFFFFFFFFFFFFFFFFFFFFFFFFFFFFFF NOT AND PUSH1 0x20 DUP3 ADD DUP1 MLOAD PUSH28 0xFFFFFFFFFFFFFFFFFFFFFFFFFFFFFFFFFFFFFFFFFFFFFFFFFFFFFFFF DUP4 DUP2 DUP4 AND OR DUP4 MSTORE POP POP POP POP PUSH2 0x13C1 JUMP JUMPDEST POP POP JUMP JUMPDEST PUSH2 0x13D8 DUP2 PUSH2 0x13D0 PUSH2 0x13DB PUSH2 0x13FC JUMP JUMPDEST PUSH4 0xFFFFFFFF AND JUMP JUMPDEST POP JUMP JUMPDEST PUSH1 0x0 PUSH11 0x636F6E736F6C652E6C6F67 SWAP1 POP PUSH1 0x0 DUP1 DUP4 MLOAD PUSH1 0x20 DUP6 ADD DUP5 GAS STATICCALL POP POP POP JUMP JUMPDEST PUSH2 0x1407 DUP2 SWAP1 POP SWAP2 SWAP1 POP JUMP JUMPDEST PUSH2 0x140F PUSH2 0x1F2E JUMP JUMPDEST JUMP JUMPDEST PUSH1 0x0 DUP2 MLOAD SWAP1 POP SWAP2 SWAP1 POP JUMP JUMPDEST PUSH1 0x0 DUP3 DUP3 MSTORE PUSH1 0x20 DUP3 ADD SWAP1 POP SWAP3 SWAP2 POP POP JUMP JUMPDEST PUSH1 0x0 JUMPDEST DUP4 DUP2 LT ISZERO PUSH2 0x144B JUMPI DUP1 DUP3 ADD MLOAD DUP2 DUP5 ADD MSTORE PUSH1 0x20 DUP2 ADD SWAP1 POP PUSH2 0x1430 JUMP JUMPDEST PUSH1 0x0 DUP5 DUP5 ADD MSTORE POP POP POP POP JUMP JUMPDEST PUSH1 0x0 PUSH1 0x1F NOT PUSH1 0x1F DUP4 ADD AND SWAP1 POP SWAP2 SWAP1 POP JUMP JUMPDEST PUSH1 0x0 PUSH2 0x1473 DUP3 PUSH2 0x1411 JUMP JUMPDEST PUSH2 0x147D DUP2 DUP6 PUSH2 0x141C JUMP JUMPDEST SWAP4 POP PUSH2 0x148D DUP2 DUP6 PUSH1 0x20 DUP7 ADD PUSH2 0x142D JUMP JUMPDEST PUSH2 0x1496 DUP2 PUSH2 0x1457 JUMP JUMPDEST DUP5 ADD SWAP2 POP POP SWAP3 SWAP2 POP POP JUMP JUMPDEST PUSH1 0x0 PUSH1 0x20 DUP3 ADD SWAP1 POP DUP2 DUP2 SUB PUSH1 0x0 DUP4 ADD MSTORE PUSH2 0x14BB DUP2 DUP5 PUSH2 0x1468 JUMP JUMPDEST SWAP1 POP SWAP3 SWAP2 POP POP JUMP JUMPDEST PUSH1 0x0 DUP2 MLOAD SWAP1 POP SWAP2 SWAP1 POP JUMP JUMPDEST PUSH1 0x0 DUP3 DUP3 MSTORE PUSH1 0x20 DUP3 ADD SWAP1 POP SWAP3 SWAP2 POP POP JUMP JUMPDEST PUSH1 0x0 DUP2 SWAP1 POP PUSH1 0x20 DUP3 ADD SWAP1 POP SWAP2 SWAP1 POP JUMP JUMPDEST PUSH1 0x0 DUP2 SWAP1 POP SWAP2 SWAP1 POP JUMP JUMPDEST PUSH2 0x1502 DUP2 PUSH2 0x14EF JUMP JUMPDEST DUP3 MSTORE POP POP JUMP JUMPDEST PUSH1 0x0 PUSH2 0x1514 DUP4 DUP4 PUSH2 0x14F9 JUMP JUMPDEST PUSH1 0x20 DUP4 ADD SWAP1 POP SWAP3 SWAP2 POP POP JUMP JUMPDEST PUSH1 0x0 PUSH1 0x20 DUP3 ADD SWAP1 POP SWAP2 SWAP1 POP JUMP JUMPDEST PUSH1 0x0 PUSH2 0x1538 DUP3 PUSH2 0x14C3 JUMP JUMPDEST PUSH2 0x1542 DUP2 DUP6 PUSH2 0x14CE JUMP JUMPDEST SWAP4 POP PUSH2 0x154D DUP4 PUSH2 0x14DF JUMP JUMPDEST DUP1 PUSH1 0x0 JUMPDEST DUP4 DUP2 LT ISZERO PUSH2 0x157E JUMPI DUP2 MLOAD PUSH2 0x1565 DUP9 DUP3 PUSH2 0x1508 JUMP JUMPDEST SWAP8 POP PUSH2 0x1570 DUP4 PUSH2 0x1520 JUMP JUMPDEST SWAP3 POP POP PUSH1 0x1 DUP2 ADD SWAP1 POP PUSH2 0x1551 JUMP JUMPDEST POP DUP6 SWAP4 POP POP POP POP SWAP3 SWAP2 POP POP JUMP JUMPDEST PUSH1 0x0 PUSH1 0x20 DUP3 ADD SWAP1 POP DUP2 DUP2 SUB PUSH1 0x0 DUP4 ADD MSTORE PUSH2 0x15A5 DUP2 DUP5 PUSH2 0x152D JUMP JUMPDEST SWAP1 POP SWAP3 SWAP2 POP POP JUMP JUMPDEST PUSH1 0x0 PUSH1 0x40 MLOAD SWAP1 POP SWAP1 JUMP JUMPDEST PUSH1 0x0 DUP1 REVERT JUMPDEST PUSH1 0x0 DUP1 REVERT JUMPDEST PUSH2 0x15CA DUP2 PUSH2 0x14EF JUMP JUMPDEST DUP2 EQ PUSH2 0x15D5 JUMPI PUSH1 0x0 DUP1 REVERT JUMPDEST POP JUMP JUMPDEST PUSH1 0x0 DUP2 CALLDATALOAD SWAP1 POP PUSH2 0x15E7 DUP2 PUSH2 0x15C1 JUMP JUMPDEST SWAP3 SWAP2 POP POP JUMP JUMPDEST PUSH1 0x0 PUSH1 0x20 DUP3 DUP5 SUB SLT ISZERO PUSH2 0x1603 JUMPI PUSH2 0x1602 PUSH2 0x15B7 JUMP JUMPDEST JUMPDEST PUSH1 0x0 PUSH2 0x1611 DUP5 DUP3 DUP6 ADD PUSH2 0x15D8 JUMP JUMPDEST SWAP2 POP POP SWAP3 SWAP2 POP POP JUMP JUMPDEST PUSH2 0x1623 DUP2 PUSH2 0x14EF JUMP JUMPDEST DUP3 MSTORE POP POP JUMP JUMPDEST PUSH1 0x0 PUSH20 0xFFFFFFFFFFFFFFFFFFFFFFFFFFFFFFFFFFFFFFFF DUP3 AND SWAP1 POP SWAP2 SWAP1 POP JUMP JUMPDEST PUSH1 0x0 PUSH2 0x1654 DUP3 PUSH2 0x1629 JUMP JUMPDEST SWAP1 POP SWAP2 SWAP1 POP JUMP JUMPDEST PUSH2 0x1664 DUP2 PUSH2 0x1649 JUMP JUMPDEST DUP3 MSTORE POP POP JUMP JUMPDEST PUSH1 0x0 PUSH1 0xC0 DUP3 ADD SWAP1 POP PUSH2 0x167F PUSH1 0x0 DUP4 ADD DUP10 PUSH2 0x161A JUMP JUMPDEST DUP2 DUP2 SUB PUSH1 0x20 DUP4 ADD MSTORE PUSH2 0x1691 DUP2 DUP9 PUSH2 0x1468 JUMP JUMPDEST SWAP1 POP DUP2 DUP2 SUB PUSH1 0x40 DUP4 ADD MSTORE PUSH2 0x16A5 DUP2 DUP8 PUSH2 0x1468 JUMP JUMPDEST SWAP1 POP DUP2 DUP2 SUB PUSH1 0x60 DUP4 ADD MSTORE PUSH2 0x16B9 DUP2 DUP7 PUSH2 0x1468 JUMP JUMPDEST SWAP1 POP PUSH2 0x16C8 PUSH1 0x80 DUP4 ADD DUP6 PUSH2 0x165B JUMP JUMPDEST PUSH2 0x16D5 PUSH1 0xA0 DUP4 ADD DUP5 PUSH2 0x161A JUMP JUMPDEST SWAP8 SWAP7 POP POP POP POP POP POP POP JUMP JUMPDEST PUSH1 0x0 DUP1 REVERT JUMPDEST PUSH1 0x0 DUP1 REVERT JUMPDEST PUSH32 0x4E487B7100000000000000000000000000000000000000000000000000000000 PUSH1 0x0 MSTORE PUSH1 0x41 PUSH1 0x4 MSTORE PUSH1 0x24 PUSH1 0x0 REVERT JUMPDEST PUSH2 0x1722 DUP3 PUSH2 0x1457 JUMP JUMPDEST DUP2 ADD DUP2 DUP2 LT PUSH8 0xFFFFFFFFFFFFFFFF DUP3 GT OR ISZERO PUSH2 0x1741 JUMPI PUSH2 0x1740 PUSH2 0x16EA JUMP JUMPDEST JUMPDEST DUP1 PUSH1 0x40 MSTORE POP POP POP JUMP JUMPDEST PUSH1 0x0 PUSH2 0x1754 PUSH2 0x15AD JUMP JUMPDEST SWAP1 POP PUSH2 0x1760 DUP3 DUP3 PUSH2 0x1719 JUMP JUMPDEST SWAP2 SWAP1 POP JUMP JUMPDEST PUSH1 0x0 PUSH8 0xFFFFFFFFFFFFFFFF DUP3 GT ISZERO PUSH2 0x1780 JUMPI PUSH2 0x177F PUSH2 0x16EA JUMP JUMPDEST JUMPDEST PUSH2 0x1789 DUP3 PUSH2 0x1457 JUMP JUMPDEST SWAP1 POP PUSH1 0x20 DUP2 ADD SWAP1 POP SWAP2 SWAP1 POP JUMP JUMPDEST DUP3 DUP2 DUP4 CALLDATACOPY PUSH1 0x0 DUP4 DUP4 ADD MSTORE POP POP POP JUMP JUMPDEST PUSH1 0x0 PUSH2 0x17B8 PUSH2 0x17B3 DUP5 PUSH2 0x1765 JUMP JUMPDEST PUSH2 0x174A JUMP JUMPDEST SWAP1 POP DUP3 DUP2 MSTORE PUSH1 0x20 DUP2 ADD DUP5 DUP5 DUP5 ADD GT ISZERO PUSH2 0x17D4 JUMPI PUSH2 0x17D3 PUSH2 0x16E5 JUMP JUMPDEST JUMPDEST PUSH2 0x17DF DUP5 DUP3 DUP6 PUSH2 0x1796 JUMP JUMPDEST POP SWAP4 SWAP3 POP POP POP JUMP JUMPDEST PUSH1 0x0 DUP3 PUSH1 0x1F DUP4 ADD SLT PUSH2 0x17FC JUMPI PUSH2 0x17FB PUSH2 0x16E0 JUMP JUMPDEST JUMPDEST DUP2 CALLDATALOAD PUSH2 0x180C DUP5 DUP3 PUSH1 0x20 DUP7 ADD PUSH2 0x17A5 JUMP JUMPDEST SWAP2 POP POP SWAP3 SWAP2 POP POP JUMP JUMPDEST PUSH1 0x0 DUP1 PUSH1 0x0 PUSH1 0x60 DUP5 DUP7 SUB SLT ISZERO PUSH2 0x182E JUMPI PUSH2 0x182D PUSH2 0x15B7 JUMP JUMPDEST JUMPDEST PUSH1 0x0 DUP5 ADD CALLDATALOAD PUSH8 0xFFFFFFFFFFFFFFFF DUP2 GT ISZERO PUSH2 0x184C JUMPI PUSH2 0x184B PUSH2 0x15BC JUMP JUMPDEST JUMPDEST PUSH2 0x1858 DUP7 DUP3 DUP8 ADD PUSH2 0x17E7 JUMP JUMPDEST SWAP4 POP POP PUSH1 0x20 DUP5 ADD CALLDATALOAD PUSH8 0xFFFFFFFFFFFFFFFF DUP2 GT ISZERO PUSH2 0x1879 JUMPI PUSH2 0x1878 PUSH2 0x15BC JUMP JUMPDEST JUMPDEST PUSH2 0x1885 DUP7 DUP3 DUP8 ADD PUSH2 0x17E7 JUMP JUMPDEST SWAP3 POP POP PUSH1 0x40 DUP5 ADD CALLDATALOAD PUSH8 0xFFFFFFFFFFFFFFFF DUP2 GT ISZERO PUSH2 0x18A6 JUMPI PUSH2 0x18A5 PUSH2 0x15BC JUMP JUMPDEST JUMPDEST PUSH2 0x18B2 DUP7 DUP3 DUP8 ADD PUSH2 0x17E7 JUMP JUMPDEST SWAP2 POP POP SWAP3 POP SWAP3 POP SWAP3 JUMP JUMPDEST PUSH1 0x0 PUSH1 0x60 DUP3 ADD SWAP1 POP DUP2 DUP2 SUB PUSH1 0x0 DUP4 ADD MSTORE PUSH2 0x18D6 DUP2 DUP7 PUSH2 0x1468 JUMP JUMPDEST SWAP1 POP DUP2 DUP2 SUB PUSH1 0x20 DUP4 ADD MSTORE PUSH2 0x18EA DUP2 DUP6 PUSH2 0x1468 JUMP JUMPDEST SWAP1 POP PUSH2 0x18F9 PUSH1 0x40 DUP4 ADD DUP5 PUSH2 0x161A JUMP JUMPDEST SWAP5 SWAP4 POP POP POP POP JUMP JUMPDEST PUSH1 0x0 PUSH1 0x20 DUP3 ADD SWAP1 POP PUSH2 0x1916 PUSH1 0x0 DUP4 ADD DUP5 PUSH2 0x161A JUMP JUMPDEST SWAP3 SWAP2 POP POP JUMP JUMPDEST PUSH32 0x4E487B7100000000000000000000000000000000000000000000000000000000 PUSH1 0x0 MSTORE PUSH1 0x22 PUSH1 0x4 MSTORE PUSH1 0x24 PUSH1 0x0 REVERT JUMPDEST PUSH1 0x0 PUSH1 0x2 DUP3 DIV SWAP1 POP PUSH1 0x1 DUP3 AND DUP1 PUSH2 0x1963 JUMPI PUSH1 0x7F DUP3 AND SWAP2 POP JUMPDEST PUSH1 0x20 DUP3 LT DUP2 SUB PUSH2 0x1976 JUMPI PUSH2 0x1975 PUSH2 0x191C JUMP JUMPDEST JUMPDEST POP SWAP2 SWAP1 POP JUMP JUMPDEST PUSH32 0x496E76616C6964206D6F64656C20494400000000000000000000000000000000 PUSH1 0x0 DUP3 ADD MSTORE POP JUMP JUMPDEST PUSH1 0x0 PUSH2 0x19B2 PUSH1 0x10 DUP4 PUSH2 0x141C JUMP JUMPDEST SWAP2 POP PUSH2 0x19BD DUP3 PUSH2 0x197C JUMP JUMPDEST PUSH1 0x20 DUP3 ADD SWAP1 POP SWAP2 SWAP1 POP JUMP JUMPDEST PUSH1 0x0 PUSH1 0x20 DUP3 ADD SWAP1 POP DUP2 DUP2 SUB PUSH1 0x0 DUP4 ADD MSTORE PUSH2 0x19E1 DUP2 PUSH2 0x19A5 JUMP JUMPDEST SWAP1 POP SWAP2 SWAP1 POP JUMP JUMPDEST PUSH32 0x4D6F64656C206E616D6520726571756972656400000000000000000000000000 PUSH1 0x0 DUP3 ADD MSTORE POP JUMP JUMPDEST PUSH1 0x0 PUSH2 0x1A1E PUSH1 0x13 DUP4 PUSH2 0x141C JUMP JUMPDEST SWAP2 POP PUSH2 0x1A29 DUP3 PUSH2 0x19E8 JUMP JUMPDEST PUSH1 0x20 DUP3 ADD SWAP1 POP SWAP2 SWAP1 POP JUMP JUMPDEST PUSH1 0x0 PUSH1 0x20 DUP3 ADD SWAP1 POP DUP2 DUP2 SUB PUSH1 0x0 DUP4 ADD MSTORE PUSH2 0x1A4D DUP2 PUSH2 0x1A11 JUMP JUMPDEST SWAP1 POP SWAP2 SWAP1 POP JUMP JUMPDEST PUSH32 0x4950465320686173682072657175697265640000000000000000000000000000 PUSH1 0x0 DUP3 ADD MSTORE POP JUMP JUMPDEST PUSH1 0x0 PUSH2 0x1A8A PUSH1 0x12 DUP4 PUSH2 0x141C JUMP JUMPDEST SWAP2 POP PUSH2 0x1A95 DUP3 PUSH2 0x1A54 JUMP JUMPDEST PUSH1 0x20 DUP3 ADD SWAP1 POP SWAP2 SWAP1 POP JUMP JUMPDEST PUSH1 0x0 PUSH1 0x20 DUP3 ADD SWAP1 POP DUP2 DUP2 SUB PUSH1 0x0 DUP4 ADD MSTORE PUSH2 0x1AB9 DUP2 PUSH2 0x1A7D JUMP JUMPDEST SWAP1 POP SWAP2 SWAP1 POP JUMP JUMPDEST PUSH32 0x4E487B7100000000000000000000000000000000000000000000000000000000 PUSH1 0x0 MSTORE PUSH1 0x11 PUSH1 0x4 MSTORE PUSH1 0x24 PUSH1 0x0 REVERT JUMPDEST PUSH1 0x0 PUSH2 0x1AFA DUP3 PUSH2 0x14EF JUMP JUMPDEST SWAP2 POP PUSH32 0xFFFFFFFFFFFFFFFFFFFFFFFFFFFFFFFFFFFFFFFFFFFFFFFFFFFFFFFFFFFFFFFF DUP3 SUB PUSH2 0x1B2C JUMPI PUSH2 0x1B2B PUSH2 0x1AC0 JUMP JUMPDEST JUMPDEST PUSH1 0x1 DUP3 ADD SWAP1 POP SWAP2 SWAP1 POP JUMP JUMPDEST PUSH1 0x0 DUP2 SWAP1 POP DUP2 PUSH1 0x0 MSTORE PUSH1 0x20 PUSH1 0x0 KECCAK256 SWAP1 POP SWAP2 SWAP1 POP JUMP JUMPDEST PUSH1 0x0 PUSH1 0x20 PUSH1 0x1F DUP4 ADD DIV SWAP1 POP SWAP2 SWAP1 POP JUMP JUMPDEST PUSH1 0x0 DUP3 DUP3 SHL SWAP1 POP SWAP3 SWAP2 POP POP JUMP JUMPDEST PUSH1 0x0 PUSH1 0x8 DUP4 MUL PUSH2 0x1B99 PUSH32 0xFFFFFFFFFFFFFFFFFFFFFFFFFFFFFFFFFFFFFFFFFFFFFFFFFFFFFFFFFFFFFFFF DUP3 PUSH2 0x1B5C JUMP JUMPDEST PUSH2 0x1BA3 DUP7 DUP4 PUSH2 0x1B5C JUMP JUMPDEST SWAP6 POP DUP1 NOT DUP5 AND SWAP4 POP DUP1 DUP7 AND DUP5 OR SWAP3 POP POP POP SWAP4 SWAP3 POP POP POP JUMP JUMPDEST PUSH1 0x0 DUP2 SWAP1 POP SWAP2 SWAP1 POP JUMP JUMPDEST PUSH1 0x0 PUSH2 0x1BE0 PUSH2 0x1BDB PUSH2 0x1BD6 DUP5 PUSH2 0x14EF JUMP JUMPDEST PUSH2 0x1BBB JUMP JUMPDEST PUSH2 0x14EF JUMP JUMPDEST SWAP1 POP SWAP2 SWAP1 POP JUMP JUMPDEST PUSH1 0x0 DUP2 SWAP1 POP SWAP2 SWAP1 POP JUMP JUMPDEST PUSH2 0x1BFA DUP4 PUSH2 0x1BC5 JUMP JUMPDEST PUSH2 0x1C0E PUSH2 0x1C06 DUP3 PUSH2 0x1BE7 JUMP JUMPDEST DUP5 DUP5 SLOAD PUSH2 0x1B69 JUMP JUMPDEST DUP3 SSTORE POP POP POP POP JUMP JUMPDEST PUSH1 0x0 SWAP1 JUMP JUMPDEST PUSH2 0x1C23 PUSH2 0x1C16 JUMP JUMPDEST PUSH2 0x1C2E DUP2 DUP5 DUP5 PUSH2 0x1BF1 JUMP JUMPDEST POP POP POP JUMP JUMPDEST JUMPDEST DUP2 DUP2 LT ISZERO PUSH2 0x1C52 JUMPI PUSH2 0x1C47 PUSH1 0x0 DUP3 PUSH2 0x1C1B JUMP JUMPDEST PUSH1 0x1 DUP2 ADD SWAP1 POP PUSH2 0x1C34 JUMP JUMPDEST POP POP JUMP JUMPDEST PUSH1 0x1F DUP3 GT ISZERO PUSH2 0x1C97 JUMPI PUSH2 0x1C68 DUP2 PUSH2 0x1B37 JUMP JUMPDEST PUSH2 0x1C71 DUP5 PUSH2 0x1B4C JUMP JUMPDEST DUP2 ADD PUSH1 0x20 DUP6 LT ISZERO PUSH2 0x1C80 JUMPI DUP2 SWAP1 POP JUMPDEST PUSH2 0x1C94 PUSH2 0x1C8C DUP6 PUSH2 0x1B4C JUMP JUMPDEST DUP4 ADD DUP3 PUSH2 0x1C33 JUMP JUMPDEST POP POP JUMPDEST POP POP POP JUMP JUMPDEST PUSH1 0x0 DUP3 DUP3 SHR SWAP1 POP SWAP3 SWAP2 POP POP JUMP JUMPDEST PUSH1 0x0 PUSH2 0x1CBA PUSH1 0x0 NOT DUP5 PUSH1 0x8 MUL PUSH2 0x1C9C JUMP JUMPDEST NOT DUP1 DUP4 AND SWAP2 POP POP SWAP3 SWAP2 POP POP JUMP JUMPDEST PUSH1 0x0 PUSH2 0x1CD3 DUP4 DUP4 PUSH2 0x1CA9 JUMP JUMPDEST SWAP2 POP DUP3 PUSH1 0x2 MUL DUP3 OR SWAP1 POP SWAP3 SWAP2 POP POP JUMP JUMPDEST PUSH2 0x1CEC DUP3 PUSH2 0x1411 JUMP JUMPDEST PUSH8 0xFFFFFFFFFFFFFFFF DUP2 GT ISZERO PUSH2 0x1D05 JUMPI PUSH2 0x1D04 PUSH2 0x16EA JUMP JUMPDEST JUMPDEST PUSH2 0x1D0F DUP3 SLOAD PUSH2 0x194B JUMP JUMPDEST PUSH2 0x1D1A DUP3 DUP3 DUP6 PUSH2 0x1C56 JUMP JUMPDEST PUSH1 0x0 PUSH1 0x20 SWAP1 POP PUSH1 0x1F DUP4 GT PUSH1 0x1 DUP2 EQ PUSH2 0x1D4D JUMPI PUSH1 0x0 DUP5 ISZERO PUSH2 0x1D3B JUMPI DUP3 DUP8 ADD MLOAD SWAP1 POP JUMPDEST PUSH2 0x1D45 DUP6 DUP3 PUSH2 0x1CC7 JUMP JUMPDEST DUP7 SSTORE POP PUSH2 0x1DAD JUMP JUMPDEST PUSH1 0x1F NOT DUP5 AND PUSH2 0x1D5B DUP7 PUSH2 0x1B37 JUMP JUMPDEST PUSH1 0x0 JUMPDEST DUP3 DUP2 LT ISZERO PUSH2 0x1D83 JUMPI DUP5 DUP10 ADD MLOAD DUP3 SSTORE PUSH1 0x1 DUP3 ADD SWAP2 POP PUSH1 0x20 DUP6 ADD SWAP5 POP PUSH1 0x20 DUP2 ADD SWAP1 POP PUSH2 0x1D5E JUMP JUMPDEST DUP7 DUP4 LT ISZERO PUSH2 0x1DA0 JUMPI DUP5 DUP10 ADD MLOAD PUSH2 0x1D9C PUSH1 0x1F DUP10 AND DUP3 PUSH2 0x1CA9 JUMP JUMPDEST DUP4 SSTORE POP JUMPDEST PUSH1 0x1 PUSH1 0x2 DUP9 MUL ADD DUP9 SSTORE POP POP POP JUMPDEST POP POP POP POP POP POP JUMP JUMPDEST PUSH1 0x0 PUSH1 0x80 DUP3 ADD SWAP1 POP DUP2 DUP2 SUB PUSH1 0x0 DUP4 ADD MSTORE PUSH2 0x1DCF DUP2 DUP8 PUSH2 0x1468 JUMP JUMPDEST SWAP1 POP DUP2 DUP2 SUB PUSH1 0x20 DUP4 ADD MSTORE PUSH2 0x1DE3 DUP2 DUP7 PUSH2 0x1468 JUMP JUMPDEST SWAP1 POP DUP2 DUP2 SUB PUSH1 0x40 DUP4 ADD MSTORE PUSH2 0x1DF7 DUP2 DUP6 PUSH2 0x1468 JUMP JUMPDEST SWAP1 POP PUSH2 0x1E06 PUSH1 0x60 DUP4 ADD DUP5 PUSH2 0x161A JUMP JUMPDEST SWAP6 SWAP5 POP POP POP POP POP JUMP JUMPDEST PUSH32 0x4D6F64656C207375636365737366756C6C792072656769737465726564000000 PUSH1 0x0 DUP3 ADD MSTORE POP JUMP JUMPDEST PUSH1 0x0 PUSH2 0x1E45 PUSH1 0x1D DUP4 PUSH2 0x141C JUMP JUMPDEST SWAP2 POP PUSH2 0x1E50 DUP3 PUSH2 0x1E0F JUMP JUMPDEST PUSH1 0x20 DUP3 ADD SWAP1 POP SWAP2 SWAP1 POP JUMP JUMPDEST PUSH1 0x0 PUSH1 0x60 DUP3 ADD SWAP1 POP DUP2 DUP2 SUB PUSH1 0x0 DUP4 ADD MSTORE PUSH2 0x1E74 DUP2 PUSH2 0x1E38 JUMP JUMPDEST SWAP1 POP PUSH2 0x1E83 PUSH1 0x20 DUP4 ADD DUP6 PUSH2 0x165B JUMP JUMPDEST PUSH2 0x1E90 PUSH1 0x40 DUP4 ADD DUP5 PUSH2 0x161A JUMP JUMPDEST SWAP4 SWAP3 POP POP POP JUMP JUMPDEST PUSH1 0x0 PUSH1 0x40 DUP3 ADD SWAP1 POP DUP2 DUP2 SUB PUSH1 0x0 DUP4 ADD MSTORE PUSH2 0x1EB1 DUP2 DUP6 PUSH2 0x1468 JUMP JUMPDEST SWAP1 POP PUSH2 0x1EC0 PUSH1 0x20 DUP4 ADD DUP5 PUSH2 0x161A JUMP JUMPDEST SWAP4 SWAP3 POP POP POP JUMP JUMPDEST PUSH1 0x0 PUSH1 0x40 DUP3 ADD SWAP1 POP DUP2 DUP2 SUB PUSH1 0x0 DUP4 ADD MSTORE PUSH2 0x1EE1 DUP2 DUP6 PUSH2 0x1468 JUMP JUMPDEST SWAP1 POP PUSH2 0x1EF0 PUSH1 0x20 DUP4 ADD DUP5 PUSH2 0x165B JUMP JUMPDEST SWAP4 SWAP3 POP POP POP JUMP JUMPDEST PUSH1 0x0 PUSH1 0x40 DUP3 ADD SWAP1 POP DUP2 DUP2 SUB PUSH1 0x0 DUP4 ADD MSTORE PUSH2 0x1F11 DUP2 DUP6 PUSH2 0x1468 JUMP JUMPDEST SWAP1 POP DUP2 DUP2 SUB PUSH1 0x20 DUP4 ADD MSTORE PUSH2 0x1F25 DUP2 DUP5 PUSH2 0x1468 JUMP JUMPDEST SWAP1 POP SWAP4 SWAP3 POP POP POP JUMP JUMPDEST PUSH32 0x4E487B7100000000000000000000000000000000000000000000000000000000 PUSH1 0x0 MSTORE PUSH1 0x51 PUSH1 0x4 MSTORE PUSH1 0x24 PUSH1 0x0 REVERT INVALID LOG2 PUSH5 0x6970667358 0x22 SLT KECCAK256 REVERT 0x29 LOG1 MSIZE 0xAC 0x1F SWAP16 EXTCODESIZE 0xC6 DUP7 PUSH15 0x353E70C2EBB0A378E7C5E7C74C0450 SLT CALLDATALOAD DUP5 0xCB 0xA5 SAR PUSH5 0x736F6C6343 STOP ADDMOD SGT STOP CALLER "},"methodIdentifiers":{"getAllModelIds()":"2122496d","getContractInfo()":"7cc1f867","getModel(uint256)":"6d361694","modelCount()":"c6a645fe","models(uint256)":"6a030ca9","name()":"06fdde03","registerModel(string,string,string)":"7715fcc3","symbol()":"95d89b41"}}}}}