{
  "_format": "hh-sol-artifact-1",
  "contractName": "FragmentCollectible",
  "sourceName": "contracts/FragmentCollectible.sol",
  "abi": [
    {
      "inputs": [
        {
          "internalType": "string",
          "name": "uri_",
          "type": "string"
        },
        {
          "internalType": "address",
          "name": "initialOwner",
          "type": "address"
        }
      ],
      "stateMutability": "nonpayable",
      "type": "constructor"
    },
    {
      "inputs": [
        {
          "internalType": "address",
          "name": "sender",
          "type": "address"
        },
        {
          "internalType": "uint256",
          "name": "balance",
          "type": "uint256"
        },
        {
          "internalType": "uint256",
          "name": "needed",
          "type": "uint256"
        },
        {
          "internalType": "uint256",
          "name": "tokenId",
          "type": "uint256"
        }
      ],
      "name": "ERC1155InsufficientBalance",
      "type": "error"
    },
    {
      "inputs": [
        {
          "internalType": "address",
          "name": "approver",
          "type": "address"
        }
      ],
      "name": "ERC1155InvalidApprover",
      "type": "error"
    },
    {
      "inputs": [
        {
          "internalType": "uint256",
          "name": "idsLength",
          "type": "uint256"
        },
        {
          "internalType": "uint256",
          "name": "valuesLength",
          "type": "uint256"
        }
      ],
      "name": "ERC1155InvalidArrayLength",
      "type": "error"
    },
    {
      "inputs": [
        {
          "internalType": "address",
          "name": "operator",
          "type": "address"
        }
      ],
      "name": "ERC1155InvalidOperator",
      "type": "error"
    },
    {
      "inputs": [
        {
          "internalType": "address",
          "name": "receiver",
          "type": "address"
        }
      ],
      "name": "ERC1155InvalidReceiver",
      "type": "error"
    },
    {
      "inputs": [
        {
          "internalType": "address",
          "name": "sender",
          "type": "address"
        }
      ],
      "name": "ERC1155InvalidSender",
      "type": "error"
    },
    {
      "inputs": [
        {
          "internalType": "address",
          "name": "operator",
          "type": "address"
        },
        {
          "internalType": "address",
          "name": "owner",
          "type": "address"
        }
      ],
      "name": "ERC1155MissingApprovalForAll",
      "type": "error"
    },
    {
      "inputs": [
        {
          "internalType": "address",
          "name": "owner",
          "type": "address"
        }
      ],
      "name": "OwnableInvalidOwner",
      "type": "error"
    },
    {
      "inputs": [
        {
          "internalType": "address",
          "name": "account",
          "type": "address"
        }
      ],
      "name": "OwnableUnauthorizedAccount",
      "type": "error"
    },
    {
      "anonymous": false,
      "inputs": [
        {
          "indexed": true,
          "internalType": "address",
          "name": "account",
          "type": "address"
        },
        {
          "indexed": true,
          "internalType": "address",
          "name": "operator",
          "type": "address"
        },
        {
          "indexed": false,
          "internalType": "bool",
          "name": "approved",
          "type": "bool"
        }
      ],
      "name": "ApprovalForAll",
      "type": "event"
    },
    {
      "anonymous": false,
      "inputs": [
        {
          "indexed": true,
          "internalType": "address",
          "name": "previousOwner",
          "type": "address"
        },
        {
          "indexed": true,
          "internalType": "address",
          "name": "newOwner",
          "type": "address"
        }
      ],
      "name": "OwnershipTransferred",
      "type": "event"
    },
    {
      "anonymous": false,
      "inputs": [
        {
          "indexed": true,
          "internalType": "address",
          "name": "operator",
          "type": "address"
        },
        {
          "indexed": true,
          "internalType": "address",
          "name": "from",
          "type": "address"
        },
        {
          "indexed": true,
          "internalType": "address",
          "name": "to",
          "type": "address"
        },
        {
          "indexed": false,
          "internalType": "uint256[]",
          "name": "ids",
          "type": "uint256[]"
        },
        {
          "indexed": false,
          "internalType": "uint256[]",
          "name": "values",
          "type": "uint256[]"
        }
      ],
      "name": "TransferBatch",
      "type": "event"
    },
    {
      "anonymous": false,
      "inputs": [
        {
          "indexed": true,
          "internalType": "address",
          "name": "operator",
          "type": "address"
        },
        {
          "indexed": true,
          "internalType": "address",
          "name": "from",
          "type": "address"
        },
        {
          "indexed": true,
          "internalType": "address",
          "name": "to",
          "type": "address"
        },
        {
          "indexed": false,
          "internalType": "uint256",
          "name": "id",
          "type": "uint256"
        },
        {
          "indexed": false,
          "internalType": "uint256",
          "name": "value",
          "type": "uint256"
        }
      ],
      "name": "TransferSingle",
      "type": "event"
    },
    {
      "anonymous": false,
      "inputs": [
        {
          "indexed": false,
          "internalType": "string",
          "name": "value",
          "type": "string"
        },
        {
          "indexed": true,
          "internalType": "uint256",
          "name": "id",
          "type": "uint256"
        }
      ],
      "name": "URI",
      "type": "event"
    },
    {
      "inputs": [
        {
          "internalType": "address",
          "name": "account",
          "type": "address"
        },
        {
          "internalType": "uint256",
          "name": "id",
          "type": "uint256"
        }
      ],
      "name": "balanceOf",
      "outputs": [
        {
          "internalType": "uint256",
          "name": "",
          "type": "uint256"
        }
      ],
      "stateMutability": "view",
      "type": "function"
    },
    {
      "inputs": [
        {
          "internalType": "address[]",
          "name": "accounts",
          "type": "address[]"
        },
        {
          "internalType": "uint256[]",
          "name": "ids",
          "type": "uint256[]"
        }
      ],
      "name": "balanceOfBatch",
      "outputs": [
        {
          "internalType": "uint256[]",
          "name": "",
          "type": "uint256[]"
        }
      ],
      "stateMutability": "view",
      "type": "function"
    },
    {
      "inputs": [
        {
          "internalType": "address",
          "name": "account",
          "type": "address"
        },
        {
          "internalType": "address",
          "name": "operator",
          "type": "address"
        }
      ],
      "name": "isApprovedForAll",
      "outputs": [
        {
          "internalType": "bool",
          "name": "",
          "type": "bool"
        }
      ],
      "stateMutability": "view",
      "type": "function"
    },
    {
      "inputs": [
        {
          "internalType": "address",
          "name": "to",
          "type": "address"
        },
        {
          "internalType": "string",
          "name": "uri",
          "type": "string"
        }
      ],
      "name": "mint",
      "outputs": [
        {
          "internalType": "uint256",
          "name": "",
          "type": "uint256"
        }
      ],
      "stateMutability": "nonpayable",
      "type": "function"
    },
    {
      "inputs": [],
      "name": "owner",
      "outputs": [
        {
          "internalType": "address",
          "name": "",
          "type": "address"
        }
      ],
      "stateMutability": "view",
      "type": "function"
    },
    {
      "inputs": [],
      "name": "renounceOwnership",
      "outputs": [],
      "stateMutability": "nonpayable",
      "type": "function"
    },
    {
      "inputs": [
        {
          "internalType": "address",
          "name": "from",
          "type": "address"
        },
        {
          "internalType": "address",
          "name": "to",
          "type": "address"
        },
        {
          "internalType": "uint256[]",
          "name": "ids",
          "type": "uint256[]"
        },
        {
          "internalType": "uint256[]",
          "name": "values",
          "type": "uint256[]"
        },
        {
          "internalType": "bytes",
          "name": "data",
          "type": "bytes"
        }
      ],
      "name": "safeBatchTransferFrom",
      "outputs": [],
      "stateMutability": "nonpayable",
      "type": "function"
    },
    {
      "inputs": [
        {
          "internalType": "address",
          "name": "from",
          "type": "address"
        },
        {
          "internalType": "address",
          "name": "to",
          "type": "address"
        },
        {
          "internalType": "uint256",
          "name": "id",
          "type": "uint256"
        },
        {
          "internalType": "uint256",
          "name": "value",
          "type": "uint256"
        },
        {
          "internalType": "bytes",
          "name": "data",
          "type": "bytes"
        }
      ],
      "name": "safeTransferFrom",
      "outputs": [],
      "stateMutability": "nonpayable",
      "type": "function"
    },
    {
      "inputs": [
        {
          "internalType": "address",
          "name": "operator",
          "type": "address"
        },
        {
          "internalType": "bool",
          "name": "approved",
          "type": "bool"
        }
      ],
      "name": "setApprovalForAll",
      "outputs": [],
      "stateMutability": "nonpayable",
      "type": "function"
    },
    {
      "inputs": [
        {
          "internalType": "bytes4",
          "name": "interfaceId",
          "type": "bytes4"
        }
      ],
      "name": "supportsInterface",
      "outputs": [
        {
          "internalType": "bool",
          "name": "",
          "type": "bool"
        }
      ],
      "stateMutability": "view",
      "type": "function"
    },
    {
      "inputs": [
        {
          "internalType": "address",
          "name": "newOwner",
          "type": "address"
        }
      ],
      "name": "transferOwnership",
      "outputs": [],
      "stateMutability": "nonpayable",
      "type": "function"
    },
    {
      "inputs": [
        {
          "internalType": "uint256",
          "name": "tokenId",
          "type": "uint256"
        }
      ],
      "name": "uri",
      "outputs": [
        {
          "internalType": "string",
          "name": "",
          "type": "string"
        }
      ],
      "stateMutability": "view",
      "type": "function"
    }
  ],
  "bytecode": "0x6080604052604051806020016040528060008152506003908162000024919062000450565b503480156200003257600080fd5b506040516200305d3803806200305d833981810160405281019062000058919062000700565b80826200006b81620000fb60201b60201c565b50600073ffffffffffffffffffffffffffffffffffffffff168173ffffffffffffffffffffffffffffffffffffffff1603620000e15760006040517f1e4fbdf7000000000000000000000000000000000000000000000000000000008152600401620000d8919062000777565b60405180910390fd5b620000f2816200011060201b60201c565b50505062000794565b80600290816200010c919062000450565b5050565b6000600560009054906101000a900473ffffffffffffffffffffffffffffffffffffffff16905081600560006101000a81548173ffffffffffffffffffffffffffffffffffffffff021916908373ffffffffffffffffffffffffffffffffffffffff1602179055508173ffffffffffffffffffffffffffffffffffffffff168173ffffffffffffffffffffffffffffffffffffffff167f8be0079c531659141344cd1fd0a4f28419497f9722a3daafe3b4186f6b6457e060405160405180910390a35050565b600081519050919050565b7f4e487b7100000000000000000000000000000000000000000000000000000000600052604160045260246000fd5b7f4e487b7100000000000000000000000000000000000000000000000000000000600052602260045260246000fd5b600060028204905060018216806200025857607f821691505b6020821081036200026e576200026d62000210565b5b50919050565b60008190508160005260206000209050919050565b60006020601f8301049050919050565b600082821b905092915050565b600060088302620002d87fffffffffffffffffffffffffffffffffffffffffffffffffffffffffffffffff8262000299565b620002e4868362000299565b95508019841693508086168417925050509392505050565b6000819050919050565b6000819050919050565b6000620003316200032b6200032584620002fc565b62000306565b620002fc565b9050919050565b6000819050919050565b6200034d8362000310565b620003656200035c8262000338565b848454620002a6565b825550505050565b600090565b6200037c6200036d565b6200038981848462000342565b505050565b5b81811015620003b157620003a560008262000372565b6001810190506200038f565b5050565b601f8211156200040057620003ca8162000274565b620003d58462000289565b81016020851015620003e5578190505b620003fd620003f48562000289565b8301826200038e565b50505b505050565b600082821c905092915050565b6000620004256000198460080262000405565b1980831691505092915050565b600062000440838362000412565b9150826002028217905092915050565b6200045b82620001d6565b67ffffffffffffffff811115620004775762000476620001e1565b5b6200048382546200023f565b62000490828285620003b5565b600060209050601f831160018114620004c85760008415620004b3578287015190505b620004bf858262000432565b8655506200052f565b601f198416620004d88662000274565b60005b828110156200050257848901518255600182019150602085019450602081019050620004db565b868310156200052257848901516200051e601f89168262000412565b8355505b6001600288020188555050505b505050505050565b6000604051905090565b600080fd5b600080fd5b600080fd5b600080fd5b6000601f19601f8301169050919050565b620005718262000555565b810181811067ffffffffffffffff82111715620005935762000592620001e1565b5b80604052505050565b6000620005a862000537565b9050620005b6828262000566565b919050565b600067ffffffffffffffff821115620005d957620005d8620001e1565b5b620005e48262000555565b9050602081019050919050565b60005b8381101562000611578082015181840152602081019050620005f4565b60008484015250505050565b6000620006346200062e84620005bb565b6200059c565b90508281526020810184848401111562000653576200065262000550565b5b62000660848285620005f1565b509392505050565b600082601f83011262000680576200067f6200054b565b5b8151620006928482602086016200061d565b91505092915050565b600073ffffffffffffffffffffffffffffffffffffffff82169050919050565b6000620006c8826200069b565b9050919050565b620006da81620006bb565b8114620006e657600080fd5b50565b600081519050620006fa81620006cf565b92915050565b600080604083850312156200071a576200071962000541565b5b600083015167ffffffffffffffff8111156200073b576200073a62000546565b5b620007498582860162000668565b92505060206200075c85828601620006e9565b9150509250929050565b6200077181620006bb565b82525050565b60006020820190506200078e600083018462000766565b92915050565b6128b980620007a46000396000f3fe608060405234801561001057600080fd5b50600436106100b35760003560e01c80638da5cb5b116100715780638da5cb5b1461019e578063a22cb465146101bc578063d0def521146101d8578063e985e9c514610208578063f242432a14610238578063f2fde38b14610254576100b3565b8062fdd58e146100b857806301ffc9a7146100e85780630e89341c146101185780632eb2c2d6146101485780634e1273f414610164578063715018a614610194575b600080fd5b6100d260048036038101906100cd919061183f565b610270565b6040516100df919061188e565b60405180910390f35b61010260048036038101906100fd9190611901565b6102ca565b60405161010f9190611949565b60405180910390f35b610132600480360381019061012d9190611964565b6103ac565b60405161013f9190611a21565b60405180910390f35b610162600480360381019061015d9190611c40565b610491565b005b61017e60048036038101906101799190611dd2565b610539565b60405161018b9190611f08565b60405180910390f35b61019c610648565b005b6101a661065c565b6040516101b39190611f39565b60405180910390f35b6101d660048036038101906101d19190611f80565b610686565b005b6101f260048036038101906101ed9190612061565b61069c565b6040516101ff919061188e565b60405180910390f35b610222600480360381019061021d91906120bd565b6106f1565b60405161022f9190611949565b60405180910390f35b610252600480360381019061024d91906120fd565b610785565b005b61026e60048036038101906102699190612194565b61082d565b005b600080600083815260200190815260200160002060008473ffffffffffffffffffffffffffffffffffffffff1673ffffffffffffffffffffffffffffffffffffffff16815260200190815260200160002054905092915050565b60007fd9b67a26000000000000000000000000000000000000000000000000000000007bffffffffffffffffffffffffffffffffffffffffffffffffffffffff1916827bffffffffffffffffffffffffffffffffffffffffffffffffffffffff1916148061039557507f0e89341c000000000000000000000000000000000000000000000000000000007bffffffffffffffffffffffffffffffffffffffffffffffffffffffff1916827bffffffffffffffffffffffffffffffffffffffffffffffffffffffff1916145b806103a557506103a4826108b3565b5b9050919050565b606060006004600084815260200190815260200160002080546103ce906121f0565b80601f01602080910402602001604051908101604052809291908181526020018280546103fa906121f0565b80156104475780601f1061041c57610100808354040283529160200191610447565b820191906000526020600020905b81548152906001019060200180831161042a57829003601f168201915b505050505090506000815111610465576104608361091d565b610489565b6003816040516020016104799291906122f5565b6040516020818303038152906040525b915050919050565b600061049b6109b1565b90508073ffffffffffffffffffffffffffffffffffffffff168673ffffffffffffffffffffffffffffffffffffffff16141580156104e057506104de86826106f1565b155b156105245780866040517fe237d92200000000000000000000000000000000000000000000000000000000815260040161051b929190612319565b60405180910390fd5b61053186868686866109b9565b505050505050565b6060815183511461058557815183516040517f5b05999100000000000000000000000000000000000000000000000000000000815260040161057c929190612342565b60405180910390fd5b6000835167ffffffffffffffff8111156105a2576105a1611a48565b5b6040519080825280602002602001820160405280156105d05781602001602082028036833780820191505090505b50905060005b845181101561063d5761060d6105f58287610ab190919063ffffffff16565b6106088387610ac590919063ffffffff16565b610270565b8282815181106106205761061f61236b565b5b60200260200101818152505080610636906123c9565b90506105d6565b508091505092915050565b610650610ad9565b61065a6000610b60565b565b6000600560009054906101000a900473ffffffffffffffffffffffffffffffffffffffff16905090565b6106986106916109b1565b8383610c26565b5050565b60006106a6610ad9565b6000600660008154809291906106bb906123c9565b9190505590506106dd8482600160405180602001604052806000815250610d96565b6106e78184610e2f565b8091505092915050565b6000600160008473ffffffffffffffffffffffffffffffffffffffff1673ffffffffffffffffffffffffffffffffffffffff16815260200190815260200160002060008373ffffffffffffffffffffffffffffffffffffffff1673ffffffffffffffffffffffffffffffffffffffff16815260200190815260200160002060009054906101000a900460ff16905092915050565b600061078f6109b1565b90508073ffffffffffffffffffffffffffffffffffffffff168673ffffffffffffffffffffffffffffffffffffffff16141580156107d457506107d286826106f1565b155b156108185780866040517fe237d92200000000000000000000000000000000000000000000000000000000815260040161080f929190612319565b60405180910390fd5b6108258686868686610e94565b505050505050565b610835610ad9565b600073ffffffffffffffffffffffffffffffffffffffff168173ffffffffffffffffffffffffffffffffffffffff16036108a75760006040517f1e4fbdf700000000000000000000000000000000000000000000000000000000815260040161089e9190611f39565b60405180910390fd5b6108b081610b60565b50565b60007f01ffc9a7000000000000000000000000000000000000000000000000000000007bffffffffffffffffffffffffffffffffffffffffffffffffffffffff1916827bffffffffffffffffffffffffffffffffffffffffffffffffffffffff1916149050919050565b60606002805461092c906121f0565b80601f0160208091040260200160405190810160405280929190818152602001828054610958906121f0565b80156109a55780601f1061097a576101008083540402835291602001916109a5565b820191906000526020600020905b81548152906001019060200180831161098857829003601f168201915b50505050509050919050565b600033905090565b600073ffffffffffffffffffffffffffffffffffffffff168473ffffffffffffffffffffffffffffffffffffffff1603610a2b5760006040517f57f447ce000000000000000000000000000000000000000000000000000000008152600401610a229190611f39565b60405180910390fd5b600073ffffffffffffffffffffffffffffffffffffffff168573ffffffffffffffffffffffffffffffffffffffff1603610a9d5760006040517f01a83514000000000000000000000000000000000000000000000000000000008152600401610a949190611f39565b60405180910390fd5b610aaa8585858585610f9f565b5050505050565b600060208202602084010151905092915050565b600060208202602084010151905092915050565b610ae16109b1565b73ffffffffffffffffffffffffffffffffffffffff16610aff61065c565b73ffffffffffffffffffffffffffffffffffffffff1614610b5e57610b226109b1565b6040517f118cdaa7000000000000000000000000000000000000000000000000000000008152600401610b559190611f39565b60405180910390fd5b565b6000600560009054906101000a900473ffffffffffffffffffffffffffffffffffffffff16905081600560006101000a81548173ffffffffffffffffffffffffffffffffffffffff021916908373ffffffffffffffffffffffffffffffffffffffff1602179055508173ffffffffffffffffffffffffffffffffffffffff168173ffffffffffffffffffffffffffffffffffffffff167f8be0079c531659141344cd1fd0a4f28419497f9722a3daafe3b4186f6b6457e060405160405180910390a35050565b600073ffffffffffffffffffffffffffffffffffffffff168273ffffffffffffffffffffffffffffffffffffffff1603610c985760006040517fced3e100000000000000000000000000000000000000000000000000000000008152600401610c8f9190611f39565b60405180910390fd5b80600160008573ffffffffffffffffffffffffffffffffffffffff1673ffffffffffffffffffffffffffffffffffffffff16815260200190815260200160002060008473ffffffffffffffffffffffffffffffffffffffff1673ffffffffffffffffffffffffffffffffffffffff16815260200190815260200160002060006101000a81548160ff0219169083151502179055508173ffffffffffffffffffffffffffffffffffffffff168373ffffffffffffffffffffffffffffffffffffffff167f17307eab39ab6107e8899845ad3d59bd9653f200f220920489ca2b5937696c3183604051610d899190611949565b60405180910390a3505050565b600073ffffffffffffffffffffffffffffffffffffffff168473ffffffffffffffffffffffffffffffffffffffff1603610e085760006040517f57f447ce000000000000000000000000000000000000000000000000000000008152600401610dff9190611f39565b60405180910390fd5b600080610e158585611051565b91509150610e27600087848487610f9f565b505050505050565b80600460008481526020019081526020016000209081610e4f91906125a8565b50817f6bb7ff708619ba0610cba295a58592e0451dee2622938c8755667688daf3529b610e7b846103ac565b604051610e889190611a21565b60405180910390a25050565b600073ffffffffffffffffffffffffffffffffffffffff168473ffffffffffffffffffffffffffffffffffffffff1603610f065760006040517f57f447ce000000000000000000000000000000000000000000000000000000008152600401610efd9190611f39565b60405180910390fd5b600073ffffffffffffffffffffffffffffffffffffffff168573ffffffffffffffffffffffffffffffffffffffff1603610f785760006040517f01a83514000000000000000000000000000000000000000000000000000000008152600401610f6f9190611f39565b60405180910390fd5b600080610f858585611051565b91509150610f968787848487610f9f565b50505050505050565b610fab85858585611081565b600073ffffffffffffffffffffffffffffffffffffffff168473ffffffffffffffffffffffffffffffffffffffff161461104a576000610fe96109b1565b9050600184510361103957600061100a600086610ac590919063ffffffff16565b90506000611022600086610ac590919063ffffffff16565b905061103283898985858961142f565b5050611048565b6110478187878787876115e3565b5b505b5050505050565b60608060405191506001825283602083015260408201905060018152826020820152604081016040529250929050565b80518251146110cb57815181516040517f5b0599910000000000000000000000000000000000000000000000000000000081526004016110c2929190612342565b60405180910390fd5b60006110d56109b1565b905060005b83518110156112ea5760006110f88286610ac590919063ffffffff16565b9050600061110f8386610ac590919063ffffffff16565b9050600073ffffffffffffffffffffffffffffffffffffffff168873ffffffffffffffffffffffffffffffffffffffff161461123c57600080600084815260200190815260200160002060008a73ffffffffffffffffffffffffffffffffffffffff1673ffffffffffffffffffffffffffffffffffffffff168152602001908152602001600020549050818110156111e457888183856040517f03dee4c50000000000000000000000000000000000000000000000000000000081526004016111db949392919061267a565b60405180910390fd5b81810360008085815260200190815260200160002060008b73ffffffffffffffffffffffffffffffffffffffff1673ffffffffffffffffffffffffffffffffffffffff16815260200190815260200160002081905550505b600073ffffffffffffffffffffffffffffffffffffffff168773ffffffffffffffffffffffffffffffffffffffff16146112d7578060008084815260200190815260200160002060008973ffffffffffffffffffffffffffffffffffffffff1673ffffffffffffffffffffffffffffffffffffffff16815260200190815260200160002060008282546112cf91906126bf565b925050819055505b5050806112e3906123c9565b90506110da565b5060018351036113a957600061130a600085610ac590919063ffffffff16565b90506000611322600085610ac590919063ffffffff16565b90508573ffffffffffffffffffffffffffffffffffffffff168773ffffffffffffffffffffffffffffffffffffffff168473ffffffffffffffffffffffffffffffffffffffff167fc3d58168c5ae7397731d063d5bbf3d657854427343f4c083240f7aacaa2d0f62858560405161139a929190612342565b60405180910390a45050611428565b8373ffffffffffffffffffffffffffffffffffffffff168573ffffffffffffffffffffffffffffffffffffffff168273ffffffffffffffffffffffffffffffffffffffff167f4a39dc06d4c0dbc64b70af90fd698a233a518aa5d07e595d983b8c0526c8f7fb868660405161141f9291906126f3565b60405180910390a45b5050505050565b60008473ffffffffffffffffffffffffffffffffffffffff163b11156115db578373ffffffffffffffffffffffffffffffffffffffff1663f23a6e6187878686866040518663ffffffff1660e01b815260040161149095949392919061277f565b6020604051808303816000875af19250505080156114cc57506040513d601f19601f820116820180604052508101906114c991906127ee565b60015b611550573d80600081146114fc576040519150601f19603f3d011682016040523d82523d6000602084013e611501565b606091505b50600081510361154857846040517f57f447ce00000000000000000000000000000000000000000000000000000000815260040161153f9190611f39565b60405180910390fd5b805160208201fd5b63f23a6e6160e01b7bffffffffffffffffffffffffffffffffffffffffffffffffffffffff1916817bffffffffffffffffffffffffffffffffffffffffffffffffffffffff1916146115d957846040517f57f447ce0000000000000000000000000000000000000000000000000000000081526004016115d09190611f39565b60405180910390fd5b505b505050505050565b60008473ffffffffffffffffffffffffffffffffffffffff163b111561178f578373ffffffffffffffffffffffffffffffffffffffff1663bc197c8187878686866040518663ffffffff1660e01b815260040161164495949392919061281b565b6020604051808303816000875af192505050801561168057506040513d601f19601f8201168201806040525081019061167d91906127ee565b60015b611704573d80600081146116b0576040519150601f19603f3d011682016040523d82523d6000602084013e6116b5565b606091505b5060008151036116fc57846040517f57f447ce0000000000000000000000000000000000000000000000000000000081526004016116f39190611f39565b60405180910390fd5b805160208201fd5b63bc197c8160e01b7bffffffffffffffffffffffffffffffffffffffffffffffffffffffff1916817bffffffffffffffffffffffffffffffffffffffffffffffffffffffff19161461178d57846040517f57f447ce0000000000000000000000000000000000000000000000000000000081526004016117849190611f39565b60405180910390fd5b505b505050505050565b6000604051905090565b600080fd5b600080fd5b600073ffffffffffffffffffffffffffffffffffffffff82169050919050565b60006117d6826117ab565b9050919050565b6117e6816117cb565b81146117f157600080fd5b50565b600081359050611803816117dd565b92915050565b6000819050919050565b61181c81611809565b811461182757600080fd5b50565b60008135905061183981611813565b92915050565b60008060408385031215611856576118556117a1565b5b6000611864858286016117f4565b92505060206118758582860161182a565b9150509250929050565b61188881611809565b82525050565b60006020820190506118a3600083018461187f565b92915050565b60007fffffffff0000000000000000000000000000000000000000000000000000000082169050919050565b6118de816118a9565b81146118e957600080fd5b50565b6000813590506118fb816118d5565b92915050565b600060208284031215611917576119166117a1565b5b6000611925848285016118ec565b91505092915050565b60008115159050919050565b6119438161192e565b82525050565b600060208201905061195e600083018461193a565b92915050565b60006020828403121561197a576119796117a1565b5b60006119888482850161182a565b91505092915050565b600081519050919050565b600082825260208201905092915050565b60005b838110156119cb5780820151818401526020810190506119b0565b60008484015250505050565b6000601f19601f8301169050919050565b60006119f382611991565b6119fd818561199c565b9350611a0d8185602086016119ad565b611a16816119d7565b840191505092915050565b60006020820190508181036000830152611a3b81846119e8565b905092915050565b600080fd5b7f4e487b7100000000000000000000000000000000000000000000000000000000600052604160045260246000fd5b611a80826119d7565b810181811067ffffffffffffffff82111715611a9f57611a9e611a48565b5b80604052505050565b6000611ab2611797565b9050611abe8282611a77565b919050565b600067ffffffffffffffff821115611ade57611add611a48565b5b602082029050602081019050919050565b600080fd5b6000611b07611b0284611ac3565b611aa8565b90508083825260208201905060208402830185811115611b2a57611b29611aef565b5b835b81811015611b535780611b3f888261182a565b845260208401935050602081019050611b2c565b5050509392505050565b600082601f830112611b7257611b71611a43565b5b8135611b82848260208601611af4565b91505092915050565b600080fd5b600067ffffffffffffffff821115611bab57611baa611a48565b5b611bb4826119d7565b9050602081019050919050565b82818337600083830152505050565b6000611be3611bde84611b90565b611aa8565b905082815260208101848484011115611bff57611bfe611b8b565b5b611c0a848285611bc1565b509392505050565b600082601f830112611c2757611c26611a43565b5b8135611c37848260208601611bd0565b91505092915050565b600080600080600060a08688031215611c5c57611c5b6117a1565b5b6000611c6a888289016117f4565b9550506020611c7b888289016117f4565b945050604086013567ffffffffffffffff811115611c9c57611c9b6117a6565b5b611ca888828901611b5d565b935050606086013567ffffffffffffffff811115611cc957611cc86117a6565b5b611cd588828901611b5d565b925050608086013567ffffffffffffffff811115611cf657611cf56117a6565b5b611d0288828901611c12565b9150509295509295909350565b600067ffffffffffffffff821115611d2a57611d29611a48565b5b602082029050602081019050919050565b6000611d4e611d4984611d0f565b611aa8565b90508083825260208201905060208402830185811115611d7157611d70611aef565b5b835b81811015611d9a5780611d8688826117f4565b845260208401935050602081019050611d73565b5050509392505050565b600082601f830112611db957611db8611a43565b5b8135611dc9848260208601611d3b565b91505092915050565b60008060408385031215611de957611de86117a1565b5b600083013567ffffffffffffffff811115611e0757611e066117a6565b5b611e1385828601611da4565b925050602083013567ffffffffffffffff811115611e3457611e336117a6565b5b611e4085828601611b5d565b9150509250929050565b600081519050919050565b600082825260208201905092915050565b6000819050602082019050919050565b611e7f81611809565b82525050565b6000611e918383611e76565b60208301905092915050565b6000602082019050919050565b6000611eb582611e4a565b611ebf8185611e55565b9350611eca83611e66565b8060005b83811015611efb578151611ee28882611e85565b9750611eed83611e9d565b925050600181019050611ece565b5085935050505092915050565b60006020820190508181036000830152611f228184611eaa565b905092915050565b611f33816117cb565b82525050565b6000602082019050611f4e6000830184611f2a565b92915050565b611f5d8161192e565b8114611f6857600080fd5b50565b600081359050611f7a81611f54565b92915050565b60008060408385031215611f9757611f966117a1565b5b6000611fa5858286016117f4565b9250506020611fb685828601611f6b565b9150509250929050565b600067ffffffffffffffff821115611fdb57611fda611a48565b5b611fe4826119d7565b9050602081019050919050565b6000612004611fff84611fc0565b611aa8565b9050828152602081018484840111156120205761201f611b8b565b5b61202b848285611bc1565b509392505050565b600082601f83011261204857612047611a43565b5b8135612058848260208601611ff1565b91505092915050565b60008060408385031215612078576120776117a1565b5b6000612086858286016117f4565b925050602083013567ffffffffffffffff8111156120a7576120a66117a6565b5b6120b385828601612033565b9150509250929050565b600080604083850312156120d4576120d36117a1565b5b60006120e2858286016117f4565b92505060206120f3858286016117f4565b9150509250929050565b600080600080600060a08688031215612119576121186117a1565b5b6000612127888289016117f4565b9550506020612138888289016117f4565b94505060406121498882890161182a565b935050606061215a8882890161182a565b925050608086013567ffffffffffffffff81111561217b5761217a6117a6565b5b61218788828901611c12565b9150509295509295909350565b6000602082840312156121aa576121a96117a1565b5b60006121b8848285016117f4565b91505092915050565b7f4e487b7100000000000000000000000000000000000000000000000000000000600052602260045260246000fd5b6000600282049050600182168061220857607f821691505b60208210810361221b5761221a6121c1565b5b50919050565b600081905092915050565b60008190508160005260206000209050919050565b6000815461224e816121f0565b6122588186612221565b945060018216600081146122735760018114612288576122bb565b60ff19831686528115158202860193506122bb565b6122918561222c565b60005b838110156122b357815481890152600182019150602081019050612294565b838801955050505b50505092915050565b60006122cf82611991565b6122d98185612221565b93506122e98185602086016119ad565b80840191505092915050565b60006123018285612241565b915061230d82846122c4565b91508190509392505050565b600060408201905061232e6000830185611f2a565b61233b6020830184611f2a565b9392505050565b6000604082019050612357600083018561187f565b612364602083018461187f565b9392505050565b7f4e487b7100000000000000000000000000000000000000000000000000000000600052603260045260246000fd5b7f4e487b7100000000000000000000000000000000000000000000000000000000600052601160045260246000fd5b60006123d482611809565b91507fffffffffffffffffffffffffffffffffffffffffffffffffffffffffffffffff82036124065761240561239a565b5b600182019050919050565b60006020601f8301049050919050565b600082821b905092915050565b60006008830261245e7fffffffffffffffffffffffffffffffffffffffffffffffffffffffffffffffff82612421565b6124688683612421565b95508019841693508086168417925050509392505050565b6000819050919050565b60006124a56124a061249b84611809565b612480565b611809565b9050919050565b6000819050919050565b6124bf8361248a565b6124d36124cb826124ac565b84845461242e565b825550505050565b600090565b6124e86124db565b6124f38184846124b6565b505050565b5b818110156125175761250c6000826124e0565b6001810190506124f9565b5050565b601f82111561255c5761252d8161222c565b61253684612411565b81016020851015612545578190505b61255961255185612411565b8301826124f8565b50505b505050565b600082821c905092915050565b600061257f60001984600802612561565b1980831691505092915050565b6000612598838361256e565b9150826002028217905092915050565b6125b182611991565b67ffffffffffffffff8111156125ca576125c9611a48565b5b6125d482546121f0565b6125df82828561251b565b600060209050601f8311600181146126125760008415612600578287015190505b61260a858261258c565b865550612672565b601f1984166126208661222c565b60005b8281101561264857848901518255600182019150602085019450602081019050612623565b868310156126655784890151612661601f89168261256e565b8355505b6001600288020188555050505b505050505050565b600060808201905061268f6000830187611f2a565b61269c602083018661187f565b6126a9604083018561187f565b6126b6606083018461187f565b95945050505050565b60006126ca82611809565b91506126d583611809565b92508282019050808211156126ed576126ec61239a565b5b92915050565b6000604082019050818103600083015261270d8185611eaa565b905081810360208301526127218184611eaa565b90509392505050565b600081519050919050565b600082825260208201905092915050565b60006127518261272a565b61275b8185612735565b935061276b8185602086016119ad565b612774816119d7565b840191505092915050565b600060a0820190506127946000830188611f2a565b6127a16020830187611f2a565b6127ae604083018661187f565b6127bb606083018561187f565b81810360808301526127cd8184612746565b90509695505050505050565b6000815190506127e8816118d5565b92915050565b600060208284031215612804576128036117a1565b5b6000612812848285016127d9565b91505092915050565b600060a0820190506128306000830188611f2a565b61283d6020830187611f2a565b818103604083015261284f8186611eaa565b905081810360608301526128638185611eaa565b905081810360808301526128778184612746565b9050969550505050505056fea264697066735822122071af4cca3e4c78328fbb1c870f5257fa14a0edd3b524a94605ada6a167feec3564736f6c63430008140033",
  "linkReferences": {},
  "deployedLinkReferences": {}
}