{
  "_format": "hh-sol-artifact-1",
  "contractName": "FragmentCollectible",
  "sourceName": "contracts/FragmentCollectible.sol",
  "abi": [
    {
      "inputs": [
        {
          "internalType": "address",
          "name": "initialOwner",
          "type": "address"
        },
        {
          "internalType": "string",
          "name": "baseURI",
          "type": "string"
        }
      ],
      "stateMutability": "nonpayable",
      "type": "constructor"
    },
    {
      "anonymous": false,
      "inputs": [
        {
          "indexed": true,
          "internalType": "address",
          "name": "owner",
          "type": "address"
        },
        {
          "indexed": true,
          "internalType": "address",
          "name": "approved",
          "type": "address"
        },
        {
          "indexed": true,
          "internalType": "uint256",
          "name": "tokenId",
          "type": "uint256"
        }
      ],
      "name": "Approval",
      "type": "event"
    },
    {
      "anonymous": false,
      "inputs": [
        {
          "indexed": true,
          "internalType": "address",
          "name": "owner",
          "type": "address"
        },
        {
          "indexed": true,
          "internalType": "address",
          "name": "operator",
          "type": "address"
        },
        {
          "indexed": false,
          "internalType": "bool",
          "name": "approved",
          "type": "bool"
        }
      ],
      "name": "ApprovalForAll",
      "type": "event"
    },
    {
      "anonymous": false,
      "inputs": [
        {
          "indexed": false,
          "internalType": "uint256",
          "name": "_fromTokenId",
          "type": "uint256"
        },
        {
          "indexed": false,
          "internalType": "uint256",
          "name": "_toTokenId",
          "type": "uint256"
        }
      ],
      "name": "BatchMetadataUpdate",
      "type": "event"
    },
    {
      "anonymous": false,
      "inputs": [
        {
          "indexed": false,
          "internalType": "uint256",
          "name": "_tokenId",
          "type": "uint256"
        }
      ],
      "name": "MetadataUpdate",
      "type": "event"
    },
    {
      "anonymous": false,
      "inputs": [
        {
          "indexed": true,
          "internalType": "address",
          "name": "previousOwner",
          "type": "address"
        },
        {
          "indexed": true,
          "internalType": "address",
          "name": "newOwner",
          "type": "address"
        }
      ],
      "name": "OwnershipTransferred",
      "type": "event"
    },
    {
      "anonymous": false,
      "inputs": [
        {
          "indexed": true,
          "internalType": "address",
          "name": "from",
          "type": "address"
        },
        {
          "indexed": true,
          "internalType": "address",
          "name": "to",
          "type": "address"
        },
        {
          "indexed": true,
          "internalType": "uint256",
          "name": "tokenId",
          "type": "uint256"
        }
      ],
      "name": "Transfer",
      "type": "event"
    },
    {
      "inputs": [
        {
          "internalType": "address",
          "name": "to",
          "type": "address"
        },
        {
          "internalType": "uint256",
          "name": "tokenId",
          "type": "uint256"
        }
      ],
      "name": "approve",
      "outputs": [],
      "stateMutability": "nonpayable",
      "type": "function"
    },
    {
      "inputs": [
        {
          "internalType": "address",
          "name": "owner",
          "type": "address"
        }
      ],
      "name": "balanceOf",
      "outputs": [
        {
          "internalType": "uint256",
          "name": "",
          "type": "uint256"
        }
      ],
      "stateMutability": "view",
      "type": "function"
    },
    {
      "inputs": [
        {
          "internalType": "uint256",
          "name": "tokenId",
          "type": "uint256"
        }
      ],
      "name": "getApproved",
      "outputs": [
        {
          "internalType": "address",
          "name": "",
          "type": "address"
        }
      ],
      "stateMutability": "view",
      "type": "function"
    },
    {
      "inputs": [
        {
          "internalType": "address",
          "name": "owner",
          "type": "address"
        },
        {
          "internalType": "address",
          "name": "operator",
          "type": "address"
        }
      ],
      "name": "isApprovedForAll",
      "outputs": [
        {
          "internalType": "bool",
          "name": "",
          "type": "bool"
        }
      ],
      "stateMutability": "view",
      "type": "function"
    },
    {
      "inputs": [
        {
          "internalType": "address",
          "name": "to",
          "type": "address"
        },
        {
          "internalType": "string",
          "name": "tokenURI",
          "type": "string"
        }
      ],
      "name": "mintTo",
      "outputs": [
        {
          "internalType": "uint256",
          "name": "",
          "type": "uint256"
        }
      ],
      "stateMutability": "nonpayable",
      "type": "function"
    },
    {
      "inputs": [],
      "name": "name",
      "outputs": [
        {
          "internalType": "string",
          "name": "",
          "type": "string"
        }
      ],
      "stateMutability": "view",
      "type": "function"
    },
    {
      "inputs": [],
      "name": "owner",
      "outputs": [
        {
          "internalType": "address",
          "name": "",
          "type": "address"
        }
      ],
      "stateMutability": "view",
      "type": "function"
    },
    {
      "inputs": [
        {
          "internalType": "uint256",
          "name": "tokenId",
          "type": "uint256"
        }
      ],
      "name": "ownerOf",
      "outputs": [
        {
          "internalType": "address",
          "name": "",
          "type": "address"
        }
      ],
      "stateMutability": "view",
      "type": "function"
    },
    {
      "inputs": [],
      "name": "renounceOwnership",
      "outputs": [],
      "stateMutability": "nonpayable",
      "type": "function"
    },
    {
      "inputs": [
        {
          "internalType": "address",
          "name": "from",
          "type": "address"
        },
        {
          "internalType": "address",
          "name": "to",
          "type": "address"
        },
        {
          "internalType": "uint256",
          "name": "tokenId",
          "type": "uint256"
        }
      ],
      "name": "safeTransferFrom",
      "outputs": [],
      "stateMutability": "nonpayable",
      "type": "function"
    },
    {
      "inputs": [
        {
          "internalType": "address",
          "name": "from",
          "type": "address"
        },
        {
          "internalType": "address",
          "name": "to",
          "type": "address"
        },
        {
          "internalType": "uint256",
          "name": "tokenId",
          "type": "uint256"
        },
        {
          "internalType": "bytes",
          "name": "data",
          "type": "bytes"
        }
      ],
      "name": "safeTransferFrom",
      "outputs": [],
      "stateMutability": "nonpayable",
      "type": "function"
    },
    {
      "inputs": [
        {
          "internalType": "address",
          "name": "operator",
          "type": "address"
        },
        {
          "internalType": "bool",
          "name": "approved",
          "type": "bool"
        }
      ],
      "name": "setApprovalForAll",
      "outputs": [],
      "stateMutability": "nonpayable",
      "type": "function"
    },
    {
      "inputs": [
        {
          "internalType": "string",
          "name": "newBase",
          "type": "string"
        }
      ],
      "name": "setBaseURI",
      "outputs": [],
      "stateMutability": "nonpayable",
      "type": "function"
    },
    {
      "inputs": [
        {
          "internalType": "bytes4",
          "name": "interfaceId",
          "type": "bytes4"
        }
      ],
      "name": "supportsInterface",
      "outputs": [
        {
          "internalType": "bool",
          "name": "",
          "type": "bool"
        }
      ],
      "stateMutability": "view",
      "type": "function"
    },
    {
      "inputs": [],
      "name": "symbol",
      "outputs": [
        {
          "internalType": "string",
          "name": "",
          "type": "string"
        }
      ],
      "stateMutability": "view",
      "type": "function"
    },
    {
      "inputs": [
        {
          "internalType": "uint256",
          "name": "tokenId",
          "type": "uint256"
        }
      ],
      "name": "tokenURI",
      "outputs": [
        {
          "internalType": "string",
          "name": "",
          "type": "string"
        }
      ],
      "stateMutability": "view",
      "type": "function"
    },
    {
      "inputs": [
        {
          "internalType": "address",
          "name": "from",
          "type": "address"
        },
        {
          "internalType": "address",
          "name": "to",
          "type": "address"
        },
        {
          "internalType": "uint256",
          "name": "tokenId",
          "type": "uint256"
        }
      ],
      "name": "transferFrom",
      "outputs": [],
      "stateMutability": "nonpayable",
      "type": "function"
    },
    {
      "inputs": [
        {
          "internalType": "address",
          "name": "newOwner",
          "type": "address"
        }
      ],
      "name": "transferOwnership",
      "outputs": [],
      "stateMutability": "nonpayable",
      "type": "function"
    }
  ],
  "bytecode": "0x60806040523480156200001157600080fd5b5060405162003a1638038062003a1683398181016040528101906200003791906200052b565b6040518060400160405280601381526020017f467261676d656e74436f6c6c65637469626c65000000000000000000000000008152506040518060400160405280600481526020017f46524147000000000000000000000000000000000000000000000000000000008152508160009081620000b49190620007dc565b508060019081620000c69190620007dc565b505050620000e9620000dd6200011460201b60201c565b6200011c60201b60201c565b8060099081620000fa9190620007dc565b506200010c82620001e260201b60201c565b5050620009de565b600033905090565b6000600760009054906101000a900473ffffffffffffffffffffffffffffffffffffffff16905081600760006101000a81548173ffffffffffffffffffffffffffffffffffffffff021916908373ffffffffffffffffffffffffffffffffffffffff1602179055508173ffffffffffffffffffffffffffffffffffffffff168173ffffffffffffffffffffffffffffffffffffffff167f8be0079c531659141344cd1fd0a4f28419497f9722a3daafe3b4186f6b6457e060405160405180910390a35050565b620001f26200027860201b60201c565b600073ffffffffffffffffffffffffffffffffffffffff168173ffffffffffffffffffffffffffffffffffffffff160362000264576040517f08c379a00000000000000000000000000000000000000000000000000000000081526004016200025b906200094a565b60405180910390fd5b62000275816200011c60201b60201c565b50565b620002886200011460201b60201c565b73ffffffffffffffffffffffffffffffffffffffff16620002ae6200030960201b60201c565b73ffffffffffffffffffffffffffffffffffffffff161462000307576040517f08c379a0000000000000000000000000000000000000000000000000000000008152600401620002fe90620009bc565b60405180910390fd5b565b6000600760009054906101000a900473ffffffffffffffffffffffffffffffffffffffff16905090565b6000604051905090565b600080fd5b600080fd5b600073ffffffffffffffffffffffffffffffffffffffff82169050919050565b6000620003748262000347565b9050919050565b620003868162000367565b81146200039257600080fd5b50565b600081519050620003a6816200037b565b92915050565b600080fd5b600080fd5b6000601f19601f8301169050919050565b7f4e487b7100000000000000000000000000000000000000000000000000000000600052604160045260246000fd5b6200040182620003b6565b810181811067ffffffffffffffff82111715620004235762000422620003c7565b5b80604052505050565b60006200043862000333565b9050620004468282620003f6565b919050565b600067ffffffffffffffff821115620004695762000468620003c7565b5b6200047482620003b6565b9050602081019050919050565b60005b83811015620004a157808201518184015260208101905062000484565b60008484015250505050565b6000620004c4620004be846200044b565b6200042c565b905082815260208101848484011115620004e357620004e2620003b1565b5b620004f084828562000481565b509392505050565b600082601f83011262000510576200050f620003ac565b5b815162000522848260208601620004ad565b91505092915050565b600080604083850312156200054557620005446200033d565b5b6000620005558582860162000395565b925050602083015167ffffffffffffffff81111562000579576200057862000342565b5b6200058785828601620004f8565b9150509250929050565b600081519050919050565b7f4e487b7100000000000000000000000000000000000000000000000000000000600052602260045260246000fd5b60006002820490506001821680620005e457607f821691505b602082108103620005fa57620005f96200059c565b5b50919050565b60008190508160005260206000209050919050565b60006020601f8301049050919050565b600082821b905092915050565b600060088302620006647fffffffffffffffffffffffffffffffffffffffffffffffffffffffffffffffff8262000625565b62000670868362000625565b95508019841693508086168417925050509392505050565b6000819050919050565b6000819050919050565b6000620006bd620006b7620006b18462000688565b62000692565b62000688565b9050919050565b6000819050919050565b620006d9836200069c565b620006f1620006e882620006c4565b84845462000632565b825550505050565b600090565b62000708620006f9565b62000715818484620006ce565b505050565b5b818110156200073d5762000731600082620006fe565b6001810190506200071b565b5050565b601f8211156200078c57620007568162000600565b620007618462000615565b8101602085101562000771578190505b62000789620007808562000615565b8301826200071a565b50505b505050565b600082821c905092915050565b6000620007b16000198460080262000791565b1980831691505092915050565b6000620007cc83836200079e565b9150826002028217905092915050565b620007e78262000591565b67ffffffffffffffff811115620008035762000802620003c7565b5b6200080f8254620005cb565b6200081c82828562000741565b600060209050601f8311600181146200085457600084156200083f578287015190505b6200084b8582620007be565b865550620008bb565b601f198416620008648662000600565b60005b828110156200088e5784890151825560018201915060208501945060208101905062000867565b86831015620008ae5784890151620008aa601f8916826200079e565b8355505b6001600288020188555050505b505050505050565b600082825260208201905092915050565b7f4f776e61626c653a206e6577206f776e657220697320746865207a65726f206160008201527f6464726573730000000000000000000000000000000000000000000000000000602082015250565b600062000932602683620008c3565b91506200093f82620008d4565b604082019050919050565b60006020820190508181036000830152620009658162000923565b9050919050565b7f4f776e61626c653a2063616c6c6572206973206e6f7420746865206f776e6572600082015250565b6000620009a4602083620008c3565b9150620009b1826200096c565b602082019050919050565b60006020820190508181036000830152620009d78162000995565b9050919050565b61302880620009ee6000396000f3fe608060405234801561001057600080fd5b50600436106101155760003560e01c806370a08231116100a2578063a22cb46511610071578063a22cb465146102de578063b88d4fde146102fa578063c87b56dd14610316578063e985e9c514610346578063f2fde38b1461037657610115565b806370a0823114610268578063715018a6146102985780638da5cb5b146102a257806395d89b41146102c057610115565b8063095ea7b3116100e9578063095ea7b3146101c857806323b872dd146101e457806342842e0e1461020057806355f804b31461021c5780636352211e1461023857610115565b806275a3171461011a57806301ffc9a71461014a57806306fdde031461017a578063081812fc14610198575b600080fd5b610134600480360381019061012f9190611ea5565b610392565b6040516101419190611f1a565b60405180910390f35b610164600480360381019061015f9190611f8d565b6103d9565b6040516101719190611fd5565b60405180910390f35b61018261043a565b60405161018f919061206f565b60405180910390f35b6101b260048036038101906101ad91906120bd565b6104cc565b6040516101bf91906120f9565b60405180910390f35b6101e260048036038101906101dd9190612114565b610512565b005b6101fe60048036038101906101f99190612154565b610629565b005b61021a60048036038101906102159190612154565b610689565b005b610236600480360381019061023191906121a7565b6106a9565b005b610252600480360381019061024d91906120bd565b6106c4565b60405161025f91906120f9565b60405180910390f35b610282600480360381019061027d91906121f0565b61074a565b60405161028f9190611f1a565b60405180910390f35b6102a0610801565b005b6102aa610815565b6040516102b791906120f9565b60405180910390f35b6102c861083f565b6040516102d5919061206f565b60405180910390f35b6102f860048036038101906102f39190612249565b6108d1565b005b610314600480360381019061030f919061232a565b6108e7565b005b610330600480360381019061032b91906120bd565b610949565b60405161033d919061206f565b60405180910390f35b610360600480360381019061035b91906123ad565b610a5b565b60405161036d9190611fd5565b60405180910390f35b610390600480360381019061038b91906121f0565b610aef565b005b600061039c610b72565b600860008154809291906103af9061241c565b9190505550600060085490506103c58482610bf0565b6103cf8184610c0e565b8091505092915050565b6000634906490660e01b7bffffffffffffffffffffffffffffffffffffffffffffffffffffffff1916827bffffffffffffffffffffffffffffffffffffffffffffffffffffffff19161480610433575061043282610cb2565b5b9050919050565b60606000805461044990612493565b80601f016020809104026020016040519081016040528092919081815260200182805461047590612493565b80156104c25780601f10610497576101008083540402835291602001916104c2565b820191906000526020600020905b8154815290600101906020018083116104a557829003601f168201915b5050505050905090565b60006104d782610d94565b6004600083815260200190815260200160002060009054906101000a900473ffffffffffffffffffffffffffffffffffffffff169050919050565b600061051d826106c4565b90508073ffffffffffffffffffffffffffffffffffffffff168373ffffffffffffffffffffffffffffffffffffffff160361058d576040517f08c379a000000000000000000000000000000000000000000000000000000000815260040161058490612536565b60405180910390fd5b8073ffffffffffffffffffffffffffffffffffffffff166105ac610ddf565b73ffffffffffffffffffffffffffffffffffffffff1614806105db57506105da816105d5610ddf565b610a5b565b5b61061a576040517f08c379a0000000000000000000000000000000000000000000000000000000008152600401610611906125c8565b60405180910390fd5b6106248383610de7565b505050565b61063a610634610ddf565b82610ea0565b610679576040517f08c379a00000000000000000000000000000000000000000000000000000000081526004016106709061265a565b60405180910390fd5b610684838383610f35565b505050565b6106a4838383604051806020016040528060008152506108e7565b505050565b6106b1610b72565b80600990816106c09190612826565b5050565b6000806106d08361122e565b9050600073ffffffffffffffffffffffffffffffffffffffff168173ffffffffffffffffffffffffffffffffffffffff1603610741576040517f08c379a000000000000000000000000000000000000000000000000000000000815260040161073890612944565b60405180910390fd5b80915050919050565b60008073ffffffffffffffffffffffffffffffffffffffff168273ffffffffffffffffffffffffffffffffffffffff16036107ba576040517f08c379a00000000000000000000000000000000000000000000000000000000081526004016107b1906129d6565b60405180910390fd5b600360008373ffffffffffffffffffffffffffffffffffffffff1673ffffffffffffffffffffffffffffffffffffffff168152602001908152602001600020549050919050565b610809610b72565b610813600061126b565b565b6000600760009054906101000a900473ffffffffffffffffffffffffffffffffffffffff16905090565b60606001805461084e90612493565b80601f016020809104026020016040519081016040528092919081815260200182805461087a90612493565b80156108c75780601f1061089c576101008083540402835291602001916108c7565b820191906000526020600020905b8154815290600101906020018083116108aa57829003601f168201915b5050505050905090565b6108e36108dc610ddf565b8383611331565b5050565b6108f86108f2610ddf565b83610ea0565b610937576040517f08c379a000000000000000000000000000000000000000000000000000000000815260040161092e9061265a565b60405180910390fd5b6109438484848461149d565b50505050565b606061095482610d94565b600060066000848152602001908152602001600020805461097490612493565b80601f01602080910402602001604051908101604052809291908181526020018280546109a090612493565b80156109ed5780601f106109c2576101008083540402835291602001916109ed565b820191906000526020600020905b8154815290600101906020018083116109d057829003601f168201915b5050505050905060006109fe6114f9565b90506000815103610a13578192505050610a56565b600082511115610a48578082604051602001610a30929190612a32565b60405160208183030381529060405292505050610a56565b610a518461158b565b925050505b919050565b6000600560008473ffffffffffffffffffffffffffffffffffffffff1673ffffffffffffffffffffffffffffffffffffffff16815260200190815260200160002060008373ffffffffffffffffffffffffffffffffffffffff1673ffffffffffffffffffffffffffffffffffffffff16815260200190815260200160002060009054906101000a900460ff16905092915050565b610af7610b72565b600073ffffffffffffffffffffffffffffffffffffffff168173ffffffffffffffffffffffffffffffffffffffff1603610b66576040517f08c379a0000000000000000000000000000000000000000000000000000000008152600401610b5d90612ac8565b60405180910390fd5b610b6f8161126b565b50565b610b7a610ddf565b73ffffffffffffffffffffffffffffffffffffffff16610b98610815565b73ffffffffffffffffffffffffffffffffffffffff1614610bee576040517f08c379a0000000000000000000000000000000000000000000000000000000008152600401610be590612b34565b60405180910390fd5b565b610c0a8282604051806020016040528060008152506115f3565b5050565b610c178261164e565b610c56576040517f08c379a0000000000000000000000000000000000000000000000000000000008152600401610c4d90612bc6565b60405180910390fd5b80600660008481526020019081526020016000209081610c769190612826565b507ff8e1a15aba9398e019f0b49df1a4fde98ee17ae345cb5f6b5e2c27f5033e8ce782604051610ca69190611f1a565b60405180910390a15050565b60007f80ac58cd000000000000000000000000000000000000000000000000000000007bffffffffffffffffffffffffffffffffffffffffffffffffffffffff1916827bffffffffffffffffffffffffffffffffffffffffffffffffffffffff19161480610d7d57507f5b5e139f000000000000000000000000000000000000000000000000000000007bffffffffffffffffffffffffffffffffffffffffffffffffffffffff1916827bffffffffffffffffffffffffffffffffffffffffffffffffffffffff1916145b80610d8d5750610d8c8261168f565b5b9050919050565b610d9d8161164e565b610ddc576040517f08c379a0000000000000000000000000000000000000000000000000000000008152600401610dd390612944565b60405180910390fd5b50565b600033905090565b816004600083815260200190815260200160002060006101000a81548173ffffffffffffffffffffffffffffffffffffffff021916908373ffffffffffffffffffffffffffffffffffffffff160217905550808273ffffffffffffffffffffffffffffffffffffffff16610e5a836106c4565b73ffffffffffffffffffffffffffffffffffffffff167f8c5be1e5ebec7d5bd14f71427d1e84f3dd0314c0f7b2291e5b200ac8c7c3b92560405160405180910390a45050565b600080610eac836106c4565b90508073ffffffffffffffffffffffffffffffffffffffff168473ffffffffffffffffffffffffffffffffffffffff161480610eee5750610eed8185610a5b565b5b80610f2c57508373ffffffffffffffffffffffffffffffffffffffff16610f14846104cc565b73ffffffffffffffffffffffffffffffffffffffff16145b91505092915050565b8273ffffffffffffffffffffffffffffffffffffffff16610f55826106c4565b73ffffffffffffffffffffffffffffffffffffffff1614610fab576040517f08c379a0000000000000000000000000000000000000000000000000000000008152600401610fa290612c58565b60405180910390fd5b600073ffffffffffffffffffffffffffffffffffffffff168273ffffffffffffffffffffffffffffffffffffffff160361101a576040517f08c379a000000000000000000000000000000000000000000000000000000000815260040161101190612cea565b60405180910390fd5b61102783838360016116f9565b8273ffffffffffffffffffffffffffffffffffffffff16611047826106c4565b73ffffffffffffffffffffffffffffffffffffffff161461109d576040517f08c379a000000000000000000000000000000000000000000000000000000000815260040161109490612c58565b60405180910390fd5b6004600082815260200190815260200160002060006101000a81549073ffffffffffffffffffffffffffffffffffffffff02191690556001600360008573ffffffffffffffffffffffffffffffffffffffff1673ffffffffffffffffffffffffffffffffffffffff168152602001908152602001600020600082825403925050819055506001600360008473ffffffffffffffffffffffffffffffffffffffff1673ffffffffffffffffffffffffffffffffffffffff16815260200190815260200160002060008282540192505081905550816002600083815260200190815260200160002060006101000a81548173ffffffffffffffffffffffffffffffffffffffff021916908373ffffffffffffffffffffffffffffffffffffffff160217905550808273ffffffffffffffffffffffffffffffffffffffff168473ffffffffffffffffffffffffffffffffffffffff167fddf252ad1be2c89b69c2b068fc378daa952ba7f163c4a11628f55a4df523b3ef60405160405180910390a461122983838360016116ff565b505050565b60006002600083815260200190815260200160002060009054906101000a900473ffffffffffffffffffffffffffffffffffffffff169050919050565b6000600760009054906101000a900473ffffffffffffffffffffffffffffffffffffffff16905081600760006101000a81548173ffffffffffffffffffffffffffffffffffffffff021916908373ffffffffffffffffffffffffffffffffffffffff1602179055508173ffffffffffffffffffffffffffffffffffffffff168173ffffffffffffffffffffffffffffffffffffffff167f8be0079c531659141344cd1fd0a4f28419497f9722a3daafe3b4186f6b6457e060405160405180910390a35050565b8173ffffffffffffffffffffffffffffffffffffffff168373ffffffffffffffffffffffffffffffffffffffff160361139f576040517f08c379a000000000000000000000000000000000000000000000000000000000815260040161139690612d56565b60405180910390fd5b80600560008573ffffffffffffffffffffffffffffffffffffffff1673ffffffffffffffffffffffffffffffffffffffff16815260200190815260200160002060008473ffffffffffffffffffffffffffffffffffffffff1673ffffffffffffffffffffffffffffffffffffffff16815260200190815260200160002060006101000a81548160ff0219169083151502179055508173ffffffffffffffffffffffffffffffffffffffff168373ffffffffffffffffffffffffffffffffffffffff167f17307eab39ab6107e8899845ad3d59bd9653f200f220920489ca2b5937696c31836040516114909190611fd5565b60405180910390a3505050565b6114a8848484610f35565b6114b484848484611705565b6114f3576040517f08c379a00000000000000000000000000000000000000000000000000000000081526004016114ea90612de8565b60405180910390fd5b50505050565b60606009805461150890612493565b80601f016020809104026020016040519081016040528092919081815260200182805461153490612493565b80156115815780601f1061155657610100808354040283529160200191611581565b820191906000526020600020905b81548152906001019060200180831161156457829003601f168201915b5050505050905090565b606061159682610d94565b60006115a06114f9565b905060008151116115c057604051806020016040528060008152506115eb565b806115ca8461188c565b6040516020016115db929190612a32565b6040516020818303038152906040525b915050919050565b6115fd838361195a565b61160a6000848484611705565b611649576040517f08c379a000000000000000000000000000000000000000000000000000000000815260040161164090612de8565b60405180910390fd5b505050565b60008073ffffffffffffffffffffffffffffffffffffffff166116708361122e565b73ffffffffffffffffffffffffffffffffffffffff1614159050919050565b60007f01ffc9a7000000000000000000000000000000000000000000000000000000007bffffffffffffffffffffffffffffffffffffffffffffffffffffffff1916827bffffffffffffffffffffffffffffffffffffffffffffffffffffffff1916149050919050565b50505050565b50505050565b60006117268473ffffffffffffffffffffffffffffffffffffffff16611b77565b1561187f578373ffffffffffffffffffffffffffffffffffffffff1663150b7a0261174f610ddf565b8786866040518563ffffffff1660e01b81526004016117719493929190612e5d565b6020604051808303816000875af19250505080156117ad57506040513d601f19601f820116820180604052508101906117aa9190612ebe565b60015b61182f573d80600081146117dd576040519150601f19603f3d011682016040523d82523d6000602084013e6117e2565b606091505b506000815103611827576040517f08c379a000000000000000000000000000000000000000000000000000000000815260040161181e90612de8565b60405180910390fd5b805181602001fd5b63150b7a0260e01b7bffffffffffffffffffffffffffffffffffffffffffffffffffffffff1916817bffffffffffffffffffffffffffffffffffffffffffffffffffffffff191614915050611884565b600190505b949350505050565b60606000600161189b84611b9a565b01905060008167ffffffffffffffff8111156118ba576118b9611d7a565b5b6040519080825280601f01601f1916602001820160405280156118ec5781602001600182028036833780820191505090505b509050600082602001820190505b60011561194f578080600190039150507f3031323334353637383961626364656600000000000000000000000000000000600a86061a8153600a858161194357611942612eeb565b5b049450600085036118fa575b819350505050919050565b600073ffffffffffffffffffffffffffffffffffffffff168273ffffffffffffffffffffffffffffffffffffffff16036119c9576040517f08c379a00000000000000000000000000000000000000000000000000000000081526004016119c090612f66565b60405180910390fd5b6119d28161164e565b15611a12576040517f08c379a0000000000000000000000000000000000000000000000000000000008152600401611a0990612fd2565b60405180910390fd5b611a206000838360016116f9565b611a298161164e565b15611a69576040517f08c379a0000000000000000000000000000000000000000000000000000000008152600401611a6090612fd2565b60405180910390fd5b6001600360008473ffffffffffffffffffffffffffffffffffffffff1673ffffffffffffffffffffffffffffffffffffffff16815260200190815260200160002060008282540192505081905550816002600083815260200190815260200160002060006101000a81548173ffffffffffffffffffffffffffffffffffffffff021916908373ffffffffffffffffffffffffffffffffffffffff160217905550808273ffffffffffffffffffffffffffffffffffffffff16600073ffffffffffffffffffffffffffffffffffffffff167fddf252ad1be2c89b69c2b068fc378daa952ba7f163c4a11628f55a4df523b3ef60405160405180910390a4611b736000838360016116ff565b5050565b6000808273ffffffffffffffffffffffffffffffffffffffff163b119050919050565b600080600090507a184f03e93ff9f4daa797ed6e38ed64bf6a1f0100000000000000008310611bf8577a184f03e93ff9f4daa797ed6e38ed64bf6a1f0100000000000000008381611bee57611bed612eeb565b5b0492506040810190505b6d04ee2d6d415b85acef81000000008310611c35576d04ee2d6d415b85acef81000000008381611c2b57611c2a612eeb565b5b0492506020810190505b662386f26fc100008310611c6457662386f26fc100008381611c5a57611c59612eeb565b5b0492506010810190505b6305f5e1008310611c8d576305f5e1008381611c8357611c82612eeb565b5b0492506008810190505b6127108310611cb2576127108381611ca857611ca7612eeb565b5b0492506004810190505b60648310611cd55760648381611ccb57611cca612eeb565b5b0492506002810190505b600a8310611ce4576001810190505b80915050919050565b6000604051905090565b600080fd5b600080fd5b600073ffffffffffffffffffffffffffffffffffffffff82169050919050565b6000611d2c82611d01565b9050919050565b611d3c81611d21565b8114611d4757600080fd5b50565b600081359050611d5981611d33565b92915050565b600080fd5b600080fd5b6000601f19601f8301169050919050565b7f4e487b7100000000000000000000000000000000000000000000000000000000600052604160045260246000fd5b611db282611d69565b810181811067ffffffffffffffff82111715611dd157611dd0611d7a565b5b80604052505050565b6000611de4611ced565b9050611df08282611da9565b919050565b600067ffffffffffffffff821115611e1057611e0f611d7a565b5b611e1982611d69565b9050602081019050919050565b82818337600083830152505050565b6000611e48611e4384611df5565b611dda565b905082815260208101848484011115611e6457611e63611d64565b5b611e6f848285611e26565b509392505050565b600082601f830112611e8c57611e8b611d5f565b5b8135611e9c848260208601611e35565b91505092915050565b60008060408385031215611ebc57611ebb611cf7565b5b6000611eca85828601611d4a565b925050602083013567ffffffffffffffff811115611eeb57611eea611cfc565b5b611ef785828601611e77565b9150509250929050565b6000819050919050565b611f1481611f01565b82525050565b6000602082019050611f2f6000830184611f0b565b92915050565b60007fffffffff0000000000000000000000000000000000000000000000000000000082169050919050565b611f6a81611f35565b8114611f7557600080fd5b50565b600081359050611f8781611f61565b92915050565b600060208284031215611fa357611fa2611cf7565b5b6000611fb184828501611f78565b91505092915050565b60008115159050919050565b611fcf81611fba565b82525050565b6000602082019050611fea6000830184611fc6565b92915050565b600081519050919050565b600082825260208201905092915050565b60005b8381101561202a57808201518184015260208101905061200f565b60008484015250505050565b600061204182611ff0565b61204b8185611ffb565b935061205b81856020860161200c565b61206481611d69565b840191505092915050565b600060208201905081810360008301526120898184612036565b905092915050565b61209a81611f01565b81146120a557600080fd5b50565b6000813590506120b781612091565b92915050565b6000602082840312156120d3576120d2611cf7565b5b60006120e1848285016120a8565b91505092915050565b6120f381611d21565b82525050565b600060208201905061210e60008301846120ea565b92915050565b6000806040838503121561212b5761212a611cf7565b5b600061213985828601611d4a565b925050602061214a858286016120a8565b9150509250929050565b60008060006060848603121561216d5761216c611cf7565b5b600061217b86828701611d4a565b935050602061218c86828701611d4a565b925050604061219d868287016120a8565b9150509250925092565b6000602082840312156121bd576121bc611cf7565b5b600082013567ffffffffffffffff8111156121db576121da611cfc565b5b6121e784828501611e77565b91505092915050565b60006020828403121561220657612205611cf7565b5b600061221484828501611d4a565b91505092915050565b61222681611fba565b811461223157600080fd5b50565b6000813590506122438161221d565b92915050565b600080604083850312156122605761225f611cf7565b5b600061226e85828601611d4a565b925050602061227f85828601612234565b9150509250929050565b600067ffffffffffffffff8211156122a4576122a3611d7a565b5b6122ad82611d69565b9050602081019050919050565b60006122cd6122c884612289565b611dda565b9050828152602081018484840111156122e9576122e8611d64565b5b6122f4848285611e26565b509392505050565b600082601f83011261231157612310611d5f565b5b81356123218482602086016122ba565b91505092915050565b6000806000806080858703121561234457612343611cf7565b5b600061235287828801611d4a565b945050602061236387828801611d4a565b9350506040612374878288016120a8565b925050606085013567ffffffffffffffff81111561239557612394611cfc565b5b6123a1878288016122fc565b91505092959194509250565b600080604083850312156123c4576123c3611cf7565b5b60006123d285828601611d4a565b92505060206123e385828601611d4a565b9150509250929050565b7f4e487b7100000000000000000000000000000000000000000000000000000000600052601160045260246000fd5b600061242782611f01565b91507fffffffffffffffffffffffffffffffffffffffffffffffffffffffffffffffff8203612459576124586123ed565b5b600182019050919050565b7f4e487b7100000000000000000000000000000000000000000000000000000000600052602260045260246000fd5b600060028204905060018216806124ab57607f821691505b6020821081036124be576124bd612464565b5b50919050565b7f4552433732313a20617070726f76616c20746f2063757272656e74206f776e6560008201527f7200000000000000000000000000000000000000000000000000000000000000602082015250565b6000612520602183611ffb565b915061252b826124c4565b604082019050919050565b6000602082019050818103600083015261254f81612513565b9050919050565b7f4552433732313a20617070726f76652063616c6c6572206973206e6f7420746f60008201527f6b656e206f776e6572206f7220617070726f76656420666f7220616c6c000000602082015250565b60006125b2603d83611ffb565b91506125bd82612556565b604082019050919050565b600060208201905081810360008301526125e1816125a5565b9050919050565b7f4552433732313a2063616c6c6572206973206e6f7420746f6b656e206f776e6560008201527f72206f7220617070726f76656400000000000000000000000000000000000000602082015250565b6000612644602d83611ffb565b915061264f826125e8565b604082019050919050565b6000602082019050818103600083015261267381612637565b9050919050565b60008190508160005260206000209050919050565b60006020601f8301049050919050565b600082821b905092915050565b6000600883026126dc7fffffffffffffffffffffffffffffffffffffffffffffffffffffffffffffffff8261269f565b6126e6868361269f565b95508019841693508086168417925050509392505050565b6000819050919050565b600061272361271e61271984611f01565b6126fe565b611f01565b9050919050565b6000819050919050565b61273d83612708565b6127516127498261272a565b8484546126ac565b825550505050565b600090565b612766612759565b612771818484612734565b505050565b5b818110156127955761278a60008261275e565b600181019050612777565b5050565b601f8211156127da576127ab8161267a565b6127b48461268f565b810160208510156127c3578190505b6127d76127cf8561268f565b830182612776565b50505b505050565b600082821c905092915050565b60006127fd600019846008026127df565b1980831691505092915050565b600061281683836127ec565b9150826002028217905092915050565b61282f82611ff0565b67ffffffffffffffff81111561284857612847611d7a565b5b6128528254612493565b61285d828285612799565b600060209050601f831160018114612890576000841561287e578287015190505b612888858261280a565b8655506128f0565b601f19841661289e8661267a565b60005b828110156128c6578489015182556001820191506020850194506020810190506128a1565b868310156128e357848901516128df601f8916826127ec565b8355505b6001600288020188555050505b505050505050565b7f4552433732313a20696e76616c696420746f6b656e2049440000000000000000600082015250565b600061292e601883611ffb565b9150612939826128f8565b602082019050919050565b6000602082019050818103600083015261295d81612921565b9050919050565b7f4552433732313a2061646472657373207a65726f206973206e6f74206120766160008201527f6c6964206f776e65720000000000000000000000000000000000000000000000602082015250565b60006129c0602983611ffb565b91506129cb82612964565b604082019050919050565b600060208201905081810360008301526129ef816129b3565b9050919050565b600081905092915050565b6000612a0c82611ff0565b612a1681856129f6565b9350612a2681856020860161200c565b80840191505092915050565b6000612a3e8285612a01565b9150612a4a8284612a01565b91508190509392505050565b7f4f776e61626c653a206e6577206f776e657220697320746865207a65726f206160008201527f6464726573730000000000000000000000000000000000000000000000000000602082015250565b6000612ab2602683611ffb565b9150612abd82612a56565b604082019050919050565b60006020820190508181036000830152612ae181612aa5565b9050919050565b7f4f776e61626c653a2063616c6c6572206973206e6f7420746865206f776e6572600082015250565b6000612b1e602083611ffb565b9150612b2982612ae8565b602082019050919050565b60006020820190508181036000830152612b4d81612b11565b9050919050565b7f45524337323155524953746f726167653a2055524920736574206f66206e6f6e60008201527f6578697374656e7420746f6b656e000000000000000000000000000000000000602082015250565b6000612bb0602e83611ffb565b9150612bbb82612b54565b604082019050919050565b60006020820190508181036000830152612bdf81612ba3565b9050919050565b7f4552433732313a207472616e736665722066726f6d20696e636f72726563742060008201527f6f776e6572000000000000000000000000000000000000000000000000000000602082015250565b6000612c42602583611ffb565b9150612c4d82612be6565b604082019050919050565b60006020820190508181036000830152612c7181612c35565b9050919050565b7f4552433732313a207472616e7366657220746f20746865207a65726f2061646460008201527f7265737300000000000000000000000000000000000000000000000000000000602082015250565b6000612cd4602483611ffb565b9150612cdf82612c78565b604082019050919050565b60006020820190508181036000830152612d0381612cc7565b9050919050565b7f4552433732313a20617070726f766520746f2063616c6c657200000000000000600082015250565b6000612d40601983611ffb565b9150612d4b82612d0a565b602082019050919050565b60006020820190508181036000830152612d6f81612d33565b9050919050565b7f4552433732313a207472616e7366657220746f206e6f6e20455243373231526560008201527f63656976657220696d706c656d656e7465720000000000000000000000000000602082015250565b6000612dd2603283611ffb565b9150612ddd82612d76565b604082019050919050565b60006020820190508181036000830152612e0181612dc5565b9050919050565b600081519050919050565b600082825260208201905092915050565b6000612e2f82612e08565b612e398185612e13565b9350612e4981856020860161200c565b612e5281611d69565b840191505092915050565b6000608082019050612e7260008301876120ea565b612e7f60208301866120ea565b612e8c6040830185611f0b565b8181036060830152612e9e8184612e24565b905095945050505050565b600081519050612eb881611f61565b92915050565b600060208284031215612ed457612ed3611cf7565b5b6000612ee284828501612ea9565b91505092915050565b7f4e487b7100000000000000000000000000000000000000000000000000000000600052601260045260246000fd5b7f4552433732313a206d696e7420746f20746865207a65726f2061646472657373600082015250565b6000612f50602083611ffb565b9150612f5b82612f1a565b602082019050919050565b60006020820190508181036000830152612f7f81612f43565b9050919050565b7f4552433732313a20746f6b656e20616c7265616479206d696e74656400000000600082015250565b6000612fbc601c83611ffb565b9150612fc782612f86565b602082019050919050565b60006020820190508181036000830152612feb81612faf565b905091905056fea2646970667358221220064beccc226e6829afa18037cdbcd0772bf087d734168a0150a89bbfaba8e9db64736f6c63430008140033",
  "linkReferences": {},
  "deployedLinkReferences": {}
}