{
  "_format": "hh-sol-artifact-1",
  "contractName": "FragmentManager",
  "sourceName": "contracts/FragmentManager.sol",
  "abi": [
    {
      "inputs": [
        {
          "internalType": "address",
          "name": "fragmentAddr",
          "type": "address"
        },
        {
          "internalType": "address",
          "name": "completeAddr",
          "type": "address"
        },
        {
          "internalType": "address",
          "name": "tokenAddr",
          "type": "address"
        },
        {
          "internalType": "address",
          "name": "initialOwner",
          "type": "address"
        }
      ],
      "stateMutability": "nonpayable",
      "type": "constructor"
    },
    {
      "inputs": [
        {
          "internalType": "address",
          "name": "owner",
          "type": "address"
        }
      ],
      "name": "OwnableInvalidOwner",
      "type": "error"
    },
    {
      "inputs": [
        {
          "internalType": "address",
          "name": "account",
          "type": "address"
        }
      ],
      "name": "OwnableUnauthorizedAccount",
      "type": "error"
    },
    {
      "anonymous": false,
      "inputs": [
        {
          "indexed": true,
          "internalType": "address",
          "name": "previousOwner",
          "type": "address"
        },
        {
          "indexed": true,
          "internalType": "address",
          "name": "newOwner",
          "type": "address"
        }
      ],
      "name": "OwnershipTransferred",
      "type": "event"
    },
    {
      "inputs": [],
      "name": "complete",
      "outputs": [
        {
          "internalType": "contract CompleteCollectible",
          "name": "",
          "type": "address"
        }
      ],
      "stateMutability": "view",
      "type": "function"
    },
    {
      "inputs": [
        {
          "internalType": "string",
          "name": "finalURI",
          "type": "string"
        },
        {
          "internalType": "string[]",
          "name": "fragmentURIs",
          "type": "string[]"
        }
      ],
      "name": "createTemplate",
      "outputs": [
        {
          "internalType": "uint256",
          "name": "",
          "type": "uint256"
        }
      ],
      "stateMutability": "nonpayable",
      "type": "function"
    },
    {
      "inputs": [],
      "name": "fragment",
      "outputs": [
        {
          "internalType": "contract FragmentCollectible",
          "name": "",
          "type": "address"
        }
      ],
      "stateMutability": "view",
      "type": "function"
    },
    {
      "inputs": [
        {
          "internalType": "address",
          "name": "",
          "type": "address"
        },
        {
          "internalType": "uint256",
          "name": "",
          "type": "uint256"
        }
      ],
      "name": "fragmentsCollected",
      "outputs": [
        {
          "internalType": "uint256",
          "name": "",
          "type": "uint256"
        }
      ],
      "stateMutability": "view",
      "type": "function"
    },
    {
      "inputs": [],
      "name": "nextTemplateId",
      "outputs": [
        {
          "internalType": "uint256",
          "name": "",
          "type": "uint256"
        }
      ],
      "stateMutability": "view",
      "type": "function"
    },
    {
      "inputs": [],
      "name": "owner",
      "outputs": [
        {
          "internalType": "address",
          "name": "",
          "type": "address"
        }
      ],
      "stateMutability": "view",
      "type": "function"
    },
    {
      "inputs": [],
      "name": "renounceOwnership",
      "outputs": [],
      "stateMutability": "nonpayable",
      "type": "function"
    },
    {
      "inputs": [
        {
          "internalType": "address",
          "name": "user",
          "type": "address"
        },
        {
          "internalType": "uint256",
          "name": "templateId",
          "type": "uint256"
        }
      ],
      "name": "rewardFragment",
      "outputs": [],
      "stateMutability": "nonpayable",
      "type": "function"
    },
    {
      "inputs": [
        {
          "internalType": "uint256",
          "name": "",
          "type": "uint256"
        }
      ],
      "name": "templates",
      "outputs": [
        {
          "internalType": "string",
          "name": "finalURI",
          "type": "string"
        },
        {
          "internalType": "bool",
          "name": "exists",
          "type": "bool"
        }
      ],
      "stateMutability": "view",
      "type": "function"
    },
    {
      "inputs": [],
      "name": "token",
      "outputs": [
        {
          "internalType": "contract VaultToken",
          "name": "",
          "type": "address"
        }
      ],
      "stateMutability": "view",
      "type": "function"
    },
    {
      "inputs": [
        {
          "internalType": "address",
          "name": "newOwner",
          "type": "address"
        }
      ],
      "name": "transferOwnership",
      "outputs": [],
      "stateMutability": "nonpayable",
      "type": "function"
    }
  ],
  "bytecode": "0x60806040523480156200001157600080fd5b506040516200192a3803806200192a8339818101604052810190620000379190620002ba565b80600073ffffffffffffffffffffffffffffffffffffffff168173ffffffffffffffffffffffffffffffffffffffff1603620000ad5760006040517f1e4fbdf7000000000000000000000000000000000000000000000000000000008152600401620000a491906200033d565b60405180910390fd5b620000be816200018c60201b60201c565b5083600160006101000a81548173ffffffffffffffffffffffffffffffffffffffff021916908373ffffffffffffffffffffffffffffffffffffffff16021790555082600260006101000a81548173ffffffffffffffffffffffffffffffffffffffff021916908373ffffffffffffffffffffffffffffffffffffffff16021790555081600360006101000a81548173ffffffffffffffffffffffffffffffffffffffff021916908373ffffffffffffffffffffffffffffffffffffffff160217905550505050506200035a565b60008060009054906101000a900473ffffffffffffffffffffffffffffffffffffffff169050816000806101000a81548173ffffffffffffffffffffffffffffffffffffffff021916908373ffffffffffffffffffffffffffffffffffffffff1602179055508173ffffffffffffffffffffffffffffffffffffffff168173ffffffffffffffffffffffffffffffffffffffff167f8be0079c531659141344cd1fd0a4f28419497f9722a3daafe3b4186f6b6457e060405160405180910390a35050565b600080fd5b600073ffffffffffffffffffffffffffffffffffffffff82169050919050565b6000620002828262000255565b9050919050565b620002948162000275565b8114620002a057600080fd5b50565b600081519050620002b48162000289565b92915050565b60008060008060808587031215620002d757620002d662000250565b5b6000620002e787828801620002a3565b9450506020620002fa87828801620002a3565b93505060406200030d87828801620002a3565b92505060606200032087828801620002a3565b91505092959194509250565b620003378162000275565b82525050565b60006020820190506200035460008301846200032c565b92915050565b6115c0806200036a6000396000f3fe608060405234801561001057600080fd5b50600436106100a95760003560e01c8063b8aeb30511610071578063b8aeb30514610142578063bc52565214610172578063d12edcce146101a3578063e408e59a146101c1578063f2fde38b146101dd578063fc0c546a146101f9576100a9565b8063522e1177146100ae5780636581d8fa146100cc578063715018a6146100fc5780638da5cb5b1461010657806390dc588514610124575b600080fd5b6100b6610217565b6040516100c39190610acb565b60405180910390f35b6100e660048036038101906100e19190610d26565b61023d565b6040516100f39190610db7565b60405180910390f35b6101046102ef565b005b61010e610303565b60405161011b9190610df3565b60405180910390f35b61012c61032c565b6040516101399190610e2f565b60405180910390f35b61015c60048036038101906101579190610ea2565b610352565b6040516101699190610db7565b60405180910390f35b61018c60048036038101906101879190610ee2565b610377565b60405161019a929190610fa9565b60405180910390f35b6101ab610430565b6040516101b89190610db7565b60405180910390f35b6101db60048036038101906101d69190610ea2565b610436565b005b6101f760048036038101906101f29190610fd9565b610773565b005b6102016107f9565b60405161020e9190611027565b60405180910390f35b600260009054906101000a900473ffffffffffffffffffffffffffffffffffffffff1681565b600061024761081f565b604051806060016040528084815260200183815260200160011515815250600460006005548152602001908152602001600020600082015181600001908161028f9190611244565b5060208201518160010190805190602001906102ac929190610972565b5060408201518160020160006101000a81548160ff021916908315150217905550905050600560008154809291906102e390611345565b91905055905092915050565b6102f761081f565b61030160006108a6565b565b60008060009054906101000a900473ffffffffffffffffffffffffffffffffffffffff16905090565b600160009054906101000a900473ffffffffffffffffffffffffffffffffffffffff1681565b6006602052816000526040600020602052806000526040600020600091509150505481565b600460205280600052604060002060009150905080600001805461039a90611071565b80601f01602080910402602001604051908101604052809291908181526020018280546103c690611071565b80156104135780601f106103e857610100808354040283529160200191610413565b820191906000526020600020905b8154815290600101906020018083116103f657829003601f168201915b5050505050908060020160009054906101000a900460ff16905082565b60055481565b61043e61081f565b60006004600083815260200190815260200160002090508060020160009054906101000a900460ff166104a6576040517f08c379a000000000000000000000000000000000000000000000000000000000815260040161049d906113d9565b60405180910390fd5b6000600660008573ffffffffffffffffffffffffffffffffffffffff1673ffffffffffffffffffffffffffffffffffffffff168152602001908152602001600020600084815260200190815260200160002054905081600101805490508110610544576040517f08c379a000000000000000000000000000000000000000000000000000000000815260040161053b90611445565b60405180910390fd5b600160009054906101000a900473ffffffffffffffffffffffffffffffffffffffff1673ffffffffffffffffffffffffffffffffffffffff1663d0def5218584600101848154811061059957610598611465565b5b906000526020600020016040518363ffffffff1660e01b81526004016105c0929190611518565b6020604051808303816000875af11580156105df573d6000803e3d6000fd5b505050506040513d601f19601f82011682018060405250810190610603919061155d565b50600660008573ffffffffffffffffffffffffffffffffffffffff1673ffffffffffffffffffffffffffffffffffffffff1681526020019081526020016000206000848152602001908152602001600020600081548092919061066590611345565b91905055508160010180549050600660008673ffffffffffffffffffffffffffffffffffffffff1673ffffffffffffffffffffffffffffffffffffffff1681526020019081526020016000206000858152602001908152602001600020540361076d57600260009054906101000a900473ffffffffffffffffffffffffffffffffffffffff1673ffffffffffffffffffffffffffffffffffffffff1663d0def52185846000016040518363ffffffff1660e01b8152600401610728929190611518565b6020604051808303816000875af1158015610747573d6000803e3d6000fd5b505050506040513d601f19601f8201168201806040525081019061076b919061155d565b505b50505050565b61077b61081f565b600073ffffffffffffffffffffffffffffffffffffffff168173ffffffffffffffffffffffffffffffffffffffff16036107ed5760006040517f1e4fbdf70000000000000000000000000000000000000000000000000000000081526004016107e49190610df3565b60405180910390fd5b6107f6816108a6565b50565b600360009054906101000a900473ffffffffffffffffffffffffffffffffffffffff1681565b61082761096a565b73ffffffffffffffffffffffffffffffffffffffff16610845610303565b73ffffffffffffffffffffffffffffffffffffffff16146108a45761086861096a565b6040517f118cdaa700000000000000000000000000000000000000000000000000000000815260040161089b9190610df3565b60405180910390fd5b565b60008060009054906101000a900473ffffffffffffffffffffffffffffffffffffffff169050816000806101000a81548173ffffffffffffffffffffffffffffffffffffffff021916908373ffffffffffffffffffffffffffffffffffffffff1602179055508173ffffffffffffffffffffffffffffffffffffffff168173ffffffffffffffffffffffffffffffffffffffff167f8be0079c531659141344cd1fd0a4f28419497f9722a3daafe3b4186f6b6457e060405160405180910390a35050565b600033905090565b8280548282559060005260206000209081019282156109ba579160200282015b828111156109b95782518290816109a99190611244565b5091602001919060010190610992565b5b5090506109c791906109cb565b5090565b5b808211156109eb57600081816109e291906109ef565b506001016109cc565b5090565b5080546109fb90611071565b6000825580601f10610a0d5750610a2c565b601f016020900490600052602060002090810190610a2b9190610a2f565b5b50565b5b80821115610a48576000816000905550600101610a30565b5090565b600073ffffffffffffffffffffffffffffffffffffffff82169050919050565b6000819050919050565b6000610a91610a8c610a8784610a4c565b610a6c565b610a4c565b9050919050565b6000610aa382610a76565b9050919050565b6000610ab582610a98565b9050919050565b610ac581610aaa565b82525050565b6000602082019050610ae06000830184610abc565b92915050565b6000604051905090565b600080fd5b600080fd5b600080fd5b600080fd5b6000601f19601f8301169050919050565b7f4e487b7100000000000000000000000000000000000000000000000000000000600052604160045260246000fd5b610b4d82610b04565b810181811067ffffffffffffffff82111715610b6c57610b6b610b15565b5b80604052505050565b6000610b7f610ae6565b9050610b8b8282610b44565b919050565b600067ffffffffffffffff821115610bab57610baa610b15565b5b610bb482610b04565b9050602081019050919050565b82818337600083830152505050565b6000610be3610bde84610b90565b610b75565b905082815260208101848484011115610bff57610bfe610aff565b5b610c0a848285610bc1565b509392505050565b600082601f830112610c2757610c26610afa565b5b8135610c37848260208601610bd0565b91505092915050565b600067ffffffffffffffff821115610c5b57610c5a610b15565b5b602082029050602081019050919050565b600080fd5b6000610c84610c7f84610c40565b610b75565b90508083825260208201905060208402830185811115610ca757610ca6610c6c565b5b835b81811015610cee57803567ffffffffffffffff811115610ccc57610ccb610afa565b5b808601610cd98982610c12565b85526020850194505050602081019050610ca9565b5050509392505050565b600082601f830112610d0d57610d0c610afa565b5b8135610d1d848260208601610c71565b91505092915050565b60008060408385031215610d3d57610d3c610af0565b5b600083013567ffffffffffffffff811115610d5b57610d5a610af5565b5b610d6785828601610c12565b925050602083013567ffffffffffffffff811115610d8857610d87610af5565b5b610d9485828601610cf8565b9150509250929050565b6000819050919050565b610db181610d9e565b82525050565b6000602082019050610dcc6000830184610da8565b92915050565b6000610ddd82610a4c565b9050919050565b610ded81610dd2565b82525050565b6000602082019050610e086000830184610de4565b92915050565b6000610e1982610a98565b9050919050565b610e2981610e0e565b82525050565b6000602082019050610e446000830184610e20565b92915050565b610e5381610dd2565b8114610e5e57600080fd5b50565b600081359050610e7081610e4a565b92915050565b610e7f81610d9e565b8114610e8a57600080fd5b50565b600081359050610e9c81610e76565b92915050565b60008060408385031215610eb957610eb8610af0565b5b6000610ec785828601610e61565b9250506020610ed885828601610e8d565b9150509250929050565b600060208284031215610ef857610ef7610af0565b5b6000610f0684828501610e8d565b91505092915050565b600081519050919050565b600082825260208201905092915050565b60005b83811015610f49578082015181840152602081019050610f2e565b60008484015250505050565b6000610f6082610f0f565b610f6a8185610f1a565b9350610f7a818560208601610f2b565b610f8381610b04565b840191505092915050565b60008115159050919050565b610fa381610f8e565b82525050565b60006040820190508181036000830152610fc38185610f55565b9050610fd26020830184610f9a565b9392505050565b600060208284031215610fef57610fee610af0565b5b6000610ffd84828501610e61565b91505092915050565b600061101182610a98565b9050919050565b61102181611006565b82525050565b600060208201905061103c6000830184611018565b92915050565b7f4e487b7100000000000000000000000000000000000000000000000000000000600052602260045260246000fd5b6000600282049050600182168061108957607f821691505b60208210810361109c5761109b611042565b5b50919050565b60008190508160005260206000209050919050565b60006020601f8301049050919050565b600082821b905092915050565b6000600883026111047fffffffffffffffffffffffffffffffffffffffffffffffffffffffffffffffff826110c7565b61110e86836110c7565b95508019841693508086168417925050509392505050565b600061114161113c61113784610d9e565b610a6c565b610d9e565b9050919050565b6000819050919050565b61115b83611126565b61116f61116782611148565b8484546110d4565b825550505050565b600090565b611184611177565b61118f818484611152565b505050565b5b818110156111b3576111a860008261117c565b600181019050611195565b5050565b601f8211156111f8576111c9816110a2565b6111d2846110b7565b810160208510156111e1578190505b6111f56111ed856110b7565b830182611194565b50505b505050565b600082821c905092915050565b600061121b600019846008026111fd565b1980831691505092915050565b6000611234838361120a565b9150826002028217905092915050565b61124d82610f0f565b67ffffffffffffffff81111561126657611265610b15565b5b6112708254611071565b61127b8282856111b7565b600060209050601f8311600181146112ae576000841561129c578287015190505b6112a68582611228565b86555061130e565b601f1984166112bc866110a2565b60005b828110156112e4578489015182556001820191506020850194506020810190506112bf565b8683101561130157848901516112fd601f89168261120a565b8355505b6001600288020188555050505b505050505050565b7f4e487b7100000000000000000000000000000000000000000000000000000000600052601160045260246000fd5b600061135082610d9e565b91507fffffffffffffffffffffffffffffffffffffffffffffffffffffffffffffffff820361138257611381611316565b5b600182019050919050565b7f54656d706c617465206d697373696e6700000000000000000000000000000000600082015250565b60006113c3601083610f1a565b91506113ce8261138d565b602082019050919050565b600060208201905081810360008301526113f2816113b6565b9050919050565b7f436f6d706c657465000000000000000000000000000000000000000000000000600082015250565b600061142f600883610f1a565b915061143a826113f9565b602082019050919050565b6000602082019050818103600083015261145e81611422565b9050919050565b7f4e487b7100000000000000000000000000000000000000000000000000000000600052603260045260246000fd5b600081546114a181611071565b6114ab8186610f1a565b945060018216600081146114c657600181146114dc5761150f565b60ff19831686528115156020028601935061150f565b6114e5856110a2565b60005b83811015611507578154818901526001820191506020810190506114e8565b808801955050505b50505092915050565b600060408201905061152d6000830185610de4565b818103602083015261153f8184611494565b90509392505050565b60008151905061155781610e76565b92915050565b60006020828403121561157357611572610af0565b5b600061158184828501611548565b9150509291505056fea2646970667358221220e9e490cf93d9fafc30b40416d8e7a30b42db336777d944ced24159c95101c2f964736f6c63430008140033",
  "linkReferences": {},
  "deployedLinkReferences": {}
}