{
  "_format": "hh-sol-artifact-1",
  "contractName": "FragmentManager",
  "sourceName": "contracts/FragmentManager.sol",
  "abi": [
    {
      "inputs": [
        {
          "internalType": "address",
          "name": "fragmentAddr",
          "type": "address"
        },
        {
          "internalType": "address",
          "name": "completeAddr",
          "type": "address"
        },
        {
          "internalType": "address",
          "name": "tokenAddr",
          "type": "address"
        },
        {
          "internalType": "address",
          "name": "initialOwner",
          "type": "address"
        }
      ],
      "stateMutability": "nonpayable",
      "type": "constructor"
    },
    {
      "anonymous": false,
      "inputs": [
        {
          "indexed": true,
          "internalType": "address",
          "name": "to",
          "type": "address"
        },
        {
          "indexed": false,
          "internalType": "uint256",
          "name": "id",
          "type": "uint256"
        },
        {
          "indexed": false,
          "internalType": "string",
          "name": "uri",
          "type": "string"
        }
      ],
      "name": "CompleteMinted",
      "type": "event"
    },
    {
      "anonymous": false,
      "inputs": [
        {
          "indexed": true,
          "internalType": "address",
          "name": "to",
          "type": "address"
        },
        {
          "indexed": false,
          "internalType": "uint256",
          "name": "id",
          "type": "uint256"
        },
        {
          "indexed": false,
          "internalType": "string",
          "name": "uri",
          "type": "string"
        }
      ],
      "name": "FragmentMinted",
      "type": "event"
    },
    {
      "anonymous": false,
      "inputs": [
        {
          "indexed": true,
          "internalType": "address",
          "name": "previousOwner",
          "type": "address"
        },
        {
          "indexed": true,
          "internalType": "address",
          "name": "newOwner",
          "type": "address"
        }
      ],
      "name": "OwnershipTransferred",
      "type": "event"
    },
    {
      "inputs": [],
      "name": "complete",
      "outputs": [
        {
          "internalType": "contract ICompleteCollectible",
          "name": "",
          "type": "address"
        }
      ],
      "stateMutability": "view",
      "type": "function"
    },
    {
      "inputs": [],
      "name": "fragment",
      "outputs": [
        {
          "internalType": "contract IFragmentCollectible",
          "name": "",
          "type": "address"
        }
      ],
      "stateMutability": "view",
      "type": "function"
    },
    {
      "inputs": [],
      "name": "owner",
      "outputs": [
        {
          "internalType": "address",
          "name": "",
          "type": "address"
        }
      ],
      "stateMutability": "view",
      "type": "function"
    },
    {
      "inputs": [],
      "name": "renounceOwnership",
      "outputs": [],
      "stateMutability": "nonpayable",
      "type": "function"
    },
    {
      "inputs": [
        {
          "internalType": "address",
          "name": "to",
          "type": "address"
        },
        {
          "internalType": "string",
          "name": "tokenURI",
          "type": "string"
        }
      ],
      "name": "rewardComplete",
      "outputs": [
        {
          "internalType": "uint256",
          "name": "",
          "type": "uint256"
        }
      ],
      "stateMutability": "nonpayable",
      "type": "function"
    },
    {
      "inputs": [
        {
          "internalType": "address",
          "name": "to",
          "type": "address"
        },
        {
          "internalType": "string",
          "name": "tokenURI",
          "type": "string"
        }
      ],
      "name": "rewardFragment",
      "outputs": [
        {
          "internalType": "uint256",
          "name": "",
          "type": "uint256"
        }
      ],
      "stateMutability": "nonpayable",
      "type": "function"
    },
    {
      "inputs": [
        {
          "internalType": "address",
          "name": "newOwner",
          "type": "address"
        }
      ],
      "name": "transferOwnership",
      "outputs": [],
      "stateMutability": "nonpayable",
      "type": "function"
    },
    {
      "inputs": [],
      "name": "vaultToken",
      "outputs": [
        {
          "internalType": "contract IERC20",
          "name": "",
          "type": "address"
        }
      ],
      "stateMutability": "view",
      "type": "function"
    }
  ],
  "bytecode": "0x60806040523480156200001157600080fd5b506040516200116a3803806200116a8339818101604052810190620000379190620003bb565b620000576200004b6200013560201b60201c565b6200013d60201b60201c565b83600160006101000a81548173ffffffffffffffffffffffffffffffffffffffff021916908373ffffffffffffffffffffffffffffffffffffffff16021790555082600260006101000a81548173ffffffffffffffffffffffffffffffffffffffff021916908373ffffffffffffffffffffffffffffffffffffffff16021790555081600360006101000a81548173ffffffffffffffffffffffffffffffffffffffff021916908373ffffffffffffffffffffffffffffffffffffffff1602179055506200012b816200020160201b60201c565b5050505062000548565b600033905090565b60008060009054906101000a900473ffffffffffffffffffffffffffffffffffffffff169050816000806101000a81548173ffffffffffffffffffffffffffffffffffffffff021916908373ffffffffffffffffffffffffffffffffffffffff1602179055508173ffffffffffffffffffffffffffffffffffffffff168173ffffffffffffffffffffffffffffffffffffffff167f8be0079c531659141344cd1fd0a4f28419497f9722a3daafe3b4186f6b6457e060405160405180910390a35050565b620002116200029760201b60201c565b600073ffffffffffffffffffffffffffffffffffffffff168173ffffffffffffffffffffffffffffffffffffffff160362000283576040517f08c379a00000000000000000000000000000000000000000000000000000000081526004016200027a90620004b4565b60405180910390fd5b62000294816200013d60201b60201c565b50565b620002a76200013560201b60201c565b73ffffffffffffffffffffffffffffffffffffffff16620002cd6200032860201b60201c565b73ffffffffffffffffffffffffffffffffffffffff161462000326576040517f08c379a00000000000000000000000000000000000000000000000000000000081526004016200031d9062000526565b60405180910390fd5b565b60008060009054906101000a900473ffffffffffffffffffffffffffffffffffffffff16905090565b600080fd5b600073ffffffffffffffffffffffffffffffffffffffff82169050919050565b6000620003838262000356565b9050919050565b620003958162000376565b8114620003a157600080fd5b50565b600081519050620003b5816200038a565b92915050565b60008060008060808587031215620003d857620003d762000351565b5b6000620003e887828801620003a4565b9450506020620003fb87828801620003a4565b93505060406200040e87828801620003a4565b92505060606200042187828801620003a4565b91505092959194509250565b600082825260208201905092915050565b7f4f776e61626c653a206e6577206f776e657220697320746865207a65726f206160008201527f6464726573730000000000000000000000000000000000000000000000000000602082015250565b60006200049c6026836200042d565b9150620004a9826200043e565b604082019050919050565b60006020820190508181036000830152620004cf816200048d565b9050919050565b7f4f776e61626c653a2063616c6c6572206973206e6f7420746865206f776e6572600082015250565b60006200050e6020836200042d565b91506200051b82620004d6565b602082019050919050565b600060208201905081810360008301526200054181620004ff565b9050919050565b610c1280620005586000396000f3fe608060405234801561001057600080fd5b50600436106100885760003560e01c8063715018a61161005b578063715018a6146101295780638da5cb5b1461013357806390dc588514610151578063f2fde38b1461016f57610088565b80633650c9c51461008d57806348441be7146100bd578063522e1177146100ed578063703bafd51461010b575b600080fd5b6100a760048036038101906100a291906107cd565b61018b565b6040516100b49190610842565b60405180910390f35b6100d760048036038101906100d291906107cd565b610292565b6040516100e49190610842565b60405180910390f35b6100f5610399565b60405161010291906108bc565b60405180910390f35b6101136103bf565b60405161012091906108f8565b60405180910390f35b6101316103e5565b005b61013b6103f9565b6040516101489190610922565b60405180910390f35b610159610422565b604051610166919061095e565b60405180910390f35b61018960048036038101906101849190610979565b610448565b005b60006101956104cb565b6000600260009054906101000a900473ffffffffffffffffffffffffffffffffffffffff1673ffffffffffffffffffffffffffffffffffffffff166275a31785856040518363ffffffff1660e01b81526004016101f3929190610a25565b6020604051808303816000875af1158015610212573d6000803e3d6000fd5b505050506040513d601f19601f820116820180604052508101906102369190610a81565b90508373ffffffffffffffffffffffffffffffffffffffff167f899702da63e85913ec17d177e8749e240a1474d16071de95a4e07d8320a16dd68285604051610280929190610aae565b60405180910390a28091505092915050565b600061029c6104cb565b6000600160009054906101000a900473ffffffffffffffffffffffffffffffffffffffff1673ffffffffffffffffffffffffffffffffffffffff166275a31785856040518363ffffffff1660e01b81526004016102fa929190610a25565b6020604051808303816000875af1158015610319573d6000803e3d6000fd5b505050506040513d601f19601f8201168201806040525081019061033d9190610a81565b90508373ffffffffffffffffffffffffffffffffffffffff167ff852fc17b878a7786805b0f073dfdf4dd7637abddb6f3d3b3311f07b4f3f2f308285604051610387929190610aae565b60405180910390a28091505092915050565b600260009054906101000a900473ffffffffffffffffffffffffffffffffffffffff1681565b600360009054906101000a900473ffffffffffffffffffffffffffffffffffffffff1681565b6103ed6104cb565b6103f76000610549565b565b60008060009054906101000a900473ffffffffffffffffffffffffffffffffffffffff16905090565b600160009054906101000a900473ffffffffffffffffffffffffffffffffffffffff1681565b6104506104cb565b600073ffffffffffffffffffffffffffffffffffffffff168173ffffffffffffffffffffffffffffffffffffffff16036104bf576040517f08c379a00000000000000000000000000000000000000000000000000000000081526004016104b690610b50565b60405180910390fd5b6104c881610549565b50565b6104d361060d565b73ffffffffffffffffffffffffffffffffffffffff166104f16103f9565b73ffffffffffffffffffffffffffffffffffffffff1614610547576040517f08c379a000000000000000000000000000000000000000000000000000000000815260040161053e90610bbc565b60405180910390fd5b565b60008060009054906101000a900473ffffffffffffffffffffffffffffffffffffffff169050816000806101000a81548173ffffffffffffffffffffffffffffffffffffffff021916908373ffffffffffffffffffffffffffffffffffffffff1602179055508173ffffffffffffffffffffffffffffffffffffffff168173ffffffffffffffffffffffffffffffffffffffff167f8be0079c531659141344cd1fd0a4f28419497f9722a3daafe3b4186f6b6457e060405160405180910390a35050565b600033905090565b6000604051905090565b600080fd5b600080fd5b600073ffffffffffffffffffffffffffffffffffffffff82169050919050565b600061065482610629565b9050919050565b61066481610649565b811461066f57600080fd5b50565b6000813590506106818161065b565b92915050565b600080fd5b600080fd5b6000601f19601f8301169050919050565b7f4e487b7100000000000000000000000000000000000000000000000000000000600052604160045260246000fd5b6106da82610691565b810181811067ffffffffffffffff821117156106f9576106f86106a2565b5b80604052505050565b600061070c610615565b905061071882826106d1565b919050565b600067ffffffffffffffff821115610738576107376106a2565b5b61074182610691565b9050602081019050919050565b82818337600083830152505050565b600061077061076b8461071d565b610702565b90508281526020810184848401111561078c5761078b61068c565b5b61079784828561074e565b509392505050565b600082601f8301126107b4576107b3610687565b5b81356107c484826020860161075d565b91505092915050565b600080604083850312156107e4576107e361061f565b5b60006107f285828601610672565b925050602083013567ffffffffffffffff81111561081357610812610624565b5b61081f8582860161079f565b9150509250929050565b6000819050919050565b61083c81610829565b82525050565b60006020820190506108576000830184610833565b92915050565b6000819050919050565b600061088261087d61087884610629565b61085d565b610629565b9050919050565b600061089482610867565b9050919050565b60006108a682610889565b9050919050565b6108b68161089b565b82525050565b60006020820190506108d160008301846108ad565b92915050565b60006108e282610889565b9050919050565b6108f2816108d7565b82525050565b600060208201905061090d60008301846108e9565b92915050565b61091c81610649565b82525050565b60006020820190506109376000830184610913565b92915050565b600061094882610889565b9050919050565b6109588161093d565b82525050565b6000602082019050610973600083018461094f565b92915050565b60006020828403121561098f5761098e61061f565b5b600061099d84828501610672565b91505092915050565b600081519050919050565b600082825260208201905092915050565b60005b838110156109e05780820151818401526020810190506109c5565b60008484015250505050565b60006109f7826109a6565b610a0181856109b1565b9350610a118185602086016109c2565b610a1a81610691565b840191505092915050565b6000604082019050610a3a6000830185610913565b8181036020830152610a4c81846109ec565b90509392505050565b610a5e81610829565b8114610a6957600080fd5b50565b600081519050610a7b81610a55565b92915050565b600060208284031215610a9757610a9661061f565b5b6000610aa584828501610a6c565b91505092915050565b6000604082019050610ac36000830185610833565b8181036020830152610ad581846109ec565b90509392505050565b7f4f776e61626c653a206e6577206f776e657220697320746865207a65726f206160008201527f6464726573730000000000000000000000000000000000000000000000000000602082015250565b6000610b3a6026836109b1565b9150610b4582610ade565b604082019050919050565b60006020820190508181036000830152610b6981610b2d565b9050919050565b7f4f776e61626c653a2063616c6c6572206973206e6f7420746865206f776e6572600082015250565b6000610ba66020836109b1565b9150610bb182610b70565b602082019050919050565b60006020820190508181036000830152610bd581610b99565b905091905056fea2646970667358221220b9ca2d3dd3b734c0140e727b3ac63a7e9121df730f146a06e83a4a3ab3667be464736f6c63430008140033",
  "linkReferences": {},
  "deployedLinkReferences": {}
}