{
  "_format": "hh-sol-artifact-1",
  "contractName": "Create2Factory",
  "sourceName": "contracts/Create2Deployer.sol",
  "abi": [
    {
      "anonymous": false,
      "inputs": [
        {
          "indexed": false,
          "internalType": "address",
          "name": "addr",
          "type": "address"
        },
        {
          "indexed": false,
          "internalType": "bytes32",
          "name": "salt",
          "type": "bytes32"
        }
      ],
      "name": "Deployed",
      "type": "event"
    },
    {
      "inputs": [
        {
          "internalType": "bytes32",
          "name": "salt",
          "type": "bytes32"
        },
        {
          "internalType": "bytes32",
          "name": "bytecodeHash",
          "type": "bytes32"
        }
      ],
      "name": "computeAddress",
      "outputs": [
        {
          "internalType": "address",
          "name": "",
          "type": "address"
        }
      ],
      "stateMutability": "view",
      "type": "function"
    },
    {
      "inputs": [
        {
          "internalType": "bytes",
          "name": "bytecode",
          "type": "bytes"
        },
        {
          "internalType": "bytes32",
          "name": "salt",
          "type": "bytes32"
        }
      ],
      "name": "deploy",
      "outputs": [
        {
          "internalType": "address",
          "name": "",
          "type": "address"
        }
      ],
      "stateMutability": "nonpayable",
      "type": "function"
    }
  ],
  "bytecode": "0x608060405234801561001057600080fd5b50610530806100206000396000f3fe608060405234801561001057600080fd5b50600436106100365760003560e01c8063481286e61461003b5780634af63f021461006b575b600080fd5b61005560048036038101906100509190610180565b61009b565b6040516100629190610201565b60405180910390f35b61008560048036038101906100809190610362565b6100d9565b6040516100929190610201565b60405180910390f35b600060ff60f81b3084846040516020016100b89493929190610474565b6040516020818303038152906040528051906020012060001c905092915050565b600080828451602086016000f59050803b6100f357600080fd5b7f94bfd9af14ef450884c8a7ddb5734e2e1e14e70a1c84f0801cc5a29e34d2642881846040516101249291906104d1565b60405180910390a18091505092915050565b6000604051905090565b600080fd5b600080fd5b6000819050919050565b61015d8161014a565b811461016857600080fd5b50565b60008135905061017a81610154565b92915050565b6000806040838503121561019757610196610140565b5b60006101a58582860161016b565b92505060206101b68582860161016b565b9150509250929050565b600073ffffffffffffffffffffffffffffffffffffffff82169050919050565b60006101eb826101c0565b9050919050565b6101fb816101e0565b82525050565b600060208201905061021660008301846101f2565b92915050565b600080fd5b600080fd5b6000601f19601f8301169050919050565b7f4e487b7100000000000000000000000000000000000000000000000000000000600052604160045260246000fd5b61026f82610226565b810181811067ffffffffffffffff8211171561028e5761028d610237565b5b80604052505050565b60006102a1610136565b90506102ad8282610266565b919050565b600067ffffffffffffffff8211156102cd576102cc610237565b5b6102d682610226565b9050602081019050919050565b82818337600083830152505050565b6000610305610300846102b2565b610297565b90508281526020810184848401111561032157610320610221565b5b61032c8482856102e3565b509392505050565b600082601f8301126103495761034861021c565b5b81356103598482602086016102f2565b91505092915050565b6000806040838503121561037957610378610140565b5b600083013567ffffffffffffffff81111561039757610396610145565b5b6103a385828601610334565b92505060206103b48582860161016b565b9150509250929050565b60007fff0000000000000000000000000000000000000000000000000000000000000082169050919050565b6000819050919050565b610405610400826103be565b6103ea565b82525050565b60008160601b9050919050565b60006104238261040b565b9050919050565b600061043582610418565b9050919050565b61044d610448826101e0565b61042a565b82525050565b6000819050919050565b61046e6104698261014a565b610453565b82525050565b600061048082876103f4565b600182019150610490828661043c565b6014820191506104a0828561045d565b6020820191506104b0828461045d565b60208201915081905095945050505050565b6104cb8161014a565b82525050565b60006040820190506104e660008301856101f2565b6104f360208301846104c2565b939250505056fea2646970667358221220c4bb74b6332836b0056d06637a64b177b27b175e37ecf8ab780f2a96a08f70fa64736f6c63430008140033",
  "linkReferences": {},
  "deployedLinkReferences": {}
}