{
  "_format": "hh-sol-artifact-1",
  "contractName": "VaultNet",
  "sourceName": "contracts/vaultnet.sol",
  "abi": [
    {
      "anonymous": false,
      "inputs": [
        {
          "indexed": true,
          "internalType": "uint256",
          "name": "modelId",
          "type": "uint256"
        },
        {
          "indexed": false,
          "internalType": "string",
          "name": "cid",
          "type": "string"
        },
        {
          "indexed": true,
          "internalType": "address",
          "name": "storedBy",
          "type": "address"
        }
      ],
      "name": "CIDStored",
      "type": "event"
    },
    {
      "anonymous": false,
      "inputs": [
        {
          "indexed": true,
          "internalType": "uint256",
          "name": "modelId",
          "type": "uint256"
        },
        {
          "indexed": true,
          "internalType": "address",
          "name": "buyer",
          "type": "address"
        }
      ],
      "name": "ModelPurchased",
      "type": "event"
    },
    {
      "anonymous": false,
      "inputs": [
        {
          "indexed": true,
          "internalType": "uint256",
          "name": "modelId",
          "type": "uint256"
        },
        {
          "indexed": false,
          "internalType": "string",
          "name": "newIpfsHash",
          "type": "string"
        },
        {
          "indexed": false,
          "internalType": "uint256",
          "name": "newVersion",
          "type": "uint256"
        }
      ],
      "name": "ModelUpdated",
      "type": "event"
    },
    {
      "anonymous": false,
      "inputs": [
        {
          "indexed": true,
          "internalType": "uint256",
          "name": "modelId",
          "type": "uint256"
        },
        {
          "indexed": true,
          "internalType": "address",
          "name": "owner",
          "type": "address"
        },
        {
          "indexed": false,
          "internalType": "string",
          "name": "name",
          "type": "string"
        },
        {
          "indexed": false,
          "internalType": "uint256",
          "name": "price",
          "type": "uint256"
        },
        {
          "indexed": false,
          "internalType": "string",
          "name": "ipfsHash",
          "type": "string"
        }
      ],
      "name": "ModelUploaded",
      "type": "event"
    },
    {
      "inputs": [
        {
          "internalType": "uint256",
          "name": "modelId",
          "type": "uint256"
        }
      ],
      "name": "buyAccess",
      "outputs": [],
      "stateMutability": "payable",
      "type": "function"
    },
    {
      "inputs": [
        {
          "internalType": "uint256",
          "name": "modelId",
          "type": "uint256"
        },
        {
          "internalType": "address",
          "name": "user",
          "type": "address"
        }
      ],
      "name": "checkAccess",
      "outputs": [
        {
          "internalType": "bool",
          "name": "",
          "type": "bool"
        }
      ],
      "stateMutability": "view",
      "type": "function"
    },
    {
      "inputs": [],
      "name": "getLatestModelId",
      "outputs": [
        {
          "internalType": "uint256",
          "name": "",
          "type": "uint256"
        }
      ],
      "stateMutability": "view",
      "type": "function"
    },
    {
      "inputs": [
        {
          "internalType": "uint256",
          "name": "modelId",
          "type": "uint256"
        }
      ],
      "name": "getModel",
      "outputs": [
        {
          "internalType": "string",
          "name": "",
          "type": "string"
        },
        {
          "internalType": "string",
          "name": "",
          "type": "string"
        },
        {
          "internalType": "string",
          "name": "",
          "type": "string"
        },
        {
          "internalType": "uint256",
          "name": "",
          "type": "uint256"
        },
        {
          "internalType": "address",
          "name": "",
          "type": "address"
        },
        {
          "internalType": "uint256",
          "name": "",
          "type": "uint256"
        }
      ],
      "stateMutability": "view",
      "type": "function"
    },
    {
      "inputs": [
        {
          "internalType": "uint256",
          "name": "modelId",
          "type": "uint256"
        }
      ],
      "name": "getModelCID",
      "outputs": [
        {
          "internalType": "string",
          "name": "cid",
          "type": "string"
        }
      ],
      "stateMutability": "view",
      "type": "function"
    },
    {
      "inputs": [
        {
          "internalType": "uint256",
          "name": "modelId",
          "type": "uint256"
        }
      ],
      "name": "getModelVersionHistory",
      "outputs": [
        {
          "internalType": "uint256[]",
          "name": "",
          "type": "uint256[]"
        }
      ],
      "stateMutability": "view",
      "type": "function"
    },
    {
      "inputs": [],
      "name": "getTotalModels",
      "outputs": [
        {
          "internalType": "uint256",
          "name": "",
          "type": "uint256"
        }
      ],
      "stateMutability": "view",
      "type": "function"
    },
    {
      "inputs": [
        {
          "internalType": "address",
          "name": "",
          "type": "address"
        },
        {
          "internalType": "uint256",
          "name": "",
          "type": "uint256"
        }
      ],
      "name": "hasAccess",
      "outputs": [
        {
          "internalType": "bool",
          "name": "",
          "type": "bool"
        }
      ],
      "stateMutability": "view",
      "type": "function"
    },
    {
      "inputs": [],
      "name": "modelCounter",
      "outputs": [
        {
          "internalType": "uint256",
          "name": "",
          "type": "uint256"
        }
      ],
      "stateMutability": "view",
      "type": "function"
    },
    {
      "inputs": [
        {
          "internalType": "uint256",
          "name": "",
          "type": "uint256"
        }
      ],
      "name": "models",
      "outputs": [
        {
          "internalType": "string",
          "name": "name",
          "type": "string"
        },
        {
          "internalType": "string",
          "name": "description",
          "type": "string"
        },
        {
          "internalType": "string",
          "name": "ipfsHash",
          "type": "string"
        },
        {
          "internalType": "uint256",
          "name": "price",
          "type": "uint256"
        },
        {
          "internalType": "address",
          "name": "owner",
          "type": "address"
        },
        {
          "internalType": "uint256",
          "name": "version",
          "type": "uint256"
        }
      ],
      "stateMutability": "view",
      "type": "function"
    },
    {
      "inputs": [
        {
          "internalType": "uint256",
          "name": "modelId",
          "type": "uint256"
        },
        {
          "internalType": "string",
          "name": "cid",
          "type": "string"
        }
      ],
      "name": "storeCID",
      "outputs": [],
      "stateMutability": "nonpayable",
      "type": "function"
    },
    {
      "inputs": [
        {
          "internalType": "uint256",
          "name": "modelId",
          "type": "uint256"
        },
        {
          "internalType": "string",
          "name": "newIpfsHash",
          "type": "string"
        }
      ],
      "name": "updateModel",
      "outputs": [],
      "stateMutability": "nonpayable",
      "type": "function"
    },
    {
      "inputs": [
        {
          "internalType": "string",
          "name": "name",
          "type": "string"
        },
        {
          "internalType": "string",
          "name": "description",
          "type": "string"
        },
        {
          "internalType": "string",
          "name": "ipfsHash",
          "type": "string"
        },
        {
          "internalType": "uint256",
          "name": "price",
          "type": "uint256"
        }
      ],
      "name": "uploadModel",
      "outputs": [],
      "stateMutability": "nonpayable",
      "type": "function"
    }
  ],
  "bytecode": "0x608060405234801561001057600080fd5b506120db806100206000396000f3fe6080604052600436106100c25760003560e01c80638916af421161007f578063c6530e4111610059578063c6530e4114610287578063cc408b8a146102c4578063d13c8703146102ef578063f508dde61461032c576100c2565b80638916af42146101e45780638ac8af111461020d578063bf0627091461024a576100c2565b80632ed370d7146100c757806337d1716e146100f257806350a1a2641461011b5780636a030ca9146101375780636d361694146101795780637b3c308b146101bb575b600080fd5b3480156100d357600080fd5b506100dc610357565b6040516100e991906112dc565b60405180910390f35b3480156100fe57600080fd5b506101196004803603810190610114919061147d565b6103b1565b005b610135600480360381019061013091906114d9565b610558565b005b34801561014357600080fd5b5061015e600480360381019061015991906114d9565b6107ba565b604051610170969594939291906115c6565b60405180910390f35b34801561018557600080fd5b506101a0600480360381019061019b91906114d9565b6109ae565b6040516101b2969594939291906115c6565b60405180910390f35b3480156101c757600080fd5b506101e260048036038101906101dd919061163c565b610ccc565b005b3480156101f057600080fd5b5061020b6004803603810190610206919061147d565b610e96565b005b34801561021957600080fd5b50610234600480360381019061022f91906114d9565b61107b565b60405161024191906117b5565b60405180910390f35b34801561025657600080fd5b50610271600480360381019061026c91906114d9565b61112f565b60405161027e91906117d7565b60405180910390f35b34801561029357600080fd5b506102ae60048036038101906102a99190611825565b61121d565b6040516102bb9190611880565b60405180910390f35b3480156102d057600080fd5b506102d961124c565b6040516102e691906112dc565b60405180910390f35b3480156102fb57600080fd5b506103166004803603810190610311919061189b565b611252565b6040516103239190611880565b60405180910390f35b34801561033857600080fd5b506103416112ba565b60405161034e91906112dc565b60405180910390f35b6000806000541161039d576040517f08c379a000000000000000000000000000000000000000000000000000000000815260040161039490611927565b60405180910390fd5b60016000546103ac9190611976565b905090565b813373ffffffffffffffffffffffffffffffffffffffff166001600083815260200190815260200160002060040160009054906101000a900473ffffffffffffffffffffffffffffffffffffffff1673ffffffffffffffffffffffffffffffffffffffff1614610456576040517f08c379a000000000000000000000000000000000000000000000000000000000815260040161044d906119f6565b60405180910390fd5b82600054811061049b576040517f08c379a000000000000000000000000000000000000000000000000000000000815260040161049290611a62565b60405180910390fd5b60008351116104df576040517f08c379a00000000000000000000000000000000000000000000000000000000081526004016104d690611ace565b60405180910390fd5b826001600086815260200190815260200160002060020190816105029190611cfa565b503373ffffffffffffffffffffffffffffffffffffffff16847f296e3180d222790a37efb1f690700b209f1ff582cf5b89cc782b1c6c53c96b358560405161054a91906117d7565b60405180910390a350505050565b80600054811061059d576040517f08c379a000000000000000000000000000000000000000000000000000000000815260040161059490611a62565b60405180910390fd5b600060016000848152602001908152602001600020905080600301543410156105fb576040517f08c379a00000000000000000000000000000000000000000000000000000000081526004016105f290611e18565b60405180910390fd5b600260003373ffffffffffffffffffffffffffffffffffffffff1673ffffffffffffffffffffffffffffffffffffffff168152602001908152602001600020600084815260200190815260200160002060009054906101000a900460ff1615610699576040517f08c379a000000000000000000000000000000000000000000000000000000000815260040161069090611e84565b60405180910390fd5b6001600260003373ffffffffffffffffffffffffffffffffffffffff1673ffffffffffffffffffffffffffffffffffffffff168152602001908152602001600020600085815260200190815260200160002060006101000a81548160ff0219169083151502179055508060040160009054906101000a900473ffffffffffffffffffffffffffffffffffffffff1673ffffffffffffffffffffffffffffffffffffffff166108fc82600301549081150290604051600060405180830381858888f19350505050158015610770573d6000803e3d6000fd5b503373ffffffffffffffffffffffffffffffffffffffff16837fc8581808129c51c0416692a5ea1b58e080ae8f21e384eefe2f2dc85d231d12ba60405160405180910390a3505050565b60016020528060005260406000206000915090508060000180546107dd90611b1d565b80601f016020809104026020016040519081016040528092919081815260200182805461080990611b1d565b80156108565780601f1061082b57610100808354040283529160200191610856565b820191906000526020600020905b81548152906001019060200180831161083957829003601f168201915b50505050509080600101805461086b90611b1d565b80601f016020809104026020016040519081016040528092919081815260200182805461089790611b1d565b80156108e45780601f106108b9576101008083540402835291602001916108e4565b820191906000526020600020905b8154815290600101906020018083116108c757829003601f168201915b5050505050908060020180546108f990611b1d565b80601f016020809104026020016040519081016040528092919081815260200182805461092590611b1d565b80156109725780601f1061094757610100808354040283529160200191610972565b820191906000526020600020905b81548152906001019060200180831161095557829003601f168201915b5050505050908060030154908060040160009054906101000a900473ffffffffffffffffffffffffffffffffffffffff16908060050154905086565b606080606060008060008660005481106109fd576040517f08c379a00000000000000000000000000000000000000000000000000000000081526004016109f490611a62565b60405180910390fd5b6000600160008a81526020019081526020016000206040518060e0016040529081600082018054610a2d90611b1d565b80601f0160208091040260200160405190810160405280929190818152602001828054610a5990611b1d565b8015610aa65780601f10610a7b57610100808354040283529160200191610aa6565b820191906000526020600020905b815481529060010190602001808311610a8957829003601f168201915b50505050508152602001600182018054610abf90611b1d565b80601f0160208091040260200160405190810160405280929190818152602001828054610aeb90611b1d565b8015610b385780601f10610b0d57610100808354040283529160200191610b38565b820191906000526020600020905b815481529060010190602001808311610b1b57829003601f168201915b50505050508152602001600282018054610b5190611b1d565b80601f0160208091040260200160405190810160405280929190818152602001828054610b7d90611b1d565b8015610bca5780601f10610b9f57610100808354040283529160200191610bca565b820191906000526020600020905b815481529060010190602001808311610bad57829003601f168201915b50505050508152602001600382015481526020016004820160009054906101000a900473ffffffffffffffffffffffffffffffffffffffff1673ffffffffffffffffffffffffffffffffffffffff1673ffffffffffffffffffffffffffffffffffffffff1681526020016005820154815260200160068201805480602002602001604051908101604052809291908181526020018280548015610c8c57602002820191906000526020600020905b815481526020019060010190808311610c78575b5050505050815250509050806000015181602001518260400151836060015184608001518560a00151975097509750975097509750505091939550919395565b60008111610d0f576040517f08c379a0000000000000000000000000000000000000000000000000000000008152600401610d0690611ef0565b60405180910390fd5b6000825111610d53576040517f08c379a0000000000000000000000000000000000000000000000000000000008152600401610d4a90611f5c565b60405180910390fd5b60006001600080548152602001908152602001600020905084816000019081610d7c9190611cfa565b5083816001019081610d8e9190611cfa565b5082816002019081610da09190611cfa565b50818160030181905550338160040160006101000a81548173ffffffffffffffffffffffffffffffffffffffff021916908373ffffffffffffffffffffffffffffffffffffffff1602179055506001816005018190555080600601600190806001815401808255809150506001900390600052602060002001600090919091909150553373ffffffffffffffffffffffffffffffffffffffff166000547f8c315ba851e1b8188391fc89c008e915751263825e9b6d3b9adea4ea79d9d5da878587604051610e7093929190611f7c565b60405180910390a3600080815480929190610e8a90611fc1565b91905055505050505050565b813373ffffffffffffffffffffffffffffffffffffffff166001600083815260200190815260200160002060040160009054906101000a900473ffffffffffffffffffffffffffffffffffffffff1673ffffffffffffffffffffffffffffffffffffffff1614610f3b576040517f08c379a0000000000000000000000000000000000000000000000000000000008152600401610f32906119f6565b60405180910390fd5b826000548110610f80576040517f08c379a0000000000000000000000000000000000000000000000000000000008152600401610f7790611a62565b60405180910390fd5b6000835111610fc4576040517f08c379a0000000000000000000000000000000000000000000000000000000008152600401610fbb90612055565b60405180910390fd5b6000600160008681526020019081526020016000209050806005016000815480929190610ff090611fc1565b9190505550838160020190816110069190611cfa565b508060060181600501549080600181540180825580915050600190039060005260206000200160009091909190915055847f455f5080ea871516dbe991ffb2aac99192d5576c203a72f70d9d058738cb191585836005015460405161106c929190612075565b60405180910390a25050505050565b60608160005481106110c2576040517f08c379a00000000000000000000000000000000000000000000000000000000081526004016110b990611a62565b60405180910390fd5b6001600084815260200190815260200160002060060180548060200260200160405190810160405280929190818152602001828054801561112257602002820191906000526020600020905b81548152602001906001019080831161110e575b5050505050915050919050565b6060816000548110611176576040517f08c379a000000000000000000000000000000000000000000000000000000000815260040161116d90611a62565b60405180910390fd5b60016000848152602001908152602001600020600201805461119790611b1d565b80601f01602080910402602001604051908101604052809291908181526020018280546111c390611b1d565b80156112105780601f106111e557610100808354040283529160200191611210565b820191906000526020600020905b8154815290600101906020018083116111f357829003601f168201915b5050505050915050919050565b60026020528160005260406000206020528060005260406000206000915091509054906101000a900460ff1681565b60005481565b6000600260008373ffffffffffffffffffffffffffffffffffffffff1673ffffffffffffffffffffffffffffffffffffffff168152602001908152602001600020600084815260200190815260200160002060009054906101000a900460ff16905092915050565b60008054905090565b6000819050919050565b6112d6816112c3565b82525050565b60006020820190506112f160008301846112cd565b92915050565b6000604051905090565b600080fd5b600080fd5b611314816112c3565b811461131f57600080fd5b50565b6000813590506113318161130b565b92915050565b600080fd5b600080fd5b6000601f19601f8301169050919050565b7f4e487b7100000000000000000000000000000000000000000000000000000000600052604160045260246000fd5b61138a82611341565b810181811067ffffffffffffffff821117156113a9576113a8611352565b5b80604052505050565b60006113bc6112f7565b90506113c88282611381565b919050565b600067ffffffffffffffff8211156113e8576113e7611352565b5b6113f182611341565b9050602081019050919050565b82818337600083830152505050565b600061142061141b846113cd565b6113b2565b90508281526020810184848401111561143c5761143b61133c565b5b6114478482856113fe565b509392505050565b600082601f83011261146457611463611337565b5b813561147484826020860161140d565b91505092915050565b6000806040838503121561149457611493611301565b5b60006114a285828601611322565b925050602083013567ffffffffffffffff8111156114c3576114c2611306565b5b6114cf8582860161144f565b9150509250929050565b6000602082840312156114ef576114ee611301565b5b60006114fd84828501611322565b91505092915050565b600081519050919050565b600082825260208201905092915050565b60005b83811015611540578082015181840152602081019050611525565b60008484015250505050565b600061155782611506565b6115618185611511565b9350611571818560208601611522565b61157a81611341565b840191505092915050565b600073ffffffffffffffffffffffffffffffffffffffff82169050919050565b60006115b082611585565b9050919050565b6115c0816115a5565b82525050565b600060c08201905081810360008301526115e0818961154c565b905081810360208301526115f4818861154c565b90508181036040830152611608818761154c565b905061161760608301866112cd565b61162460808301856115b7565b61163160a08301846112cd565b979650505050505050565b6000806000806080858703121561165657611655611301565b5b600085013567ffffffffffffffff81111561167457611673611306565b5b6116808782880161144f565b945050602085013567ffffffffffffffff8111156116a1576116a0611306565b5b6116ad8782880161144f565b935050604085013567ffffffffffffffff8111156116ce576116cd611306565b5b6116da8782880161144f565b92505060606116eb87828801611322565b91505092959194509250565b600081519050919050565b600082825260208201905092915050565b6000819050602082019050919050565b61172c816112c3565b82525050565b600061173e8383611723565b60208301905092915050565b6000602082019050919050565b6000611762826116f7565b61176c8185611702565b935061177783611713565b8060005b838110156117a857815161178f8882611732565b975061179a8361174a565b92505060018101905061177b565b5085935050505092915050565b600060208201905081810360008301526117cf8184611757565b905092915050565b600060208201905081810360008301526117f1818461154c565b905092915050565b611802816115a5565b811461180d57600080fd5b50565b60008135905061181f816117f9565b92915050565b6000806040838503121561183c5761183b611301565b5b600061184a85828601611810565b925050602061185b85828601611322565b9150509250929050565b60008115159050919050565b61187a81611865565b82525050565b60006020820190506118956000830184611871565b92915050565b600080604083850312156118b2576118b1611301565b5b60006118c085828601611322565b92505060206118d185828601611810565b9150509250929050565b7f4e6f206d6f64656c732065786973740000000000000000000000000000000000600082015250565b6000611911600f83611511565b915061191c826118db565b602082019050919050565b6000602082019050818103600083015261194081611904565b9050919050565b7f4e487b7100000000000000000000000000000000000000000000000000000000600052601160045260246000fd5b6000611981826112c3565b915061198c836112c3565b92508282039050818111156119a4576119a3611947565b5b92915050565b7f4e6f7420746865206d6f64656c206f776e657200000000000000000000000000600082015250565b60006119e0601383611511565b91506119eb826119aa565b602082019050919050565b60006020820190508181036000830152611a0f816119d3565b9050919050565b7f4d6f64656c20646f6573206e6f74206578697374000000000000000000000000600082015250565b6000611a4c601483611511565b9150611a5782611a16565b602082019050919050565b60006020820190508181036000830152611a7b81611a3f565b9050919050565b7f4349442063616e6e6f7420626520656d70747900000000000000000000000000600082015250565b6000611ab8601383611511565b9150611ac382611a82565b602082019050919050565b60006020820190508181036000830152611ae781611aab565b9050919050565b7f4e487b7100000000000000000000000000000000000000000000000000000000600052602260045260246000fd5b60006002820490506001821680611b3557607f821691505b602082108103611b4857611b47611aee565b5b50919050565b60008190508160005260206000209050919050565b60006020601f8301049050919050565b600082821b905092915050565b600060088302611bb07fffffffffffffffffffffffffffffffffffffffffffffffffffffffffffffffff82611b73565b611bba8683611b73565b95508019841693508086168417925050509392505050565b6000819050919050565b6000611bf7611bf2611bed846112c3565b611bd2565b6112c3565b9050919050565b6000819050919050565b611c1183611bdc565b611c25611c1d82611bfe565b848454611b80565b825550505050565b600090565b611c3a611c2d565b611c45818484611c08565b505050565b5b81811015611c6957611c5e600082611c32565b600181019050611c4b565b5050565b601f821115611cae57611c7f81611b4e565b611c8884611b63565b81016020851015611c97578190505b611cab611ca385611b63565b830182611c4a565b50505b505050565b600082821c905092915050565b6000611cd160001984600802611cb3565b1980831691505092915050565b6000611cea8383611cc0565b9150826002028217905092915050565b611d0382611506565b67ffffffffffffffff811115611d1c57611d1b611352565b5b611d268254611b1d565b611d31828285611c6d565b600060209050601f831160018114611d645760008415611d52578287015190505b611d5c8582611cde565b865550611dc4565b601f198416611d7286611b4e565b60005b82811015611d9a57848901518255600182019150602085019450602081019050611d75565b86831015611db75784890151611db3601f891682611cc0565b8355505b6001600288020188555050505b505050505050565b7f496e73756666696369656e74207061796d656e74000000000000000000000000600082015250565b6000611e02601483611511565b9150611e0d82611dcc565b602082019050919050565b60006020820190508181036000830152611e3181611df5565b9050919050565b7f416c726561647920707572636861736564000000000000000000000000000000600082015250565b6000611e6e601183611511565b9150611e7982611e38565b602082019050919050565b60006020820190508181036000830152611e9d81611e61565b9050919050565b7f5072696365206d7573742062652067726561746572207468616e203000000000600082015250565b6000611eda601c83611511565b9150611ee582611ea4565b602082019050919050565b60006020820190508181036000830152611f0981611ecd565b9050919050565b7f4950465320686173682072657175697265640000000000000000000000000000600082015250565b6000611f46601283611511565b9150611f5182611f10565b602082019050919050565b60006020820190508181036000830152611f7581611f39565b9050919050565b60006060820190508181036000830152611f96818661154c565b9050611fa560208301856112cd565b8181036040830152611fb7818461154c565b9050949350505050565b6000611fcc826112c3565b91507fffffffffffffffffffffffffffffffffffffffffffffffffffffffffffffffff8203611ffe57611ffd611947565b5b600182019050919050565b7f4e65772049504653206861736820726571756972656400000000000000000000600082015250565b600061203f601683611511565b915061204a82612009565b602082019050919050565b6000602082019050818103600083015261206e81612032565b9050919050565b6000604082019050818103600083015261208f818561154c565b905061209e60208301846112cd565b939250505056fea2646970667358221220929e1624bec9917104027072179dca9a79897257de075e5ae4acfc7654bc0f4a64736f6c63430008130033",
  "linkReferences": {},
  "deployedLinkReferences": {}
}