{
  "_format": "hh-sol-artifact-1",
  "contractName": "VaultNet",
  "sourceName": "contracts/vaultnet.sol",
  "abi": [
    {
      "inputs": [
        {
          "internalType": "address",
          "name": "managerAddr",
          "type": "address"
        },
        {
          "internalType": "uint256",
          "name": "_rewardTemplateId",
          "type": "uint256"
        },
        {
          "internalType": "address",
          "name": "initialOwner",
          "type": "address"
        }
      ],
      "stateMutability": "nonpayable",
      "type": "constructor"
    },
    {
      "anonymous": false,
      "inputs": [
        {
          "indexed": true,
          "internalType": "uint256",
          "name": "modelId",
          "type": "uint256"
        },
        {
          "indexed": true,
          "internalType": "address",
          "name": "buyer",
          "type": "address"
        },
        {
          "indexed": false,
          "internalType": "uint256",
          "name": "price",
          "type": "uint256"
        }
      ],
      "name": "ModelPurchased",
      "type": "event"
    },
    {
      "anonymous": false,
      "inputs": [
        {
          "indexed": true,
          "internalType": "uint256",
          "name": "modelId",
          "type": "uint256"
        },
        {
          "indexed": false,
          "internalType": "string",
          "name": "newCid",
          "type": "string"
        },
        {
          "indexed": false,
          "internalType": "uint256",
          "name": "newVersion",
          "type": "uint256"
        }
      ],
      "name": "ModelUpdated",
      "type": "event"
    },
    {
      "anonymous": false,
      "inputs": [
        {
          "indexed": true,
          "internalType": "uint256",
          "name": "modelId",
          "type": "uint256"
        },
        {
          "indexed": true,
          "internalType": "address",
          "name": "uploader",
          "type": "address"
        },
        {
          "indexed": false,
          "internalType": "string",
          "name": "cid",
          "type": "string"
        },
        {
          "indexed": false,
          "internalType": "uint256",
          "name": "price",
          "type": "uint256"
        }
      ],
      "name": "ModelUploaded",
      "type": "event"
    },
    {
      "anonymous": false,
      "inputs": [
        {
          "indexed": true,
          "internalType": "address",
          "name": "previousOwner",
          "type": "address"
        },
        {
          "indexed": true,
          "internalType": "address",
          "name": "newOwner",
          "type": "address"
        }
      ],
      "name": "OwnershipTransferred",
      "type": "event"
    },
    {
      "inputs": [
        {
          "internalType": "uint256",
          "name": "modelId",
          "type": "uint256"
        }
      ],
      "name": "buyModel",
      "outputs": [],
      "stateMutability": "payable",
      "type": "function"
    },
    {
      "inputs": [],
      "name": "fragmentManager",
      "outputs": [
        {
          "internalType": "contract IFragmentManager",
          "name": "",
          "type": "address"
        }
      ],
      "stateMutability": "view",
      "type": "function"
    },
    {
      "inputs": [],
      "name": "modelCounter",
      "outputs": [
        {
          "internalType": "uint256",
          "name": "",
          "type": "uint256"
        }
      ],
      "stateMutability": "view",
      "type": "function"
    },
    {
      "inputs": [
        {
          "internalType": "uint256",
          "name": "",
          "type": "uint256"
        }
      ],
      "name": "models",
      "outputs": [
        {
          "internalType": "address",
          "name": "uploader",
          "type": "address"
        },
        {
          "internalType": "string",
          "name": "cid",
          "type": "string"
        },
        {
          "internalType": "uint256",
          "name": "price",
          "type": "uint256"
        },
        {
          "internalType": "uint256",
          "name": "version",
          "type": "uint256"
        },
        {
          "internalType": "bool",
          "name": "exists",
          "type": "bool"
        }
      ],
      "stateMutability": "view",
      "type": "function"
    },
    {
      "inputs": [],
      "name": "owner",
      "outputs": [
        {
          "internalType": "address",
          "name": "",
          "type": "address"
        }
      ],
      "stateMutability": "view",
      "type": "function"
    },
    {
      "inputs": [],
      "name": "renounceOwnership",
      "outputs": [],
      "stateMutability": "nonpayable",
      "type": "function"
    },
    {
      "inputs": [],
      "name": "rewardTemplateId",
      "outputs": [
        {
          "internalType": "uint256",
          "name": "",
          "type": "uint256"
        }
      ],
      "stateMutability": "view",
      "type": "function"
    },
    {
      "inputs": [
        {
          "internalType": "address",
          "name": "newManager",
          "type": "address"
        }
      ],
      "name": "setFragmentManager",
      "outputs": [],
      "stateMutability": "nonpayable",
      "type": "function"
    },
    {
      "inputs": [
        {
          "internalType": "address",
          "name": "newOwner",
          "type": "address"
        }
      ],
      "name": "transferOwnership",
      "outputs": [],
      "stateMutability": "nonpayable",
      "type": "function"
    },
    {
      "inputs": [
        {
          "internalType": "uint256",
          "name": "modelId",
          "type": "uint256"
        },
        {
          "internalType": "string",
          "name": "newCid",
          "type": "string"
        }
      ],
      "name": "updateModel",
      "outputs": [],
      "stateMutability": "nonpayable",
      "type": "function"
    },
    {
      "inputs": [
        {
          "internalType": "string",
          "name": "cid",
          "type": "string"
        },
        {
          "internalType": "uint256",
          "name": "price",
          "type": "uint256"
        }
      ],
      "name": "uploadModel",
      "outputs": [
        {
          "internalType": "uint256",
          "name": "",
          "type": "uint256"
        }
      ],
      "stateMutability": "nonpayable",
      "type": "function"
    },
    {
      "inputs": [],
      "name": "vaultToken",
      "outputs": [
        {
          "internalType": "contract IERC20",
          "name": "",
          "type": "address"
        }
      ],
      "stateMutability": "view",
      "type": "function"
    },
    {
      "inputs": [
        {
          "internalType": "address payable",
          "name": "to",
          "type": "address"
        }
      ],
      "name": "withdraw",
      "outputs": [],
      "stateMutability": "nonpayable",
      "type": "function"
    }
  ],
  "bytecode": "0x60806040523480156200001157600080fd5b50604051620020f4380380620020f4833981810160405281019062000037919062000381565b620000576200004b620000c060201b60201c565b620000c860201b60201c565b6001808190555082600560006101000a81548173ffffffffffffffffffffffffffffffffffffffff021916908373ffffffffffffffffffffffffffffffffffffffff16021790555081600681905550620000b7816200018c60201b60201c565b505050620004f8565b600033905090565b60008060009054906101000a900473ffffffffffffffffffffffffffffffffffffffff169050816000806101000a81548173ffffffffffffffffffffffffffffffffffffffff021916908373ffffffffffffffffffffffffffffffffffffffff1602179055508173ffffffffffffffffffffffffffffffffffffffff168173ffffffffffffffffffffffffffffffffffffffff167f8be0079c531659141344cd1fd0a4f28419497f9722a3daafe3b4186f6b6457e060405160405180910390a35050565b6200019c6200022260201b60201c565b600073ffffffffffffffffffffffffffffffffffffffff168173ffffffffffffffffffffffffffffffffffffffff16036200020e576040517f08c379a0000000000000000000000000000000000000000000000000000000008152600401620002059062000464565b60405180910390fd5b6200021f81620000c860201b60201c565b50565b62000232620000c060201b60201c565b73ffffffffffffffffffffffffffffffffffffffff1662000258620002b360201b60201c565b73ffffffffffffffffffffffffffffffffffffffff1614620002b1576040517f08c379a0000000000000000000000000000000000000000000000000000000008152600401620002a890620004d6565b60405180910390fd5b565b60008060009054906101000a900473ffffffffffffffffffffffffffffffffffffffff16905090565b600080fd5b600073ffffffffffffffffffffffffffffffffffffffff82169050919050565b60006200030e82620002e1565b9050919050565b620003208162000301565b81146200032c57600080fd5b50565b600081519050620003408162000315565b92915050565b6000819050919050565b6200035b8162000346565b81146200036757600080fd5b50565b6000815190506200037b8162000350565b92915050565b6000806000606084860312156200039d576200039c620002dc565b5b6000620003ad868287016200032f565b9350506020620003c0868287016200036a565b9250506040620003d3868287016200032f565b9150509250925092565b600082825260208201905092915050565b7f4f776e61626c653a206e6577206f776e657220697320746865207a65726f206160008201527f6464726573730000000000000000000000000000000000000000000000000000602082015250565b60006200044c602683620003dd565b91506200045982620003ee565b604082019050919050565b600060208201905081810360008301526200047f816200043d565b9050919050565b7f4f776e61626c653a2063616c6c6572206973206e6f7420746865206f776e6572600082015250565b6000620004be602083620003dd565b9150620004cb8262000486565b602082019050919050565b60006020820190508181036000830152620004f181620004af565b9050919050565b611bec80620005086000396000f3fe6080604052600436106100c25760003560e01c8063923f5a591161007f578063cc408b8a11610059578063cc408b8a14610249578063eeb7cfa314610274578063f2fde38b1461029f578063fbe5dd34146102c8576100c2565b8063923f5a59146101c7578063bcbd468414610204578063bf6a6fc11461022d576100c2565b806351cff8d9146100c75780636a030ca9146100f0578063703bafd514610131578063715018a61461015c5780638916af42146101735780638da5cb5b1461019c575b600080fd5b3480156100d357600080fd5b506100ee60048036038101906100e99190610e38565b6102f3565b005b3480156100fc57600080fd5b5061011760048036038101906101129190610e9b565b6103f4565b604051610128959493929190610fa3565b60405180910390f35b34801561013d57600080fd5b506101466104df565b604051610153919061105c565b60405180910390f35b34801561016857600080fd5b50610171610505565b005b34801561017f57600080fd5b5061019a600480360381019061019591906111ac565b610519565b005b3480156101a857600080fd5b506101b16106c8565b6040516101be9190611208565b60405180910390f35b3480156101d357600080fd5b506101ee60048036038101906101e99190611223565b6106f1565b6040516101fb919061127f565b60405180910390f35b34801561021057600080fd5b5061022b600480360381019061022691906112c6565b610855565b005b61024760048036038101906102429190610e9b565b6108a1565b005b34801561025557600080fd5b5061025e610b6f565b60405161026b919061127f565b60405180910390f35b34801561028057600080fd5b50610289610b75565b6040516102969190611314565b60405180910390f35b3480156102ab57600080fd5b506102c660048036038101906102c191906112c6565b610b9b565b005b3480156102d457600080fd5b506102dd610c1e565b6040516102ea919061127f565b60405180910390f35b6102fb610c24565b600047905060008111610343576040517f08c379a000000000000000000000000000000000000000000000000000000000815260040161033a9061137b565b60405180910390fd5b60008273ffffffffffffffffffffffffffffffffffffffff1682604051610369906113cc565b60006040518083038185875af1925050503d80600081146103a6576040519150601f19603f3d011682016040523d82523d6000602084013e6103ab565b606091505b50509050806103ef576040517f08c379a00000000000000000000000000000000000000000000000000000000081526004016103e69061142d565b60405180910390fd5b505050565b60026020528060005260406000206000915090508060000160009054906101000a900473ffffffffffffffffffffffffffffffffffffffff169080600101805461043d9061147c565b80601f01602080910402602001604051908101604052809291908181526020018280546104699061147c565b80156104b65780601f1061048b576101008083540402835291602001916104b6565b820191906000526020600020905b81548152906001019060200180831161049957829003601f168201915b5050505050908060020154908060030154908060040160009054906101000a900460ff16905085565b600460009054906101000a900473ffffffffffffffffffffffffffffffffffffffff1681565b61050d610c24565b6105176000610ca2565b565b813373ffffffffffffffffffffffffffffffffffffffff166002600083815260200190815260200160002060000160009054906101000a900473ffffffffffffffffffffffffffffffffffffffff1673ffffffffffffffffffffffffffffffffffffffff16146105be576040517f08c379a00000000000000000000000000000000000000000000000000000000081526004016105b5906114f9565b60405180910390fd5b6002600084815260200190815260200160002060040160009054906101000a900460ff16610621576040517f08c379a000000000000000000000000000000000000000000000000000000000815260040161061890611565565b60405180910390fd5b816002600085815260200190815260200160002060010190816106449190611727565b50600160026000858152602001908152602001600020600301600082825461066c9190611828565b92505081905550827f455f5080ea871516dbe991ffb2aac99192d5576c203a72f70d9d058738cb19158360026000878152602001908152602001600020600301546040516106bb92919061185c565b60405180910390a2505050565b60008060009054906101000a900473ffffffffffffffffffffffffffffffffffffffff16905090565b6000600360008154809291906107069061188c565b9190505550600060035490506040518060a001604052803373ffffffffffffffffffffffffffffffffffffffff16815260200185815260200184815260200160018152602001600115158152506002600083815260200190815260200160002060008201518160000160006101000a81548173ffffffffffffffffffffffffffffffffffffffff021916908373ffffffffffffffffffffffffffffffffffffffff16021790555060208201518160010190816107c29190611727565b50604082015181600201556060820151816003015560808201518160040160006101000a81548160ff0219169083151502179055509050503373ffffffffffffffffffffffffffffffffffffffff16817f2be1c5d2278ddb605afb5a365609f8c1d2a8ab9a4e0491a4c7995c65f52dceb2868660405161084392919061185c565b60405180910390a38091505092915050565b61085d610c24565b80600560006101000a81548173ffffffffffffffffffffffffffffffffffffffff021916908373ffffffffffffffffffffffffffffffffffffffff16021790555050565b6108a9610d66565b6002600082815260200190815260200160002060040160009054906101000a900460ff1661090c576040517f08c379a000000000000000000000000000000000000000000000000000000000815260040161090390611565565b60405180910390fd5b6000600260008381526020019081526020016000206002015490508034101561096a576040517f08c379a000000000000000000000000000000000000000000000000000000000815260040161096190611920565b60405180910390fd5b60006002600084815260200190815260200160002060000160009054906101000a900473ffffffffffffffffffffffffffffffffffffffff16905060008173ffffffffffffffffffffffffffffffffffffffff16836040516109cb906113cc565b60006040518083038185875af1925050503d8060008114610a08576040519150601f19603f3d011682016040523d82523d6000602084013e610a0d565b606091505b5050905080610a51576040517f08c379a0000000000000000000000000000000000000000000000000000000008152600401610a489061198c565b60405180910390fd5b3373ffffffffffffffffffffffffffffffffffffffff16847fb5d54ea46e4c298281d5e6ccd4df1ac37f8d49fa68ba9984d1677d046025bb1185604051610a98919061127f565b60405180910390a382341115610b615760003373ffffffffffffffffffffffffffffffffffffffff168434610acd91906119ac565b604051610ad9906113cc565b60006040518083038185875af1925050503d8060008114610b16576040519150601f19603f3d011682016040523d82523d6000602084013e610b1b565b606091505b5050905080610b5f576040517f08c379a0000000000000000000000000000000000000000000000000000000008152600401610b5690611a2c565b60405180910390fd5b505b505050610b6c610db5565b50565b60035481565b600560009054906101000a900473ffffffffffffffffffffffffffffffffffffffff1681565b610ba3610c24565b600073ffffffffffffffffffffffffffffffffffffffff168173ffffffffffffffffffffffffffffffffffffffff1603610c12576040517f08c379a0000000000000000000000000000000000000000000000000000000008152600401610c0990611abe565b60405180910390fd5b610c1b81610ca2565b50565b60065481565b610c2c610dbe565b73ffffffffffffffffffffffffffffffffffffffff16610c4a6106c8565b73ffffffffffffffffffffffffffffffffffffffff1614610ca0576040517f08c379a0000000000000000000000000000000000000000000000000000000008152600401610c9790611b2a565b60405180910390fd5b565b60008060009054906101000a900473ffffffffffffffffffffffffffffffffffffffff169050816000806101000a81548173ffffffffffffffffffffffffffffffffffffffff021916908373ffffffffffffffffffffffffffffffffffffffff1602179055508173ffffffffffffffffffffffffffffffffffffffff168173ffffffffffffffffffffffffffffffffffffffff167f8be0079c531659141344cd1fd0a4f28419497f9722a3daafe3b4186f6b6457e060405160405180910390a35050565b600260015403610dab576040517f08c379a0000000000000000000000000000000000000000000000000000000008152600401610da290611b96565b60405180910390fd5b6002600181905550565b60018081905550565b600033905090565b6000604051905090565b600080fd5b600080fd5b600073ffffffffffffffffffffffffffffffffffffffff82169050919050565b6000610e0582610dda565b9050919050565b610e1581610dfa565b8114610e2057600080fd5b50565b600081359050610e3281610e0c565b92915050565b600060208284031215610e4e57610e4d610dd0565b5b6000610e5c84828501610e23565b91505092915050565b6000819050919050565b610e7881610e65565b8114610e8357600080fd5b50565b600081359050610e9581610e6f565b92915050565b600060208284031215610eb157610eb0610dd0565b5b6000610ebf84828501610e86565b91505092915050565b6000610ed382610dda565b9050919050565b610ee381610ec8565b82525050565b600081519050919050565b600082825260208201905092915050565b60005b83811015610f23578082015181840152602081019050610f08565b60008484015250505050565b6000601f19601f8301169050919050565b6000610f4b82610ee9565b610f558185610ef4565b9350610f65818560208601610f05565b610f6e81610f2f565b840191505092915050565b610f8281610e65565b82525050565b60008115159050919050565b610f9d81610f88565b82525050565b600060a082019050610fb86000830188610eda565b8181036020830152610fca8187610f40565b9050610fd96040830186610f79565b610fe66060830185610f79565b610ff36080830184610f94565b9695505050505050565b6000819050919050565b600061102261101d61101884610dda565b610ffd565b610dda565b9050919050565b600061103482611007565b9050919050565b600061104682611029565b9050919050565b6110568161103b565b82525050565b6000602082019050611071600083018461104d565b92915050565b600080fd5b600080fd5b7f4e487b7100000000000000000000000000000000000000000000000000000000600052604160045260246000fd5b6110b982610f2f565b810181811067ffffffffffffffff821117156110d8576110d7611081565b5b80604052505050565b60006110eb610dc6565b90506110f782826110b0565b919050565b600067ffffffffffffffff82111561111757611116611081565b5b61112082610f2f565b9050602081019050919050565b82818337600083830152505050565b600061114f61114a846110fc565b6110e1565b90508281526020810184848401111561116b5761116a61107c565b5b61117684828561112d565b509392505050565b600082601f83011261119357611192611077565b5b81356111a384826020860161113c565b91505092915050565b600080604083850312156111c3576111c2610dd0565b5b60006111d185828601610e86565b925050602083013567ffffffffffffffff8111156111f2576111f1610dd5565b5b6111fe8582860161117e565b9150509250929050565b600060208201905061121d6000830184610eda565b92915050565b6000806040838503121561123a57611239610dd0565b5b600083013567ffffffffffffffff81111561125857611257610dd5565b5b6112648582860161117e565b925050602061127585828601610e86565b9150509250929050565b60006020820190506112946000830184610f79565b92915050565b6112a381610ec8565b81146112ae57600080fd5b50565b6000813590506112c08161129a565b92915050565b6000602082840312156112dc576112db610dd0565b5b60006112ea848285016112b1565b91505092915050565b60006112fe82611029565b9050919050565b61130e816112f3565b82525050565b60006020820190506113296000830184611305565b92915050565b7f6e6f2062616c616e636500000000000000000000000000000000000000000000600082015250565b6000611365600a83610ef4565b91506113708261132f565b602082019050919050565b6000602082019050818103600083015261139481611358565b9050919050565b600081905092915050565b50565b60006113b660008361139b565b91506113c1826113a6565b600082019050919050565b60006113d7826113a9565b9150819050919050565b7f7769746864726177206661696c65640000000000000000000000000000000000600082015250565b6000611417600f83610ef4565b9150611422826113e1565b602082019050919050565b600060208201905081810360008301526114468161140a565b9050919050565b7f4e487b7100000000000000000000000000000000000000000000000000000000600052602260045260246000fd5b6000600282049050600182168061149457607f821691505b6020821081036114a7576114a661144d565b5b50919050565b7f6e6f742075706c6f616465720000000000000000000000000000000000000000600082015250565b60006114e3600c83610ef4565b91506114ee826114ad565b602082019050919050565b60006020820190508181036000830152611512816114d6565b9050919050565b7f6d6f64656c206e6f7420666f756e640000000000000000000000000000000000600082015250565b600061154f600f83610ef4565b915061155a82611519565b602082019050919050565b6000602082019050818103600083015261157e81611542565b9050919050565b60008190508160005260206000209050919050565b60006020601f8301049050919050565b600082821b905092915050565b6000600883026115e77fffffffffffffffffffffffffffffffffffffffffffffffffffffffffffffffff826115aa565b6115f186836115aa565b95508019841693508086168417925050509392505050565b600061162461161f61161a84610e65565b610ffd565b610e65565b9050919050565b6000819050919050565b61163e83611609565b61165261164a8261162b565b8484546115b7565b825550505050565b600090565b61166761165a565b611672818484611635565b505050565b5b818110156116965761168b60008261165f565b600181019050611678565b5050565b601f8211156116db576116ac81611585565b6116b58461159a565b810160208510156116c4578190505b6116d86116d08561159a565b830182611677565b50505b505050565b600082821c905092915050565b60006116fe600019846008026116e0565b1980831691505092915050565b600061171783836116ed565b9150826002028217905092915050565b61173082610ee9565b67ffffffffffffffff81111561174957611748611081565b5b611753825461147c565b61175e82828561169a565b600060209050601f831160018114611791576000841561177f578287015190505b611789858261170b565b8655506117f1565b601f19841661179f86611585565b60005b828110156117c7578489015182556001820191506020850194506020810190506117a2565b868310156117e457848901516117e0601f8916826116ed565b8355505b6001600288020188555050505b505050505050565b7f4e487b7100000000000000000000000000000000000000000000000000000000600052601160045260246000fd5b600061183382610e65565b915061183e83610e65565b9250828201905080821115611856576118556117f9565b5b92915050565b600060408201905081810360008301526118768185610f40565b90506118856020830184610f79565b9392505050565b600061189782610e65565b91507fffffffffffffffffffffffffffffffffffffffffffffffffffffffffffffffff82036118c9576118c86117f9565b5b600182019050919050565b7f696e73756666696369656e742066756e64730000000000000000000000000000600082015250565b600061190a601283610ef4565b9150611915826118d4565b602082019050919050565b60006020820190508181036000830152611939816118fd565b9050919050565b7f7472616e73666572206661696c65640000000000000000000000000000000000600082015250565b6000611976600f83610ef4565b915061198182611940565b602082019050919050565b600060208201905081810360008301526119a581611969565b9050919050565b60006119b782610e65565b91506119c283610e65565b92508282039050818111156119da576119d96117f9565b5b92915050565b7f726566756e64206661696c656400000000000000000000000000000000000000600082015250565b6000611a16600d83610ef4565b9150611a21826119e0565b602082019050919050565b60006020820190508181036000830152611a4581611a09565b9050919050565b7f4f776e61626c653a206e6577206f776e657220697320746865207a65726f206160008201527f6464726573730000000000000000000000000000000000000000000000000000602082015250565b6000611aa8602683610ef4565b9150611ab382611a4c565b604082019050919050565b60006020820190508181036000830152611ad781611a9b565b9050919050565b7f4f776e61626c653a2063616c6c6572206973206e6f7420746865206f776e6572600082015250565b6000611b14602083610ef4565b9150611b1f82611ade565b602082019050919050565b60006020820190508181036000830152611b4381611b07565b9050919050565b7f5265656e7472616e637947756172643a207265656e7472616e742063616c6c00600082015250565b6000611b80601f83610ef4565b9150611b8b82611b4a565b602082019050919050565b60006020820190508181036000830152611baf81611b73565b905091905056fea2646970667358221220ff69b5a21bf1e2a95861348c90d333a071f0258ef297284f7b4a99293c078c4964736f6c63430008140033",
  "linkReferences": {},
  "deployedLinkReferences": {}
}