{
  "_format": "hh-sol-artifact-1",
  "contractName": "VaultNet",
  "sourceName": "contracts/vaultnet.sol",
  "abi": [
    {
      "inputs": [
        {
          "internalType": "address",
          "name": "managerAddr",
          "type": "address"
        },
        {
          "internalType": "uint256",
          "name": "_rewardTemplateId",
          "type": "uint256"
        },
        {
          "internalType": "address",
          "name": "initialOwner",
          "type": "address"
        }
      ],
      "stateMutability": "nonpayable",
      "type": "constructor"
    },
    {
      "anonymous": false,
      "inputs": [
        {
          "indexed": true,
          "internalType": "uint256",
          "name": "modelId",
          "type": "uint256"
        },
        {
          "indexed": true,
          "internalType": "address",
          "name": "buyer",
          "type": "address"
        },
        {
          "indexed": false,
          "internalType": "uint256",
          "name": "price",
          "type": "uint256"
        }
      ],
      "name": "ModelPurchased",
      "type": "event"
    },
    {
      "anonymous": false,
      "inputs": [
        {
          "indexed": true,
          "internalType": "uint256",
          "name": "modelId",
          "type": "uint256"
        },
        {
          "indexed": false,
          "internalType": "string",
          "name": "newCid",
          "type": "string"
        },
        {
          "indexed": false,
          "internalType": "uint256",
          "name": "newVersion",
          "type": "uint256"
        }
      ],
      "name": "ModelUpdated",
      "type": "event"
    },
    {
      "anonymous": false,
      "inputs": [
        {
          "indexed": true,
          "internalType": "uint256",
          "name": "modelId",
          "type": "uint256"
        },
        {
          "indexed": true,
          "internalType": "address",
          "name": "uploader",
          "type": "address"
        },
        {
          "indexed": false,
          "internalType": "string",
          "name": "cid",
          "type": "string"
        },
        {
          "indexed": false,
          "internalType": "uint256",
          "name": "price",
          "type": "uint256"
        }
      ],
      "name": "ModelUploaded",
      "type": "event"
    },
    {
      "anonymous": false,
      "inputs": [
        {
          "indexed": true,
          "internalType": "address",
          "name": "previousOwner",
          "type": "address"
        },
        {
          "indexed": true,
          "internalType": "address",
          "name": "newOwner",
          "type": "address"
        }
      ],
      "name": "OwnershipTransferred",
      "type": "event"
    },
    {
      "inputs": [
        {
          "internalType": "uint256",
          "name": "modelId",
          "type": "uint256"
        }
      ],
      "name": "buyModel",
      "outputs": [],
      "stateMutability": "payable",
      "type": "function"
    },
    {
      "inputs": [],
      "name": "fragmentManager",
      "outputs": [
        {
          "internalType": "contract IFragmentManager",
          "name": "",
          "type": "address"
        }
      ],
      "stateMutability": "view",
      "type": "function"
    },
    {
      "inputs": [],
      "name": "modelCounter",
      "outputs": [
        {
          "internalType": "uint256",
          "name": "",
          "type": "uint256"
        }
      ],
      "stateMutability": "view",
      "type": "function"
    },
    {
      "inputs": [
        {
          "internalType": "uint256",
          "name": "",
          "type": "uint256"
        }
      ],
      "name": "models",
      "outputs": [
        {
          "internalType": "address",
          "name": "uploader",
          "type": "address"
        },
        {
          "internalType": "string",
          "name": "cid",
          "type": "string"
        },
        {
          "internalType": "uint256",
          "name": "price",
          "type": "uint256"
        },
        {
          "internalType": "uint256",
          "name": "version",
          "type": "uint256"
        },
        {
          "internalType": "bool",
          "name": "exists",
          "type": "bool"
        }
      ],
      "stateMutability": "view",
      "type": "function"
    },
    {
      "inputs": [],
      "name": "owner",
      "outputs": [
        {
          "internalType": "address",
          "name": "",
          "type": "address"
        }
      ],
      "stateMutability": "view",
      "type": "function"
    },
    {
      "inputs": [],
      "name": "renounceOwnership",
      "outputs": [],
      "stateMutability": "nonpayable",
      "type": "function"
    },
    {
      "inputs": [],
      "name": "rewardTemplateId",
      "outputs": [
        {
          "internalType": "uint256",
          "name": "",
          "type": "uint256"
        }
      ],
      "stateMutability": "view",
      "type": "function"
    },
    {
      "inputs": [
        {
          "internalType": "address",
          "name": "newManager",
          "type": "address"
        }
      ],
      "name": "setFragmentManager",
      "outputs": [],
      "stateMutability": "nonpayable",
      "type": "function"
    },
    {
      "inputs": [
        {
          "internalType": "address",
          "name": "newOwner",
          "type": "address"
        }
      ],
      "name": "transferOwnership",
      "outputs": [],
      "stateMutability": "nonpayable",
      "type": "function"
    },
    {
      "inputs": [
        {
          "internalType": "uint256",
          "name": "modelId",
          "type": "uint256"
        },
        {
          "internalType": "string",
          "name": "newCid",
          "type": "string"
        }
      ],
      "name": "updateModel",
      "outputs": [],
      "stateMutability": "nonpayable",
      "type": "function"
    },
    {
      "inputs": [
        {
          "internalType": "string",
          "name": "cid",
          "type": "string"
        },
        {
          "internalType": "uint256",
          "name": "price",
          "type": "uint256"
        }
      ],
      "name": "uploadModel",
      "outputs": [
        {
          "internalType": "uint256",
          "name": "",
          "type": "uint256"
        }
      ],
      "stateMutability": "nonpayable",
      "type": "function"
    },
    {
      "inputs": [],
      "name": "vaultToken",
      "outputs": [
        {
          "internalType": "contract IERC20",
          "name": "",
          "type": "address"
        }
      ],
      "stateMutability": "view",
      "type": "function"
    },
    {
      "inputs": [
        {
          "internalType": "address payable",
          "name": "to",
          "type": "address"
        }
      ],
      "name": "withdraw",
      "outputs": [],
      "stateMutability": "nonpayable",
      "type": "function"
    }
  ],
  "bytecode": "0x60806040523480156200001157600080fd5b506040516200220638038062002206833981810160405281019062000037919062000381565b620000576200004b620000c060201b60201c565b620000c860201b60201c565b6001808190555082600560006101000a81548173ffffffffffffffffffffffffffffffffffffffff021916908373ffffffffffffffffffffffffffffffffffffffff16021790555081600681905550620000b7816200018c60201b60201c565b505050620004f8565b600033905090565b60008060009054906101000a900473ffffffffffffffffffffffffffffffffffffffff169050816000806101000a81548173ffffffffffffffffffffffffffffffffffffffff021916908373ffffffffffffffffffffffffffffffffffffffff1602179055508173ffffffffffffffffffffffffffffffffffffffff168173ffffffffffffffffffffffffffffffffffffffff167f8be0079c531659141344cd1fd0a4f28419497f9722a3daafe3b4186f6b6457e060405160405180910390a35050565b6200019c6200022260201b60201c565b600073ffffffffffffffffffffffffffffffffffffffff168173ffffffffffffffffffffffffffffffffffffffff16036200020e576040517f08c379a0000000000000000000000000000000000000000000000000000000008152600401620002059062000464565b60405180910390fd5b6200021f81620000c860201b60201c565b50565b62000232620000c060201b60201c565b73ffffffffffffffffffffffffffffffffffffffff1662000258620002b360201b60201c565b73ffffffffffffffffffffffffffffffffffffffff1614620002b1576040517f08c379a0000000000000000000000000000000000000000000000000000000008152600401620002a890620004d6565b60405180910390fd5b565b60008060009054906101000a900473ffffffffffffffffffffffffffffffffffffffff16905090565b600080fd5b600073ffffffffffffffffffffffffffffffffffffffff82169050919050565b60006200030e82620002e1565b9050919050565b620003208162000301565b81146200032c57600080fd5b50565b600081519050620003408162000315565b92915050565b6000819050919050565b6200035b8162000346565b81146200036757600080fd5b50565b6000815190506200037b8162000350565b92915050565b6000806000606084860312156200039d576200039c620002dc565b5b6000620003ad868287016200032f565b9350506020620003c0868287016200036a565b9250506040620003d3868287016200032f565b9150509250925092565b600082825260208201905092915050565b7f4f776e61626c653a206e6577206f776e657220697320746865207a65726f206160008201527f6464726573730000000000000000000000000000000000000000000000000000602082015250565b60006200044c602683620003dd565b91506200045982620003ee565b604082019050919050565b600060208201905081810360008301526200047f816200043d565b9050919050565b7f4f776e61626c653a2063616c6c6572206973206e6f7420746865206f776e6572600082015250565b6000620004be602083620003dd565b9150620004cb8262000486565b602082019050919050565b60006020820190508181036000830152620004f181620004af565b9050919050565b611cfe80620005086000396000f3fe6080604052600436106100c25760003560e01c8063923f5a591161007f578063cc408b8a11610059578063cc408b8a14610249578063eeb7cfa314610274578063f2fde38b1461029f578063fbe5dd34146102c8576100c2565b8063923f5a59146101c7578063bcbd468414610204578063bf6a6fc11461022d576100c2565b806351cff8d9146100c75780636a030ca9146100f0578063703bafd514610131578063715018a61461015c5780638916af42146101735780638da5cb5b1461019c575b600080fd5b3480156100d357600080fd5b506100ee60048036038101906100e99190610ed8565b6102f3565b005b3480156100fc57600080fd5b5061011760048036038101906101129190610f3b565b6103f4565b604051610128959493929190611043565b60405180910390f35b34801561013d57600080fd5b506101466104df565b60405161015391906110fc565b60405180910390f35b34801561016857600080fd5b50610171610505565b005b34801561017f57600080fd5b5061019a6004803603810190610195919061124c565b610519565b005b3480156101a857600080fd5b506101b16106c8565b6040516101be91906112a8565b60405180910390f35b3480156101d357600080fd5b506101ee60048036038101906101e991906112c3565b6106f1565b6040516101fb919061131f565b60405180910390f35b34801561021057600080fd5b5061022b60048036038101906102269190611366565b6108f5565b005b61024760048036038101906102429190610f3b565b610941565b005b34801561025557600080fd5b5061025e610c0f565b60405161026b919061131f565b60405180910390f35b34801561028057600080fd5b50610289610c15565b60405161029691906113b4565b60405180910390f35b3480156102ab57600080fd5b506102c660048036038101906102c19190611366565b610c3b565b005b3480156102d457600080fd5b506102dd610cbe565b6040516102ea919061131f565b60405180910390f35b6102fb610cc4565b600047905060008111610343576040517f08c379a000000000000000000000000000000000000000000000000000000000815260040161033a9061141b565b60405180910390fd5b60008273ffffffffffffffffffffffffffffffffffffffff16826040516103699061146c565b60006040518083038185875af1925050503d80600081146103a6576040519150601f19603f3d011682016040523d82523d6000602084013e6103ab565b606091505b50509050806103ef576040517f08c379a00000000000000000000000000000000000000000000000000000000081526004016103e6906114cd565b60405180910390fd5b505050565b60026020528060005260406000206000915090508060000160009054906101000a900473ffffffffffffffffffffffffffffffffffffffff169080600101805461043d9061151c565b80601f01602080910402602001604051908101604052809291908181526020018280546104699061151c565b80156104b65780601f1061048b576101008083540402835291602001916104b6565b820191906000526020600020905b81548152906001019060200180831161049957829003601f168201915b5050505050908060020154908060030154908060040160009054906101000a900460ff16905085565b600460009054906101000a900473ffffffffffffffffffffffffffffffffffffffff1681565b61050d610cc4565b6105176000610d42565b565b813373ffffffffffffffffffffffffffffffffffffffff166002600083815260200190815260200160002060000160009054906101000a900473ffffffffffffffffffffffffffffffffffffffff1673ffffffffffffffffffffffffffffffffffffffff16146105be576040517f08c379a00000000000000000000000000000000000000000000000000000000081526004016105b590611599565b60405180910390fd5b6002600084815260200190815260200160002060040160009054906101000a900460ff16610621576040517f08c379a000000000000000000000000000000000000000000000000000000000815260040161061890611605565b60405180910390fd5b8160026000858152602001908152602001600020600101908161064491906117c7565b50600160026000858152602001908152602001600020600301600082825461066c91906118c8565b92505081905550827f455f5080ea871516dbe991ffb2aac99192d5576c203a72f70d9d058738cb19158360026000878152602001908152602001600020600301546040516106bb9291906118fc565b60405180910390a2505050565b60008060009054906101000a900473ffffffffffffffffffffffffffffffffffffffff16905090565b6000600360008154809291906107069061192c565b9190505550600060035490506040518060a001604052803373ffffffffffffffffffffffffffffffffffffffff16815260200185815260200184815260200160018152602001600115158152506002600083815260200190815260200160002060008201518160000160006101000a81548173ffffffffffffffffffffffffffffffffffffffff021916908373ffffffffffffffffffffffffffffffffffffffff16021790555060208201518160010190816107c291906117c7565b50604082015181600201556060820151816003015560808201518160040160006101000a81548160ff0219169083151502179055509050503373ffffffffffffffffffffffffffffffffffffffff16817f2be1c5d2278ddb605afb5a365609f8c1d2a8ab9a4e0491a4c7995c65f52dceb286866040516108439291906118fc565b60405180910390a3600560009054906101000a900473ffffffffffffffffffffffffffffffffffffffff1673ffffffffffffffffffffffffffffffffffffffff166348441be733866040518363ffffffff1660e01b81526004016108a8929190611974565b6020604051808303816000875af19250505080156108e457506040513d601f19601f820116820180604052508101906108e191906119b9565b60015b156108eb57505b8091505092915050565b6108fd610cc4565b80600560006101000a81548173ffffffffffffffffffffffffffffffffffffffff021916908373ffffffffffffffffffffffffffffffffffffffff16021790555050565b610949610e06565b6002600082815260200190815260200160002060040160009054906101000a900460ff166109ac576040517f08c379a00000000000000000000000000000000000000000000000000000000081526004016109a390611605565b60405180910390fd5b60006002600083815260200190815260200160002060020154905080341015610a0a576040517f08c379a0000000000000000000000000000000000000000000000000000000008152600401610a0190611a32565b60405180910390fd5b60006002600084815260200190815260200160002060000160009054906101000a900473ffffffffffffffffffffffffffffffffffffffff16905060008173ffffffffffffffffffffffffffffffffffffffff1683604051610a6b9061146c565b60006040518083038185875af1925050503d8060008114610aa8576040519150601f19603f3d011682016040523d82523d6000602084013e610aad565b606091505b5050905080610af1576040517f08c379a0000000000000000000000000000000000000000000000000000000008152600401610ae890611a9e565b60405180910390fd5b3373ffffffffffffffffffffffffffffffffffffffff16847fb5d54ea46e4c298281d5e6ccd4df1ac37f8d49fa68ba9984d1677d046025bb1185604051610b38919061131f565b60405180910390a382341115610c015760003373ffffffffffffffffffffffffffffffffffffffff168434610b6d9190611abe565b604051610b799061146c565b60006040518083038185875af1925050503d8060008114610bb6576040519150601f19603f3d011682016040523d82523d6000602084013e610bbb565b606091505b5050905080610bff576040517f08c379a0000000000000000000000000000000000000000000000000000000008152600401610bf690611b3e565b60405180910390fd5b505b505050610c0c610e55565b50565b60035481565b600560009054906101000a900473ffffffffffffffffffffffffffffffffffffffff1681565b610c43610cc4565b600073ffffffffffffffffffffffffffffffffffffffff168173ffffffffffffffffffffffffffffffffffffffff1603610cb2576040517f08c379a0000000000000000000000000000000000000000000000000000000008152600401610ca990611bd0565b60405180910390fd5b610cbb81610d42565b50565b60065481565b610ccc610e5e565b73ffffffffffffffffffffffffffffffffffffffff16610cea6106c8565b73ffffffffffffffffffffffffffffffffffffffff1614610d40576040517f08c379a0000000000000000000000000000000000000000000000000000000008152600401610d3790611c3c565b60405180910390fd5b565b60008060009054906101000a900473ffffffffffffffffffffffffffffffffffffffff169050816000806101000a81548173ffffffffffffffffffffffffffffffffffffffff021916908373ffffffffffffffffffffffffffffffffffffffff1602179055508173ffffffffffffffffffffffffffffffffffffffff168173ffffffffffffffffffffffffffffffffffffffff167f8be0079c531659141344cd1fd0a4f28419497f9722a3daafe3b4186f6b6457e060405160405180910390a35050565b600260015403610e4b576040517f08c379a0000000000000000000000000000000000000000000000000000000008152600401610e4290611ca8565b60405180910390fd5b6002600181905550565b60018081905550565b600033905090565b6000604051905090565b600080fd5b600080fd5b600073ffffffffffffffffffffffffffffffffffffffff82169050919050565b6000610ea582610e7a565b9050919050565b610eb581610e9a565b8114610ec057600080fd5b50565b600081359050610ed281610eac565b92915050565b600060208284031215610eee57610eed610e70565b5b6000610efc84828501610ec3565b91505092915050565b6000819050919050565b610f1881610f05565b8114610f2357600080fd5b50565b600081359050610f3581610f0f565b92915050565b600060208284031215610f5157610f50610e70565b5b6000610f5f84828501610f26565b91505092915050565b6000610f7382610e7a565b9050919050565b610f8381610f68565b82525050565b600081519050919050565b600082825260208201905092915050565b60005b83811015610fc3578082015181840152602081019050610fa8565b60008484015250505050565b6000601f19601f8301169050919050565b6000610feb82610f89565b610ff58185610f94565b9350611005818560208601610fa5565b61100e81610fcf565b840191505092915050565b61102281610f05565b82525050565b60008115159050919050565b61103d81611028565b82525050565b600060a0820190506110586000830188610f7a565b818103602083015261106a8187610fe0565b90506110796040830186611019565b6110866060830185611019565b6110936080830184611034565b9695505050505050565b6000819050919050565b60006110c26110bd6110b884610e7a565b61109d565b610e7a565b9050919050565b60006110d4826110a7565b9050919050565b60006110e6826110c9565b9050919050565b6110f6816110db565b82525050565b600060208201905061111160008301846110ed565b92915050565b600080fd5b600080fd5b7f4e487b7100000000000000000000000000000000000000000000000000000000600052604160045260246000fd5b61115982610fcf565b810181811067ffffffffffffffff8211171561117857611177611121565b5b80604052505050565b600061118b610e66565b90506111978282611150565b919050565b600067ffffffffffffffff8211156111b7576111b6611121565b5b6111c082610fcf565b9050602081019050919050565b82818337600083830152505050565b60006111ef6111ea8461119c565b611181565b90508281526020810184848401111561120b5761120a61111c565b5b6112168482856111cd565b509392505050565b600082601f83011261123357611232611117565b5b81356112438482602086016111dc565b91505092915050565b6000806040838503121561126357611262610e70565b5b600061127185828601610f26565b925050602083013567ffffffffffffffff81111561129257611291610e75565b5b61129e8582860161121e565b9150509250929050565b60006020820190506112bd6000830184610f7a565b92915050565b600080604083850312156112da576112d9610e70565b5b600083013567ffffffffffffffff8111156112f8576112f7610e75565b5b6113048582860161121e565b925050602061131585828601610f26565b9150509250929050565b60006020820190506113346000830184611019565b92915050565b61134381610f68565b811461134e57600080fd5b50565b6000813590506113608161133a565b92915050565b60006020828403121561137c5761137b610e70565b5b600061138a84828501611351565b91505092915050565b600061139e826110c9565b9050919050565b6113ae81611393565b82525050565b60006020820190506113c960008301846113a5565b92915050565b7f6e6f2062616c616e636500000000000000000000000000000000000000000000600082015250565b6000611405600a83610f94565b9150611410826113cf565b602082019050919050565b60006020820190508181036000830152611434816113f8565b9050919050565b600081905092915050565b50565b600061145660008361143b565b915061146182611446565b600082019050919050565b600061147782611449565b9150819050919050565b7f7769746864726177206661696c65640000000000000000000000000000000000600082015250565b60006114b7600f83610f94565b91506114c282611481565b602082019050919050565b600060208201905081810360008301526114e6816114aa565b9050919050565b7f4e487b7100000000000000000000000000000000000000000000000000000000600052602260045260246000fd5b6000600282049050600182168061153457607f821691505b602082108103611547576115466114ed565b5b50919050565b7f6e6f742075706c6f616465720000000000000000000000000000000000000000600082015250565b6000611583600c83610f94565b915061158e8261154d565b602082019050919050565b600060208201905081810360008301526115b281611576565b9050919050565b7f6d6f64656c206e6f7420666f756e640000000000000000000000000000000000600082015250565b60006115ef600f83610f94565b91506115fa826115b9565b602082019050919050565b6000602082019050818103600083015261161e816115e2565b9050919050565b60008190508160005260206000209050919050565b60006020601f8301049050919050565b600082821b905092915050565b6000600883026116877fffffffffffffffffffffffffffffffffffffffffffffffffffffffffffffffff8261164a565b611691868361164a565b95508019841693508086168417925050509392505050565b60006116c46116bf6116ba84610f05565b61109d565b610f05565b9050919050565b6000819050919050565b6116de836116a9565b6116f26116ea826116cb565b848454611657565b825550505050565b600090565b6117076116fa565b6117128184846116d5565b505050565b5b818110156117365761172b6000826116ff565b600181019050611718565b5050565b601f82111561177b5761174c81611625565b6117558461163a565b81016020851015611764578190505b6117786117708561163a565b830182611717565b50505b505050565b600082821c905092915050565b600061179e60001984600802611780565b1980831691505092915050565b60006117b7838361178d565b9150826002028217905092915050565b6117d082610f89565b67ffffffffffffffff8111156117e9576117e8611121565b5b6117f3825461151c565b6117fe82828561173a565b600060209050601f831160018114611831576000841561181f578287015190505b61182985826117ab565b865550611891565b601f19841661183f86611625565b60005b8281101561186757848901518255600182019150602085019450602081019050611842565b868310156118845784890151611880601f89168261178d565b8355505b6001600288020188555050505b505050505050565b7f4e487b7100000000000000000000000000000000000000000000000000000000600052601160045260246000fd5b60006118d382610f05565b91506118de83610f05565b92508282019050808211156118f6576118f5611899565b5b92915050565b600060408201905081810360008301526119168185610fe0565b90506119256020830184611019565b9392505050565b600061193782610f05565b91507fffffffffffffffffffffffffffffffffffffffffffffffffffffffffffffffff820361196957611968611899565b5b600182019050919050565b60006040820190506119896000830185610f7a565b818103602083015261199b8184610fe0565b90509392505050565b6000815190506119b381610f0f565b92915050565b6000602082840312156119cf576119ce610e70565b5b60006119dd848285016119a4565b91505092915050565b7f696e73756666696369656e742066756e64730000000000000000000000000000600082015250565b6000611a1c601283610f94565b9150611a27826119e6565b602082019050919050565b60006020820190508181036000830152611a4b81611a0f565b9050919050565b7f7472616e73666572206661696c65640000000000000000000000000000000000600082015250565b6000611a88600f83610f94565b9150611a9382611a52565b602082019050919050565b60006020820190508181036000830152611ab781611a7b565b9050919050565b6000611ac982610f05565b9150611ad483610f05565b9250828203905081811115611aec57611aeb611899565b5b92915050565b7f726566756e64206661696c656400000000000000000000000000000000000000600082015250565b6000611b28600d83610f94565b9150611b3382611af2565b602082019050919050565b60006020820190508181036000830152611b5781611b1b565b9050919050565b7f4f776e61626c653a206e6577206f776e657220697320746865207a65726f206160008201527f6464726573730000000000000000000000000000000000000000000000000000602082015250565b6000611bba602683610f94565b9150611bc582611b5e565b604082019050919050565b60006020820190508181036000830152611be981611bad565b9050919050565b7f4f776e61626c653a2063616c6c6572206973206e6f7420746865206f776e6572600082015250565b6000611c26602083610f94565b9150611c3182611bf0565b602082019050919050565b60006020820190508181036000830152611c5581611c19565b9050919050565b7f5265656e7472616e637947756172643a207265656e7472616e742063616c6c00600082015250565b6000611c92601f83610f94565b9150611c9d82611c5c565b602082019050919050565b60006020820190508181036000830152611cc181611c85565b905091905056fea2646970667358221220db170d0596a99c6732ec0fabbe3e136993359117e4381f86c56020581e9cee6564736f6c63430008140033",
  "linkReferences": {},
  "deployedLinkReferences": {}
}