{
  "_format": "hh-sol-artifact-1",
  "contractName": "VaultNet",
  "sourceName": "contracts/vaultnet.sol",
  "abi": [
    {
      "inputs": [
        {
          "internalType": "address",
          "name": "managerAddr",
          "type": "address"
        },
        {
          "internalType": "uint256",
          "name": "_rewardTemplateId",
          "type": "uint256"
        },
        {
          "internalType": "address",
          "name": "initialOwner",
          "type": "address"
        }
      ],
      "stateMutability": "nonpayable",
      "type": "constructor"
    },
    {
      "inputs": [
        {
          "internalType": "address",
          "name": "owner",
          "type": "address"
        }
      ],
      "name": "OwnableInvalidOwner",
      "type": "error"
    },
    {
      "inputs": [
        {
          "internalType": "address",
          "name": "account",
          "type": "address"
        }
      ],
      "name": "OwnableUnauthorizedAccount",
      "type": "error"
    },
    {
      "inputs": [],
      "name": "ReentrancyGuardReentrantCall",
      "type": "error"
    },
    {
      "anonymous": false,
      "inputs": [
        {
          "indexed": true,
          "internalType": "address",
          "name": "buyer",
          "type": "address"
        },
        {
          "indexed": true,
          "internalType": "uint256",
          "name": "modelId",
          "type": "uint256"
        },
        {
          "indexed": false,
          "internalType": "uint256",
          "name": "price",
          "type": "uint256"
        }
      ],
      "name": "ModelPurchased",
      "type": "event"
    },
    {
      "anonymous": false,
      "inputs": [
        {
          "indexed": true,
          "internalType": "address",
          "name": "creator",
          "type": "address"
        },
        {
          "indexed": true,
          "internalType": "uint256",
          "name": "modelId",
          "type": "uint256"
        }
      ],
      "name": "ModelUploaded",
      "type": "event"
    },
    {
      "anonymous": false,
      "inputs": [
        {
          "indexed": true,
          "internalType": "address",
          "name": "previousOwner",
          "type": "address"
        },
        {
          "indexed": true,
          "internalType": "address",
          "name": "newOwner",
          "type": "address"
        }
      ],
      "name": "OwnershipTransferred",
      "type": "event"
    },
    {
      "inputs": [
        {
          "internalType": "uint256",
          "name": "modelId",
          "type": "uint256"
        }
      ],
      "name": "buyModel",
      "outputs": [],
      "stateMutability": "payable",
      "type": "function"
    },
    {
      "inputs": [],
      "name": "fragmentManager",
      "outputs": [
        {
          "internalType": "contract FragmentManager",
          "name": "",
          "type": "address"
        }
      ],
      "stateMutability": "view",
      "type": "function"
    },
    {
      "inputs": [],
      "name": "modelCounter",
      "outputs": [
        {
          "internalType": "uint256",
          "name": "",
          "type": "uint256"
        }
      ],
      "stateMutability": "view",
      "type": "function"
    },
    {
      "inputs": [
        {
          "internalType": "uint256",
          "name": "",
          "type": "uint256"
        }
      ],
      "name": "models",
      "outputs": [
        {
          "internalType": "string",
          "name": "name",
          "type": "string"
        },
        {
          "internalType": "string",
          "name": "ipfsHash",
          "type": "string"
        },
        {
          "internalType": "address",
          "name": "creator",
          "type": "address"
        },
        {
          "internalType": "uint256",
          "name": "price",
          "type": "uint256"
        },
        {
          "internalType": "uint256",
          "name": "version",
          "type": "uint256"
        },
        {
          "internalType": "bool",
          "name": "active",
          "type": "bool"
        }
      ],
      "stateMutability": "view",
      "type": "function"
    },
    {
      "inputs": [],
      "name": "owner",
      "outputs": [
        {
          "internalType": "address",
          "name": "",
          "type": "address"
        }
      ],
      "stateMutability": "view",
      "type": "function"
    },
    {
      "inputs": [],
      "name": "renounceOwnership",
      "outputs": [],
      "stateMutability": "nonpayable",
      "type": "function"
    },
    {
      "inputs": [],
      "name": "rewardTemplateId",
      "outputs": [
        {
          "internalType": "uint256",
          "name": "",
          "type": "uint256"
        }
      ],
      "stateMutability": "view",
      "type": "function"
    },
    {
      "inputs": [
        {
          "internalType": "uint256",
          "name": "modelId",
          "type": "uint256"
        },
        {
          "internalType": "uint256",
          "name": "newPrice",
          "type": "uint256"
        }
      ],
      "name": "setModelPrice",
      "outputs": [],
      "stateMutability": "nonpayable",
      "type": "function"
    },
    {
      "inputs": [
        {
          "internalType": "address",
          "name": "newOwner",
          "type": "address"
        }
      ],
      "name": "transferOwnership",
      "outputs": [],
      "stateMutability": "nonpayable",
      "type": "function"
    },
    {
      "inputs": [
        {
          "internalType": "uint256",
          "name": "modelId",
          "type": "uint256"
        },
        {
          "internalType": "string",
          "name": "newHash",
          "type": "string"
        }
      ],
      "name": "updateModel",
      "outputs": [],
      "stateMutability": "nonpayable",
      "type": "function"
    },
    {
      "inputs": [
        {
          "internalType": "string",
          "name": "name",
          "type": "string"
        },
        {
          "internalType": "string",
          "name": "ipfsHash",
          "type": "string"
        }
      ],
      "name": "uploadModel",
      "outputs": [],
      "stateMutability": "nonpayable",
      "type": "function"
    },
    {
      "inputs": [
        {
          "internalType": "address",
          "name": "",
          "type": "address"
        },
        {
          "internalType": "uint256",
          "name": "",
          "type": "uint256"
        }
      ],
      "name": "userModels",
      "outputs": [
        {
          "internalType": "uint256",
          "name": "",
          "type": "uint256"
        }
      ],
      "stateMutability": "view",
      "type": "function"
    }
  ],
  "bytecode": "0x60806040523480156200001157600080fd5b5060405162001b1838038062001b18833981810160405281019062000037919062000280565b80600073ffffffffffffffffffffffffffffffffffffffff168173ffffffffffffffffffffffffffffffffffffffff1603620000ad5760006040517f1e4fbdf7000000000000000000000000000000000000000000000000000000008152600401620000a49190620002ed565b60405180910390fd5b620000be816200011760201b60201c565b506001808190555082600260006101000a81548173ffffffffffffffffffffffffffffffffffffffff021916908373ffffffffffffffffffffffffffffffffffffffff160217905550816003819055505050506200030a565b60008060009054906101000a900473ffffffffffffffffffffffffffffffffffffffff169050816000806101000a81548173ffffffffffffffffffffffffffffffffffffffff021916908373ffffffffffffffffffffffffffffffffffffffff1602179055508173ffffffffffffffffffffffffffffffffffffffff168173ffffffffffffffffffffffffffffffffffffffff167f8be0079c531659141344cd1fd0a4f28419497f9722a3daafe3b4186f6b6457e060405160405180910390a35050565b600080fd5b600073ffffffffffffffffffffffffffffffffffffffff82169050919050565b60006200020d82620001e0565b9050919050565b6200021f8162000200565b81146200022b57600080fd5b50565b6000815190506200023f8162000214565b92915050565b6000819050919050565b6200025a8162000245565b81146200026657600080fd5b50565b6000815190506200027a816200024f565b92915050565b6000806000606084860312156200029c576200029b620001db565b5b6000620002ac868287016200022e565b9350506020620002bf8682870162000269565b9250506040620002d2868287016200022e565b9150509250925092565b620002e78162000200565b82525050565b6000602082019050620003046000830184620002dc565b92915050565b6117fe806200031a6000396000f3fe6080604052600436106100a75760003560e01c80638da5cb5b116100645780638da5cb5b146101bd578063bf6a6fc1146101e8578063cc408b8a14610204578063eeb7cfa31461022f578063f2fde38b1461025a578063fbe5dd3414610283576100a7565b80630f4d2a84146100ac5780632210d31e146100e95780636a030ca9146101125780636ee7339e14610154578063715018a61461017d5780638916af4214610194575b600080fd5b3480156100b857600080fd5b506100d360048036038101906100ce9190610e11565b6102ae565b6040516100e09190610e60565b60405180910390f35b3480156100f557600080fd5b50610110600480360381019061010b9190610e7b565b6102df565b005b34801561011e57600080fd5b5061013960048036038101906101349190610ebb565b610396565b60405161014b96959493929190610fa2565b60405180910390f35b34801561016057600080fd5b5061017b60048036038101906101769190611146565b61050f565b005b34801561018957600080fd5b5061019261077f565b005b3480156101a057600080fd5b506101bb60048036038101906101b691906111be565b610793565b005b3480156101c957600080fd5b506101d26108d0565b6040516101df919061121a565b60405180910390f35b61020260048036038101906101fd9190610ebb565b6108f9565b005b34801561021057600080fd5b50610219610b0f565b6040516102269190610e60565b60405180910390f35b34801561023b57600080fd5b50610244610b15565b6040516102519190611294565b60405180910390f35b34801561026657600080fd5b50610281600480360381019061027c91906112af565b610b3b565b005b34801561028f57600080fd5b50610298610bc1565b6040516102a59190610e60565b60405180910390f35b600560205281600052604060002081815481106102ca57600080fd5b90600052602060002001600091509150505481565b60006004600084815260200190815260200160002090503373ffffffffffffffffffffffffffffffffffffffff168160020160009054906101000a900473ffffffffffffffffffffffffffffffffffffffff1673ffffffffffffffffffffffffffffffffffffffff1614610388576040517f08c379a000000000000000000000000000000000000000000000000000000000815260040161037f90611328565b60405180910390fd5b818160030181905550505050565b60046020528060005260406000206000915090508060000180546103b990611377565b80601f01602080910402602001604051908101604052809291908181526020018280546103e590611377565b80156104325780601f1061040757610100808354040283529160200191610432565b820191906000526020600020905b81548152906001019060200180831161041557829003601f168201915b50505050509080600101805461044790611377565b80601f016020809104026020016040519081016040528092919081815260200182805461047390611377565b80156104c05780601f10610495576101008083540402835291602001916104c0565b820191906000526020600020905b8154815290600101906020018083116104a357829003601f168201915b5050505050908060020160009054906101000a900473ffffffffffffffffffffffffffffffffffffffff16908060030154908060040154908060050160009054906101000a900460ff16905086565b610517610bc7565b60006006600081548092919061052c906113d7565b9190505590506040518060c001604052808481526020018381526020013373ffffffffffffffffffffffffffffffffffffffff1681526020016000815260200160018152602001600115158152506004600083815260200190815260200160002060008201518160000190816105a291906115c1565b5060208201518160010190816105b891906115c1565b5060408201518160020160006101000a81548173ffffffffffffffffffffffffffffffffffffffff021916908373ffffffffffffffffffffffffffffffffffffffff160217905550606082015181600301556080820151816004015560a08201518160050160006101000a81548160ff021916908315150217905550905050600560003373ffffffffffffffffffffffffffffffffffffffff1673ffffffffffffffffffffffffffffffffffffffff168152602001908152602001600020819080600181540180825580915050600190039060005260206000200160009091909190915055803373ffffffffffffffffffffffffffffffffffffffff167fde6bac2e6deb5da93d98e6245539f35c204cf32325ed973588c18b1ae2bd130f60405160405180910390a3600260009054906101000a900473ffffffffffffffffffffffffffffffffffffffff1673ffffffffffffffffffffffffffffffffffffffff1663e408e59a336003546040518363ffffffff1660e01b8152600401610740929190611693565b600060405180830381600087803b15801561075a57600080fd5b505af115801561076e573d6000803e3d6000fd5b505050505061077b610c0d565b5050565b610787610c16565b6107916000610c9d565b565b61079b610bc7565b60006004600084815260200190815260200160002090503373ffffffffffffffffffffffffffffffffffffffff168160020160009054906101000a900473ffffffffffffffffffffffffffffffffffffffff1673ffffffffffffffffffffffffffffffffffffffff1614610844576040517f08c379a000000000000000000000000000000000000000000000000000000000815260040161083b90611328565b60405180910390fd5b8060050160009054906101000a900460ff16610895576040517f08c379a000000000000000000000000000000000000000000000000000000000815260040161088c90611708565b60405180910390fd5b818160010190816108a691906115c1565b5060018160040160008282546108bc9190611728565b92505081905550506108cc610c0d565b5050565b60008060009054906101000a900473ffffffffffffffffffffffffffffffffffffffff16905090565b610901610bc7565b60006004600083815260200190815260200160002090508060050160009054906101000a900460ff16610969576040517f08c379a000000000000000000000000000000000000000000000000000000000815260040161096090611708565b60405180910390fd5b80600301543410156109b0576040517f08c379a00000000000000000000000000000000000000000000000000000000081526004016109a7906117a8565b60405180910390fd5b8060020160009054906101000a900473ffffffffffffffffffffffffffffffffffffffff1673ffffffffffffffffffffffffffffffffffffffff166108fc82600301549081150290604051600060405180830381858888f19350505050158015610a1e573d6000803e3d6000fd5b50600260009054906101000a900473ffffffffffffffffffffffffffffffffffffffff1673ffffffffffffffffffffffffffffffffffffffff1663e408e59a336003546040518363ffffffff1660e01b8152600401610a7e929190611693565b600060405180830381600087803b158015610a9857600080fd5b505af1158015610aac573d6000803e3d6000fd5b50505050813373ffffffffffffffffffffffffffffffffffffffff167f1044a33709e7d13d5dc06467769e9e8ea1ca0f1adbb5e695bc4dd53c9d627ab78360030154604051610afb9190610e60565b60405180910390a350610b0c610c0d565b50565b60065481565b600260009054906101000a900473ffffffffffffffffffffffffffffffffffffffff1681565b610b43610c16565b600073ffffffffffffffffffffffffffffffffffffffff168173ffffffffffffffffffffffffffffffffffffffff1603610bb55760006040517f1e4fbdf7000000000000000000000000000000000000000000000000000000008152600401610bac919061121a565b60405180910390fd5b610bbe81610c9d565b50565b60035481565b600260015403610c03576040517f3ee5aeb500000000000000000000000000000000000000000000000000000000815260040160405180910390fd5b6002600181905550565b60018081905550565b610c1e610d61565b73ffffffffffffffffffffffffffffffffffffffff16610c3c6108d0565b73ffffffffffffffffffffffffffffffffffffffff1614610c9b57610c5f610d61565b6040517f118cdaa7000000000000000000000000000000000000000000000000000000008152600401610c92919061121a565b60405180910390fd5b565b60008060009054906101000a900473ffffffffffffffffffffffffffffffffffffffff169050816000806101000a81548173ffffffffffffffffffffffffffffffffffffffff021916908373ffffffffffffffffffffffffffffffffffffffff1602179055508173ffffffffffffffffffffffffffffffffffffffff168173ffffffffffffffffffffffffffffffffffffffff167f8be0079c531659141344cd1fd0a4f28419497f9722a3daafe3b4186f6b6457e060405160405180910390a35050565b600033905090565b6000604051905090565b600080fd5b600080fd5b600073ffffffffffffffffffffffffffffffffffffffff82169050919050565b6000610da882610d7d565b9050919050565b610db881610d9d565b8114610dc357600080fd5b50565b600081359050610dd581610daf565b92915050565b6000819050919050565b610dee81610ddb565b8114610df957600080fd5b50565b600081359050610e0b81610de5565b92915050565b60008060408385031215610e2857610e27610d73565b5b6000610e3685828601610dc6565b9250506020610e4785828601610dfc565b9150509250929050565b610e5a81610ddb565b82525050565b6000602082019050610e756000830184610e51565b92915050565b60008060408385031215610e9257610e91610d73565b5b6000610ea085828601610dfc565b9250506020610eb185828601610dfc565b9150509250929050565b600060208284031215610ed157610ed0610d73565b5b6000610edf84828501610dfc565b91505092915050565b600081519050919050565b600082825260208201905092915050565b60005b83811015610f22578082015181840152602081019050610f07565b60008484015250505050565b6000601f19601f8301169050919050565b6000610f4a82610ee8565b610f548185610ef3565b9350610f64818560208601610f04565b610f6d81610f2e565b840191505092915050565b610f8181610d9d565b82525050565b60008115159050919050565b610f9c81610f87565b82525050565b600060c0820190508181036000830152610fbc8189610f3f565b90508181036020830152610fd08188610f3f565b9050610fdf6040830187610f78565b610fec6060830186610e51565b610ff96080830185610e51565b61100660a0830184610f93565b979650505050505050565b600080fd5b600080fd5b7f4e487b7100000000000000000000000000000000000000000000000000000000600052604160045260246000fd5b61105382610f2e565b810181811067ffffffffffffffff821117156110725761107161101b565b5b80604052505050565b6000611085610d69565b9050611091828261104a565b919050565b600067ffffffffffffffff8211156110b1576110b061101b565b5b6110ba82610f2e565b9050602081019050919050565b82818337600083830152505050565b60006110e96110e484611096565b61107b565b90508281526020810184848401111561110557611104611016565b5b6111108482856110c7565b509392505050565b600082601f83011261112d5761112c611011565b5b813561113d8482602086016110d6565b91505092915050565b6000806040838503121561115d5761115c610d73565b5b600083013567ffffffffffffffff81111561117b5761117a610d78565b5b61118785828601611118565b925050602083013567ffffffffffffffff8111156111a8576111a7610d78565b5b6111b485828601611118565b9150509250929050565b600080604083850312156111d5576111d4610d73565b5b60006111e385828601610dfc565b925050602083013567ffffffffffffffff81111561120457611203610d78565b5b61121085828601611118565b9150509250929050565b600060208201905061122f6000830184610f78565b92915050565b6000819050919050565b600061125a61125561125084610d7d565b611235565b610d7d565b9050919050565b600061126c8261123f565b9050919050565b600061127e82611261565b9050919050565b61128e81611273565b82525050565b60006020820190506112a96000830184611285565b92915050565b6000602082840312156112c5576112c4610d73565b5b60006112d384828501610dc6565b91505092915050565b7f4e6f742063726561746f72000000000000000000000000000000000000000000600082015250565b6000611312600b83610ef3565b915061131d826112dc565b602082019050919050565b6000602082019050818103600083015261134181611305565b9050919050565b7f4e487b7100000000000000000000000000000000000000000000000000000000600052602260045260246000fd5b6000600282049050600182168061138f57607f821691505b6020821081036113a2576113a1611348565b5b50919050565b7f4e487b7100000000000000000000000000000000000000000000000000000000600052601160045260246000fd5b60006113e282610ddb565b91507fffffffffffffffffffffffffffffffffffffffffffffffffffffffffffffffff8203611414576114136113a8565b5b600182019050919050565b60008190508160005260206000209050919050565b60006020601f8301049050919050565b600082821b905092915050565b6000600883026114817fffffffffffffffffffffffffffffffffffffffffffffffffffffffffffffffff82611444565b61148b8683611444565b95508019841693508086168417925050509392505050565b60006114be6114b96114b484610ddb565b611235565b610ddb565b9050919050565b6000819050919050565b6114d8836114a3565b6114ec6114e4826114c5565b848454611451565b825550505050565b600090565b6115016114f4565b61150c8184846114cf565b505050565b5b81811015611530576115256000826114f9565b600181019050611512565b5050565b601f821115611575576115468161141f565b61154f84611434565b8101602085101561155e578190505b61157261156a85611434565b830182611511565b50505b505050565b600082821c905092915050565b60006115986000198460080261157a565b1980831691505092915050565b60006115b18383611587565b9150826002028217905092915050565b6115ca82610ee8565b67ffffffffffffffff8111156115e3576115e261101b565b5b6115ed8254611377565b6115f8828285611534565b600060209050601f83116001811461162b5760008415611619578287015190505b61162385826115a5565b86555061168b565b601f1984166116398661141f565b60005b828110156116615784890151825560018201915060208501945060208101905061163c565b8683101561167e578489015161167a601f891682611587565b8355505b6001600288020188555050505b505050505050565b60006040820190506116a86000830185610f78565b6116b56020830184610e51565b9392505050565b7f496e616374697665000000000000000000000000000000000000000000000000600082015250565b60006116f2600883610ef3565b91506116fd826116bc565b602082019050919050565b60006020820190508181036000830152611721816116e5565b9050919050565b600061173382610ddb565b915061173e83610ddb565b9250828201905080821115611756576117556113a8565b5b92915050565b7f4c6f772066756e64730000000000000000000000000000000000000000000000600082015250565b6000611792600983610ef3565b915061179d8261175c565b602082019050919050565b600060208201905081810360008301526117c181611785565b905091905056fea264697066735822122079c4c0aa4f0dc56d5a46ef66a3b7453d810cd82197b834c9ba557c500cc2f2d264736f6c63430008140033",
  "linkReferences": {},
  "deployedLinkReferences": {}
}